:020000040800F2
:10000000C85E002061020008E13C0008952B000852
:100010009D3A00088B050008E14E00080000000032
:10002000000000000000000000000000A101000826
:10003000DD06000800000000FD010008654300081F
:100040007B0200087B0200087B0200087B0200089C
:100050007B0200087B0200087B0200087B0200088C
:100060007B0200087B0200087B020008A90500084B
:10007000B5050008C1050008CD050008D905000830
:10008000E5050008F10500087B0200087B02000876
:100090007B0200087B0200087B0200087B0200084C
:1000A0007B02000831440008254400087B02000858
:1000B0007B0200087B0200083D4400087B02000828
:1000C0007B0200087B0200087B0200087B0200081C
:1000D0007B0200083D4E0008514E0008654E0008A6
:1000E0007B0200087B0200087B0200087B020008FC
:1000F0007B0200087B0200087B020008FD05000867
:100100007B0200087B0200087B0200087B020008DB
:1001100045480008B1480008514400087B02000827
:100120007B02000809060008150600087B0200088B
:100130007B0200087B0200087B0200087B020008AB
:100140007B0200087B0200087B0200087B0200089B
:100150007B020008210600082D060008794E0008E1
:100160007B0200087B0200087B0200087B0200087B
:100170007B0200087B0200087B02000800000000F0
:100180007B0200087B020008DFF810D000F0CEF9F7
:1001900000480047AD570008AFF30080C85E00205C
:1001A0002C4B19680868B0E8F04F80F30988BFF35A
:1001B0006F8F4FF0000080F311887047000000003F
:1001C00008480068006880F308884FF0000080F35A
:1001D000148862B661B6BFF34F8FBFF36F8F00DF35
:1001E00000BF00BF08ED00E0DFF80C00016841F43B
:1001F00070010160704700BF88ED00E0EFF30980F7
:10020000BFF36F8F134B1A681EF0100F08BF20ED5D
:10021000108A20E9F04F106009B44FF0500080F3CD
:100220001188BFF34F8FBFF36F8F06F087FD4FF03C
:10023000000080F3118809BC19680868B0E8F04F25
:100240001EF0100F08BFB0EC108A80F30988BFF3CE
:100250006F8F704708010020EFF3058070470000A2
:100260000648804706480047FEE7FEE7FEE7FEE750
:10027000FEE7FEE7FEE7FEE7FEE7FEE715440008BF
:10028000890100082DE9F05F0546002092469B4653
:1002900088460646814640241BE02846414647469C
:1002A000224600F09FF853465A46C01A914110D397
:1002B00011461846224600F086F82D1A67EB010811
:1002C0004F4622460120002100F07DF817EB00097F
:1002D0004E41201EA4F10104DFDC484631462A4687
:1002E0004346BDE8F09F40EA01039B0703D009E0C5
:1002F00008C9121F08C0042AFAD203E011F8013B12
:1003000000F8013B521EF9D27047D2B201E000F86A
:10031000012B491EFBD270470022F6E710B51346A9
:100320000A4604461946FFF7F0FF204610BD30B5D7
:1003300004460020034600E05B1C934203D2E05CCD
:10034000CD5C401BF8D030BD0EB540F23341029178
:100350000021CDE900110A460B4600F099F803B0E0
:1003600000BD01F0004330B421F0004150EA010229
:1003700006D00A0DA2F56072C1F31301002A02DC57
:1003800030BC00207047440F44EAC104C100E018AB
:1003900030BC00EBC25000F035B830B50B4601461A
:1003A00000202022012409E021FA02F59D4205D314
:1003B00003FA02F5491B04FA02F52844151EA2F1BE
:1003C0000102F1DC30BD202A04DB203A00FA02F100
:1003D000002070479140C2F1200320FA03F3194333
:1003E00090407047202A04DB203A21FA02F00021D5
:1003F000704721FA02F3D040C2F120029140084335
:10040000194670470029A8BF7047401C490008BF23
:1004100020F00100704710B4B0FA80FC00FA0CF034
:1004200050EA010404BF10BC704749B1CCF120046C
:1004300021FA04F411FA0CF118BF012121430843F9
:10044000A3EB0C01CB1D4FEA00614FEA102042BF25
:10045000002010BC704700EBC35010440029A4BF1B
:1004600010BC7047401C490008BF20F0010010BCC0
:10047000704710B5141E73F1000408DA401C41F1F6
:10048000000192185B411A4301D120F0010010BD18
:100490002DE9F04D92469B4611B1B1FA81F202E08E
:1004A000B0FA80F220329046FFF78DFF04460F46E7
:1004B00040EA0A0041EA0B0153465A46084313D06A
:1004C000114653EA010019D0C8F140025046FFF727
:1004D00089FF05460E46504659464246FFF773FFD0
:1004E000084305D0012004E020463946BDE8F08DE0
:1004F0000020054346EAE0762C4337430A9863051B
:10050000E40AA0EB08000022FD0A44EA47540A303E
:1005100002D500200146E9E7010510196941DDE92E
:10052000084500196941BDE8F04DA2E7064C074DAA
:1005300006E0E06840F0010394E8070098471034B3
:10054000AC42F6D3FFF724FE987A0008B87A000888
:1005500030B58C1810F8012B12F00F0301D110F8F0
:10056000013B120906D110F8012B03E010F8015BE2
:1005700001F8015B5B1EF9D101E001F8013B521E5D
:10058000FBD1A142E6D3002030BDFEE7054D4FF47C
:10059000FA74204605F0CEF90421284600F07DFBD0
:1005A000F7E7000000100240014800F0F5B8000035
:1005B00074050020014800F0EFB80000B4070020E7
:1005C000014800F0E9B80000B4040020014800F040
:1005D000E3B8000014080020014800F0DDB8000076
:1005E00014050020014800F0D7B80000F4060020F0
:1005F000014800F0D1B8000054070020014800F085
:10060000CBB80000D4050020014800F0C5B80000B8
:1006100074080020014800F0BFB800003406002034
:10062000014800F0B9B80000D4080020014800F0EB
:10063000B3B800009406002001681823CAB2103A2B
:10064000B2FBF3F2054B6FF30901032A9B5CC36510
:1006500000D9091D8165084670470000B879000877
:1006600010B5014600208B698A6A4FF0C07453B1FF
:10067000B3F5005F15D072B1012A0CD0022A0AD05E
:10068000032A09D104E01AB1012A06D0022A03D1B3
:10069000C96AC90100D5012010BDC96AA142FAD0BA
:1006A00010BD002AF7D0012AF2D0022AF3D0032A83
:1006B000F3D010BD30B50468256825F48025256089
:1006C000046863608368402B036803D09960006806
:1006D000C26030BD9A600068C16030BD704772B6BC
:1006E000FEE72DE9F0410446876D00F0E3FA064687
:1006F00094F835000025022806D08020606584F833
:1007000034500120BDE8F0812068016821F0160115
:1007100001602068416921F080014161206C08B9C5
:10072000A06C20B12068016821F0080101602068F8
:10073000016821F0010101600CE000F0BBFA801BB0
:10074000052807D920206065032084F8350084F847
:100750003450D7E720680068C007EED194F85C10E9
:100760003F208840B860012084F8350084F8345078
:100770000020C7E790F83510022903D08021416599
:1007800001207047052180F835100068016821F0CC
:1007900001010160002070472DE9F84304464FF045
:1007A0000009CDF8009063484FF41651A56D00681C
:1007B000B0FBF1F72E6894F85C10082000FA01F104
:1007C00031420FD021680A6852070BD50A6822F01F
:1007D00004020A6094F85C108840A860606D40F0E4
:1007E0000100606594F85C104FF0010808FA01F010
:1007F000304208D021684969090604D5A860606DB7
:1008000040F00200606594F85C100420884030429B
:1008100008D021680968890704D5A860606D40F098
:100820000400606594F85C1010208840304218D0B5
:1008300021680968090714D5A86020680168490380
:1008400004D50068000308D5A16C07E00168C9055C
:1008500003D4016821F008010160216C09B1204630
:10086000884794F85C1020208840304231D02168BD
:100870000968C9062DD5A86094F8350005282068B8
:10088000016806D0490347D5006800031DD4616C98
:100890001CE021F0160101602068416921F080010F
:1008A0004161206C08B9A06C20B12068016821F07A
:1008B0000801016094F85C103F208840A86084F82B
:1008C000358084F83490216D1FE0E16B09B120463A
:1008D0008847606D00282BD0606DC00714D00520BC
:1008E00084F835002068016821F00101016000985A
:1008F000401C0090B84203D820680068C007F6D1B9
:1009000084F8358084F83490E16C002910D001B06F
:100910002046BDE8F04308470168C905D5D4016801
:1009200021F01001016084F8358084F83490CCE720
:10093000BDE8F883380000202DE9F041044600F0BE
:10094000B9F906465CB1022084F83500002584F828
:1009500034502068016821F0010101600DE00120A0
:10096000BDE8F08100F0A6F9801B052805D92020FC
:100970006065032084F83500F2E720680068C0074E
:10098000F0D12268116820480140D4E901031843DE
:10099000D4E903363343184363691843A369184302
:1009A000E3691843236A18430843616A042903D1A1
:1009B000D4E90B1319430843106020684069666A44
:1009C00020F0070130460E43012704280CD1A06A0D
:1009D0000643E06A40B12046FFF742FE20B14020C6
:1009E000606584F83570BAE7206846612046FFF7F5
:1009F00023FE94F85C203F2191408160656584F876
:100A000035700020ACE700003F8010F02DE9F04188
:100A10000446866D90F83400002501280DD0012091
:100A200084F8340094F835700020012F07D084F842
:100A3000340002252846BDE8F0810220FBE70227AA
:100A400084F8357060652046FFF734FE94F85C103A
:100A50003F208840B0602068016841F016010160C5
:100A6000206C20B12068016841F008010160206815
:100A7000016841F001010160DCE7000070B5044647
:100A800000F018F90546601C02D0044800780444C0
:100A900000F010F9401BA042FAD370BD2C000020DA
:100AA0002DE9F84FDFF8BCA10022012503264FF005
:100AB0000F090AF1040BAAF1040E00BF0B6805FA36
:100AC00002F42340A34270D10F7907F00307012FEE
:100AD00001D0022F16D187684FEA420806FA08FCB7
:100AE00027EA0C07D1F80CC00CFA08FC4CEA070CFA
:100AF000C0F808C04768A7430C79C4F300149440B9
:100B00003C4344600C79E443A4070AD0C4684FEA2C
:100B1000420C06FA0CF7BC438F6807FA0CF7274320
:100B2000C7600C7904F00304022C12D1D40800EB46
:100B3000840CDCF820405707FF0E09FA07F824EA76
:100B40000804D1F8108008FA07F848EA0408CCF83D
:100B5000208004684FEA420C06FA0CF7BC430F7978
:100B600007F0030707FA0CF7274307604C6814F4F3
:100B7000403F70D03C4C276847F48047276024688A
:100B800022F0030704F480440094384C07EB040C73
:100B9000DCF8084897074FEA177809FA08F7BC43CA
:100BA000334FB84202D1002724E054E0314FB8421D
:100BB00001D101271EE0304FB84201D1022719E0D0
:100BC0002E4FB84201D1032714E02D4FB84201D176
:100BD00004270FE02B4FB84201D105270AE02A4F26
:100BE000B84201D1062705E0284FB84201D10727B6
:100BF00000E0082707FA08F72743CCF80878DAF866
:100C000000405746D1F804C09C435FEACC2C00D585
:100C10001C433C60DBF800405F46D1F804C09C43B5
:100C20005FEA8C2C00D51C433C60DEF80040774620
:100C3000D1F804C09C435FEA8C3C00D51C433C6067
:100C4000084F083F3C68D1F804C09C435FEACC3CA5
:100C500000D51C433C60521C102AFFF42FAFBDE8A6
:100C6000F88F0000083C0140443802400030014049
:100C7000000002400004024000080240000C024054
:100C8000001002400014024000180240001C024004
:100C90000069084000D001207047426921EA020340
:100CA0000A4043EA0241816170470AB1816170479D
:100CB0000904FBE701488068704700002C00002011
:100CC00090F83D007047000070B5040025D094F8FE
:100CD0003D00002520B984F83C50204600F046FA3B
:100CE000242084F83D002068016821F001010160A2
:100CF0002068016841F4004101602068016821F426
:100D00000041016000F0ECFB4D4A6168914201D85E
:100D10004C4900E04C49884201D2012070BD4B494A
:100D20002368B0FBF1F15E6826F03F060E435E607B
:100D30006368934206D94FF4967359434FF47A731C
:100D4000B1FBF3F12368491C1E6A26F03F063143CC
:100D500019626168914210D84900401EB0FBF1F25F
:100D6000521CC2F30B02042A01D2042022E0B0FB81
:100D7000F1F0401CC0F30B001CE0A268F2B301EBE1
:100D8000C10303EB0116431EB3FBF6F35B1C43F4F4
:100D900080431B0549D092B301EBC10202EB011164
:100DA000401EB0FBF1F0401CC0F30B0040F480404B
:100DB00040F400402168CA694CF6FF739A4310431F
:100DC000C861D4E9071001432068026822F0C0021C
:100DD00011430160D4E9030101432068826848F2AD
:100DE000FF339A4311438160D4E905010843216828
:100DF000CA6822F0FF021043C86001E00EE016E06E
:100E00002068016841F0010101602564202084F818
:100E10003D00256384F83E50002070BD01EB410683
:100E2000431EB3FBF6F35B1CB3E70120C2E701EB03
:100E30004101401EB0FBF1F0401CC0F30B00B7E7CE
:100E4000A086010080841E0000093D0040420F0082
:100E50002DE9F84F1F4690468A460446DDF8289053
:100E6000FFF728FF054694F83D00202871D119238B
:100E7000012270492046009501F094FF0028F5D129
:100E800094F83C00012864D0012084F83C002068DC
:100E90000168C90703D1016841F0010101602068C0
:100EA000016821F400610160222084F83D001020D7
:100EB00084F83E0000262664C4F824806785608D8F
:100EC00020855D48E0622B464A465146204601F0A7
:100ED00079FE002876D1208D584F68B1012814D0B2
:100EE00002282068016816D041F480610160206802
:100EF0004169806900908EE02068416981690091B4
:100F0000016841F40071016085E02068016821F406
:100F100080610160F0E721F4806101602068016870
:100F200041F40061E2E7032846D801280AD00228EC
:100F300010D04B46002239462046009501F032FF82
:100F4000C8BB25E02A464946204601F0D1FF90BBA8
:100F500054E06CE04B46002239462046009501F0F3
:100F600021FF40BB2068016841F4007101602068E6
:100F70000069616A0870606A401C6062218D491EC8
:100F80002185618D491E618521680969017039E0FB
:100F90002068016821F48061016020680069616A4D
:100FA0000870606A401C6062208D401E2085608D44
:100FB000401E6085CEE705E02A464946204601F0FE
:100FC00097FF10B10120BDE8F88F20680069616AC1
:100FD0000870606A401C6062208D401E81B22185CD
:100FE000608D401E608520684269D243520712D44A
:100FF000032903D1016821F4806101602068006940
:10100000616A0870606A401C6062208D401E208505
:10101000608D401E6085208D002884D1202084F8BA
:101020003D0084F83E6084F83C600020CBE702205D
:10103000C9E70000020010000000FFFF04000100EB
:101040002DE9F84F1F4690468A460446DDF8289061
:10105000FFF730FE054694F83D0020287FD1192384
:10106000012240492046009501F09CFE002876D1DF
:1010700094F83C00012872D0012084F83C002068DC
:101080000168C90703D1016841F0010101602068CE
:10109000016821F400610160212084F83D001020E6
:1010A00084F83E0000262664C4F824806785608D9D
:1010B00020852D48E0622B464A465146204601F0E5
:1010C000F7FD90B9206841698069009036E02A46B2
:1010D0004946204601F044FF50B1206C042804D159
:1010E0002068016841F4007101600120BDE8F88FBB
:1010F000606A216800780861606A401C6062618DE6
:10110000491E6185218D491E89B221852268536956
:10111000DB435B070BD451B100781061606A401C5F
:101120006062608D401E6085208D401E20852A46AD
:101130004946204601F00AFE0028CED1208D002825
:10114000C5D154F83D0B016841F4007101602020C5
:1011500004F81E09E67766770020C7E7FFE702205C
:10116000C4E70000020010000000FFFF10B586B0C9
:10117000044614216846FFF7CFF8144920688842D6
:1011800021D113480021026842F002020260006887
:1011900000F0020005904FF4406000901220CDE96D
:1011A0000101032003900420049069460948FFF7D9
:1011B00077FC07481030016841F480010160006845
:1011C00000F48000059006B010BD000000580040FB
:1011D000303802400004024002488168027811441D
:1011E000816070472C0000200B4810B5016841F465
:1011F00000710160016841F480610160016841F49F
:1012000080710160032000F09FF80F2000F006F8C5
:1012100000F050F8002010BD003C024030B50546FB
:101220001F4887B00024016841F010010160006888
:1012300006A900F01000009001A800F031F9049810
:10124000A8B100F04DF940001649174AB0FBF1F182
:101250001648491E026040F2E732C0E90324C0E9A3
:101260000114846100F0B8FB040003D015E000F025
:1012700037F9E9E70D4800F031FC04000DD13620C4
:1012800000F034F8102D07D200222946362000F055
:101290003BF80748056000E0012407B0204630BD58
:1012A0004038024040420F00001000403409002046
:1012B000300000200C4882B0016841F48041016098
:1012C000006800F4804000900748001F016841F06A
:1012D000805101600068002200F0805000900F21D2
:1012E000901E02B000F010B844380240002809DB1C
:1012F00000F01F02012191404009800000F1E02030
:10130000C0F8001170470000F0B40E4B1B680C468B
:10131000C3F30223C3F10705042D00D90425191DC9
:10132000072901D2002300E0DB1E012606FA05F1A1
:10133000491E214099409E40761E16403143F0BC24
:1013400003F0F3BD0CED00E0064900F00702086869
:101350004FF6FF03184040EA0220034A104308609A
:10136000704700000CED00E00000FA052DE9F047A1
:101370000E46050065D0DFF81481D8F80000F7B2FA
:1013800000F00700B04207D288F80070D8F80000DB
:1013900000F00700B04254D128683D4C810712D5B7
:1013A000400703D5206840F4E0502060287800070B
:1013B00003D5206840F4604020602068A96820F0D0
:1013C000F000084320602878C0072DD030496868B5
:1013D0000839012812D0022813D0032811D0096837
:1013E000890700292DDA216821F0030101432160DA
:1013F000FFF760FC814641F2883A0EE009688903F4
:10140000EFE709688901ECE7FFF754FCA0EB09015D
:10141000514502D90320BDE8F0872068696800F0D3
:101420000C00B0EB810FEFD1D8F80010404601F06E
:101430000701B14207D90770006800F00700B04209
:1014400001D00120E7E72878400705D52068E96842
:1014500020F4E050084320602878000706D5206873
:10146000296920F4604040EAC100206000F058F88B
:101470002168084AC1F30311515CC840064908605D
:1014800006480068FFF7CAFE0020C4E7003C02409F
:1014900008380240C07900083800002030000020E1
:1014A0000F2202600C4A136803F0030343601368C1
:1014B00003F0F0038360136803F4E053C360126821
:1014C0004FF4E05303EAD20202610448006800F0DE
:1014D000070008607047000008380240003C0240E6
:1014E0000448054900680968044AC1F38221515C37
:1014F000C84070473800002008380240D079000802
:101500000448054900680968044AC1F34231515C46
:10151000C84070473800002008380240D0790008E1
:10152000154810B5006810F00C02144813D0144987
:10153000042A0FD0082A0ED10F4C241F22682368DA
:1015400002F03F025B0207D52068C0F38810A0FBC1
:10155000010106E0084610BD2168C1F38811A1FB16
:1015600000010023FEF78EFE2168C1F30141491CF2
:101570004900B0FBF1F010BD083802400024F4002F
:1015800000366E012DE9F84F04006ED02078DFF8A8
:101590004C93C007A9F104054AD009F10400016881
:1015A000C1F38101012908D00068C0F3810002283D
:1015B0000AD1D9F80000400206D52868800337D543
:1015C00060680028E1D033E06068B0F5803F10D05B
:1015D000B0F5A02F286810D020F48030286028684B
:1015E00020F4802028606068A8B1FFF763FB0646FE
:1015F0000DE0286840F48030F4E740F48020286053
:10160000F7E700BFFFF756FB801B642873D82868F4
:101610008003F7D50CE0FFF74DFB064605E000BF61
:10162000FFF748FB801B6428F0D828688003F7D4B4
:101630002078DFF8AC8280074FF0000A3ED5A7483B
:10164000001D016811F00C0F08D00068C0F3810084
:1016500002280BD1D9F80000400207D4286880077F
:1016600016D5E068012800D112E033E1E068B8B196
:101670000120C8F80000FFF71DFB064605E000BF8B
:10168000FFF718FB801B0228C0D828688007F7D511
:101690002868216920F0F80040EAC10028600DE0C8
:1016A000C8F800A0FFF706FB064604E0FFF702FBC0
:1016B000801B02281FD828688007F7D420780007ED
:1016C00022D5864F87486169703771B10121016069
:1016D000FFF7F0FA064604E0FFF7ECFA801B022859
:1016E00009D838688007F7D50EE0C0F800A0FFF7EA
:1016F000E1FA064605E082E0FFF7DCFA801B0228EB
:101700007DD838688007F7D42078400768D5DFF89F
:10171000CCB100270BF13C0BDBF80000C0000BD470
:10172000DBF8001041F08051CBF80010DBF800002E
:10173000012700F0805000906B4E3068C00510D437
:10174000306840F480703060FFF7B4FA009005E034
:10175000FFF7B0FA0099401A022850D83068C00547
:10176000F6D55E4EA0686C3601280FD0052830688B
:1017700010D020F001003060306820F004003060AC
:10178000A068B8B1FFF796FA00900FE0306840F01B
:101790000100F4E740F004003060F7E7FFF78AFA51
:1017A0000099411A41F28830814266D8306880073A
:1017B000F4D50EE0FFF77EFA009007E0FFF77AFA23
:1017C0000099411A41F28830814256D8306880072A
:1017D000F4D42FB1DBF8001021F08051CBF80010C9
:1017E000A069C8B33D49091D0968C1F381010229F7
:1017F0004AD00228504607D0C8F8600000E03CE01C
:10180000FFF758FA04463BE04746C8F86000FFF788
:1018100051FA064605E000BFFFF74CFA801B02288C
:101820002BD828688001F7D4D4E907010843A16ABE
:101830002E4A490802EB0141626A41EA82110843DB
:1018400094F82C1040EA0161C9F8001001203866B4
:10185000FFF730FA044606E03EE000BFFFF72AFA41
:10186000001B022809D828688001F7D534E000BFA2
:10187000FFF720FA001B022802D90320BDE8F88FE9
:1018800028688001F4D427E00128F7D0D9F80000B7
:10189000E26900F4800191421CD1226A00F03F010C
:1018A000914217D147F6C071626A0140B1EB821FC5
:1018B00010D1A26A4FF0FF3300F4403103EB520223
:1018C000B1EB024F06D194F82C1000F07060B0EB31
:1018D000016F01D00120D1E70020CFE7043802409A
:1018E00000004742800E4742007000400000FFFFAA
:1018F0007047704710B590F83C20012A22D0012291
:1019000080F83C20CA688C6822F4407222434C68FC
:1019100022F4806222430C6822F4006222430C69A4
:1019200022F4805222434C6922F400522243C969B6
:10193000002322F480420A4301684A6480F83C3064
:10194000002010BD022010BD70B590F83C20012A87
:1019500032D0012480F83C40022280F83D20036808
:101960005A689D6822F070060A6832435A60134B29
:1019700002689A4214D0B2F1804F11D0104B9A42B3
:101980000ED0104B9A420BD00F4B9A4208D00F4BFF
:101990009A4205D00E4B9A4202D00E4B9A4204D185
:1019A000496825F080031943916080F83D4000218B
:1019B00080F83C10084670BD022070BD0000014058
:1019C0000004004000080040000C004000040140FA
:1019D000004001400018004010B5040003D094F806
:1019E0003D0010B107E0012010BD002084F83C004C
:1019F000204600F01FF8022084F83D00211D2068D9
:101A000002F02CFD012084F8460084F83E0084F8A2
:101A10003F0084F8400084F8410084F8420084F8D4
:101A2000430084F8440084F8450084F83D00002019
:101A300010BD000008B501682448814217D1244830
:101A4000016841F0010101600068002200F001001E
:101A5000009005211920FFF757FC1920FFF746FCDD
:101A6000002205211A20FFF74FFC1A2029E0184810
:101A7000001FB1F1804F0BD0164A914210D101687E
:101A800041F002010160006800F00200009008BD12
:101A9000016841F001010160006800F00100F5E714
:101AA0000D4A9142F3D1016841F0040101600068E0
:101AB000002200F00400009005211E20FFF724FC06
:101AC0001E20BDE80840FFF711BC000000000140E7
:101AD00044380240000400400008004090F83D10E7
:101AE000012901D001207047022180F83D100168D2
:101AF000CA6842F00102CA6000681149884214D0E5
:101B0000B0F1804F11D00F4988420ED00E49884263
:101B10000BD00E49884208D00D49884205D00D49A6
:101B2000884202D00C49884204D1816801F0070143
:101B3000062903D0016841F00101016000207047CF
:101B4000000001400004004000080040000C00407C
:101B500000040140004001400018004070B50446F8
:101B600090F83C000025012817D0012684F83C603D
:101B7000022084F83D002068826822F0770222F477
:101B80007F4282600868502838D00DDC20284FD072
:101B900005DC90B3102811D14AE0022070BD302836
:101BA00046D040280AD13BE060282FD070280DD0C5
:101BB000B0F5805F03D0B0F5005F12D0012584F846
:101BC0003D60002084F83C00284670BDCB68D1E918
:101BD0000121206802F0B7FC2068816841F077019C
:101BE00009E0CB68D1E90121206802F0ACFC206853
:101BF000816841F480418160E1E719E0CA68496881
:101C0000206802F075FD5021206806E0CA68496826
:101C1000206802F07EFD6021206802F09EFCCEE785
:101C2000CA684968206802F063FD40212068F4E733
:101C3000226801461046F0E770472DE9F04104465E
:101C40000068C66805694FF00007A90713D5B107FA
:101C500011D5F91E01610120207720688069800775
:101C6000204602D0FFF7E8FF04E000F0F7F8204636
:101C700000F089F92777680716D5700714D5216811
:101C80006FF004000861022020772068806910F45A
:101C9000407F204602D0FFF7CFFF04E000F0DEF8DF
:101CA000204600F070F92777280715D5300713D59F
:101CB00021686FF008000861042020772068C0695F
:101CC0008007204602D0FFF7B7FF04E000F0C6F817
:101CD000204600F058F92777E80616D5F00614D507
:101CE00021686FF010000861082020772068C06923
:101CF00010F4407F204602D0FFF79EFF04E000F082
:101D0000ADF8204600F03FF92777E80708D0F00744
:101D100006D021686FF001000861204600F098F9B4
:101D2000280608D5300606D521686FF080000861C6
:101D30002046FFF7DDFD680608D5700606D5216848
:101D40006FF040000861204600F08CF9A8060AD523
:101D5000B00608D521686FF0200008612046BDE874
:101D6000F041FFF7C6BDBDE8F0810000F0B587B0D7
:101D7000044614216846FEF7CFFA324A216800254E
:101D800031480224012791420ED1016841F010012F
:101D900001600068694600F0100005904FF4D440DF
:101DA0008DE83100294847E0294A2A4EB1F1804F99
:101DB00023D0294B994243D1016841F001010160D0
:101DC000016801F001010591016841F00201016023
:101DD0000068694600F002000590C0208DE83100DF
:101DE000CDE903541046FEF75BFE03208DE8310079
:101DF000CDE903546946304620E0016841F0010115
:101E00000160016801F001010591016841F00201E2
:101E100001600068694600F00200059048F20C007D
:101E20008DE83100CDE903571046FEF739FE082052
:101E30008DE8310069463046CDE90357FEF730FEA4
:101E400007B0F0BD000001403038024000100240F1
:101E5000000002400004024000040040704770B5DA
:101E6000044690F83C0000260D4601280FD00120C2
:101E700084F83C006AB1042A1DD0082A2FD00C2A0D
:101E80003FD00126002084F83C00304670BD02207F
:101E900070BD206802F06AFB2068816941F008018A
:101EA00081612068816921F0040181612068816974
:101EB0002A69114311E0206802F088FB20688169DB
:101EC00041F4006181612068816921F48061816150
:101ED000206881692A6941EA02218161D2E720688C
:101EE00002F0AAFB2068C16941F00801C1612068C5
:101EF000C16921F00401C1612068C1692A691143E7
:101F000011E0206802F0CCFB2068C16941F4006157
:101F1000C1612068C16921F48061C1612068C16923
:101F20002A6941EA0221C161ACE710B5040003D07F
:101F300094F83D0010B107E0012010BD002084F8A6
:101F40003C00204600F01EF8022084F83D00211DD0
:101F5000206802F083FA012084F8460084F83E00ED
:101F600084F83F0084F8400084F8410084F842007F
:101F700084F8430084F8440084F8450084F83D0068
:101F8000002010BD7047704710B50446022249B1C9
:101F900004290ED0082913D094F84100012816D046
:101FA000012010BD94F83E000128F9D184F83E20AC
:101FB0000FE094F83F000128F2D184F83F2008E0B8
:101FC00094F840000128EBD184F8402001E084F827
:101FD00041200122206802F0A9FA16492068164A19
:101FE000884201D0904203D1436C43F400434364E0
:101FF0002068884213D0B0F1804F10D00F4988423A
:102000000DD00F4988420AD00E49884207D090422D
:1020100005D00D49884202D00C49884204D181681C
:1020200001F00701062903D0016841F001010160B8
:10203000002010BD000001400004014000040040E9
:1020400000080040000C0040004001400018004023
:1020500000680349884201D1FFF7BEB8704700000D
:10206000001000407047704710B504460068406992
:1020700094F84110C0F3C010212911D180B120681B
:10208000143050E8001F21F0800140E80012002ABF
:10209000F5D1A06B08B1FEF724FB204602F00BFD42
:1020A0002068406994F84210C0F38010222911D1B1
:1020B00080B12068143050E8001F21F0400140E852
:1020C0000012002AF5D1E06B08B1FEF70AFB2046AA
:1020D00002F0CAFC002010BD70470000F8B501688E
:1020E00004460868CA684B6910F00F0F4FF00005EE
:1020F00059D003F0010602F49077374365D0C10749
:1021000005D0D10503D5616C41F00101616441073F
:1021100005D5D90703D0616C41F0020161648107E4
:1021200005D5D90703D0616C41F004016164010752
:1021300007D502F02001314303D0616C41F0080162
:102140006164616C00293AD0800604D5900602D5FE
:10215000204602F0BEFC20684069616CC0F380102C
:10216000090700D460B3204602F07EFC2068406975
:10217000400621D52068143050E8001F21F04001AE
:1021800040E80012002AF5D1E06BA8B17249016560
:10219000E06BFEF7EFFA002811D0E06B016D01B0A3
:1021A000BDE8F040084783060FD593060DD52046BD
:1021B000BDE8F84002F08DBC2046FFF78DFFF8BD6A
:1021C0002046FFF789FF6564F8BD266B2023012EAA
:1021D0007ED1C6067CD5D6067AD5086848680090B8
:1021E00048694FF0020640064DD5E26B1068406822
:1021F0004FF480770004000C3AD0A18D814237D98A
:10220000E085D069B8422DD020680C3050E8001F1E
:1022100021F4807140E80012002AF5D120681430C2
:1022200050E8001F21F0010140E80012002AF5D11A
:102230002068143050E8001F21F0400140E80012EF
:10224000002AF5D184F84230256320680C3050E82C
:10225000001F21F0100140E80012002AF5D1E06BC8
:10226000FEF73FFA6663A08DE18D401A81B206E069
:10227000A18D8142A8D1D069B842A5D1666320461C
:10228000FFF7F1FEF8BDA08DE18D401A81B2E08D1F
:102290000028F7D00029F5D020680C3050E8002F36
:1022A00022F4907240E80027002FF5D12068143006
:1022B00050E8002F22F0010240E80027002FF5D15E
:1022C00084F84230256320680C3050E8002F00E08D
:1022D00006E022F0100240E80023002BF3D1CDE706
:1022E00005062BD5150629D594F841002128C9D11A
:1022F000A068B0F5805F01D12069B0B1206A411CAF
:102300002162216800784860E08C401E0004000CC7
:10231000E084B7D12068C16821F08001C1602068E5
:10232000C16841F04001C160F8BD206A0088C0F377
:1023300008004860206A801C2062E5E74006F3D56B
:102340005006F1D5CA68204622F04002CA6084F8DF
:10235000413000F025FBF8BD2149000870B50400AC
:1023600004D094F84100002510B106E0012070BDB2
:1023700084F84050204600F023F8242084F84100DF
:102380002068C16821F40051C160204602F046FC7B
:102390002068016921F4904101612068416921F0C0
:1023A0002A0141612068C16841F40051C16065643F
:1023B000202084F8410084F842006563002070BD4D
:1023C0002DE9F04F87B0044614216846FDF7A4FFBD
:1023D000FF48DFF8F8831038D4F800C0FC4A032720
:1023E00002210823002506154FF040094FF0006A2E
:1023F000C4455AD1D2F800C0AB464CF4002CC2F808
:1024000000C0126802F400220592026842F0010244
:1024100002600068CDE9007100F00100CDE90430F0
:10242000CDE902576946EB48FEF73AFBDFF8AC838B
:10243000E9494046C8F80010C0E901A5C0E90356C3
:10244000C8F81450C8F81850C8F81C50C8F82050E4
:102450005746C8F82450FEF76FFA08B1FEF73FF967
:10246000DE4DDD48C4F83C8060353030C8F8384077
:1024700085E88102C5E903B6C5F814B0C5F818B0FF
:10248000C5F81CB0C5F820B02846C5F824B0FEF742
:1024900053FA08B1FEF723F9A56300220521342081
:1024A000AC63FEF731FF342068E0DFF83483C445C5
:1024B00069D1D2F800C04CF4801CC2F800C0126888
:1024C00002F480120592026842F00402026002687F
:1024D00002F004020592026842F0080202600068FD
:1024E000884600F0080005904FF48050CDE90008C0
:1024F0000DF1080C9B468CE8A0086946B948FEF728
:10250000CFFA0420CDE900080DF10808694688E8F3
:10251000A008B548FEF7C4FAB04FAF48C03730380E
:102520003860C7E901A5C7E903567D61BD61FD615A
:102530003D6238467D62FEF7FFF908B1FEF7CFF83D
:10254000E763BC63A94FA448C7F80890C7E90356DE
:102550007D61BD61FD613D6278307D62C7E9000A41
:102560003846FEF7E9F908B1FEF7B9F8A76300228B
:1025700005213520BC63FEF7C7FE3520FEF7B6FE09
:1025800007B0BDE8F08FDFF86882DFF844E24FF073
:10259000070B0EF1040EC4454DD1DEF8003043F0B8
:1025A0001003CEF80030DEF8002002F01002059291
:1025B000026842F001020260006800F0010005902C
:1025C0004FF4C0608DE8A30869468248FEF768FAB8
:1025D000864F884860373860C7E901A5C7E90356C8
:1025E0007D61BD61FD613D6238467D62FEF7A4F903
:1025F00008B1FEF774F8E763BC637C4F7D48C037D1
:102600007830C7F80890C7E903567D61BD61FD6168
:102610003D627D62C7E9000A3846FEF78DF908B1D0
:10262000FEF75DF8A763002205212520BC63FEF7B5
:102630006BFE2520A2E7DFF8C081C44549D11368AD
:1026400043F400331360126802F40032059202680A
:1026500042F008020260006800F008000590602067
:102660008DE8A30869466048FEF71AFA5A48634F96
:1026700048303860C7E901A5C7E903567D61BD61EF
:10268000FD613D6238467D62FEF756F908B1FEF7FE
:1026900026F8E763BC63594F4F4860376030C7F88E
:1026A0000890C7E903567D61BD61FD613D627D62B1
:1026B000C7E9000A3846FEF73FF908B1FEF70FF800
:1026C000A763002205212620BC63FEF71DFE2620FD
:1026D00054E7DFF82C81C4454AD1136843F48023C2
:1026E0001360126802F480220592026842F0080228
:1026F0000260006800F0080005904FF440708DE81B
:10270000A30869463848FEF7CBF93C4F3248C0373A
:1027100018383860C7E901A5C7E903567D61BD6176
:10272000FD613D6238467D62FEF706F908B1FDF7AE
:10273000D6FFE763BC63334F2748C7F80890C7E963
:1027400003567D61BD61FD613D6218307D62C7E960
:10275000000A3846FEF7F0F808B1FDF7C0FFA7639E
:10276000002205212720BC63FEF7CEFD272005E7C8
:10277000254A94457FF404AFDEF800C04CF0200CED
:10278000CEF800C0DEF8002002F0200205920268B8
:1027900042F0040202600068049300F00400059017
:1027A000C0208DE8A30069460E48FEF779F911486C
:1027B000144F183860374FF020683860C7E901853A
:1027C000C7E903567D61BD61FD611FE0004C00401B
:1027D000403802400000024040600240B404002043
:1027E0000050004000080240000C0240D4050020C8
:1027F000001001404064024000440040F406002004
:102800000048004014080020001401403D62384692
:102810007D62FEF791F808B1FDF761FFE763BC63E5
:102820000D4F0C48C7E903567D61BD61FD613D62F6
:102830007D6287E801033846FEF77EF808B1FDF7B0
:102840004EFFA763002205214720BC63FEF75CFD15
:10285000472093E6A0640240D408002090F842305C
:10286000202B01D00220704721B11AB1002303634D
:1028700002F05ABA01207047704770472DE9F843BB
:10288000044690F84100984616460D46202802D08E
:102890000220BDE8F88385B17EB10020606421206C
:1028A00084F84100FEF706FAA6848146E684A06813
:1028B0002027B0F5805F02D003E00120E9E720691E
:1028C00010B12E4600250EE000260CE080212046A7
:1028D00002F07AFAA8B9C6B116F8010B216848606F
:1028E000E08C401EE084E08C4B464FF00002CDF8B7
:1028F00000800028EAD14FF04001204602F064FA3F
:1029000040B184F841700320C3E735F8020BC0F3EF
:102910000800E3E784F841700020BAE770B5044688
:1029200090F84100202801D0022070BD01B3FAB117
:102930002162A284E28400206064212384F8413073
:10294000A56B144BEB63A56B134B2B64A56B134B5F
:10295000EB64A36B186520681346A56B021D28461F
:10296000FEF754F830B110206064202084F8410054
:10297000012070BD21686FF04000086020681430AD
:1029800050E8001F41F0800140E80012002AF5D114
:10299000002070BD1D4A00085F4A00082F4900084A
:1029A00000680349884202D102490020087070473C
:1029B00000140140DC000020704700002DED088B62
:1029C0009FED68BADFED68AA9FED68AABEEE008AA7
:1029D000F6EE008A9FED669ADFF89891664E09F14F
:1029E0001705A5F1200400BFB6F90C0095ED000A0B
:1029F00000EE900AF8EEE00A00EE8B0A85ED000A80
:102A0000B6F90A0095ED0E0A00EE900AF8EEE00A1B
:102A100000EEAA0A85ED0E0AB6F9080095ED1C0A2B
:102A200000EE900AF8EEE00A00EE8A0A85ED1C0A34
:102A3000B6F9020000EE100AB8EEC00A20EE080A4D
:102A400085ED2C0AB6F9040000EE100AB8EEC00AB3
:102A500020EE280A85ED3A0AB6F9060095ED460AF9
:102A600000EE900AF8EEE00A00EEC90A85ED460A8B
:102A7000B5EEC00AF1EE10FA03D29FED400A85EDE3
:102A8000460A207A022802D1002002F07DFE207A38
:102A9000012806D199F80800022802D10F2002F07F
:102AA00073FE6079022816D10020DFED359ADFF839
:102AB000D4803070074600BFC7EBC70108EBC100E8
:102AC000B0EE690A80ED090A7F1CF8B202F0BAFE86
:102AD000FFB2082FF0D36079012814D199F80500CE
:102AE000022810D101203070274890ED000A2748B5
:102AF00085ED000A90ED000A254885ED0E0A90ED5F
:102B0000000A85ED1C0AA079022802D1002003F0FA
:102B1000E7FEA079012801D103F0E2FEE079022866
:102B200002D1002003F0A4FDE079012801D103F0D7
:102B30009FFD6078012803D1B3EE040A85ED380AC1
:102B40002068C4F809006068C4F80D00207A607439
:102B50003078012801D101F011F90A2004F03AF887
:102B600042E700000AD7A33BA69BC43A6F12833BFF
:102B7000ACC52737950B00204000002017B7D1388F
:102B800000000000FC0C0020C8000020CC00002049
:102B9000D0000020FEE701684A69D24352050FD4F5
:102BA0006FF480624A61002140F8301F2022427396
:102BB0008173026942F004020261017301207047CF
:102BC000002070472DE9F84F0446C06A1E46934620
:102BD0000D4621680A6842F480620A60082807D01E
:102BE000012805D010F5803F02D0206B112804D1B8
:102BF0002068016841F4807101604FF001195B4663
:102C0000002249462046009600F0CCF84FF40078A8
:102C100040B120680068C00501D5C4F84080032099
:102C2000BDE8F88F2069DFF884A0B0F5804F0FD0A1
:102C30000620216800EAD51747F0F0000861334606
:102C40005A460AF10601204600F0F4F858BB03E0AA
:102C5000E8B240F001001CE02168E8B208613346A8
:102C60005A465146204600F0E5F8E0B9206841692F
:102C700081690091016841F4807101605B46002226
:102C800049462046009600F08DF80028C1D147F053
:102C9000F1002168086133465A465146204600F04B
:102CA000C9F80028BCD00120BAE7000002000100EA
:102CB000F8B50446C06A1E460D461746082807D0D8
:102CC000012805D010F5803F02D0206B122804D1D6
:102CD0002068016841F480710160134600224FF0C2
:102CE00001112046009600F05DF840B120680068B0
:102CF000C00502D54FF4007020640320F8BD2069A0
:102D0000B0F5804F0ED00620216800EAD51040F0C3
:102D1000F000086133463A460B49204600F08AF835
:102D200078B902E005F0FE0000E0E8B22168086131
:102D3000054933463A46891F204600F07BF80028B3
:102D4000DCD00120F8BD00000800010070B5164677
:102D50000D4604461EE02046FFF71DFF08B1012086
:102D600070BD681C16D0FDF7A5FF801BA84200D8D7
:102D700085B920684069C04340070BD5002044F85E
:102D8000300F20216173A073216941F0200121617E
:102D90002073E4E720684069C0434007DBD400208B
:102DA00070BD00002DE9F047984617460D460446D1
:102DB000C1F30746DDF820902AE000BFB8F1FF3FDD
:102DC00026D0FDF777FFA0EB0901414502D8B8F105
:102DD000000F1DD12068012E16D0806925EA000061
:102DE0000004000C12D00020B84211D1002044F899
:102DF000300F20216173A073216941F0200121610E
:102E000020730120BDE8F0874069E7E70120EBE788
:102E10002068012E0AD0806925EA00000004000C19
:102E200006D00020B842C9D00020EBE74069F3E7A4
:102E30000120F7E72DE9F047984616460D4604466F
:102E40004FF000094FF0200AC1F3074723E0206844
:102E50004069C043400515D42068016841F4007101
:102E6000016021686FF480604861C4F8309084F894
:102E70003DA084F83E90216C41F00401216484F867
:102E80003C9021E0701C06D0FDF714FFA0EB080079
:102E9000B04203D816B1012F1FD021E02068012FC6
:102EA00015D0806925EA00000004000C18D000BF8E
:102EB00044F8309F84F80DA084F80E90216941F009
:102EC0002001216184F80C900120BDE8F087406961
:102ED00025EA00000004000CEAD12068406901E006
:102EE0002068806925EA00000004000CAFD1ECE7FF
:102EF0002DE9F041002590460E460446202728E0A3
:102F00004069C043C0060CD454F8301B6FF0100069
:102F1000486144F810596777A577206A20622577C1
:102F200014E0FDF7C7FEA0EB0800B04200D886B958
:102F300020684069C04340060BD544F8305F677392
:102F4000A573206940F02000206125730120BDE8B1
:102F5000F08120684169C9434906D1D40020F6E7D1
:102F600070B516460D4604461EE02046FFF713FED8
:102F700008B1012070BD681C16D0FDF79BFE801BB8
:102F8000A84200D885B920684069C04300060BD527
:102F9000002044F8300F20216173A073216941F0B3
:102FA000200121612073E4E720684069C0430006E6
:102FB000DBD4002070BD00002DE9F047A64B0022B5
:102FC0001D789FEDA60AA64EA64FDFEDA70A38E1B1
:102FD000845C552C7ED100EB020999F801A0AAF17E
:102FE0005104032C76D84FF0000C644602EB040821
:102FF000641C10F80880E4B2C4440CF0FF0C0A2CE6
:10300000F4D399F80A40644563D14C46D446BAF1EA
:10301000510F09D0BCF1520F35D0BCF1530F5AD02B
:10302000BAF1540F55D1E8E0B4F902C001EE10CA6C
:10303000B8EEC11A61EE001AB3EE001A21EE812A31
:10304000DFED8A1A22EE212A83ED042AB4F904C0A6
:1030500002EE10CAB8EEC22A22EE002A22EE012A9F
:1030600022EE212A83ED052AB4F906C002EE10CA29
:10307000B8EEC22A22EE002A22EE011A21EE211A0F
:1030800083ED061AD1E0B4F902C001EE10CAB8EE21
:10309000C11A61EE001A9FED761A61EE811AC3ED36
:1030A000071AB4F904C001EE90CAF8EEE11A61EE15
:1030B000801A61EE811AC3ED081AB9F9064001EED3
:1030C000904AF8EEE11A61EE801A21EE811A83ED42
:1030D000091AB4E0BDE0B4F902C001EE10CAB8EEBE
:1030E000C11A61EE001A9FED631A21EE812A83ED69
:1030F0000D2AB4F904C001EE90CAF8EEE11A61EEAF
:10310000801A21EE813A83ED0E3AB4F906C001EE41
:1031100090CAF8EEE11A61EE801A61EE812AC3EDE1
:103120000F2A94F809C099F8084044EA0C245C80FE
:10313000D3ED021A73EE211A93ED013A32EE432ACF
:1031400093ED033A32EEC33A32EE012AF1EE612AF0
:1031500033EE011A83ED0D2AC3ED0E2A83ED0F1A0B
:10316000D3ED111A72EE611A11EE904AB44202DDEB
:10317000DC6D641E05E011EE904ABC42DC6D01D9A5
:10318000641CDC654FF4B47C04FB0CF401EE904A43
:10319000F8EEE11A71EE821AC3ED141AC3ED152A86
:1031A000D3ED131A71EE611A11EE904AB44202DDAA
:1031B0001C6E641E05E011EE904ABC421C6E01D9E3
:1031C000641C1C664FF4B47C04FB0CF401EE904AC2
:1031D000F8EEE11A71EE811AC3ED161A83ED112A89
:1031E000C3ED122A83ED131A4DBB83ED012AC3ED03
:1031F000022A83ED031A012521E0B4F902C001EE91
:1032000010CAB8EEC11A83ED0A1AB4F904C001EE6F
:1032100010CAB8EEC11A83ED0B1AB4F906C001EE5C
:1032200010CAB8EEC11A83ED0C1AB9F9084001EEC4
:10323000104AB8EEC11AC1EE201AC3ED101A0B32B3
:1032400092B202F10A048C42FFF4C2AE1D70BDE8D6
:10325000F087521CF4E700007800002000000038DE
:1032600000008743000087C30000C842CDCC1C414A
:103270000000FA4400003443074C084E00256078F3
:10328000012805D1B6F840100448FFF795FE657097
:103290000A2003F09FFCF2E7780000206A0F00206C
:1032A00010B5402205490648FFF7D8FA04480068DF
:1032B000C16841F01001C16010BD0000AC0F0020DA
:1032C000DC030020074C084E00252078012804D19B
:1032D000318C054802F048FD2570282003F07AFC67
:1032E000F3E70000E400002040100020394808B552
:1032F000016841F480010160016801F480010091DE
:10330000016841F4001101600068002200F400101F
:10331000009005210B20FDF7F7FF0B20FDF7E6FFDE
:10332000002205210C20FDF7EFFF0C20FDF7DEFF4A
:10333000002205210D20FDF7E7FF0D20FDF7D6FF48
:10334000002205210E20FDF7DFFF0E20FDF7CEFF46
:10335000002205210F20FDF7D7FF0F20FDF7C6FF44
:10336000002205211020FDF7CFFF1020FDF7BEFF42
:10337000002205211120FDF7C7FF1120FDF7B6FF40
:10338000002205212F20FDF7BFFF2F20FDF7AEFF04
:10339000002205213920FDF7B7FF3920FDF7A6FFF0
:1033A000002205213A20FDF7AFFF3A20FDF79EFFEE
:1033B000002205214520FDF7A7FF4520FDF796FFD8
:1033C000002205214620FDF79FFFBDE8084046206A
:1033D000FDF78CBF3038024010B500F0BDFC00F0A6
:1033E0005FFB00F0A7FC01F04DFDFFF759FF03F074
:1033F000ABFA264A0021264802F0D8FA254C234A87
:10340000002160622432244802F0D0FA1F4AA062F0
:10341000483A0021214802F0C9FA1C4AE061D83A32
:1034200000211F4802F0C2FA184AE060B43A0021B5
:103430001C4802F0BBFA154A2061903A00211A4854
:1034400002F0B4FA114A60616C3A0021174802F0A8
:10345000ADFAA061164A0021164802F0A7FA144AF4
:10346000606024320021144802F0A0FA104AA060E3
:10347000243A0021114802F099FA044A2060243AC3
:1034800000210F4802F092FA206210BD7079000806
:1034900055420008000000208D050008BD290008E5
:1034A00079320008C5320008F5420008D941000809
:1034B00050780008A14100080D3D0008A16D0008EA
:1034C000A94E00082DE9F04786B014216846FCF7A4
:1034D00023FF4B480025016841F01001016001689D
:1034E00001F010010591016841F0040101600168DB
:1034F00001F004010591016841F08001016001685B
:1035000001F080010591016841F00101016001684D
:1035100001F001010591016841F0020101600168BB
:1035200001F002010591016841F0080101600068A5
:10353000344E00F008000590002204213046FDF7CB
:10354000B4FB314F01220A213846FDF7AEFBDFF80C
:10355000BC80012220214046FDF7A7FBDFF8B09098
:10356000012211464846FDF7A0FB002202214846F1
:10357000FDF79BFBDFF89CA00022C0215046FDF721
:1035800094FB042001248DE8310069463046039500
:10359000FDF786FA05203601CDE90006694602945A
:1035A0003846FDF77DFA0A20CDE900046946384621
:1035B000CDE90245FDF774FA1020CDE90006694611
:1035C00002944046FDF76CFA2020CDE900046946DC
:1035D0004046CDE90245FDF763FA03208DE831004E
:1035E000694648460395FDF75BFAC0208DE8310037
:1035F000694650460395FDF753FA06B0BDE8F087DB
:103600003038024000100240000802400000024032
:10361000000C0240000402400D4810B50B49016047
:103620000C49416000214FF480428160C0E90312DF
:1036300041618161C1610162FDF746FB002803D051
:10364000BDE81040FDF74BB810BD00000058004029
:1036500090010020A086010010B596B000240F94C0
:1036600010941194129413941C2168461494FCF73E
:1036700053FE202107A8FCF74FFE3548334901606F
:1036800040F23F61C0E9011440F2CF71C0E9031478
:1036900044618461FEF7A0F908B1FDF720F84FF40A
:1036A00080500F900FA92A48FEF758FA08B1FDF78D
:1036B00016F82748FEF739FC08B1FDF710F8139407
:1036C00013A923481494FEF73FF908B1FDF707F852
:1036D0006020CDE900040294039404940594002230
:1036E00069461B480694FEF7BAFB08B1FCF7F7FFE2
:1036F000042269461648FEF7B2FB08B1FCF7EFFF5B
:10370000082269461248FEF7AAFB08B1FCF7E7FF5A
:103710000C2269460E48FEF7A2FB08B1FCF7DFFF5A
:103720000794089409944FF400500A94CDE90B4093
:1037300007A907480E94FEF7DDF808B1FCF7CFFFA4
:103740000348FEF713FB16B010BD00000000014057
:10375000E401002010B58EB0002407940894099469
:103760000A940B941C2168460C94FCF7D5FD2A485A
:103770004FF08041016040F21F31C0E9011440F276
:10378000CF71C0E903148461FEF726F908B1FCF794
:10379000A6FF4FF48050079007A91F48FEF7DEF9F7
:1037A00008B1FCF79CFF1C48FEF7BFFB08B1FCF713
:1037B00096FF0B940BA918480C94FEF7C5F808B1B6
:1037C000FCF78DFF6020CDE90004029400226946D9
:1037D00011480494FEF743FB08B1FCF780FF042274
:1037E00069460D48FEF73BFB08B1FCF778FF08225D
:1037F00069460948FEF733FB08B1FCF770FF0C225D
:1038000069460548FEF72BFB08B1FCF768FF024844
:10381000FEF7ACFA0EB010BD2C02002010B58EB031
:1038200000240794089409940A940B941C21684678
:103830000C94FCF771FD2B482949016040F21F31BF
:10384000C0E9011440F2CF71C0E903148461FEF7AE
:10385000C3F808B1FCF743FF4FF48050079007A965
:103860002048FEF77BF908B1FCF739FF1D48FEF749
:103870005CFB08B1FCF733FF0B940BA919480C94BF
:10388000FEF762F808B1FCF72AFF6020CDE90004DA
:1038900002940022694613480494FEF7E0FA08B146
:1038A000FCF71DFF042269460E48FEF7D8FA08B15E
:1038B000FCF715FF082269460A48FEF7D0FA08B15E
:1038C000FCF70DFF0C2269460648FEF7C8FA08B15E
:1038D000FCF705FF0348FEF749FA0EB010BD0000E3
:1038E000000400407402002010B586B00024164881
:1038F0000094019402940394049412490594C0E93D
:1039000000144521C0E9024104618461FEF764F8B6
:1039100008B1FCF7E4FE4FF48050009069460A4875
:10392000FEF71CF908B1FCF7DAFE049404A9064876
:103930000594FEF709F8002801D0FCF7D0FE06B088
:1039400010BD000000080040BC0200200C4810B56B
:103950000A4901604FF416514160002181600C2238
:10396000C160C0E904128161C161FEF7F7FC002863
:1039700003D0BDE81040FCF7B2BE10BD004C0040C3
:10398000040300200C4810B50A4901604FF4E131EE
:103990004160002181600C22C160C0E90412816194
:1039A000C161FEF7DBFC002803D0BDE81040FCF746
:1039B00096BE10BD005000404C0300200C4810B5CE
:1039C0000A4901604FF4E1314160002181600C221D
:1039D000C160C0E904128161C161FEF7BFFC00282B
:1039E00003D0BDE81040FCF77ABE10BD00100140C6
:1039F000940300200C4810B50A4901604FF4165199
:103A00004160002181600C22C160C0E90412816123
:103A1000C161FEF7A3FC002803D0BDE81040FCF70D
:103A20005EBE10BD00440040DC0300200C4810B511
:103A30000A4901604FF4E1314160002181600C22AC
:103A4000C160C0E904128161C161FEF787FC0028F2
:103A500003D0BDE81040FCF742BE10BD0048004056
:103A6000240400200C4810B50A4901604FF4E131EC
:103A70004160002181600C22C160C0E904128161B3
:103A8000C161FEF76BFC002803D0BDE81040FCF7D5
:103A900026BE10BD001401406C040020FEE70000AB
:103AA0009FED340A3448DFED350A0021C1EBC10235
:103AB00000EBC202491C82ED0A0AC9B2C2ED050A36
:103AC0000329F3D35FF00301C1EBC10200EBC20293
:103AD000491C82ED0A0AC9B2C2ED050A0629F3D3D0
:103AE000B3EE040A80ED060AB2EE040A80ED140A71
:103AF0009FED230AF6EE000A80ED220AB2EE0E0ACE
:103B000080ED300A80ED3E0A80ED4C0A9FED1D0AE3
:103B10001E4980ED070A80ED150A80ED230A80ED2D
:103B2000310A80ED3F0AC0ED4D0AF0EE000AC0ED0B
:103B3000080A80ED160A80ED240A80ED320A80ED35
:103B4000400AC0ED4E0A9FED100A0020C0EBC002F3
:103B500001EBC202401C82ED0A0A0828F6DB064887
:103B60009FED0B0A0C3880ED020AB1EE040A80ECDE
:103B7000020A704700001644AC0B00200000C84247
:103B800000000C420000000000007A44FC0C002001
:103B9000000020422DE9F0410026504D374600BF7D
:103BA00006EBC60000EB461005EB800494F8A0106D
:103BB00031B1012927D0022944D0032922D14FE075
:103BC000B4F85820002A1DD034F8561F4FF0140CBA
:103BD0004B19491C0CEB800C218013F80C3084F835
:103BE0004C3001F03F012180521E628084F84B70FE
:103BF00034F8521C55F820000022FDF756F8012039
:103C000084F84A0062E094F8A110491CC9B284F813
:103C1000A11008290DD894F8A220491ECA4012F01C
:103C2000010F01D0012200E00022A18855F82000F8
:103C300005E0092948D1A18855F820000122FDF7A7
:103C400034F843E094F8A100401CC0B284F8A1000D
:103C500001283BD184F8A170032084F8A00035E04E
:103C600094F8A110491CC9B284F8A11008290DD8F4
:103C7000A189A068FDF70CF894F8A12094F8A2108F
:103C8000521E9040014384F8A2101FE009291DD064
:103C9000B4F89E10402917D2B4F89A104FF05A0C7D
:103CA0004B1994F8A2200CEB8000491CA4F89A1040
:103CB0001A5494F89A0000F03F00A4F89A00B4F85F
:103CC0009E00401CA4F89E0084F8A070761CF6B2FA
:103CD000022EFFF465AFBDE8F081000084100020E3
:103CE000FEE7F0B50D4606460C290ED30024AF1EA4
:103CF00009E0305DFF2804D1281B81B2301901F0A2
:103D00009BFE641CE4B2BC42F3DBF0BD074C084EE2
:103D100000252078012805D1B6F800110448FFF7E6
:103D2000E0FF25700A2002F055FFF2E73C0000207A
:103D30007C0A002010B5202205490648FEF78EFDBA
:103D400004480068C16841F01001C16010BD000066
:103D5000621000200403002010B54FF48072054962
:103D60000548FEF77BFD04480068C16841F010017A
:103D7000C16010BD7C0900202404002070B5F94802
:103D8000FB4D00212DED048B86B06A4690ED000AB4
:103D9000F5488DED000A90ED000AF4488DED010A1A
:103DA00090ED000A8DED020A02EB810090ED000A11
:103DB000C1EBC10005EBC00080ED010AD0ED000AA7
:103DC00070EEC00AC0ED020A90ED040A30EE200A3F
:103DD00080ED040A90ED051AB4EEC10AF1EE10FA76
:103DE00006DCB1EE411AB4EEC10AF1EE10FA01D2CE
:103DF00080ED041A90ED060A90ED071AD0ED041A32
:103E000020EE200A01EE210A90ED031AD0ED081AE7
:103E100030EEC11A01EE810A80ED090A90ED0A1A0E
:103E2000B4EEC10AF1EE10FA06DCB1EE411AB4EEBE
:103E3000C10AF1EE10FA01D280ED091A491CC9B28B
:103E4000C0ED030A0329AFD35FF00301C1EBC1004A
:103E500005EBC000D0ED020A90ED060A90ED031AC2
:103E6000D0ED081A20EE200A30EEC11A01EE810AC8
:103E700080ED090A90ED0A1AB4EEC10AF1EE10FACB
:103E800006DCB1EE411AB4EEC10AF1EE10FA01D22D
:103E900080ED091A491CC9B2C0ED030A0529D5D322
:103EA000B44890ED000A85ED470AD5ED460A30EE9C
:103EB000C00ADFEDB10A20EE200A85ED480AD5EDF3
:103EC0004A0A70EE800AC5ED4A0A95ED4B1AF4EEE7
:103ED000C10AF1EE10FA06DCB1EE411AF4EEC10AA5
:103EE000F1EE10FA01D285ED4A1AD5ED4C0A95EDA6
:103EF0004D1AD5ED4A1A60EE800A41EE210A95ED81
:103F0000491AD5ED4E1A30EE411A41EE810AC5ED3F
:103F10004F0A95ED501AF4EEC10AF1EE10FA06DCE4
:103F2000B1EE411AF4EEC10AF1EE10FA01D285EDBC
:103F30004F1A85ED490A95ED4F0A904CF7EE008A2D
:103F4000B1EE400A85ED4F0AC4ED048AC4ED058A3E
:103F5000C4ED068A8A4EC4ED078AC4ED088A96ED40
:103F6000000A884910EE102A8748B6EE009A9FEDA5
:103F7000878A8A4236D210EE102A824232DA00F064
:103F8000E5FFB5EEC00AF1EE10FA96ED000A02DD8B
:103F900000F0DCFF03E000F0D9FFB1EE400AF0EEE4
:103FA000490A40EE090AC4ED050AC4ED068A96EDF9
:103FB000000A00F0CBFFB5EEC00AF1EE10FA96ED64
:103FC000000A02DD00F0C2FF03E000F0BFFFB1EE27
:103FD000400AF0EE490A40EE090AC4ED070AC4EDB2
:103FE000088A44E010EE102A824203DC10EE100A28
:103FF000884234D900F0AAFFB5EEC00AF1EE10FAFB
:1040000096ED000A02DD00F0A1FF03E000F09EFF44
:10401000B1EE400AFEEE008AFFEE009AF0EE680A6A
:1040200040EE490AC4ED050AC4ED069A96ED000A71
:1040300000F08CFFB5EEC00AF1EE10FA96ED000A22
:1040400002DD00F083FF03E000F080FFB1EE400AE4
:1040500040EE498AC4ED078AC4ED089A07E084ED72
:10406000058A84ED068A84ED078A84ED088A48482B
:1040700048490068884202DC4749884209D984EDF2
:10408000048A84ED058A84ED068A84ED078A84ED2E
:10409000088A95ED093AD4ED042AD5ED170A94ED76
:1040A000052A23EE221A95ED4F0AD4ED071A3B4E4E
:1040B000F0EE413A02EE601A42EE203A01EE801A2A
:1040C00041EE803AC6ED093A60EE823A42EEC33ADA
:1040D00041EE803AC6ED173A86ED251A22EEC31A54
:1040E00002EE601A01EE801A86ED331A95ED251A5C
:1040F00094ED062A95ED330AD4ED081A62EE410AD2
:104100005FF0000470EEC02AD5ED410A41EEE02ACE
:10411000C6ED412AF0EE402A52EE012A41EEA02AD5
:10412000C6ED4F2AF0EE402A02EE410A42EE012A85
:1041300001EEA00A41EEE02AC6ED5D2A86ED6B0A8B
:10414000C4EBC40006EBC000641C90ED090AE0B2A9
:1041500001F078FBE4B2082CF2D306B0BDEC048B7E
:1041600070BD0000C8000020CC000020D00000205E
:10417000AC0B0020EC0000200000C84240000020F2
:10418000AC0000200000B4C20000B44200000000F7
:10419000B00000200000A0420000A0C2FC0C0020E3
:1041A000A12001F0C1F9322002F014FDA22001F09B
:1041B000BBF9322002F00EFDA32001F0B5F9322048
:1041C00002F008FDA42001F0AFF9322002F002FD58
:1041D000C82002F0FFFCE3E71C4C1D4D0026607870
:1041E000401CC0B260700A2800D36670A078012815
:1041F00028D1A67068788C2802D08D280ED021E0B6
:10420000288C07281ED3B5F8030040BA00EE100A28
:104210000120B8EE400A84ED010A12E0B5F803006F
:1042200040BA00EE100AB8EE400A84ED010AB5F873
:10423000050040BA00EE100A0220B8EE400A84EDF4
:10424000020A2070642002F0C5FCC8E7FC000020D0
:10425000CC110020012001F06DFBFBE71FB5002011
:10426000019002905C208DF80C0024208DF80D0048
:104270006424022303AAE02118480094FCF7E0FE1E
:10428000002829D1062301AAE12114480094FCF753
:10429000DFFDBDF80400DFED120A40BA00EE100A9F
:1042A000BDF80700B8EE401A40BA00EE100A0E48FA
:1042B000C1EE201A9FED0B1AB8EE400A21EE811ACA
:1042C00080ED011A80EE201ADFED080A9FED080A42
:1042D00011EE200A80ED000A1FBD000090010020B1
:1042E00000FF7F470000C842F400002000002F4379
:1042F000000034424FF47A74FFF7B0FF204602F01A
:1043000069FCF9E710B543F2175000F007F8BDE873
:1043100010404FF47A70FCF7B1BB00001CB5010AE5
:104320008DF804108DF805004FF47A700090022388
:1043300001AAE0210748FCF783FE18B1282106A056
:1043400000F0D0FD0348FCF7BBFC2028FAD1002088
:104350001CBD00009001002065727220284C3D2594
:1043600064290A0010B54FF0E020006903F0A8F8B6
:10437000012803D0BDE8104002F0D6BD10BD0000FA
:1043800030B593B030216846FBF7C6FF14210CA866
:10439000FBF7C2FF1D480025016841F08051016014
:1043A000006800F0805011901948016841F4804184
:1043B00001600068022400F4804011900120009008
:1043C000000401908001CDE906400C200890A02057
:1043D000CDE9090404200B906846FDF7D3F808B135
:1043E00072B6FEE70CA90F2081E831004FF4A0500F
:1043F0000F904FF48050109005210CA8FCF7B6FFE9
:10440000002801D072B6FEE713B030BD403802403C
:10441000007000400248016841F47001016070477B
:1044200088ED00E00148FDF708BC0000E401002031
:104430000148FDF702BC0000E401002010B5FFF7C1
:10444000A9FBBDE810400148FDF7F7BBBC02002006
:104450000148FDF7F2BB000034090020F0B5026806
:10446000274B284D284E294F294C4FF0804C98421D
:1044700009D0604507D0A84205D0B04203D0B84269
:1044800001D0A04204D122F0700E4A6842EA0E0226
:1044900098421BD0604519D0A84217D0B04215D021
:1044A000B84213D0A04211D01A4DA8420ED01A4DD6
:1044B000A8420BD0194DA84208D0194DA84205D0EA
:1044C000184DA84202D0184DA84203D122F44075DD
:1044D000CA682A434D6922F080022A438D68C5626A
:1044E0000D688562984201D0A04201D1096901633B
:1044F000016841F004010160012141610260F0BDE9
:10450000000001400004004000080040000C004092
:1045100000040140004001400044014000480140C7
:1045200000180040001C00400020004010B501F0C1
:104530001F030121046A99408C430462016A9A4076
:104540001143016210BD10B5846842EA032224F4CD
:104550007F440A432243826010BD826822F07002C9
:104560000A4342F00701816070470000F0B5036A1A
:10457000026A22F00102026242688469124E24F04B
:1045800073050C682C4323F002058B682B430D4DFB
:10459000A84201D0B04205D123F00807CB683B43C5
:1045A00023F00403A84201D0B04205D14D6922F4A2
:1045B000407215438A692A434260846149684163B5
:1045C0000362F0BD0000014000040140F0B5026A42
:1045D000036A23F010030362436884690D6824F4BE
:1045E000E64444EA05248D6822F0200242EA0512DE
:1045F0000F4D104EA84201D0B04206D1CF6822F034
:10460000800242EA071222F04002A84201D0B042E2
:1046100007D14D6923F4406343EA85038D6943EA7A
:10462000850343608461496881630262F0BD0000D4
:104630000000014000040140F0B5026A036A23F45F
:10464000807303624368C46922F4007224F0730526
:104650000C68124E2C438D6842EA05220E4DA8428A
:1046600001D0B04206D1CF6822F4006242EA0722AC
:1046700022F48062A84201D0B04207D14D6923F4F0
:10468000405343EA05138D6943EA05134360C4614F
:104690004968C1630262F0BD0000014000040140AE
:1046A00030B5046A026A22F4805202624268C36929
:1046B0000D6823F4E64343EA05238D6824F400548F
:1046C00044EA0534084DA84202D0084DA84204D15E
:1046D0004D6922F4804242EA85124260C361496812
:1046E0000164046230BD000000000140000401408C
:1046F00010B5036A046A24F001040462846924F09A
:10470000F00444EA021423F00A020A4384610262BC
:1047100010BD10B5036A046A24F0100404628469B1
:1047200023F0A00324F4704444EA023243EA011166
:104730008261016210BD000038B5104C206801682C
:10474000C90619D50168406800902046FDF78CFC29
:10475000E06B006840680A49C0F1200080B28A78A6
:104760001AB9084A108401208870BDE83840202218
:1047700004490248FEF772B838BD000094030020D7
:10478000FC000020CC11002038B5134C20680168D3
:10479000C9061FD50168406800902046FDF764FCFB
:1047A000E06B006840680D4CC0F1400082B2607858
:1047B00040B90B4800F14201A0F84020FBF793FDFF
:1047C00001206070BDE8384005494022423102486E
:1047D000FEF744B838BD0000DC030020780000205C
:1047E0006A0F002038B5134C20680168C9061FD530
:1047F0000168406800902046FDF736FCE06B0068D9
:1048000040680D4CC0F5807082B2207840B90B48EA
:10481000A0F58071A0F80021FBF765FD0120207054
:10482000BDE838404FF4807205490248FEF716B8DB
:1048300038BD0000240400203C0000207C0A002039
:104840007C09002010B500F007F8BDE810400148D1
:10485000FDF744BC0403002038B5124C2068016801
:10486000C9061ED50168406800902046FDF7FCFB94
:10487000E06B006840680C4CC0F1200082B22078E8
:1048800038B90A4800F122010284FBF72CFD01200F
:104890002070BDE838400549202222310148FDF74B
:1048A000DDBF38BD04030020E400002040100020DC
:1048B00010B500F007F8BDE810400148FDF70EBC48
:1048C0004C03002038B5134C20680168C9061FD579
:1048D0000168406800902046FDF7C6FBE06B006869
:1048E00040680D4CC0F1400082B2207840B90B48BE
:1048F00000F14201A0F84020FBF7F5FC01202070F8
:10490000BDE838400549402242310248FDF7A6BFC4
:1049100038BD00004C03002064000020E80E002099
:1049200010B5806B0021C185FDF7D6FB10BD70B5B9
:10493000846B2068406994F84110C0F3C0100025D2
:10494000212904D118B1E584204600F0B4F820688C
:10495000406994F84210C0F38010222904D118B1A4
:10496000E585204600F080F8606C40F0100060643F
:104970002046FDF7B1FB70BD10B50146806B09689C
:1049800009684FF00002C9052ED4C28501680C31B8
:1049900051E8003F23F4807341E80034002CF5D146
:1049A0000168143151E8003F23F0010341E800346D
:1049B000002CF5D10168143151E8003F23F0400389
:1049C00041E80034002CF5D1202180F84210016B21
:1049D000012909D101680C3151E8003F23F010038F
:1049E00041E80034002CF5D14263016B012902D06B
:1049F000FDF742FF10BD818DFDF735FB10BD10B5F1
:104A0000806B01214163016B012902D0FDF735FF65
:104A100010BD818D4908FDF726FB10BD10B501467C
:104A2000806B09680968C90516D40021C184016832
:104A3000143151E8002F22F0800241E80023002BBE
:104A4000F5D101680C3151E8002F42F0400241E8F5
:104A50000023002BF5D110BDFDF7A2FF10BD10B54E
:104A6000806BFDF7A9FF10BD01680C3151E8002FE4
:104A700022F4907241E80023002BF5D10168143133
:104A800051E8002F22F0010241E80023002BF5D16C
:104A9000016B012909D101680C3151E8002F22F086
:104AA000100241E80023002BF5D1202180F84210AC
:104AB00000210163704701680C3151E8002F22F09A
:104AC000C00241E80023002BF5D1202180F84110DD
:104AD000704708B590F84210222901D0022008BD85
:104AE00082684FF480539A4201D1016921B1816AF1
:104AF0009A421BD04AB10AE00268816A5268C2F346
:104B000008020A80816A891C08E0026972B10268A1
:104B1000526802F07F020A70816A491C8162C18D6D
:104B2000491E0904090CC18503D01BE002685268C4
:104B3000F1E70168CA6822F02002CA600168CA6809
:104B400022F48072CA6001684A6922F001024A6157
:104B5000202180F8421000214163026B012A03D01A
:104B6000FDF78AFE002008BD016301680C3151E8A1
:104B7000002F22F0100241E80023002BF5D101683C
:104B80000A68D20602D50A6849680091818DFDF74E
:104B90006AFAE7E70FB42DE9F041DFF8748098F87E
:104BA00000009DF81870401E384227D0142F25D8D9
:104BB00007AD184C00260CE0ED1D25F00705B5ECFF
:104BC000020B51EC100BFBF7CCFB761C44F8040BEA
:104BD000F6B2BE42F0D3002004F8010B0D4904F8F0
:104BE000010B802004F8020B7F2004F8010C094817
:104BF000201A82B20848FDF791FE20B10020BDE8DE
:104C0000F0015DF814FB012188F800100846F6E772
:104C1000DC000020EC0F00206C04002070B504467E
:104C200000680169E26821F4405111430161216982
:104C3000A068E26908436169114308432168CA68B2
:104C400049F20C639A430243CA6020684169A26931
:104C500021F440711143416131492068884202D0FA
:104C60003049884202D1FCF74BFC01E0FCF738FCEC
:104C7000E2690023192164253226B2F5004F6268EB
:104C800028D0A0FB0101930F9200FBF7FBFA01462D
:104C9000B0FBF5F06FF01802504301EB800006EB1B
:104CA0000010B0FBF5F000F0F002B1FBF5F002EB04
:104CB0000012B1FBF5F06FF01803584301EB8000D0
:104CC00006EB0010B0FBF5F000F00F002168104477
:104CD000886070BDA0FB010192185B41FBF7D2FA1E
:104CE0000146B0FBF5F00201B1FBF5F06FF01803DF
:104CF000584301EB800006EBC000B0FBF5F000F07C
:104D0000F80002EB4002B1FBF5F0584301EB8000E4
:104D100006EBC000B0FBF5F000F00700D6E700009E
:104D2000001001400014014038B5816204468285BC
:104D3000002013466064222284F84220E56B1F4A5B
:104D4000EA63E56B1E4A2A64E56B1E4AEA64E26B7D
:104D500010650A462168E06B091DFBF757FE30B16C
:104D600010206064202084F84200012038BD2068B3
:104D7000016840680090206948B120680C3050E814
:104D8000001F41F4807140E80012002AF5D120682C
:104D9000143050E8001F41F0010140E80012002AE1
:104DA000F5D12068143050E8001F41F0400140E880
:104DB0000012002AF5D1002038BD00007949000812
:104DC000FF4900082F4900082DE9F8439846174687
:104DD0000D460446089E24E0701C22D0FBF76AFFB3
:104DE000A0EB0800B0421AD8CEB12068C1684907CC
:104DF00017D5802D15D0402D13D00168C943090760
:104E00000FD401680025406800902046FFF72CFE73
:104E10000820606484F840500120BDE8F883032036
:104E2000FBE72068006835EA000004D00020B842A3
:104E3000D2D00020F1E70120F9E7000010B5FFF71C
:104E40007BFCBDE810400148FDF748B99403002001
:104E500010B5FFF799FCBDE810400148FDF73EB9D9
:104E6000DC03002010B5FFF7BDFCBDE81040014891
:104E7000FDF734B9240400200148FDF72FB90000E4
:104E80006C04002010B5402205490648FDF7E6FCF9
:104E900004480068C16841F01001C16010BD000005
:104EA0002A0F00204C030020012000F021FD0949B9
:104EB0000220094C094E087200252078012805D1EE
:104EC00096F84010054800F0ADFE25700A2001F06C
:104ED00081FEF2E78C0B002064000020E80E002029
:104EE000FEE700000FB4054B10B503A9044A029871
:104EF00000F070FA10BC5DF814FB00007157000858
:104F0000880100204100080218BF04200A0E18BFC3
:104F100040F001004FF07F4232EA010108BF40F04B
:104F20000200012808BF052070470907090E002864
:104F300004DB00F1E02080F80014704700F00F005F
:104F400000F1E02080F8141D7047000010EE101AE8
:104F500008B5444A6846B2EB410F28D94FF0E64005
:104F6000B0EB410F94BF00204FF0FF30009000984D
:104F7000002861DB60EE000A10F0010F45D010F050
:104F8000020FDFED391A9FED391A00EEE11ADFED5D
:104F9000381A40EE811A21EEA01AF0EE400A40EED7
:104FA000010A08BFF1EE600AB0EE600A08BD314B9D
:104FB00021F0004293423CD911F0004FDFED2E0A60
:104FC00020EE201ADFED2D0A19BF31EE601A71EEC6
:104FD000200A31EE201A71EE600ABDEEE01A11EEE1
:104FE000100A9FED271A00F0030000EEC10A9FEDA2
:104FF000251A009000EEC10A9FED231A00EEC10AA7
:105000009FED221A00EEC10AB1E79FED211A9FED34
:10501000210A10F0020F00EE810A9FED1F1A00EE28
:10502000801AB7EE000A00EE810A18BFB1EE400AFE
:1050300008BD00F00FF99AE710EE100A4000B0F139
:105040007F4F3CBFB7EE000A08BD07D14FF001000B
:1050500000F0BAF9BDE8084000F0ECB8BDE808403F
:1050600000F0E4B8B61F927E336D4C39DA82083C0A
:10507000A0AA2ABE490E494683F9223F0000004BF0
:105080000000C93F00A0FD390020A2331A61342C72
:10509000B93AB2BACA9F2A3DDDFFFFBE00B510EE95
:1050A000101A2DED028B81B0524A6846B2EB410FC7
:1050B0002ED94FF0E640B0EB410F94BF00204FF0E7
:1050C000FF3000900098B0EE408A00286ADB10F0B4
:1050D000010F4BD068EE080A9FED471A9FED470A73
:1050E00000EE810A9FED461A10F0020F00EE801AC2
:1050F000B7EE000A00EE810A02BF01B0BDEC028BE0
:1051000000BD00BF01B0B1EE400ABDEC028B00BD96
:105110003C4B21F00042934241D911F0004FDFEDAA
:105120003A0A20EE201ADFED390A19BF31EE601A73
:1051300071EE200A31EE201A71EE600ABDEEE01A1F
:1051400011EE100A9FED321A00F0030000EEC10AC2
:105150009FED301A009000EEC10A9FED2F1A00EE6D
:10516000C10A9FED2E1A00EEC10AABE728EE080A2D
:105170009FED2B1ADFED2B0A10F0020F40EE410AD3
:105180009FED291A00EE201A61EE000AB0EE480ADF
:1051900008EE200AB6D101B0BDEC028B00BD00F0D4
:1051A00059F88FE718EE100A4000B0F17F4F0DD28A
:1051B00018EE100AFFF7A6FE042808BF00F042F818
:1051C000B0EE480A01B0BDEC028B00BD09D1012050
:1051D00000F0FAF801B0BDEC028B5DF804EB00F0D2
:1051E00029B801B0B0EE480ABDEC028B5DF804EBC3
:1051F00000F01CB8B61F927EB93AB2BACA9F2A3DD7
:10520000DDFFFFBE490E494683F9223F0000004BF7
:105210000000C93F00A0FD390020A2331A61342CE0
:10522000336D4C39DA82083CA0AA2ABE30EE000A5F
:1052300070470000DFED020A80EEA00A7047000010
:10524000000000009FED020A20EE000A70470000F7
:10525000000000102DE9F0014FF07F42B2EB410F4A
:105260009FBF4FF0FF310160BDE8F00170474FF084
:10527000004242EA0123C1F3C752783A551112F0B5
:105280001F0C434CCCF120067C44C1F3C752A2F161
:1052900078024FEA621204EB820254F8254008BFFC
:1052A000D2E9015612D0556804FA0CF425FA06F733
:1052B0003C43976805FA0CF527FA06F8D26807FA16
:1052C0000CFCF24045EA08054CEA0206A4FB034C3C
:1052D000A5FB0352A6FB03631D449D4234BF012678
:1052E00000261319334416B1934202D903E09342C6
:1052F00001D2012200E00022624402F1200C920659
:10530000DC0C42EA443200EE102A5B03DFED210A96
:10531000F8EEC01A00EE103A4FEA9C1C11F0004F54
:10532000B8EE400AC0F800C020EE201A00EE105A75
:10533000DFED190AB8EE400A20EE200A71EE810A6C
:1053400070EE800A10EE902A02F500626FF30B02F5
:1053500000EE902A70EEE11A31EEC11ADFED101A5C
:1053600030EE411A9FED0D0A20EE800A01EE210A6F
:105370009FED0C1A00EE810A04BFBDE8F0017047F2
:10538000CCF180510160BDE8F001B1EE400A7047F8
:1053900054270000000000360000802C22AAFD29BE
:1053A000DB0FC92F0000C92F02E008C8121F08C177
:1053B000002AFAD170477047002001E001C1121F96
:1053C000002AFBD1704700000149086070470000C7
:1053D0008C0100202DE9FF4F89B09B460446002533
:1053E00006E025280BD05A460B999047641C6D1C8B
:1053F00020780028F5D10DB02846BDE8F08F0027B1
:10540000B8460122474900E0074314F8013F203B1A
:1054100002FA03F00842F7D120782E2819D114F8A7
:10542000010F47F004072A280ED06FF02F022078D2
:10543000A0F1300109290CD808EB880102EB4101E9
:1054400000EB0108641CF2E70A98641C50F8048B16
:105450000A9020780028CED0642808D0692806D089
:1054600075281ED05A460B9990476D1C58E00A9932
:105470004FF00A0901C90A91002802DA40422D21A1
:1054800002E0390504D52B218DF82010012103E01D
:10549000F90704D02021F7E78A4608AE0DE0002185
:1054A000FAE70A994FF00A0901C90A91F7E7494654
:1054B000FAF773FF303106F8011D0028F7D1ADEB84
:1054C000060000F12009780701D44FF00108C84513
:1054D00002DDA8EB090000E000208046002706E07E
:1054E00008A85A46C05D0B9990476D1C7F1C574514
:1054F000F6DB04E030205A460B9990476D1CB8F15A
:105500000001A8F10108F5DC05E016F8010B5A4688
:105510000B9990476D1CB9F10001A9F10109F4DC68
:10552000641C65E70928010010B5ACB00446802171
:1055300001A8FAF7F1FEFF208DF8040021A9A12CA3
:105540003DD0A22C6CD0A32C7DD0A42C35D15048BA
:10555000504A01AB90ED090A8DED210A90ED170A32
:105560008DED220A90ED250A8DED230A90ED330A88
:105570008DED240A128A00EE102AA422B8EE400A09
:105580008DED250A90ED410A8DED260A90ED4F0A2A
:105590008DED270A90ED5D0A8DED280A90ED6B0ADE
:1055A0008DED290A00912421092000F0BDF8642323
:1055B000282201A93848FDF761F92CB010BD374801
:1055C00001ABA12290ED000A35488DED210A90ED46
:1055D000000A34488DED220A90ED000A32488DED24
:1055E000230A90ED000A31488DED240A90ED000A5F
:1055F0002F488DED250A90ED000A2E488DED260AE4
:1056000090ED000A2C488DED270A90ED000A2B48FA
:105610008DED280A90ED000A8DED290A0091C2E770
:10562000274890ED000A27488DED210A90ED000AE9
:1056300025488DED220A90ED000A24488DED230ABD
:1056400090ED000A00E005E08DED240A01ABA222F6
:10565000009116E01E4801ABA32290ED000A1D4800
:105660008DED210A90ED000A1B488DED220A90ED88
:10567000000A1A488DED230A90ED000A8DED240AE8
:1056800000911021042000F04FF86423142290E7C9
:10569000FC0C0020BC0E0020240400208800002008
:1056A0008C00002090000020C8000020CC000020CA
:1056B000D0000020AC000020B0000020B40000208A
:1056C000EC000020F0000020000100200401002078
:1056D000F4000020F8000020680000206C0000208A
:1056E00008494A7890420BD0074B487030B10128E6
:1056F00006D1002201211846FBF7D7BA0122F9E7AB
:1057000070470000DE000020000C0240521A032AFD
:1057100002D09FED040A70470844006800EE100AAA
:105720007047000000000000F0B50025059F5A708A
:1057300099702C460EE0032207EB840606EB020C60
:1057400002EB840E1CF803CC521C03F80EC0072A8F
:10575000F4DB641C8442EEDB0120CA1C03E01C5C09
:10576000401C2C44E5B29042F9DB5818C570F0BDDE
:1057700013B54FF6FF73012269460248FDF77EF824
:1057800000981CBD6C04002007490A78904209D09B
:105790000870642800D96420643082B2012103209B
:1057A00001F030B870470000DE000020FBF71CFD60
:1057B000FEF7E6FDFDF786FEFDF798FDFEF7FEF825
:1057C000FEF7C4F8FEF7DEF8FEF714F9FEF72EF93F
:1057D000FEF748F9FDF720FFFDF73EFFFDF7BAFFA2
:1057E000FEF71CF8FEF780F800F0D2FF0020FFF76C
:1057F000CBFF0020FFF774FF00F00AF8FEF782FDF0
:1058000000F0A6F8FDF7E8FD00F0B4F8FEE70000B0
:1058100010B500242DED028B9FED098A641CE0B2C7
:10582000B0EE480A00F00EF8E4B2082CF6D3BDEC56
:10583000028B4FF4FA50BDE81040FBF71FB900008F
:1058400000000000DFED260AB4EEE00AF1EE10FAE7
:1058500001DDB0EE600ADFED230AB4EEE00AF1EEFE
:1058600010FA01D2B0EE600ADFED1F0AB3EE041A9F
:10587000092870EE201A30EEC00A81EE812ADFED91
:105880001B1AC0EE010A32EE212ABCEEC22A12EE29
:10589000101A8AB230EEA10ABCEEC00A10EE101A3D
:1058A00089B21BD2DFE800F01A1605130A0D181191
:1058B0000700042100E00321012004E00A4604213E
:1058C00000E00321022000F09DBF0221F4E70A4618
:1058D0000121F1E70221F5E70121F3E7704700001C
:1058E00000002F4400002FC400007A440000C8428A
:1058F0000D4910B5CA79C2F38003834212D010B1AA
:10590000012803D005E022F0040001E042F0040089
:10591000C87100F0B1FFBDE81040192203490448E6
:10592000FCF7FCBF10BD000070000020CE0E002070
:105930004C03002010B5EFF3058111B16FF00504A1
:1059400003E0002408B101F045F9204610BD000035
:10595000EFF3058010B16FF005007047044801684F
:1059600011B14FF0FF3070470121016000207047F6
:105970005801002010B5EFF3058010B16FF005005D
:1059800010BD08480168012902D04FF0FF3010BD5A
:10599000054A002182F8141D0221016001F082F9FC
:1059A000002010BD580100200BE000E02DE9FF4170
:1059B0004FEA01034FF00005EFF30581039549BB62
:1059C00040B38027182100244AB3166806B1344634
:1059D00096691EB13146761E382E02D21679F60728
:1059E00003D0002004B0BDE8F081566906B1B708C5
:1059F000D2F808C0BCF1000F0DD0D5685C2D18D3CB
:105A000012693AB136B18DE806103A46214601F0E6
:105A10002CFD03900DE0D6685EB912694AB903AA5D
:105A2000CDE90012BAB2214601F0F2FC012800D003
:105A300003950398D6E700002DE9F04F04297DD3A4
:105A40000278FF2A7AD182784578131D8B427CD860
:105A500000210C46D31C03E0065D641C3144C9B22E
:105A60009C42F9DB0244D2788A426ED1C31CB12D2C
:105A70006DD0B22D7ED0B62D67D15F4E00240322AB
:105A800000211846FFF742FEC4EBC40006EBC00538
:105A9000072285ED060A04211846FFF737FE85ED3B
:105AA000070A0B2208211846FFF730FE641CE4B2F7
:105AB00085ED080A082CE2D3504F00244FF00F0860
:105AC0004FF00C094FF0130A4FF0100B04EB440594
:105AD00008EB850209EB85011846FFF717FEC4EBBA
