:020000040800F2
:10000000F05F002061020008E93C0008832A000834
:100010009D3A0008AF050008514A000800000000A2
:10002000000000000000000000000000A101000826
:100030000107000800000000FD010008ED3E000877
:100040007B0200087B0200087B0200087B0200089C
:100050007B0200087B0200087B0200087B0200088C
:100060007B0200087B0200087B020008CD05000827
:10007000D9050008E5050008F1050008FD050008A0
:1000800009060008150600087B0200087B0200082C
:100090007B0200087B0200087B0200087B0200084C
:1000A0007B020008C93F0008AD3F00087B02000842
:1000B0007B0200087B020008E53F00087B02000885
:1000C0007B0200087B0200087B0200087B0200081C
:1000D0007B020008C5490008D1490008E54900082D
:1000E0007B0200087B0200087B0200087B020008FC
:1000F0007B0200087B0200087B0200082106000842
:100100007B0200087B0200087B0200087B020008DB
:10011000CD43000839440008F93F00087B0200087D
:100120007B0200082D060008390600087B02000843
:100130007B0200087B0200087B0200087B020008AB
:100140007B0200087B0200087B0200087B0200089B
:100150007B0200084506000851060008F94900081E
:100160007B0200087B0200087B0200087B0200087B
:100170007B0200087B0200087B02000800000000F0
:100180007B0200087B020008DFF810D000F0D2F9F3
:1001900000480047654E0008AFF30080F05F002084
:1001A0002C4B19680868B0E8F04F80F30988BFF35A
:1001B0006F8F4FF0000080F311887047000000003F
:1001C00008480068006880F308884FF0000080F35A
:1001D000148862B661B6BFF34F8FBFF36F8F00DF35
:1001E00000BF00BF08ED00E0DFF80C00016841F43B
:1001F00070010160704700BF88ED00E0EFF30980F7
:10020000BFF36F8F134B1A681EF0100F08BF20ED5D
:10021000108A20E9F04F106009B44FF0500080F3CD
:100220001188BFF34F8FBFF36F8F06F027F94FF0A0
:10023000000080F3118809BC19680868B0E8F04F25
:100240001EF0100F08BFB0EC108A80F30988BFF3CE
:100250006F8F70473C010020EFF30580704700006E
:100260000648804706480047FEE7FEE7FEE7FEE750
:10027000FEE7FEE7FEE7FEE7FEE7FEE79D3F00083C
:10028000890100082DE9F05F0546002092469B4653
:1002900088460646814640241BE02846414647469C
:1002A000224600F0A3F853465A46C01A914110D393
:1002B00011461846224600F08AF82D1A67EB01080D
:1002C0004F4622460120002100F081F817EB00097B
:1002D0004E41201EA4F10104DFDC484631462A4687
:1002E0004346BDE8F09F40EA01039B0703D009E0C5
:1002F00008C9121F08C0042AFAD203E011F8013B12
:1003000000F8013B521EF9D27047D2B201E000F86A
:10031000012B491EFBD270470022F6E710B51346A9
:100320000A4604461946FFF7F0FF204610BD30B5D7
:1003300004460020034600E05B1C934203D2E05CCD
:10034000CD5C401BF8D030BD0EB5C10F80EAE07027
:100350000844CA07002140F233438DE80E000A46E4
:100360000B4600F099F803B000BD01F0004330B433
:1003700021F0004150EA010206D00A0DA2F5607298
:10038000C1F31301002A02DC30BC00207047440F87
:1003900044EAC104C100E01830BC00EBC25000F0D8
:1003A00035B830B50B46014600202022012409E073
:1003B00021FA02F59D4205D303FA02F5491B04FA1E
:1003C00002F52844151EA2F10102F1DC30BD202AFD
:1003D00004DB203A00FA02F1002070479140C2F19C
:1003E000200320FA03F3194390407047202A04DBCE
:1003F000203A21FA02F00021704721FA02F3D0409E
:10040000C2F1200291400843194670470029A8BF55
:100410007047401C490008BF20F00100704710B42D
:10042000B0FA80FC00FA0CF050EA010404BF10BCE2
:10043000704749B1CCF1200421FA04F411FA0CF10F
:1004400018BF012121430843A3EB0C01CB1D4FEA48
:1004500000614FEA102042BF002010BC704700EB43
:10046000C35010440029A4BF10BC7047401C490071
:1004700008BF20F0010010BC704710B5141E73F1C6
:10048000000408DA401C41F1000192185B411A4354
:1004900001D120F0010010BD2DE9F04D92469B46A0
:1004A00011B1B1FA81F202E0B0FA80F22032904646
:1004B000FFF78DFF04460F4640EA0A0041EA0B01B0
:1004C00053465A46084313D0114653EA010019D047
:1004D000C8F140025046FFF789FF05460E465046D8
:1004E00059464246FFF773FF084305D0012004E058
:1004F00020463946BDE8F08D0020054346EAE07607
:100500002C4337430A986305E40AA0EB0800002255
:10051000FD0A44EA47540A3002D500200146E9E7C3
:10052000010510196941DDE9084500196941BDE877
:10053000F04DA2E7064C074D06E0E06840F00103ED
:1005400094E8070098471034AC42F6D3FFF720FE3A
:10055000607500088075000870B58C1810F8015B94
:1005600015F0070301D110F8013B2A1106D110F84C
:10057000012B03E010F8016B01F8016B5B1EF9D150
:100580002B0705D40023521E0DD401F8013BFAE7D6
:1005900010F8013BCB1A921C03E013F8015B01F841
:1005A000015B521EF9D5A142D8D3002070BDFEE7F1
:1005B000054D4FF4FA74204604F02AFD0421284624
:1005C00000F07DFBF7E7000000100240014800F05A
:1005D000F5B800007C060020014800F0EFB80000EC
:1005E000BC080020014800F0E9B80000BC0500206C
:1005F000014800F0E3B800001C090020014800F0A9
:10060000DDB800001C060020014800F0D7B800004B
:10061000FC070020014800F0D1B800005C08002071
:10062000014800F0CBB80000DC060020014800F0D3
:10063000C5B800007C090020014800F0BFB80000E8
:100640003C070020014800F0B9B80000DC09002098
:10065000014800F0B3B800009C070020016818238F
:10066000CAB2103AB2FBF3F2054B6FF30901032A49
:100670009B5CC36500D9091D816508467047000071
:100680008474000810B5014600208B698A6A4FF017
:10069000C07453B1B3F5005F15D072B1012A0CD00C
:1006A000022A0AD0032A09D104E01AB1012A06D08D
:1006B000022A03D1C96AC90100D5012010BDC96A47
:1006C000A142FAD010BD002AF7D0012AF2D0022AA6
:1006D000F3D0032AF3D010BD30B50468256825F4A3
:1006E00080252560046863608368402B036803D01D
:1006F00099600068C26030BD9A600068C16030BD1A
:10070000704772B6FEE72DE9F0410446876D00F0B0
:10071000E3FA064694F835000025022806D080202A
:10072000606584F834500120BDE8F08120680168DC
:1007300021F0160101602068416921F080014161CA
:10074000206C08B9A06C20B12068016821F0080174
:1007500001602068016821F0010101600CE000F0F7
:10076000BBFA801B052807D920206065032084F888
:10077000350084F83450D7E720680068C007EED110
:1007800094F85C103F208840B860012084F8350060
:1007900084F834500020C7E790F83510022903D0C0
:1007A0008021416501207047052180F835100068DF
:1007B000016821F001010160002070472DE9F84334
:1007C00004464FF00009CDF8009063484FF41651ED
:1007D000A56D0068B0FBF1F72E6894F85C10082056
:1007E00000FA01F131420FD021680A6852070BD597
:1007F0000A6822F004020A6094F85C108840A8603D
:10080000606D40F00100606594F85C104FF00108E5
:1008100008FA01F0304208D021684969090604D578
:10082000A860606D40F00200606594F85C100420E0
:100830008840304208D021680968890704D5A8603B
:10084000606D40F00400606594F85C1010208840F2
:10085000304218D021680968090714D5A8602068BB
:100860000168490304D50068000308D5A16C07E0BE
:100870000168C90503D4016821F008010160216CF9
:1008800009B12046884794F85C1020208840304207
:1008900031D021680968C9062DD5A86094F83500C3
:1008A00005282068016806D0490347D50068000381
:1008B0001DD4616C1CE021F01601016020684169C3
:1008C00021F080014161206C08B9A06C20B1206842
:1008D000016821F00801016094F85C103F20884015
:1008E000A86084F8358084F83490216D1FE0E16BB6
:1008F00009B120468847606D00282BD0606DC00785
:1009000014D0052084F835002068016821F0010129
:1009100001600098401C0090B84203D8206800682D
:10092000C007F6D184F8358084F83490E16C002952
:1009300010D001B02046BDE8F04308470168C90562
:10094000D5D4016821F01001016084F8358084F865
:100950003490CCE7BDE8F8833C0000202DE9F0415D
:10096000044600F0B9F906465CB1022084F835006F
:10097000002584F834502068016821F001010160ED
:100980000DE00120BDE8F08100F0A6F9801B0528EC
:1009900005D920206065032084F83500F2E720683F
:1009A0000068C007F0D12268116820480140D4E9EE
:1009B00001031843D4E903363343184363691843EA
:1009C000A3691843E3691843236A18430843616A1B
:1009D000042903D1D4E90B1319430843106020689C
:1009E0004069666A20F0070130460E43012704285B
:1009F0000CD1A06A0643E06A40B12046FFF742FEF0
:100A000020B14020606584F83570BAE720684661FF
:100A10002046FFF723FE94F85C203F21914081603F
:100A2000656584F835700020ACE700003F8010F069
:100A30002DE9F0410446866D90F834000025012828
:100A40000DD0012084F8340094F835700020012F77
:100A500007D084F8340002252846BDE8F081022042
:100A6000FBE7022784F8357060652046FFF734FE07
:100A700094F85C103F208840B0602068016841F025
:100A800016010160206C20B12068016841F0080166
:100A900001602068016841F001010160DCE70000AD
:100AA00070B5044600F018F90546601C02D00448F1
:100AB0000078044400F010F9401BA042FAD370BD46
:100AC000300000202DE9F84FDFF8BCA100220125FD
:100AD00003264FF00F090AF1040BAAF1040E00BF20
:100AE0000B6805FA02F42340A34270D10F7907F096
:100AF0000307012F01D0022F16D187684FEA420861
:100B000006FA08FC27EA0C07D1F80CC00CFA08FC1E
:100B10004CEA070CC0F808C04768A7430C79C4F337
:100B2000001494403C4344600C79E443A4070AD089
:100B3000C4684FEA420C06FA0CF7BC438F6807FA08
:100B40000CF72743C7600C7904F00304022C12D180
:100B5000D40800EB840CDCF820405707FF0E09FA9C
:100B600007F824EA0804D1F8108008FA07F848EAE0
:100B70000408CCF8208004684FEA420C06FA0CF70F
:100B8000BC430F7907F0030707FA0CF72743076008
:100B90004C6814F4403F70D03C4C276847F48047C1
:100BA0002760246822F0030704F480440094384C42
:100BB00007EB040CDCF8084897074FEA177809FAA6
:100BC00008F7BC43334FB84202D1002724E054E079
:100BD000314FB84201D101271EE0304FB84201D158
:100BE000022719E02E4FB84201D1032714E02D4F00
:100BF000B84201D104270FE02B4FB84201D105279D
:100C00000AE02A4FB84201D1062705E0284FB84232
:100C100001D1072700E0082707FA08F72743CCF897
:100C20000878DAF800405746D1F804C09C435FEAE0
:100C3000CC2C00D51C433C60DBF800405F46D1F86B
:100C400004C09C435FEA8C2C00D51C433C60DEF85A
:100C500000407746D1F804C09C435FEA8C3C00D545
:100C60001C433C60084F083F3C68D1F804C09C43DB
:100C70005FEACC3C00D51C433C60521C102AFFF4B8
:100C80002FAFBDE8F88F0000083C01404438024017
:100C90000030014000000240000402400008024011
:100CA000000C0240001002400014024000180240F4
:100CB000001C02400069084000D0012070474269D2
:100CC00021EA02030A4043EA0241816170470AB106
:100CD000816170470904FBE70148806870470000A4
:100CE0003000002090F83D007047000070B504000F
:100CF00025D094F83D00002520B984F83C502046CA
:100D000000F046FA242084F83D002068016821F0B4
:100D1000010101602068016841F400410160206820
:100D2000016821F40041016000F0ECFB4D4A61686C
:100D3000914201D84C4900E04C49884201D201203F
:100D400070BD4B492368B0FBF1F15E6826F03F06A9
:100D50000E435E606368934206D94FF4967359431D
:100D60004FF47A73B1FBF3F12368491C1E6A26F035
:100D70003F06314319626168914210D84900401E14
:100D8000B0FBF1F2521CC2F30B02042A01D2042080
:100D900022E0B0FBF1F0401CC0F30B001CE0A268A5
:100DA000F2B301EBC10303EB0116431EB3FBF6F3F1
:100DB0005B1C43F480431B0549D092B301EBC10295
:100DC00002EB0111401EB0FBF1F0401CC0F30B0020
:100DD00040F4804040F400402168CA694CF6FF733B
:100DE0009A431043C861D4E90710014320680268A0
:100DF00022F0C00211430160D4E9030101432068DD
:100E0000826848F2FF339A4311438160D4E90501B7
:100E100008432168CA6822F0FF021043C86001E05D
:100E20000EE016E02068016841F0010101602564D0
:100E3000202084F83D00256384F83E50002070BDDA
:100E400001EB4106431EB3FBF6F35B1CB3E7012045
:100E5000C2E701EB4101401EB0FBF1F0401CC0F3C2
:100E60000B00B7E7A086010080841E0000093D004A
:100E700040420F002DE9F84F1F4690468A4604462F
:100E8000DDF82890FFF728FF054694F83D0020285C
:100E900071D11923012270492046009501F0FAFE14
:100EA0000028F5D194F83C00012864D0012084F892
:100EB0003C0020680168C90703D1016841F00101C5
:100EC00001602068016821F400610160222084F83B
:100ED0003D00102084F83E0000262664C4F82480DB
:100EE0006785608D20855D48E0622B464A46514605
:100EF000204601F0DFFD002876D1208D584F68B1E3
:100F0000012814D002282068016816D041F48061BD
:100F1000016020684169806900908EE02068416925
:100F200081690091016841F40071016085E02068E9
:100F3000016821F480610160F0E721F480610160C3
:100F40002068016841F40061E2E7032846D80128DF
:100F50000AD0022810D04B46002239462046009580
:100F600001F098FEC8BB25E02A464946204601F01C
:100F700037FF90BB54E06CE04B46002239462046D8
:100F8000009501F087FE40BB2068016841F40071C4
:100F9000016020680069616A0870606A401C6062D4
:100FA000218D491E2185618D491E61852168096950
:100FB000017039E02068016821F4806101602068D7
:100FC0000069616A0870606A401C6062208D401E82
:100FD0002085608D401E6085CEE705E02A464946A3
:100FE000204601F0FDFE10B10120BDE8F88F206819
:100FF0000069616A0870606A401C6062208D401E52
:1010000081B22185608D401E608520684269D2438F
:10101000520712D4032903D1016821F480610160D1
:1010200020680069616A0870606A401C6062208DF7
:10103000401E2085608D401E6085208D002884D153
:10104000202084F83D0084F83E6084F83C60002055
:10105000CBE70220C9E70000020010000000FFFFFC
:10106000040001002DE9F84F1F4690468A460446C9
:10107000DDF82890FFF730FE054694F83D00202863
:101080007FD11923012240492046009501F002FE3C
:10109000002876D194F83C00012872D0012084F811
:1010A0003C0020680168C90703D1016841F00101D3
:1010B00001602068016821F400610160212084F84A
:1010C0003D00102084F83E0000262664C4F82480E9
:1010D0006785608D20852D48E0622B464A46514643
:1010E000204601F05DFD90B920684169806900905B
:1010F00036E02A464946204601F0AAFE50B1206C4F
:10110000042804D12068016841F4007101600120C5
:10111000BDE8F88F606A216800780861606A401C49
:101120006062618D491E6185218D491E89B22185CC
:1011300022685369DB435B070BD451B1007810611F
:10114000606A401C6062608D401E6085208D401E7C
:1011500020852A464946204601F070FD0028CED160
:10116000208D0028C5D154F83D0B016841F4007171
:101170000160202004F81E09E67766770020C7E7A3
:10118000FFE70220C4E70000020010000000FFFF9C
:1011900010B586B0044614216846FFF7BDF814491F
:1011A0002068884221D113480021026842F00202DF
:1011B0000260006800F0020005904FF4406000906B
:1011C0001220CDE901010320039004200490694618
:1011D0000948FFF777FC07481030016841F48001A7
:1011E0000160006800F48000059006B010BD0000AA
:1011F0000058004030380240000402400248816834
:101200000278114481607047300000200B4810B50F
:10121000016841F400710160016841F4806101607E
:10122000016841F480710160032000F09FF80F20F5
:1012300000F006F800F050F8002010BD003C02401D
:1012400030B505461F4887B00024016841F0100101
:101250000160006806A900F01000009001A800F0ED
:1012600031F90498A8B100F04DF940001649174A29
:10127000B0FBF1F11648491E026040F2E732C0E9C6
:101280000324C0E90114846100F0B8FB040003D01A
:1012900015E000F037F9E9E70D4800F05FFC0400C5
:1012A0000DD1362000F034F8102D07D20022294647
:1012B000362000F03BF80748056000E0012407B045
:1012C000204630BD4038024040420F000010004030
:1012D0003C0A0020340000200C4882B0016841F430
:1012E00080410160006800F4804000900748001FC2
:1012F000016841F0805101600068002200F08050D8
:1013000000900F21901E02B000F010B84438024047
:10131000002809DB00F01F020121914040098000F4
:1013200000F1E020C0F8001170470000F0B40E4B4F
:101330001B680C46C3F30223C3F10705042D00D933
:101340000425191D072901D2002300E0DB1E012618
:1013500006FA05F1491E214099409E40761E16402E
:101360003143F0BC03F086BB0CED00E0064900F011
:10137000070208684FF6FF03184040EA0220034ABC
:1013800010430860704700000CED00E00000FA0513
:101390002DE9F0470E46050065D0DFF81481D8F836
:1013A0000000F7B200F00700B04207D288F80070E2
:1013B000D8F8000000F00700B04254D128683D4C36
:1013C000810712D5400703D5206840F4E050206023
:1013D0002878000703D5206840F46040206020682A
:1013E000A96820F0F000084320602878C0072DD0BD
:1013F000304968680839012812D0022813D0032820
:1014000011D00968890700292DDA216821F003012C
:1014100001432160FFF760FC814641F2883A0EE00B
:1014200009688903EFE709688901ECE7FFF754FCD5
:10143000A0EB0901514502D90320BDE8F0872068DF
:10144000696800F00C00B0EB810FEFD1D8F8001004
:10145000404601F00701B14207D90770006800F06B
:101460000700B04201D00120E7E72878400705D502
:101470002068E96820F4E0500843206028780007DD
:1014800006D52068296920F4604040EAC100206048
:1014900000F058F82168084AC1F30311515CC840B4
:1014A0000649086006480068FFF7CAFE0020C4E746
:1014B000003C0240083802408C7400083C000020C8
:1014C000340000200F2202600C4A136803F003036B
:1014D0004360136803F0F0038360136803F4E05380
:1014E000C36012684FF4E05303EAD2020261044879
:1014F000006800F0070008607047000008380240EC
:10150000003C02400448054900680968044AC1F3E8
:101510008221515CC84070473C00002008380240DE
:101520009C7400080448054900680968044AC1F32E
:101530004231515CC84070473C00002008380240EE
:101540009C740008154810B5006810F00C0214488F
:1015500013D01449042A0FD0082A0ED10F4C241F8F
:101560002268236802F03F025B0207D52068C0F3BF
:101570008810A0FB010106E0084610BD2168C1F3F8
:101580008811A1FB00010023FEF77CFE2168C1F356
:101590000141491C4900B0FBF1F010BD0838024080
:1015A0000024F40000366E012DE9F84F04006ED0DF
:1015B0002078DFF84C93C007A9F104054AD009F15F
:1015C00004000168C1F38101012908D00068C0F35B
:1015D000810002280AD1D9F80000400206D5286807
:1015E000800337D560680028E1D033E06068B0F54B
:1015F000803F10D0B0F5A02F286810D020F48030A4
:101600002860286820F4802028606068A8B1FFF76F
:1016100063FB06460DE0286840F48030F4E740F4B0
:1016200080202860F7E700BFFFF756FB801B642887
:1016300073D828688003F7D50CE0FFF74DFB06460A
:1016400005E000BFFFF748FB801B6428F0D828683E
:101650008003F7D42078DFF8AC8280074FF0000ACF
:101660003ED5A748001D016811F00C0F08D0006896
:10167000C0F3810002280BD1D9F80000400207D442
:101680002868800716D5E068012800D112E033E110
:10169000E068B8B10120C8F80000FFF71DFB06465E
:1016A00005E000BFFFF718FB801B0228C0D82868A0
:1016B0008007F7D52868216920F0F80040EAC100CA
:1016C00028600DE0C8F800A0FFF706FB064604E01E
:1016D000FFF702FB801B02281FD828688007F7D479
:1016E0002078000722D5864F87486169703771B12D
:1016F00001210160FFF7F0FA064604E0FFF7ECFA7B
:10170000801B022809D838688007F7D50EE0C0F89A
:1017100000A0FFF7E1FA064605E082E0FFF7DCFAF9
:10172000801B02287DD838688007F7D420784007CE
:1017300068D5DFF8CCB100270BF13C0BDBF80000DB
:10174000C0000BD4DBF8001041F08051CBF8001042
:10175000DBF80000012700F0805000906B4E3068ED
:10176000C00510D4306840F480703060FFF7B4FAE0
:10177000009005E0FFF7B0FA0099401A022850D80F
:101780003068C005F6D55E4EA0686C3601280FD0D3
:101790000528306810D020F001003060306820F05B
:1017A00004003060A068B8B1FFF796FA00900FE02F
:1017B000306840F00100F4E740F004003060F7E7E3
:1017C000FFF78AFA0099411A41F28830814266D8BF
:1017D00030688007F4D50EE0FFF77EFA009007E04E
:1017E000FFF77AFA0099411A41F28830814256D8BF
:1017F00030688007F4D42FB1DBF8001021F080515D
:10180000CBF80010A069C8B33D49091D0968C1F3B0
:10181000810102294AD00228504607D0C8F860004A
:1018200000E03CE0FFF758FA04463BE04746C8F8C2
:101830006000FFF751FA064605E000BFFFF74CFADB
:10184000801B02282BD828688001F7D4D4E907012F
:101850000843A16A2E4A490802EB0141626A41EA43
:101860008211084394F82C1040EA0161C9F8001075
:1018700001203866FFF730FA044606E03EE000BF7C
:10188000FFF72AFA001B022809D828688001F7D53B
:1018900034E000BFFFF720FA001B022802D9032022
:1018A000BDE8F88F28688001F4D427E00128F7D03C
:1018B000D9F80000E26900F4800191421CD1226A4B
:1018C00000F03F01914217D147F6C071626A0140B2
:1018D000B1EB821F10D1A26A4FF0FF3300F4403108
:1018E00003EB5202B1EB024F06D194F82C1000F03A
:1018F0007060B0EB016F01D00120D1E70020CFE78D
:101900000438024000004742800E47420070004009
:101910000000FFFF7047704710B590F83C20012A87
:1019200022D0012280F83C20CA688C6822F44072E0
:1019300022434C6822F4806222430C6822F4006245
:1019400022430C6922F4805222434C6922F4005253
:101950002243C969002322F480420A4301684A6491
:1019600080F83C30002010BD022010BD70B590F80A
:101970003C20012A32D0012480F83C40022280F829
:101980003D2003685A689D6822F070060A68324359
:101990005A60134B02689A4214D0B2F1804F11D0B2
:1019A000104B9A420ED0104B9A420BD00F4B9A42DA
:1019B00008D00F4B9A4205D00E4B9A4202D00E4BE4
:1019C0009A4204D1496825F080031943916080F858
:1019D0003D40002180F83C10084670BD022070BDDB
:1019E000000001400004004000080040000C0040DE
:1019F00000040140004001400018004010B5040000
:101A000003D094F83D0010B107E0012010BD002084
:101A100084F83C00204600F01FF8022084F83D00C6
:101A2000211D206802F0EEFA012084F8460084F8B7
:101A30003E0084F83F0084F8400084F8410084F8B8
:101A4000420084F8430084F8440084F8450084F898
:101A50003D00002010BD000008B502683848394933
:101A6000824210D1086840F0010008600868002236
:101A700000F00100009005211920FFF757FC192004
:101A8000FFF746FC47E02F48001FB2F1804F0BD014
:101A90002D4B9A4210D1016841F0020101600068AB
:101AA00000F00200009008BD016841F001010160F2
:101AB000006800F00100F5E7244B9A420ED101685E
:101AC00041F0040101600068002200F00400009071
:101AD00005211E20FFF72AFC1E2022E01C4B9A4203
:101AE0000ED1086840F4003008600868002200F455
:101AF0000030009005211920FFF718FC192010E094
:101B0000144B9A4211D1086840F48020086008689C
:101B100000F480200090002205211A20FFF706FC27
:101B20001A20BDE80840FFF7F3BB0B498A42BAD13F
:101B3000016841F480710160006800F48070B1E7D1
:101B4000000001404438024000040040000800400A
:101B500000440140004801400020004090F83D1042
:101B6000012901D001207047022180F83D10016851
:101B7000CA6842F00102CA6000681149884214D064
:101B8000B0F1804F11D00F4988420ED00E498842E3
:101B90000BD00E49884208D00D49884205D00D4926
:101BA000884202D00C49884204D1816801F00701C3
:101BB000062903D0016841F001010160002070474F
:101BC000000001400004004000080040000C0040FC
:101BD00000040140004001400018004070B5044678
:101BE00090F83C000025012817D0012684F83C60BD
:101BF000022084F83D002068826822F0770222F4F7
:101C00007F4282600868502838D00DDC20284FD0F1
:101C100005DC90B3102811D14AE0022070BD3028B5
:101C200046D040280AD13BE060282FD070280DD044
:101C3000B0F5805F03D0B0F5005F12D0012584F8C5
:101C40003D60002084F83C00284670BDCB68D1E997
:101C50000121206802F03EFA2068816841F0770196
:101C600009E0CB68D1E90121206802F033FA20684D
:101C7000816841F480418160E1E719E0CA68496800
:101C8000206802F0FBFA5021206806E0CA68496823
:101C9000206802F004FB6021206802F025FACEE7FC
:101CA000CA684968206802F0E9FA40212068F4E730
:101CB000226801461046F0E770472DE9F0410446DE
:101CC0000068C66805694FF00007A90713D5B1077A
:101CD00011D5F91E016101202077206880698007F5
:101CE000204602D0FFF7E8FF04E000F020F920468C
:101CF00000F0E0F92777680716D5700714D521683A
:101D00006FF004000861022020772068806910F4D9
:101D1000407F204602D0FFF7CFFF04E000F007F934
:101D2000204600F0C7F92777280715D5300713D5C7
:101D300021686FF008000861042020772068C069DE
:101D40008007204602D0FFF7B7FF04E000F0EFF86D
:101D5000204600F0AFF92777E80616D5F00614D52F
:101D600021686FF010000861082020772068C069A2
:101D700010F4407F204602D0FFF79EFF04E000F001
:101D8000D6F8204600F096F92777E80708D0F00744
:101D900006D021686FF001000861204600F08CF940
:101DA000280608D5300606D521686FF08000086146
:101DB0002046FFF7AFFD680608D5700606D52168F6
:101DC0006FF040000861204600F0B0F9A8060AD57F
:101DD000B00608D521686FF0200008612046BDE8F4
:101DE000F041FFF798BDBDE8F0810000F0B587B085
:101DF000044614216846FEF78FFA324A216800250E
:101E000031480224012791420ED1016841F01001AE
:101E100001600068694600F0100005904FF4D4405E
:101E20008DE83100294847E0294A2A4EB1F1804F18
:101E300023D0294B994243D1016841F0010101604F
:101E4000016801F001010591016841F002010160A2
:101E50000068694600F002000590C0208DE831005E
:101E6000CDE903541046FEF72DFE03208DE8310026
:101E7000CDE903546946304620E0016841F0010194
:101E80000160016801F001010591016841F0020162
:101E900001600068694600F00200059048F20C00FD
:101EA0008DE83100CDE903571046FEF70BFE082000
:101EB0008DE8310069463046CDE90357FEF702FE52
:101EC00007B0F0BD00000140303802400010024071
:101ED00000000240000402400004004070B50446C7
:101EE00090F83C00002501280FD0012084F83C0028
:101EF0006AB1042A0FD0082A11D00C2A13D0012568
:101F0000002084F83C00284670BD022070BD206887
:101F100002F0F2F8F4E7206802F01EF9F0E720681A
:101F200002F050F9ECE7206802F080F9E8E770472A
:101F300010B5040003D094F83D0010B107E0012073
:101F400010BD002084F83C00204600F01EF802205E
:101F500084F83D00211D206802F054F8012084F827
:101F6000460084F83E0084F83F0084F8400084F87E
:101F7000410084F8420084F8430084F8440084F867
:101F8000450084F83D00002010BD704770B5044640
:101F900090F83C0000260D4601280FD0012084F85F
:101FA0003C006AB1042A1DD0082A2FD00C2A3FD049
:101FB0000126002084F83C00304670BD022070BD30
:101FC000206802F099F82068816941F00801816178
:101FD0002068816921F004018161206881692A6992
:101FE000114311E0206802F0B7F82068816941F4DC
:101FF000006181612068816921F4806181612068CC
:1020000081692A6941EA02218161D2E7206802F0F0
:10201000D9F82068C16941F00801C1612068C1692F
:1020200021F00401C1612068C1692A69114311E0EE
:10203000206802F0FBF82068C16941F40061C161C9
:102040002068C16921F48061C1612068C1692A6981
:1020500041EA0221C161ACE710B5040003D094F855
:102060003D0010B107E0012010BD002084F83C00C5
:10207000204600F01EF8022084F83D00211D206853
:1020800001F0C0FF012084F8460084F83E0084F887
:102090003F0084F8400084F8410084F8420084F84E
:1020A000430084F8440084F8450084F83D00002093
:1020B00010BD70477047000038B5044600200090FE
:1020C00012492068884202D1694611480AE0114944
:1020D000884202D16946104804E0104988420ED176
:1020E0000F486946006804F07CFC009838B10D493F
:1020F0004FF080500860BFF34F8FBFF36F8F0A49D6
:102100002068884201D1FFF779F838BD00480140C6
:1021100068000020002000406C00002000440140C6
:102120001001002004ED00E00010004070477047EF
:1021300010B504460068406994F84110C0F3C0101F
:10214000212911D180B12068143050E8001F21F0FE
:10215000800140E80012002AF5D1A06B08B1FEF71B
:10216000D2FA204602F06BFA2068406994F84210D7
:10217000C0F38010222911D180B12068143050E8BA
:10218000001F21F0400140E80012002AF5D1E06B69
:1021900008B1FEF7B8FA204602F02AFA002010BD76
:1021A00070470000F8B5016804460868CA684B69C2
:1021B00010F00F0F4FF0000559D003F0010602F4A4
:1021C0009077374365D0C10705D0D10503D5616C41
:1021D00041F001016164410705D5D90703D0616C65
:1021E00041F002016164810705D5D90703D0616C14
:1021F00041F004016164010707D502F02001314379
:1022000003D0616C41F008016164616C00293AD02F
:10221000800604D5900602D5204602F01EFA2068FA
:102220004069616CC0F38010090700D460B3204698
:1022300002F0DEF920684069400621D5206814309C
:1022400050E8001F21F0400140E80012002AF5D1BB
:10225000E06BA8B172490165E06BFEF79DFA0028BA
:1022600011D0E06B016D01B0BDE8F0400847830676
:102270000FD593060DD52046BDE8F84002F0EDB924
:102280002046FFF78DFFF8BD2046FFF789FF656404
:10229000F8BD266B2023012E7ED1C6067CD5D6063E
:1022A0007AD508684868009048694FF002064006F1
:1022B0004DD5E26B106840684FF480770004000C45
:1022C0003AD0A18D814237D9E085D069B8422DD06E
:1022D00020680C3050E8001F21F4807140E80012A3
:1022E000002AF5D12068143050E8001F21F00101C8
:1022F00040E80012002AF5D12068143050E8001F91
:1023000021F0400140E80012002AF5D184F8423063
:10231000256320680C3050E8001F21F0100140E8D0
:102320000012002AF5D1E06BFEF7EDF96663A08D8F
:10233000E18D401A81B206E0A18D8142A8D1D06919
:10234000B842A5D166632046FFF7F1FEF8BDA08D27
:10235000E18D401A81B2E08D0028F7D00029F5D038
:1023600020680C3050E8002F22F4907240E80027DB
:10237000002FF5D12068143050E8002F22F0010220
:1023800040E80027002FF5D184F84230256320680B
:102390000C3050E8002F00E006E022F0100240E888
:1023A0000023002BF3D1CDE705062BD5150629D543
:1023B00094F841002128C9D1A068B0F5805F01D10F
:1023C0002069B0B1206A411C216221680078486010
:1023D000E08C401E0004000CE084B7D12068C16886
:1023E00021F08001C1602068C16841F04001C160F6
:1023F000F8BD206A0088C0F308004860206A801C8D
:102400002062E5E74006F3D55006F1D5CA682046BC
:1024100022F04002CA6084F8413000F025FBF8BD8C
:10242000A944000870B5040004D094F841000025C8
:1024300010B106E0012070BD84F84050204600F045
:1024400023F8242084F841002068C16821F4005159
:10245000C160204602F0A6F92068016921F490418C
:1024600001612068416921F02A0141612068C16849
:1024700041F40051C1606564202084F8410084F873
:1024800042006563002070BD2DE9F04F87B004461F
:1024900014216846FDF740FFFF48DFF8F883103845
:1024A000D4F800C0FC4A03270221082300250615A2
:1024B0004FF040094FF0006AC4455AD1D2F800C02D
:1024C000AB464CF4002CC2F800C0126802F40022A3
:1024D0000592026842F0010202600068CDE90071D5
:1024E00000F00100CDE90430CDE902576946EB4820
:1024F000FEF7E8FADFF8AC83E9494046C8F8001077
:10250000C0E901A5C0E90356C8F81450C8F818502E
:10251000C8F81C50C8F820505746C8F82450FEF799
:102520001DFA08B1FEF7EDF8DE4DDD48C4F83C8039
:1025300060353030C8F8384085E88102C5E903B617
:10254000C5F814B0C5F818B0C5F81CB0C5F820B06F
:102550002846C5F824B0FEF701FA08B1FEF7D1F815
:10256000A563002205213420AC63FEF7DFFE342092
:1025700068E0DFF83483C44569D1D2F800C04CF478
:10258000801CC2F800C0126802F480120592026832
:1025900042F004020260026802F00402059202683E
:1025A00042F0080202600068884600F008000590CA
:1025B0004FF48050CDE900080DF1080C9B468CE8E3
:1025C000A0086946B948FEF77DFA0420CDE9000865
:1025D0000DF10808694688E8A008B548FEF772FAC8
:1025E000B04FAF48C03730383860C7E901A5C7E9F8
:1025F00003567D61BD61FD613D6238467D62FEF737
:10260000ADF908B1FEF77DF8E763BC63A94FA448B4
:10261000C7F80890C7E903567D61BD61FD613D6261
:1026200078307D62C7E9000A3846FEF797F908B1AD
:10263000FEF767F8A763002205213520BC63FEF78B
:1026400075FE3520FEF764FE07B0BDE8F08FDFF8B9
:102650006882DFF844E24FF0070B0EF1040EC44528
:102660004DD1DEF8003043F01003CEF80030DEF834
:10267000002002F010020592026842F0010202609E
:10268000006800F0010005904FF4C0608DE8A308D9
:1026900069468248FEF716FA864F884860373860E8
:1026A000C7E901A5C7E903567D61BD61FD613D62D2
:1026B00038467D62FEF752F908B1FEF722F8E7636B
:1026C000BC637C4F7D48C0377830C7F80890C7E9B5
:1026D00003567D61BD61FD613D627D62C7E9000A0F
:1026E0003846FEF73BF908B1FEF70BF8A763002266
:1026F00005212520BC63FEF719FE2520A2E7DFF89F
:10270000C081C44549D1136843F400331360126893
:1027100002F400320592026842F00802026000688A
:1027200000F00800059060208DE8A3086946604825
:10273000FEF7C8F95A48634F48303860C7E901A529
:10274000C7E903567D61BD61FD613D6238467D622A
:10275000FEF704F908B1FDF7D4FFE763BC63594FF6
:102760004F4860376030C7F80890C7E903567D616D
:10277000BD61FD613D627D62C7E9000A3846FEF732
:10278000EDF808B1FDF7BDFFA76300220521262063
:10279000BC63FEF7CBFD262054E7DFF82C81C4454F
:1027A0004AD1136843F480231360126802F4802234
:1027B0000592026842F008020260006800F008001A
:1027C00005904FF440708DE8A30869463848FEF73D
:1027D00079F93C4F3248C03718383860C7E901A54D
:1027E000C7E903567D61BD61FD613D6238467D628A
:1027F000FEF7B4F808B1FDF784FFE763BC63334F1D
:102800002748C7F80890C7E903567D61BD61FD619F
:102810003D6218307D62C7E9000A3846FEF79EF82F
:1028200008B1FDF76EFFA763002205212720BC63D6
:10283000FEF77CFD272005E7254A94457FF404AF89
:10284000DEF800C04CF0200CCEF800C0DEF800200E
:1028500002F020020592026842F004020260006861
:10286000049300F004000590C0208DE8A3006946A1
:102870000E48FEF727F91148144F183860374FF00B
:1028800020683860C7E90185C7E903567D61BD61ED
:10289000FD611FE0004C0040403802400000024053
:1028A00040600240BC05002000500040000802408B
:1028B000000C0240DC060020001001404064024091
:1028C00000440040FC070020004800401C09002094
:1028D000001401403D6238467D62FEF73FF808B1C2
:1028E000FDF70FFFE763BC630D4F0C48C7E90356C4
:1028F0007D61BD61FD613D627D6287E8010338460F
:10290000FEF72CF808B1FDF7FCFEA76300220521B5
:102910004720BC63FEF70AFD472093E6A06402400F
:10292000DC09002090F84230202B01D002207047B3
:1029300021B11AB10023036301F0BABF012070472F
:10294000704770472DE9F843044690F841009846D7
:1029500016460D46202802D00220BDE8F88385B136
:102960007EB100206064212084F84100FEF7B4F9B4
:10297000A6848146E684A0682027B0F5805F02D057
:1029800003E00120E9E7206910B12E4600250EE0A2
:1029900000260CE08021204601F0DAFFA8B9C6B17C
:1029A00016F8010B21684860E08C401EE084E08C42
:1029B0004B464FF00002CDF800800028EAD14FF0DE
:1029C0004001204601F0C4FF40B184F8417003206B
:1029D000C3E735F8020BC0F30800E3E784F8417061
:1029E0000020BAE770B5044690F84100202801D0D5
:1029F000022070BD01B3FAB12162A284E2840020FA
:102A00006064212384F84130A56B144BEB63A56B04
:102A1000134B2B64A56B134BEB64A36B18652068F9
:102A20001346A56B021D2846FEF702F830B11020B0
:102A30006064202084F84100012070BD21686FF09F
:102A4000400008602068143050E8001F41F0800109
:102A500040E80012002AF5D1002070BDA54500080D
:102A6000E7450008B744000800680349884202D1DE
:102A70000249002008707047001401400C0100203A
:102A80007047FEE701684A69D24352050FD46FF4DC
:102A900080624A61002140F8301F20224273817316
:102AA000026942F0040202610173012070470020B4
:102AB000704700002DE9F84F0446C06A1E46934651
:102AC0000D4621680A6842F480620A60082807D02F
:102AD000012805D010F5803F02D0206B112804D1C9
:102AE0002068016841F4807101604FF001195B4674
:102AF000002249462046009600F0CCF84FF40078BA
:102B000040B120680068C00501D5C4F840800320AA
:102B1000BDE8F88F2069DFF884A0B0F5804F0FD0B2
:102B20000620216800EAD51747F0F0000861334617
:102B30005A460AF10601204600F0F4F858BB03E0BB
:102B4000E8B240F001001CE02168E8B208613346B9
:102B50005A465146204600F0E5F8E0B92068416940
:102B600081690091016841F4807101605B46002237
:102B700049462046009600F08DF80028C1D147F064
:102B8000F1002168086133465A465146204600F05C
:102B9000C9F80028BCD00120BAE7000002000100FB
:102BA000F8B50446C06A1E460D461746082807D0E9
:102BB000012805D010F5803F02D0206B122804D1E7
:102BC0002068016841F480710160134600224FF0D3
:102BD00001112046009600F05DF840B120680068C1
:102BE000C00502D54FF4007020640320F8BD2069B1
:102BF000B0F5804F0ED00620216800EAD51040F0D5
:102C0000F000086133463A460B49204600F08AF846
:102C100078B902E005F0FE0000E0E8B22168086142
:102C2000054933463A46891F204600F07BF80028C4
:102C3000DCD00120F8BD00000800010070B5164688
:102C40000D4604461EE02046FFF71CFF08B1012098
:102C500070BD681C16D0FEF73FF8801BA84200D854
:102C600085B920684069C04340070BD5002044F86F
:102C7000300F20216173A073216941F0200121618F
:102C80002073E4E720684069C0434007DBD400209C
:102C900070BD00002DE9F047984617460D460446E2
:102CA000C1F30746DDF820902AE000BFB8F1FF3FEE
:102CB00026D0FEF711F8A0EB0901414502D8B8F182
:102CC000000F1DD12068012E16D0806925EA000072
:102CD0000004000C12D00020B84211D1002044F8AA
:102CE000300F20216173A073216941F0200121611F
:102CF00020730120BDE8F0874069E7E70120EBE79A
:102D00002068012E0AD0806925EA00000004000C2A
:102D100006D00020B842C9D00020EBE74069F3E7B5
:102D20000120F7E72DE9F047984616460D46044680
:102D30004FF000094FF0200AC1F3074723E0206855
:102D40004069C043400515D42068016841F4007112
:102D5000016021686FF480604861C4F8309084F8A5
:102D60003DA084F83E90216C41F00401216484F878
:102D70003C9021E0701C06D0FDF7AEFFA0EB0800F0
:102D8000B04203D816B1012F1FD021E02068012FD7
:102D900015D0806925EA00000004000C18D000BF9F
:102DA00044F8309F84F80DA084F80E90216941F01A
:102DB0002001216184F80C900120BDE8F087406972
:102DC00025EA00000004000CEAD12068406901E017
:102DD0002068806925EA00000004000CAFD1ECE710
:102DE0002DE9F041002590460E460446202728E0B4
:102DF0004069C043C0060CD454F8301B6FF010007B
:102E0000486144F810596777A577206A20622577D2
:102E100014E0FDF761FFA0EB0800B04200D886B9CE
:102E200020684069C04340060BD544F8305F6773A3
:102E3000A573206940F02000206125730120BDE8C2
:102E4000F08120684169C9434906D1D40020F6E7E2
:102E500070B516460D4604461EE02046FFF712FEEA
:102E600008B1012070BD681C16D0FDF735FF801B2E
:102E7000A84200D885B920684069C04300060BD538
:102E8000002044F8300F20216173A073216941F0C4
:102E9000200121612073E4E720684069C0430006F7
:102EA000DBD4002070BD00002DE9F04FB04B0022B4
:102EB0005E781F789FEDAF0AAF4DDFF8C092DFED6F
:102EC000B00A4AE1845C552C7ED100EB020A9AF8E4
:102ED00001B0ABF15104032C76D84FF0000C6446DE
:102EE00002EB0408641C10F80880E4B2C4440CF03F
:102EF000FF0C0A2CF4D39AF80A4064457ED154465C
:102F0000DC46BBF1510F09D0BCF1520F35D0BCF1FA
:102F1000530F5AD0BBF1540F55D1ECE0B4F902C0B5
:102F200001EE10CAB8EEC11A61EE001AB3EE001A33
:102F300021EE812ADFED931A22EE212A83ED022A67
:102F4000B4F904C002EE10CAB8EEC22A22EE002A7A
:102F500022EE012A22EE212A83ED032AB4F906C0CB
:102F600002EE10CAB8EEC22A22EE002A22EE011AA0
:102F700021EE211A83ED041AD5E0B4F902C001EE66
:102F800010CAB8EEC11A61EE001A9FED7F1A61EE09
:102F9000811AC3ED051AB4F904C001EE90CAF8EE27
:102FA000E11A61EE801A61EE811AC3ED061ABAF9D0
:102FB000064001EE904AF8EEE11A61EE801A21EE29
:102FC000811A83ED071AB8E0D0E0B4F902C001EE2F
:102FD00010CAB8EEC11A21EE001A9FED6C2A21EE3C
:102FE000021A83ED0B1AB4F904C001EE90CAF8EE90
:102FF000E11A61EE801A61EE821A00E0ABE0C3EDE7
:103000000C1AB4F906C002EE90CAF8EEE22A62EE9B
:10301000802A22EE822A83ED0D2A94F809C09AF8BC
:103020000840B1EE422A44EA0C249C8083ED0D2A2C
:10303000D3ED0F2A71EE622A12EE904AAC4202DD05
:103040009C6E641C05E012EE904A4C459C6E01D9C2
:10305000641E9C664FF4B47C04FB0CF402EE904AB0
:10306000F8EEE22A72EE812AC3ED122AD3ED102A7D
:1030700071EEE22A12EE904AAC4202DD5C6E641CF4
:1030800005E012EE904A4C455C6E01D9641E5C6608
:103090004FF4B47C04FB0CF402EE904AF8EEE22A02
:1030A00072EEA12AC3ED132AD3ED112A72EE622A21
:1030B00012EE904AAC4202DDDC6E641E05E012EEB8
:1030C000904A4C45DC6E01D9641CDC664FF4B47C3C
:1030D00004FB0CF402EE904A03F13C04F8EEE22A01
:1030E00072EE822AC3ED142A84EC031A2FBB012747
:1030F000C3ED152A21E0B4F902C001EE10CAB8EE02
:10310000C11A83ED081AB4F904C001EE10CAB8EE72
:10311000C11A83ED091AB4F906C001EE10CAB8EE5F
:10312000C11A83ED0A1ABAF9084001EE104AB8EE46
:10313000C11AC1EE201AC3ED0E1A66B993ED0B1A2F
:10314000012683ED161A93ED0C1A83ED171A93EDF1
:103150000D1A83ED181A0B3292B202F10A048C4256
:10316000FFF4B0AE5E701F70BDE8F08F521CF3E745
:103170009C0000200000003800008743000087C347
:103180000000C842CDCC1C410000FA44000034438A
:10319000074C084E0025A078012805D1B6F840104C
:1031A0000448FFF781FEA570052003F06BF8F2E7F5
:1031B0009C0000209610002010B5402205490648CA
:1031C000FFF7B0FB04480068C16841F01001C1601E
:1031D00010BD0000D8100020E4040020074C084E69
:1031E00000252078012804D1318C054802F00AF925
:1031F00025700A2003F046F8F3E7000020010020C4
:1032000004120020394808B5016841F480010160CA
:10321000016801F480010091016841F4001101602E
:103220000068002200F40010009005210B20FEF73A
:103230007DF80B20FEF76CF8002205210C20FEF72C
:1032400075F80C20FEF764F8002205210D20FEF72A
:103250006DF80D20FEF75CF8002205210E20FEF728
:1032600065F80E20FEF754F8002205210F20FEF726
:103270005DF80F20FEF74CF8002205211020FEF724
:1032800055F81020FEF744F8002205211120FEF722
:103290004DF81120FEF73CF8002205212F20FEF703
:1032A00045F82F20FEF734F8002205213920FEF7DB
:1032B0003DF83920FEF72CF8002205213A20FEF7D0
:1032C00035F83A20FEF724F8002205214520FEF7C4
:1032D0002DF84520FEF71CF8002205214620FEF7B8
:1032E00025F8BDE808404620FEF712B83038024005
:1032F00010B500F043FDFFF75FFF00F02DFD00F07B
:10330000CFFB01F07FFB2A4A00212A4801F0BCFED6
:10331000294C274A0021A0622432284801F0B4FE3B
:10332000234AE062903A0021254801F0ADFE204A90
:10333000A061FC3A0021234801F0A6FE1C4AE0608F
:10334000D83A0021204801F09FFE194A2061B43A82
:1033500000211E4801F098FE60611D4A00211D48B1
:1033600001F092FE1A4A6060243200211A4801F0EE
:103370008BFE174AA060243A0021184801F084FE11
:103380000B4A20606C3A0021154801F07DFE084A86
:10339000E061483A0021134801F076FE044A2062B9
:1033A000243A0021104801F06FFE606210BD000059
:1033B0003C740008D93D000800000020B105000859
:1033C000B15E000891310008DD310008793E000847
:1033D000F8720008A13D0008313D0008E1640008D2
:1033E000C5420008815E0008294A00082DE9F0471F
:1033F00086B014216846FCF78FFF49480025016814
:1034000041F010010160016801F0100105910168AF
:1034100041F004010160016801F0040105910168B7
:1034200041F080010160016801F0800105910168AF
:1034300041F001010160016801F00101059101689D
:1034400041F002010160016801F00201059101688B
:1034500041F0080101600068324E00F0080005905C
:10346000002204213046FDF732FC2F4F01220A21B1
:103470003846FDF72CFCDFF8B480012220214046BD
:10348000FDF725FCDFF8A890002202214846FDF751
:103490001EFCDFF8A0A00022C0215046FDF717FC5B
:1034A000042001248DE83100694630460395FDF77C
:1034B00009FB05203601CDE900066946029438462D
:1034C000FDF700FB0A20CDE9000469463846CDE946
:1034D0000245FDF7F7FA1020CDE90006694602948F
:1034E0004046FDF7EFFA2020CDE90004694640464A
:1034F000CDE90245FDF7E6FA02208DE83100694684
:1035000048460395FDF7DEFAC0208DE83100694694
:1035100050460395FDF7D6FA06B0BDE8F0870000E7
:103520003038024000100240000802400000024013
:10353000000C0240000402400D4810B50B49016028
:103540000C49416000214FF480428160C0E90312C0
:1035500041618161C1610162FDF7C8FB002803D0B0
:10356000BDE81040FDF7CDB810BD00000058004088
:10357000C0010020A08601000C4810B50A49016076
:1035800040F23F614160002140F2E732C0E902129F
:1035900001618161FEF732FA002803D0BDE81040D6
:1035A000FDF7AFB810BD0000004401403403002017
:1035B0000C4810B50A49016040F21F3141600021FA
:1035C00040F2E732C0E9021201618161FEF716FAAA
:1035D000002803D0BDE81040FDF793B810BD0000EF
:1035E000004801407C0300200C4810B50A490160E6
:1035F00040F21F314160002140F2E732C0E902127F
:1036000001618161FEF7FAF9002803D0BDE810409E
:10361000FDF777B810BD000000200040C403002073
:1036200010B596B000240F94109411941294139432
:103630001C2168461494FCF76FFE202107A8FCF7B4
:103640006BFE35483349016040F23F61C0E9011427
:1036500040F2CF71C0E9031444618461FEF7CEF9F2
:1036600008B1FDF74EF84FF480500F900FA92A488B
:10367000FEF7B4FA08B1FDF744F82748FEF7ECFC72
:1036800008B1FDF73EF8139413A923481494FEF7EC
:103690006DF908B1FDF735F8602000909620CDE96E
:1036A0000104039404940594002269461A48069480
:1036B000FEF76CFC08B1FDF724F8042269461648B1
:1036C000FEF764FC08B1FDF71CF8082269461248B1
:1036D000FEF75CFC08B1FDF714F80C2269460E48B1
:1036E000FEF754FC08B1FDF70CF807940894099410
:1036F0004FF400500A94CDE90B4007A906480E94F8
:10370000FEF70AF908B1FCF7FCFF0348FEF76EFB71
:1037100016B010BD000001401402002010B58EB09C
:1037200000240794089409940A940B941C21684679
:103730000C94FCF7F1FD2B484FF08041016040F202
:103740001F31C0E9011440F2CF71C0E90314846154
:10375000FEF754F908B1FCF7D4FF4FF480500790FE
:1037600007A92048FEF73AFA08B1FCF7CAFF1D483E
:10377000FEF772FC08B1FCF7C4FF0B940BA91948C3
:103780000C94FEF7F3F808B1FCF7BBFF6020009043
:103790009620CDE901040022694612480494FEF700
:1037A000F5FB08B1FCF7ADFF042269460D48FEF7B2
:1037B000EDFB08B1FCF7A5FF082269460948FEF7B2
:1037C000E5FB08B1FCF79DFF0C2269460548FEF7B2
:1037D000DDFB08B1FCF795FF0248FEF707FB0EB0D2
:1037E00010BD00005C02002010B58EB000240794CC
:1037F000089409940A940B941C2168460C94FCF7D5
:103800008BFD2C482A49016040F21F31C0E90114A8
:1038100040F2CF71C0E903148461FEF7EFF808B1FC
:10382000FCF76FFF4FF48050079007A92148FEF77F
:10383000D5F908B1FCF765FF1E48FEF70DFC08B18D
:10384000FCF75FFF0B940BA91A480C94FEF78EF857
:1038500008B1FCF756FF602000909620CDE90104E6
:103860000022694613480494FEF790FB08B1FCF768
:1038700048FF042269460F48FEF788FB08B1FCF7B1
:1038800040FF082269460B48FEF780FB08B1FCF7B1
:1038900038FF0C22694607480194FEF777FB08B110
:1038A000FCF72FFF0348FEF7A1FA0EB010BD000091
:1038B00000040040A402002010B58EB0002407943C
:1038C000089409940A940B941C2168460C94FCF704
:1038D00023FD1D481B4901604F21C0E901144FF62B
:1038E000FF71C0E903148461FEF788F808B1FCF7A2
:1038F00008FF4FF48050079007A91348FEF76EF9B0
:1039000008B1FCF7FEFE1048FEF712FB08B1FCF709
:10391000F8FE0B940BA90C480C94FEF727F808B19D
:10392000FCF7EFFE009401940294002269460648D9
:103930000494FEF7D3FA002801D0FCF7E2FE0EB0A3
:1039400010BD000000080040EC0200200C4810B53B
:103950000A4901604FF416514160002181600C2238
:10396000C160C0E904128161C161FEF75BFD0028FE
:1039700003D0BDE81040FCF7C4BE10BD004C0040B1
:103980000C0400200C4810B50A4901604FF4E131E5
:103990004160002181600C22C160C0E90412816194
:1039A000C161FEF73FFD002803D0BDE81040FCF7E1
:1039B000A8BE10BD00500040540400200C4810B5B3
:1039C0000A4901604FF4E1314160002181600C221D
:1039D000C160C0E904128161C161FEF723FD0028C6
:1039E00003D0BDE81040FCF78CBE10BD00100140B4
:1039F0009C0400200C4810B50A4901604FF4165190
:103A00004160002181600C22C160C0E90412816123
:103A1000C161FEF707FD002803D0BDE81040FCF7A8
:103A200070BE10BD00440040E40400200C4810B5F6
:103A30000A4901604FF4E1314160002181600C22AC
:103A4000C160C0E904128161C161FEF7EBFC00288E
:103A500003D0BDE81040FCF754BE10BD0048004044
:103A60002C0500200C4810B50A4901604FF4E131E3
:103A70004160002181600C22C160C0E904128161B3
:103A8000C161FEF7CFFC002803D0BDE81040FCF771
:103A900038BE10BD0014014074050020FEE7000090
:103AA00010B503222DED048B0021012002F0F2FD60
:103AB00028490860F0B39FED288ADFED288A9FED42
:103AC000289AB0EE482AF0EE681AB0EE491AF6EEDF
:103AD000000AB0EE000A234800F008F92148B0EED1
:103AE000482AF0EE681AB0EE491AF6EE000AB0EE77
:103AF000000A1C3000F0FAF81A48B0EE482AF0EE3E
:103B0000681AB0EE491AF6EE000AB0EE000A543018
:103B100000F0ECF81348B0EE482AF0EE681AB0EE68
:103B2000491AF6EE000AB0EE000A383000F0DEF86E
:103B30000D4800E005E0BDEC048BBDE81040FEF749
:103B40000DB8502080F31188BFF34F8FBFF36F8FF4
:103B5000FEE70000100100200000C8420000C8C2BB
:103B6000CDCCCC3D84110020340300202DE9F84F4A
:103B7000594908680269920775D56FF002028846B4
:103B800002610868D0F824900024544FA246544E95
:103B900037E000BF04EB840000EBC40007EB8005B6
:103BA000287F01282CD1A9882868FDF783F80128EF
:103BB00000D00020A97F8840697F08436877A87FEC
:103BC000401CC0B2A877082815D385F81CA0CDF8F2
:103BD00000A000236A4605F11D01686902F0A2FEFB
:103BE000009868B13F494FF080500860BFF34F8F95
:103BF000BFF36F8F04E02969D8F80000494441639E
:103C0000641C30788442C5DB00255FE005EB85004D
:103C100000EBC50007EB8004207F022855D194F803
:103C20003200401CC0B284F8320008280ED294F84A
:103C3000311021FA00F111F0010F02D04FF0010212
:103C400001E04FF00002A189A06804E00CD1A18935
:103C50004FF00102A068FDF73AF82169D8F800009A
:103C60004944416331E034E000221146A06902F08A
:103C7000A3FF94F82F1094F83000814219D004F17A
:103C80001F02411C84F83010805C84F83100C8B2F7
:103C9000102801D384F830A084F832A0A189002232
:103CA000A068FDF714F82169D8F800004944416381
:103CB00007E084F81CA0D8F80000C16821F00201D8
:103CC000C1600021A06902F08CFE6D1C3078854235
:103CD0009CDBBDE8F88F0000EC02002048120020B9
:103CE0003001002004ED00E0FEE7000080EC030A54
:103CF0009FED050A80ED030A80ED040AC0ED051A68
:103D000080ED062A704700000000000070B50D46E7
:103D10000646002409E0305DFF2804D1281B81B24B
:103D2000301901F0F7F9641CE4B2AC42F3D370BD72
:103D3000074C084E00252078012805D1B6F800115F
:103D40000448FFF7E3FF2570052002F09BFAF2E735
:103D500040000020840B002010B5202205490648B1
:103D6000FEF7E0FD04480068C16841F01001C16041
:103D700010BD0000261200200C04002010B54FF4E6
:103D8000807205490548FEF7CDFD04480068C1680A
:103D900041F01001C16010BD840A00202C050020F4
:103DA000A12000F031FF322002F06CFAA22000F0D6
:103DB0002BFF322002F066FAA32000F025FF32200C
:103DC00002F060FAA42000F01FFF322002F05AFA3D
:103DD000642002F057FAE3E7012001F019F9FBE74C
:103DE0001FB50020019002905C208DF80C0024206B
:103DF0008DF80D006424022303AAE02118480094E2
:103E0000FDF730F9002829D1062301AAE121144841
:103E10000094FDF72FF8BDF80400DFED120A40BA58
:103E200000EE100ABDF80700B8EE401A40BA00EEE6
:103E3000100A0E48C1EE201A9FED0B1AB8EE400A88
:103E400021EE811A80ED011A80EE201ADFED080ABA
:103E50009FED080A11EE200A80ED000A1FBD000048
:103E6000C001002000FF7F470000C842340100204D
:103E700000002F43000034424FF47A74FFF7B0FF84
:103E8000204602F0FFF9F9E710B543F2175000F0B1
:103E900007F8BDE810404FF47A70FCF701BE00004F
:103EA0001CB5010A8DF804108DF805004FF47A70E6
:103EB0000090022301AAE0210848FDF7D3F828B1B9
:103EC000FCF71FFC282106A000F0C4FD0348FCF706
:103ED00009FF2028FAD100201CBD0000C0010020ED
:103EE00065727220284C3D2564290A0010B54FF0F8
:103EF000E020006902F0FCFF012803D0BDE810407B
:103F000002F0B2BB10BD000030B593B0302168465E
:103F1000FCF702FA14210CA8FCF7FEF91D48002555
:103F2000016841F080510160006800F080501190FC
:103F30001948016841F4804101600068022400F4DE
:103F40008040119001200090000401908001CDE993
:103F500006400C200890A020CDE9090404200B9015
:103F60006846FDF721FB08B172B6FEE70CA90F20E9
:103F700081E831004FF4A0500F904FF48050109022
:103F800005210CA8FDF704FA002801D072B6FEE75F
:103F900013B030BD40380240007000400248016854
:103FA00041F470010160704788ED00E010B50448ED
:103FB000FDF783FEBDE810400248FDF77EBE00001D
:103FC000140200207C03002010B50448FDF775FEA4
:103FD000BDE810400248FDF770BE0000140200204A
:103FE0003403002010B5FFF7C1FDBDE810400148C3
:103FF000FDF763BEEC0200200148FDF75EBE000045
:104000003C0A0020F0B50268274B284D284E294F66
:10401000294C4FF0804C984209D0604507D0A84207
:1040200005D0B04203D0B84201D0A04204D122F062
:10403000700E4A6842EA0E0298421BD0604519D0C1
:10404000A84217D0B04215D0B84213D0A04211D028
:104050001A4DA8420ED01A4DA8420BD0194DA842B5
:1040600008D0194DA84205D0184DA84202D0184DCD
:10407000A84203D122F44075CA682A434D6922F050
:1040800080022A438D68C5620D688562984201D01E
:10409000A04201D109690163016841F00401016096
:1040A000012141610260F0BD0000014000040040B8
:1040B00000080040000C00400004014000400140A6
:1040C000004401400048014000180040001C00402E
:1040D0000020004010B5846842EA032224F47F44A3
:1040E0000A432243826010BD826822F070020A43B4
:1040F00042F0070181607047F0B5036A026A22F05E
:104100000102026242688469124E24F073050C6851
:104110002C4323F002058B682B430D4DA84201D0A0
:10412000B04205D123F00807CB683B4323F00403DA
:10413000A84201D0B04205D14D6922F44072154326
:104140008A692A4342608461496841630362F0BD21
:104150000000014000040140F0B5026A036A23F048
:1041600010030362436884690D6824F4E64444EA5A
:1041700005248D6822F0200242EA05120F4D104EF0
:10418000A84201D0B04206D1CF6822F0800242EAB4
:10419000071222F04002A84201D0B04207D14D6977
:1041A00023F4406343EA85038D6943EA8503436052
:1041B0008461496881630262F0BD00000000014033
:1041C00000040140F0B5026A036A23F480730362BD
:1041D0004368C46922F4007224F073050C68124E1F
:1041E0002C438D6842EA05220E4DA84201D0B04210
:1041F00006D1CF6822F4006242EA072222F48062EC
:10420000A84201D0B04207D14D6923F4405343EA9C
:1042100005138D6943EA05134360C4614968C163AE
:104220000262F0BD000001400004014030B5046AA4
:10423000026A22F4805202624268C3690D6823F464
:10424000E64343EA05238D6824F4005444EA053428
:10425000084DA84202D0084DA84204D14D6922F46D
:10426000804242EA85124260C36149680164046287
:1042700030BD0000000001400004014010B5036A99
:10428000046A24F001040462846924F0F00444EA1E
:10429000021423F00A020A438461026210BD10B5C1
:1042A000036A046A24F010040462846923F0A00302
:1042B00024F4704444EA023243EA0111826101624B
:1042C00010BD0000114D4FF4FA740022022128465F
:1042D000FCF7FDFC0A2001F0D5FF0122022128464F
:1042E000FCF7F5FC204601F0CDFF0022082128460E
:1042F000FCF7EDFC0A2001F0C5FF01220821284649
:10430000FCF7E5FC204601F0BDFFDEE700080240B7
:1043100038B5134C20680168C9061FD5016840688C
:1043200000902046FDF704FFE06B006840680D4CEC
:10433000C0F1400082B2A07840B90B4800F14201C0
:10434000A0F84020FBF7CFFF0120A070BDE8384067
:104350000549402242310248FEF7E4BA38BD000068
:10436000E40400209C0000209610002038B5134C77
:1043700020680168C9061FD5016840680090204682
:10438000FDF7D6FEE06B006840680D4CC0F580700C
:1043900082B2207840B90B48A0F58071A0F80021C6
:1043A000FBF7A1FF01202070BDE838404FF4807278
:1043B00005490248FEF7B6BA38BD00002C050020BA
:1043C00040000020840B0020840A002010B500F07B
:1043D00007F8BDE810400148FDF7E4BE0C040020DA
:1043E00038B5124C20680168C9061ED501684068BE
:1043F00000902046FDF79CFEE06B006840680C4C86
:10440000C0F1200082B2207838B90A4800F12201B8
:104410000284FBF768FF01202070BDE838400549A1
:10442000202222310148FEF77DBA38BD0C0400205D
:10443000200100200412002010B500F007F8BDE8AC
:1044400010400148FDF7AEBE5404002038B5134CAF
:1044500020680168C9061FD50168406800902046A1
:10446000FDF766FEE06B006840680D4CC0F140004F
:1044700082B2207840B90B4800F14201A0F84020F8
:10448000FBF731FF01202070BDE83840054940228C
:1044900042310248FEF746BA38BD000054040020FD
:1044A000880000201410002010B5806B0021C18509
:1044B000FDF776FE10BD70B5846B2068406994F8F6
:1044C0004110C0F3C0100025212904D118B1E584A2
:1044D000204600F0B4F82068406994F84210C0F318
:1044E0008010222904D118B1E585204600F080F81B
:1044F000606C40F0100060642046FDF751FE70BD16
:1045000010B50146806B096809684FF00002C905C3
:104510002ED4C28501680C3151E8003F23F480732A
:1045200041E80034002CF5D10168143151E8003F16
:1045300023F0010341E80034002CF5D10168143167
:1045400051E8003F23F0400341E80034002CF5D14E
:10455000202180F84210016B012909D101680C313A
:1045600051E8003F23F0100341E80034002CF5D15E
:104570004263016B012902D0FEF7E2F910BD818D83
:10458000FDF7D5FD10BD10B5806B01214163016BB6
:10459000012902D0FEF7D5F910BD818D4908FDF73C
:1045A000C6FD10BD10B50146806B09680968C905D4
:1045B00016D40021C1840168143151E8002F22F083
:1045C000800241E80023002BF5D101680C3151E84D
:1045D000002F42F0400241E80023002BF5D110BD2E
:1045E000FEF742FA10BD10B5806BFEF749FA10BD18
:1045F00001680C3151E8002F22F4907241E8002349
:10460000002BF5D10168143151E8002F22F001028E
:1046100041E80023002BF5D1016B012909D1016884
:104620000C3151E8002F22F0100241E80023002B4A
:10463000F5D1202180F84210002101637047016804
:104640000C3151E8002F22F0C00241E80023002B7A
:10465000F5D1202180F84110704708B590F842103C
:10466000222901D0022008BD82684FF480539A426B
:1046700001D1016921B1816A9A421BD04AB10AE095
:104680000268816A5268C2F308020A80816A891C42
:1046900008E0026972B10268526802F07F020A7093
:1046A000816A491C8162C18D491E0904090CC185BA
:1046B00003D01BE002685268F1E70168CA6822F083
:1046C0002002CA600168CA6822F48072CA60016868
:1046D0004A6922F001024A61202180F8421000213B
:1046E0004163026B012A03D0FEF72AF9002008BDBE
:1046F000016301680C3151E8002F22F0100241E8FB
:104700000023002BF5D101680A68D20602D50A6899
:1047100049680091818DFDF70AFDE7E70FB42DE9A7
:10472000F041DFF8748098F800009DF81870401E82
:10473000384227D0142F25D807AD184C00260CE09E
:10474000ED1D25F00705B5EC020B51EC100BFBF746
:104750000CFE761C44F8040BF6B2BE42F0D30020E7
:1047600004F8010B0D4904F8010B802004F8020B3A
:104770007F2004F8010C0948201A82B20848FEF78D
:1047800031F920B10020BDE8F0015DF814FB0121F2
:1047900088F800100846F6E70C01002018110020E8
:1047A0007405002070B5044600680169E26821F4D0
:1047B0004051114301612169A068E26908436169C0
:1047C000114308432168CA6849F20C639A430243C3
:1047D000CA6020684169A26921F4407111434161B6
:1047E00031492068884202D03049884202D1FCF722
:1047F00099FE01E0FCF786FEE26900231921642599
:104800003226B2F5004F626828D0A0FB0101930F59
:104810009200FBF737FD0146B0FBF5F06FF0180290
:10482000504301EB800006EB0010B0FBF5F000F008
:10483000F002B1FBF5F002EB0012B1FBF5F06FF006
:104840001803584301EB800006EB0010B0FBF5F0B5
:1048500000F00F0021681044886070BDA0FB0101CA
:1048600092185B41FBF70EFD0146B0FBF5F002012B
:10487000B1FBF5F06FF01803584301EB800006EB35
:10488000C000B0FBF5F000F0F80002EB4002B1FB15
:10489000F5F0584301EB800006EBC000B0FBF5F0EB
:1048A00000F00700D6E700000010014000140140AE
:1048B00038B5816204468285002013466064222256
:1048C00084F84220E56B1F4AEA63E56B1E4A2A64BE
:1048D000E56B1E4AEA64E26B10650A462168E06BEC
:1048E000091DFCF7A5F830B110206064202084F881
:1048F0004200012038BD20680168406800902069AE
:1049000048B120680C3050E8001F41F4807140E845
:104910000012002AF5D12068143050E8001F41F041
:10492000010140E80012002AF5D12068143050E857
:10493000001F41F0400140E80012002AF5D100209C
:1049400038BD00000145000887450008B74400084D
:104950002DE9F843984617460D460446089E24E084
:10496000701C22D0FCF7B8F9A0EB0800B0421AD8AE
:10497000CEB12068C168490717D5802D15D0402DCC
:1049800013D00168C94309070FD4016800254068A6
:1049900000902046FFF72CFE0820606484F8405009
:1049A0000120BDE8F8830320FBE72068006835EAB2
:1049B000000004D00020B842D2D00020F1E701204E
:1049C000F9E700000148FDF7EDBB00009C04002062
:1049D00010B5FFF79DFCBDE810400148FDF7E2BBB4
:1049E000E404002010B5FFF7C1FCBDE81040014809
:1049F000FDF7D8BB2C0500200148FDF7D3BB000014
:104A00007405002010B5402205490648FDF78AFFCD
:104A100004480068C16841F01001C16010BD000089
:104A20005610002054040020074C084E0025207822
:104A3000012805D196F84010044800F041FC25708B
:104A40000A2001F01FFCF2E788000020141000206B
:104A5000FEE700000FB4054B10B503A9044A029805
:104A600000F028F810BC5DF814FB00004D4E000863
:104A7000BC0100200907090E002804DB00F1E0203A
:104A800080F80014704700F00F0000F1E02080F87B
:104A9000141D704702E008C8121F08C1002AFAD18D
:104AA00070477047002001E001C1121F002AFBD1AE
:104AB000704700002DE9FF4F89B09B460446002552
:104AC00006E025280BD05A460B999047641C6D1CB4
:104AD00020780028F5D10DB02846BDE8F08F0027DA
:104AE000B8460122474900E0074314F8013F203B44
:104AF00002FA03F00842F7D120782E2819D114F8D1
:104B0000010F47F004072A280ED06FF02F022078FB
:104B1000A0F1300109290CD808EB880102EB410112
:104B200000EB0108641CF2E70A98641C50F8048B3F
:104B30000A9020780028CED0642808D0692806D0B2
:104B400075281ED05A460B9990476D1C58E00A995B
:104B50004FF00A0901C90A91002802DA40422D21CA
:104B600002E0390504D52B218DF82010012103E046
:104B7000F90704D02021F7E78A4608AE0DE00021AE
:104B8000FAE70A994FF00A0901C90A91F7E749467D
:104B9000FBF707FC303106F8011D0028F7D1ADEB1B
:104BA000060000F12009780701D44FF00108C8453C
:104BB00002DDA8EB090000E000208046002706E0A7
:104BC00008A85A46C05D0B9990476D1C7F1C57453D
:104BD000F6DB04E030205A460B9990476D1CB8F183
:104BE0000001A8F10108F5DC05E016F8010B5A46B2
:104BF0000B9990476D1CB9F10001A9F10109F4DC92
:104C0000641C65E70928010010B5ACB0044680219A
:104C100001A8FBF781FBFF208DF8040021A9A12C3E
:104C200054D0A22C7ED0A32C7DD0A42C4CD15C4897
:104C300001AB028800EE102AB8EE400A8DED210A81
:104C4000428800EE102AB8EE400A8DED220A8288D2
:104C500000EE102AB8EE400A8DED230AC28800EE5D
:104C6000102AB8EE400A8DED240A028900EE102ABF
:104C7000B8EE400A8DED250A428900EE102AB8EE02
:104C8000400A8DED260A828900EE102AB8EE400A0D
:104C90008DED270AC28900EE102AA422B8EE400A40
:104CA0008DED280A008A00EE100AB8EE400A8DED5C
:104CB000290A00912421092000F0A3F86423282266
:104CC00001A93848FDF73EFE2CB010BD364890EDE6
:104CD000000A36488DED210A90ED000A34488DED2A
:104CE000220A90ED000A33488DED230A90ED000A68
:104CF00031488DED240A90ED000A30488DED250AEB
:104D000090ED000A2E488DED260A90ED000A2D4800
:104D10008DED270A90ED000A2B488DED280A90EDC5
:104D2000000A01E006E01CE08DED290A01ABA1229A
:104D30000091BFE7254801ABA22290ED000A24486C
:104D40008DED210A90ED000A22488DED220A90EDAA
:104D5000000A8DED230A90ED010A8DED240A0091E1
:104D600016E01D4801ABA32290ED000A1B488DED13
:104D7000210A90ED000A1A488DED220A90ED000AF2
:104D800018488DED230A90ED000A8DED240A00915C
:104D90001021042000F035F86423142290E700006D
:104DA000E80F00202C050020A4000020A80000200F
:104DB000AC000020B0000020B4000020B8000020AB
:104DC000C8000020CC000020D000002028010020D6
:104DD0002C01002054000020340100203801002064
:104DE0008C0000209000002078B50B466C4603E054
:104DF000C55C5E1A5B1CA5559342F9DD9DED000A6A
:104E000078BDF0B50025059F5A7099702C460EE0CC
:104E1000032207EB840606EB020C02EB840E1CF85F
:104E200003CC521C03F80EC0072AF4DB641C844236
:104E3000EEDB0120CA1C03E01C5C401C2C44E5B2E4
:104E40009042F9DB5818C570F0BD000013B54FF65D
:104E5000FF73012269460248FDF774FD00981CBDEE
:104E600074050020FCF7D2F9FFF74EF8FEF7BEFA02
:104E7000FEF7C8F9FEF7A2FDFEF768FDFEF782FD1A
:104E8000FEF7B8FDFEF7D2FDFEF7ECFDFEF754FB92
:104E9000FEF7C6FBFEF742FCFEF7A6FCFEF788FB1A
:104EA000FEF7A2FBFEF768FBFEF706FD40F2DC52C0
:104EB0000121032000F076FF4FF47A7202210320D3
:104EC00000F070FF012202210548FBF700FFFEF70A
:104ED000DBFF00F0ABF8FEF70BFA00F0B9F8FEE7E5
:104EE000000C0240254B00B5B3F9000000EE100A9B
:104EF0000320B8EEC00A00F043F8B3F9020000EE58
:104F0000100A0520B8EEC00A00F03AF8B3F9040020
:104F100000EE100A0420B8EEC00A00F031F8B3F930
:104F2000060000EE100A0120B8EEC00A00F028F8D2
:104F3000B3F9080000EE100A0720B8EEC00A00F02E
:104F40001FF8B3F90A0000EE100A0620B8EEC00AF6
:104F500000F016F8B3F90C0000EE100A0820B8EEC5
:104F6000C00A00F00DF8B3F90E005DF804EB00EE96
:104F7000100A0220B8EEC00A00F002B8F4110020B6
:104F8000DFED1F0AB4EEE00AF1EE10FA01DDB0EE3B
:104F9000600ADFED1C0AB4EEE00AF1EE10FA01D26D
:104FA000B0EE600ADFED180A092830EE201AB3EEE1
:104FB000040AC1EE000A9FED150A30EE800ABCEE2D
:104FC000C00A10EE101A8AB219D2DFE800F01805F4
:104FD000070A0C1012141600042100E0032101201E
:104FE00003E0042100E00321022000F0DBBE0221E7
:104FF000F5E70121F3E70221F6E70121F4E7704725
:1050000000001644000016C400007A440000C842A4
:1050100010B5EFF3058111B16FF0050403E0002432
:1050200008B101F02FF9204610BD0000EFF3058014
:1050300010B16FF0050070470448016811B14FF0DE
:10504000FF30704701210160002070478C01002073
:1050500010B5EFF3058010B16FF0050010BD0848E2
:105060000168012902D04FF0FF3010BD054A002130
:1050700082F8141D0221016001F0B4F9002010BD76
:105080008C0100200BE000E02DE9FF414FEA010315
:105090004FF00005EFF30581039549BB40B380272E
:1050A000182100244AB3166806B1344696691EB129
:1050B0003146761E382E02D21679F60703D000202C
:1050C00004B0BDE8F081566906B1B708D2F808C04F
:1050D000BCF1000F0DD0D5685C2D18D312693AB120
:1050E00036B18DE806103A46214601F0D6FE03900F
:1050F0000DE0D6685EB912694AB903AACDE900127B
:10510000BAB2214601F09CFE012800D00395039815
:10511000D6E700002DE9F04F04297DD30278FF2A5D
:105120007AD182784578131D8B427DD800231946A9
:10513000D41C03E0465C491C3344DBB2A142F9DBDA
:105140008118C97899426FD1C41CB12D6ED0B22D8F
:105150007ED0C62D68D14E4F002503220021204667
:10516000FFF742FEC5EBC50007EBC006072286ED40
:10517000060A04212046FFF737FE86ED070A0B22B8
:1051800008212046FFF730FE6D1CEDB286ED080ABF
:10519000082DE2D3DFF8FC8000254FF0030B4FF021
:1051A00007094FF0040A00BF05EB450005EB450673
:1051B00081000BEB86022046FFF716FEC5EBC5010A
:1051C00008EBC10709EB860287ED060A0AEB8601A8
:1051D0002046FFF709FE0B2000EB8602082000EBBB
:1051E000860187ED070A2046FFF7FEFD6D1CEDB234
:1051F00087ED080A062DD7D35A2254212046FFF7FF
:10520000F3FD254D5E225B2185ED000A2046FFF768
:10521000EBFD85ED010A00E006E062225F212046F9
:10522000FFF7E2FD85ED020ABDE8F08F1B482588F7
:10523000058061884A424280A1888180E3885B4280
:10524000C38026890681648944811548058000E071
:105250000AE014480280144801801448038014486E
:10526000068014480480DFE713492078087013484B
:10527000A178017021794171A1794170217A817100
:10528000A17AC171217B8170A17B0171CCE7000003
:10529000F00D0020A00C0020940C0020860C0020B3
:1052A0005C0000205E000020600000206200002002
:1052B00064000020660000207C0000207E000020AA
:1052C0007CB500231A461C460DE0065DAA2E09D1C6
:1052D00006197678A12E0BD0A32E09D0A42E07D0C4
:1052E000A52E05D0ECB2651C8D42EED39C1C0BE0C4
:1052F000641CE3B2FAE7055DFF2D04D1051915F82A
:10530000015CAF2D20D0641CE4B28C42F3D3C15CAD
:10531000A1291CD0364CA3293DD0A4295DD0A529B4
:1053200011D1D11A491E01290DDBC118835C4978BE
:1053300010440B4410F8010CDBB2984203D16529EC
:1053400001D1012060707CBD641EE2B2DFE7D11A9A
:10535000491E1229F7DBC118855C11F8013F104482
:105360008C7810F8010C2344CC7B2C442344DBB212
:105370009842E8D11F4A002001EB40031B885BBA2A
:1053800022F81030401CC0B20928F5D3108900283B
:10539000D9D110817CBDD11A491E0429FADBC1186C
:1053A00011F8013FCD782B44855C10442B4410F854
:1053B000010CDBB29842EDD1088840BA00EE100A29
:1053C000B8EE400A84ED020A488840BA00EE100A9E
:1053D000B8EE400A84ED010A7CBD07A10622D1E99E
:1053E0000001CDE9000169460548FDF7FBFA7CBDE7
:1053F00088000020E80F0020AAA4CC7BAFFF0000AB
:105400005404002070B50C460546074B074A00F0CF
:105410000FF821462846044BBDE87040034A1B1D87
:10542000121D00F005B8000024010020A47400083B
:105430002DE9F0479A4690460E46074600250AE0B9
:105440007819044604224146FAF771FF10B9207911
:105450003A2803D06D1C681DB042F1DB681D4FF087
:10546000FF3CB0421DDA6C1D012000231A466FF08C
:105470002F090CE02D2917D0A1F13008B8F1090F40
:105480000AD803EB830809EB48030B44641CB442BD
:1054900002DA395D2E29EDD1B44202DA395D2E29C6
:1054A00004D06046BDE8F0876046EFE70021641C49
:1054B00010E000BF17F804C0ACF13008B8F1090FD4
:1054C0000AD802EB820809EB4802491C641C6244BA
:1054D000022901DAB442EDDBE1B101291CD06421DB
:1054E00000EE101AF8EE400A00EE102AB8EEC00ADC
:1054F00080EE201A00EE103AB8EEC00A71EE000AF3
:1055000000EE100A601BB8EEC00A20EE800A8AED99
:10551000000AC7E70121E3E70A21E1E72DE9F041AD
:10552000134C0F460546E6682068001D00F076FD26
:10553000681C07D137B12168BDE8F0410D48091D4D
:1055400000F0BCBD20683544B5424560216805D2F5
:10555000A06BBDE8F041091D00F098BD606B091D0E
:1055600000F094FDA06A854200D2A562BDE8F081FA
:105570003C010020081800202DE9F041054600F00C
:10558000A9FD2D4CA068401CA06020682B4F10B1D5
:10559000606930B32BE02560A068012827D1002680
:1055A00006EB860007EB800000F062FD761C382ECB
:1055B000F6D3234800F05CFD2148143000F058FD7C
:1055C0001F48283000F054FD1D483C3000F050FDCD
:1055D0001B48503000F04CFD194860631430A06344
:1055E00005E02068E96AC06A884200D82560606AE0
:1055F000401C60626864E86A2169884200D92061C1
:1056000000EB800007EB8000291D00F057FD00F043
:1056100081FD606900280CD02068E96AC06A884270
:1056200007D208494FF080500860BFF34F8FBFF397
:105630006F8FBDE8F08100003C010020581300206E
:10564000B817002004ED00E038B500F043FD104C21
:105650002068C8B90F4800F00BFD0E48143000F068
:1056600007FD0C48E060143020610A4B0020F03B3D
:10567000009003F1500210210A2001F02CF8206064
:1056800010B105A100F0C8FDBDE8384000F042BDF2
:10569000780100200C190020546D725100000000A8
:1056A00030B4026C0B46002A0BD0C1681144C160B3
:1056B0008468A14201D30168C16030BC1846FAF782
:1056C00012BE30BC70472DE9F041856B1746044689
:1056D0000026026C82B1C7B1E068FAF704FEE16807
:1056E000206C091AE1602268914202D2A168081A6E
:1056F000E060022F16D017E02068A8B9A06801F07A
:105700006FFC06460020A0600EE06068FAF7EBFD33
:10571000216C606808446060A168884204D32068F6
:10572000606001E005B16D1E6D1CA5633046BDE8EB
:10573000F08110B5044690F8590058B101280CD0FA
:1057400002280FD0502080F31188BFF34F8FBFF392
:105750006F8FFEE7206B00F0F1FC2046BDE81040A3
:1057600000F0ECBC10BD000010484FF4705142072F
:1057700006D0C01D0D4920F00700411AC1F5705137
:105780000B4A00230144C2E900030839183A21F00A
:10579000070111604B600B600B1AC0E900139360A6
:1057A0004FF000405360506170470000EC1F002034
:1057B000A8010020144E154CA6F29C474FF08058CB
:1057C000DFF84C9012E000BF00F084FCF068C56880
:1057D000281D00F023FCA068401EA0606068401EE9
:1057E000606000F097FC2846FFF7A3FF6068002880
:1057F000EAD138680128F9D9C9F80080BFF34F8F82
:10580000BFF36F8FF2E70000F41700203C01002087
:1058100004ED00E070B51D46049C51B1C4F80020B1
:10582000C4E90F010121204600F088FF84F84C50A4
:1058300070BD2460F4E700002DE9F05F8846DDE9E3
:105840000B941546834691009A460A9EA522206B2A
:10585000FAF75BFD6FF00301206B01EB8501084453
:1058600020F00707780707D0502080F31188BFF396
:105870004F8FBFF36F8FFEE70025B8F1000F0FD0F9
:105880005FF00000221818F8001082F8341018F8A1
:10589000001011B1401C1028F4D384F8435001E0EB
:1058A00084F83450382E00D33726E662C4E91365F5
:1058B000201D00F0E8FB04F1180000F0E4FB246177
:1058C000C6F138006462A061656584F8585052469C
:1058D0005946384600F08AFA2060B9F1000F01D02D
:1058E000C9F80040BDE8F09F30B5114900E011460D
:1058F0000A688242FBD34B685C18844203D140683B
:1059000018444860084643681C18944209D1084C62
:10591000183C2468A24209D052681A4442600A68BE
:1059200012680260814200D0086030BD0460F9E76F
:10593000A801002070B5002441600B4D0061914228
:1059400006D8D11A8269914206D2011D286907E062
:105950009A4203D2994201D3012403E0011DE86871
:1059600000F094FB204670BD7801002010B504467D
:1059700000F0B0FBA06B28B15FF0000400F0CAFBA0
:10598000204610BD0124F9E730B589B03C4D6EE0EA
:105990000498002806DADDE90601059A9047049884
:1059A000002864DB069C606910B1201D00F036FB06
:1059B00003A800F0D7F8024604980A2857D2DFE877
:1059C00000F00505052D334A05052D3394F8280010
:1059D00040F0010084F828000599A069059B014466
:1059E0002046FFF7A7FF68B3216A2046884794F84E
:1059F000280040073BD5002000900598A1690023AE
:105A000042181946204601F031FCD8B9502080F3E5
:105A10001188BFF34F8FBFF36F8FFEE714F8280F85
:105A200020F00100207022E094F8280040F00100EE
:105A300084F828000598A06128B1811813462046F3
:105A4000FFF778FF13E0502080F31188BFF34F8FEA
:105A5000BFF36F8FFEE794F82800810703D4204638
:105A600000F06CFB03E020F0010084F82800002225
:105A700004A9286801F004F8002889D109B030BDD4
:105A8000780100202DE9FC410F46054600F0EEFCB0
:105A900001A800F067F80446019818B101F054FB22
:105AA000BDE8FC81254EAFB130690068D0B3002756
:105AB000291B3A46306800F0C3FB01F045FB002883
:105AC000EED11F494FF080500860BFF34F8FBFF3F6
:105AD0006F8FE5E7A542EBD801F036FBF06827466B
