:020000040800F2
:10000000005900206102000899400008632F000891
:10001000C93F0008FD070008BD4B000800000000B4
:10002000000000000000000000000000A101000826
:100030003909000800000000FD010008994100088E
:100040007B0200087B0200087B0200087B0200089C
:100050007B0200087B0200087B0200087B0200088C
:100060007B0200087B0200087B0200081D080008D4
:10007000290800087B020008350800087B020008F8
:10008000410800084D0800087B0200087B020008B8
:100090007B0200087B0200087B0200087B0200084C
:1000A0007B02000875420008594200087B020008E4
:1000B0007B0200087B0200087B0200087B0200082C
:1000C0007B0200087B0200087B0200087B0200081C
:1000D0007B020008A14A0008AD4A00082D4B000829
:1000E0007B0200087B0200087B0200087B020008FC
:1000F0007B0200087B0200087B0200085908000808
:100100007B0200087B0200087B0200087B020008DB
:100110007B02000879450008914200087B02000834
:100120007B02000865080008710800087B020008CF
:100130007B0200087B0200087B0200087B020008AB
:100140007B0200087B0200087B0200087B0200089B
:100150007B0200087D08000889080008B14B0008F0
:100160007B0200087B0200087B0200087B0200087B
:100170007B0200087B0200087B02000800000000F0
:100180007B0200087B020008DFF810D000F086F93F
:1001900000480047254E0008AFF3008000590020BA
:1001A0002C4B19680868B0E8F04F80F30988BFF35A
:1001B0006F8F4FF0000080F311887047000000003F
:1001C00008480068006880F308884FF0000080F35A
:1001D000148862B661B6BFF34F8FBFF36F8F00DF35
:1001E00000BF00BF08ED00E0DFF80C00016841F43B
:1001F00070010160704700BF88ED00E0EFF30980F7
:10020000BFF36F8F134B1A681EF0100F08BF20ED5D
:10021000108A20E9F04F106009B44FF0500080F3CD
:100220001188BFF34F8FBFF36F8F05F051FF4FF071
:10023000000080F3118809BC19680868B0E8F04F25
:100240001EF0100F08BFB0EC108A80F30988BFF3CE
:100250006F8F70472C010020EFF30580704700007E
:100260000648804706480047FEE7FEE7FEE7FEE750
:10027000FEE7FEE7FEE7FEE7FEE7FEE7494200088D
:10028000890100082DE9F05F0546002092469B4653
:1002900088460646814640241BE02846414647469C
:1002A000224600F0B3F853465A46C01A914110D383
:1002B00011461846224600F09AF82D1A67EB0108FD
:1002C0004F4622460120002100F091F817EB00096B
:1002D0004E41201EA4F10104DFDC484631462A4687
:1002E0004346BDE8F09F2DE9F0410024061B25465A
:1002F00071F1000605DA01240027D0EB070067EB57
:100300000101161E73F1000605DA0027D2EB070281
:10031000012567EB0303FFF7B5FF86460E46174638
:100320009C46AC4204D00025D0EB050E65EB0106DF
:1003300024B10020D2EB000760EB030C704631467D
:100340003A466346BDE8F08140EA01039B0703D0CB
:1003500009E008C9121F08C0042AFAD203E011F804
:10036000013B00F8013B521EF9D27047D2B201E0C6
:1003700000F8012B491EFBD270470022F6E710B5AA
:1003800013460A4604461946FFF7F0FF204610BD03
:1003900000F0004230F000400AD0C10D01F560715C
:1003A000C0F3160042EA0151C208400711437047EA
:1003B00000200146704701F0004330B421F00041B5
:1003C00050EA010206D00A0DA2F56072C1F31301D2
:1003D000002A02DC30BC00207047440F44EAC1040C
:1003E000C100E01830BC00EBC25000F01FB8202A5A
:1003F00004DB203A00FA02F1002070479140C2F17C
:10040000200320FA03F3194390407047202A04DBAD
:10041000203A21FA02F00021704721FA02F3D0407D
:10042000C2F1200291400843194670470029A8BF35
:100430007047401C490008BF20F00100704710B40D
:10044000B0FA80FC00FA0CF050EA010404BF10BCC2
:10045000704749B1CCF1200421FA04F411FA0CF1EF
:1004600018BF012121430843A3EB0C01CB1D4FEA28
:1004700000614FEA102042BF002010BC704700EB23
:10048000C35010440029A4BF10BC7047401C490051
:1004900008BF20F0010010BC70470000064C074D5B
:1004A00006E0E06840F0010394E807009847103444
:1004B000AC42F6D3FFF76CFECC6F0008EC6F00087F
:1004C00070B58C1810F8015B15F0070301D110F816
:1004D000013B2A1106D110F8012B03E010F8016B43
:1004E00001F8016B5B1EF9D12B0705D40023521EC6
:1004F0000DD401F8013BFAE710F8013BCB1A921C2E
:1005000003E013F8015B01F8015B521EF9D5A1422B
:10051000D8D3002070BD00001CB56946F32000F060
:1005200037F8002829D101A9F52000F031F800287A
:1005300023D1BDF80000DFED121A00EE100A1248B8
:10054000F8EE400A9FED0D0A20EE801ADFED0D0A4D
:1005500041EE210A9FED0D1AC0ED030ABDF804100B
:1005600000EE901AF8EE600A60EE800AB9EE080A12
:1005700000EE810A80ED020A00201CBD00008037D9
:1005800052B82F4366663BC2C80000200000FA4202
:1005900033B583B00D466424012303AA80210C489F
:1005A000009400F073FE002810D1552000F094FB59
:1005B000032301AA80210648009400F06FFD002863
:1005C00004D1BDF8040040BA2880002005B030BD39
:1005D000AC0100202DE9F0474E4C82464E49206C7C
:1005E000E56AC217411842F1FF30A1FB012300FB6D
:1005F000013301FB0038236BA2FB0397DE1708FBD6
:100600000373A1FB057C02FB0633EE1700FB05C557
:1006100001FB06556E0446EAD7367F0417EB09073F
:100620005E41A36ADD0017F10009636A7541A2FB10
:10063000037CDE1708FB03C302FB0632236A3E0A73
:10064000A1FB03C800FB0380DF1701FB07000103C8
:1006500046EA02664FEA0C3041EA1C51301841EB81
:100660002222031CE06942F50041A3FB0076C21779
:1006700001FB006003FB02004210C31752EA0300B3
:1006800045D0CAF58010C117C907C60741EA500115
:10069000B6EB090640F63547A6FB070C61EB0501F2
:1006A00001FB07C1002506FB0511FFF71CFEE56BEA
:1006B000420B42EAC142A2FB057C4B13EE1703FB3F
:1006C00005C502FB0655A7FB026C05FB02C207FB32
:1006D0000323720E42EAC3125D16A36BA3FB007CD8
:1006E000DE1706FB00C603FB0166FB0C801843EA1D
:1006F00046336941C01841EBE6414FEA102040EA19
:100700000160616B4FEA01114018BDE8F0870020DD
:10071000FBE70000C8000020000CFEFF30B587B0EA
:1007200027208DF81400012005A9CDE900106424CC
:100730000346F4220294EC212C4800F03FFF0028ED
:1007400051D1082000F0C8FA082003A9CDE9001013
:100750000123F7220294EC21244800F02DFE00280A
:1007600041D19DF80C009DF80D10000340EA0110E6
:100770009DF80E109DF8102040EA11109DF80F1002
:100780001B4C090341EA02119DF81120236941EA3B
:100790001211CA10A2EB4302C3EB21116569494350
:1007A000A3696A430913D212594302EBA1312164B0
:1007B00001EB810180310D12FFF70CFF00EE105AA2
:1007C0009FED0C1A00EE900AB8EEC00A0020C0EEB1
:1007D000011AB8EEE00ADFED080A20EE200AC4EDA7
:1007E000001A84ED010A07B030BD0000AC01002002
:1007F000C80000200000C8420000803BFEE7000067
:10080000054D4FF4FA74204604F042FC04212846BA
:1008100000F06CFBF7E7000000100240014800F018
:10082000E9B8000060050020014800F0E3B80000CE
:10083000A0070020014800F0DDB8000000080020FB
:10084000014800F0D7B80000E0060020014800F0A1
:10085000D1B8000040070020014800F0CBB80000EC
:10086000C0050020014800F0C5B800006008002065
:10087000014800F0BFB8000020060020014800F049
:10088000B9B80000C0080020014800F0B3B800006B
:100890008006002001681823CAB2103AB2FBF3F2B6
:1008A000054B6FF30901032A9B5CC36500D9091D41
:1008B00081650846704700004C6F000810B501467E
:1008C00000208B698A6A4FF0C07453B1B3F5005FA2
:1008D00015D072B1012A0CD0022A0AD0032A09D1FC
:1008E00004E01AB1012A06D0022A03D1C96AC9015B
:1008F00000D5012010BDC96AA142FAD010BD002A5E
:10090000F7D0012AF2D0022AF3D0032AF3D010BD87
:1009100030B50468256825F4802525600468636087
:100920008368402B036803D099600068C26030BDC3
:100930009A600068C16030BD704772B6FEE72DE96D
:10094000F0410446876D00F0DFFA064694F8350062
:100950000025022806D08020606584F834500120EC
:10096000BDE8F0812068016821F01601016020686F
:10097000416921F080014161206C08B9A06C20B16F
:100980002068016821F0080101602068016821F0F9
:10099000010101600CE000F0B7FA801B052807D9BF
:1009A00020206065032084F8350084F83450D7E7B0
:1009B00020680068C007EED194F85C103F208840A2
:1009C000B860012084F8350084F834500020C7E76F
:1009D00090F83510022903D080214165012070472D
:1009E000052180F835100068016821F001010160DF
:1009F000002070472DE9F84304464FF00009CDF878
:100A0000009063484FF41651A56D0068B0FBF1F7F4
:100A10002E6894F85C10082000FA01F131420FD0E2
:100A200021680A6852070BD50A6822F004020A609E
:100A300094F85C108840A860606D40F0010060652B
:100A400094F85C104FF0010808FA01F0304208D029
:100A500021684969090604D5A860606D40F002006C
:100A6000606594F85C1004208840304208D021680A
:100A70000968890704D5A860606D40F004006065CE
:100A800094F85C1010208840304218D02168096822
:100A9000090714D5A86020680168490304D50068D7
:100AA000000308D5A16C07E00168C90503D40168FB
:100AB00021F008010160216C09B12046884794F8B3
:100AC0005C1020208840304231D021680968C90676
:100AD0002DD5A86094F8350005282068016806D057
:100AE000490347D5006800031DD4616C1CE021F068
:100AF000160101602068416921F080014161206C8C
:100B000008B9A06C20B12068016821F008010160DB
:100B100094F85C103F208840A86084F8358084F801
:100B20003490216D1FE0E16B09B120468847606D6C
:100B300000282BD0606DC00714D0052084F8350044
:100B40002068016821F0010101600098401C0090BC
:100B5000B84203D820680068C007F6D184F8358011
:100B600084F83490E16C002910D001B02046BDE833
:100B7000F04308470168C905D5D4016821F0100188
:100B8000016084F8358084F83490CCE7BDE8F883C0
:100B9000280000202DE9F041044600F0B5F9064692
:100BA0005CB1022084F83500002584F834502068B8
:100BB000016821F0010101600DE00120BDE8F08134
:100BC00000F0A2F9801B052805D9202060650320CC
:100BD00084F83500F2E720680068C007F0D1226889
:100BE000116820480140D4E901031843D4E90336D1
:100BF0003343184363691843A3691843E3691843EF
:100C0000236A18430843616A042903D1D4E90B130A
:100C100019430843106020684069666A20F00701A4
:100C200030460E43012704280CD1A06A0643E06A2F
:100C300040B12046FFF742FE20B14020606584F8B5
:100C40003570BAE7206846612046FFF723FE94F826
:100C50005C203F2191408160656584F835700020FB
:100C6000ACE700003F8010F02DE9F0410446866DAE
:100C700090F83400002501280DD0012084F83400BC
:100C800094F835700020012F07D084F83400022535
:100C90002846BDE8F0810220FBE7022784F8357082
:100CA00060652046FFF734FE94F85C103F208840D2
:100CB000B0602068016841F016010160206C20B12D
:100CC0002068016841F0080101602068016841F076
:100CD00001010160DCE7000070B5044600F014F982
:100CE0000546601C02D004480078044400F00CF96A
:100CF000401BA042FAD370BD1C0000202DE9F84F24
:100D0000DFF8BCA10022012503264FF00F090AF1EC
:100D1000040BAAF1040E00BF0B6805FA02F423408D
:100D2000A34270D10F7907F00307012F01D0022FE2
:100D300016D187684FEA420806FA08FC27EA0C0732
:100D4000D1F80CC00CFA08FC4CEA070CC0F808C03B
:100D50004768A7430C79C4F3001494403C434460B3
:100D60000C79E443A4070AD0C4684FEA420C06FA9F
:100D70000CF7BC438F6807FA0CF72743C7600C7960
:100D800004F00304022C12D1D40800EB840CDCF82C
:100D900020405707FF0E09FA07F824EA0804D1F8A3
:100DA000108008FA07F848EA0408CCF820800468A4
:100DB0004FEA420C06FA0CF7BC430F7907F0030721
:100DC00007FA0CF7274307604C6814F4403F70D0D3
:100DD0003C4C276847F480472760246822F00307CB
:100DE00004F480440094384C07EB040CDCF8084809
:100DF00097074FEA177809FA08F7BC43334FB84210
:100E000002D1002724E054E0314FB84201D101273C
:100E10001EE0304FB84201D1022719E02E4FB842F0
:100E200001D1032714E02D4FB84201D104270FE070
:100E30002B4FB84201D105270AE02A4FB84201D111
:100E4000062705E0284FB84201D1072700E0082710
:100E500007FA08F72743CCF80878DAF80040574635
:100E6000D1F804C09C435FEACC2C00D51C433C6005
:100E7000DBF800405F46D1F804C09C435FEA8C2C4D
:100E800000D51C433C60DEF800407746D1F804C032
:100E90009C435FEA8C3C00D51C433C60084F083FF4
:100EA0003C68D1F804C09C435FEACC3C00D51C43AD
:100EB0003C60521C102AFFF42FAFBDE8F88F0000F1
:100EC000083C01404438024000300140000002402C
:100ED0000004024000080240000C024000100240E2
:100EE0000014024000180240001C0240426921EA3E
:100EF00002030A4043EA0241816170470AB18161FD
:100F000070470904FBE70000014880687047000053
:100F10001C00002070B5040025D094F83D00002589
:100F200020B984F83C50204600F0E0FB242084F8EF
:100F30003D002068016821F001010160206801681E
:100F400041F4004101602068016821F40041016022
:100F500000F086FD4D4A6168914201D84C4900E09D
:100F60004C49884201D2012070BD4B492368B0FB37
:100F7000F1F15E6826F03F060E435E6063689342BF
:100F800006D94FF4967359434FF47A73B1FBF3F1DA
:100F90002368491C1E6A26F03F06314319626168C6
:100FA000914210D84900401EB0FBF1F2521CC2F32E
:100FB0000B02042A01D2042022E0B0FBF1F0401C15
:100FC000C0F30B001CE0A268F2B301EBC10303EB1A
:100FD0000116431EB3FBF6F35B1C43F480431B0571
:100FE00049D092B301EBC10202EB0111401EB0FBEC
:100FF000F1F0401CC0F30B0040F4804040F400408E
:101000002168CA694CF6FF739A431043C861D4E95A
:10101000071001432068026822F0C00211430160FA
:10102000D4E9030101432068826848F2FF339A4300
:1010300011438160D4E9050108432168CA6822F0A0
:10104000FF021043C86001E00EE016E0206801686E
:1010500041F0010101602564202084F83D002563F2
:1010600084F83E50002070BD01EB4106431EB3FBE7
:10107000F6F35B1CB3E70120C2E701EB4101401E20
:10108000B0FBF1F0401CC0F30B00B7E7A0860100F5
:1010900080841E0000093D0040420F002DE9F84FFA
:1010A0001F4690468A460446DDF82890FFF72CFF3D
:1010B000054694F83D00202871D11923012270497A
:1010C0002046009502F028F90028F5D194F83C005C
:1010D000012864D0012084F83C0020680168C90719
:1010E00003D1016841F0010101602068016821F429
:1010F00000610160222084F83D00102084F83E0049
:1011000000262664C4F824806785608D20855D48AC
:10111000E0622B464A465146204601F03BFF00283C
:1011200076D1208D584F68B1012814D0022820684C
:10113000016816D041F480610160206841698069CE
:1011400000908EE02068416981690091016841F456
:101150000071016085E02068016821F48061016010
:10116000F0E721F4806101602068016841F40061CA
:10117000E2E7032846D801280AD0022810D04B46BF
:10118000002239462046009502F0C6F8C8BB25E08B
:101190002A464946204602F065F990BB54E06CE0CF
:1011A0004B46002239462046009502F0B5F840BB78
:1011B0002068016841F40071016020680069616A7B
:1011C0000870606A401C6062218D491E2185618D16
:1011D000491E618521680969017039E0206801684C
:1011E00021F48061016020680069616A0870606AAA
:1011F000401C6062208D401E2085608D401E6085F1
:10120000CEE705E02A464946204602F02BF910B108
:101210000120BDE8F88F20680069616A0870606A83
:10122000401C6062208D401E81B22185608D401E71
:10123000608520684269D243520712D4032903D142
:10124000016821F48061016020680069616A0870AA
:10125000606A401C6062208D401E2085608D401EAB
:101260006085208D002884D1202084F83D0084F8FA
:101270003E6084F83C600020CBE70220C9E7000014
:10128000020010000000FFFF040001002DE9F84FEC
:101290001F4690468A460446DDF82890FFF734FE44
:1012A000054694F83D0020287FD1192301224049AA
:1012B0002046009502F030F8002876D194F83C00E2
:1012C000012872D0012084F83C0020680168C90719
:1012D00003D1016841F0010101602068016821F437
:1012E00000610160212084F83D00102084F83E0058
:1012F00000262664C4F824806785608D20852D48EB
:10130000E0622B464A465146204601F0B9FE90B9AC
:10131000206841698069009036E02A4649462046A7
:1013200002F0D8F850B1206C042804D1206801687C
:1013300041F4007101600120BDE8F88F606A216806
:1013400000780861606A401C6062618D491E618599
:10135000218D491E89B2218522685369DB435B07D1
:101360000BD451B100781061606A401C6062608DDE
:10137000401E6085208D401E20852A464946204615
:1013800001F09EFF0028CED1208D0028C5D154F851
:101390003D0B016841F400710160202004F81E0932
:1013A000E67766770020C7E7FFE70220C4E7000082
:1013B000020010000000FFFF2DE9FF4F83B09A46A6
:1013C000DDE9118793460446DDF84090FFF79CFD68
:1013D000054694F83D00202870D119230122744954
:1013E0002046009501F098FF0028F5D194F83C00C4
:1013F000012863D0012084F83C0020680168C907F7
:1014000003D1016841F0010101602068016821F405
:1014100000610160222084F83D00402084F83E00F5
:1014200000262664C4F82490A4F82A80608D2085C4
:101430006048E062CDE9007553465A46204604995B
:1014400001F06CFE002879D1208DD0B1012821D087
:101450000228206824D0416980690090208D0328EB
:1014600066D801282BD0544902283B464FF0000291
:10147000009557D08846204601F04EFF00285DD1E8
:101480003AE02068416981690091016841F4007186
:1014900001607DE02068016821F480610160F0E76F
:1014A000016821F4806101602068016841F40061F5
:1014B0000160206841698069009069E075E02A4612
:1014C0003946204601F0CEFF88BB54E02068016811
:1014D00041F40071016020680069616A0870606A07
:1014E000401C6062218D491E2185618D491E6185E8
:1014F00021680969017042E02068016821F4806177
:10150000016020680069616A0870606A401C60625E
:10151000208D401E2085608D401E60853B46002248
:1015200041460095204601F0F7FE00B9CEE705E000
:101530002A463946204601F095FF18B1012007B030
:10154000BDE8F08F20680069616A0870606A401C1D
:101550006062208D401E81B22185608D401E6085B5
:1015600020684269D243520712D4032903D101688B
:1015700021F48061016020680069616A0870606A16
:10158000401C6062208D401E2085608D401E60855D
:10159000208D00287FF462AF202084F83D0084F87D
:1015A0003E6084F83C600020C9E70220C7E70000E5
:1015B000020010000000FFFF040001002DE9FF4FB2
:1015C00083B09A46DDE9119793460446DDF84080E2
:1015D000FFF79AFC054694F83D0020287FD1192397
:1015E000012240492046009501F096FE002876D160
:1015F00094F83C00012872D0012084F83C00206857
:101600000168C90703D1016841F001010160206848
:10161000016821F400610160212084F83D00402030
:1016200084F83E0000262664C4F82480A4F82A909A
:10163000608D20852C48E062CDE9007553465A46FE
:101640002046049901F0E8FD70B930E02A46394699
:10165000204601F03FFF58B1206C042804D12068D7
:10166000016841F400710160012007B0BDE8F08F0E
:10167000606A216800780861606A401C6062218DA0
:10168000491E89B22185628D521E62852268536986
:10169000DB435B070BD469B100781061606A401CC2
:1016A0006062208D401E2085608D401E6085208DEB
:1016B0000028CBD12A463946204601F001FE0028F9
:1016C000CAD154F83D0B016841F40071016020203B
:1016D00004F81E09E67766770020C6E7FFE70220D8
:1016E000C3E70000020010000000FFFF10B586B045
:1016F000044614216846FEF740FE144920688842DB
:1017000021D113480021026842F002020260006801
:1017100000F0020005904FF4406000901220CDE9E7
:101720000101032003900420049069460948FFF753
:10173000E5FA07481030016841F480010160006853
:1017400000F48000059006B010BD00000058004075
:101750003038024000040240024881680278114497
:10176000816070471C0000200B4810B5016841F4EF
:1017700000710160016841F480610160016841F419
:1017800080710160032000F09FF80F2000F006F840
:1017900000F050F8002010BD003C024030B5054676
:1017A0001F4887B00024016841F010010160006803
:1017B00006A900F01000009001A800F031F904988B
:1017C000A8B100F04DF940001649174AB0FBF1F1FD
:1017D0001648491E026040F2E732C0E90324C0E91E
:1017E0000114846100F0B8FB040003D015E000F0A0
:1017F00037F9E9E70D4800F04BFC04000DD1362025
:1018000000F034F8102D07D200222946362000F0CF
:101810003BF80748056000E0012407B0204630BDD2
:101820004038024040420F000010004020090020D4
:10183000200000200C4882B0016841F48041016022
:10184000006800F4804000900748001F016841F0E4
:10185000805101600068002200F0805000900F214C
:10186000901E02B000F010B844380240002809DB96
:1018700000F01F02012191404009800000F1E020AA
:10188000C0F8001170470000F0B40E4B1B680C4606
:10189000C3F30223C3F10705042D00D90425191D44
:1018A000072901D2002300E0DB1E012606FA05F11C
:1018B000491E214099409E40761E16403143F0BC9F
:1018C00003F07DB90CED00E0064900F0070208685E
:1018D0004FF6FF03184040EA0220034A1043086015
:1018E000704700000CED00E00000FA052DE9F0471C
:1018F0000E46050065D0DFF81481D8F80000F7B275
:1019000000F00700B04207D288F80070D8F8000055
:1019100000F00700B04254D128683D4C810712D531
:10192000400703D5206840F4E05020602878000785
:1019300003D5206840F4604020602068A96820F04A
:10194000F000084320602878C0072DD0304968682F
:101950000839012812D0022813D0032811D00968B1
:10196000890700292DDA216821F003010143216054
:10197000FFF7CAFA814641F2883A0EE00968890306
:10198000EFE709688901ECE7FFF7BEFAA0EB090170
:10199000514502D90320BDE8F0872068696800F04E
:1019A0000C00B0EB810FEFD1D8F80010404601F0E9
:1019B0000701B14207D90770006800F00700B04284
:1019C00001D00120E7E72878400705D52068E968BD
:1019D00020F4E050084320602878000706D52068EE
:1019E000296920F4604040EAC100206000F058F806
:1019F0002168084AC1F30311515CC84006490860D8
:101A000006480068FFF7CAFE0020C4E7003C024019
:101A100008380240546F00082800002020000020F1
:101A20000F2202600C4A136803F00303436013683B
:101A300003F0F0038360136803F4E053C36012689B
:101A40004FF4E05303EAD20202610448006800F058
:101A5000070008607047000008380240003C024060
:101A60000448054900680968044AC1F38221515CB1
:101A7000C84070472800002008380240646F000802
:101A80000448054900680968044AC1F34231515CC1
:101A9000C84070472800002008380240646F0008E2
:101AA000154810B5006810F00C02144813D0144902
:101AB000042A0FD0082A0ED10F4C241F2268236855
:101AC00002F03F025B0207D52068C0F38810A0FB3C
:101AD000010106E0084610BD2168C1F38811A1FB91
:101AE00000010023FEF7CEFB2168C1F30141491C30
:101AF0004900B0FBF1F010BD083802400024F400AA
:101B000000366E012DE9F84F04006ED02078DFF822
:101B10004C93C007A9F104054AD009F104000168FB
:101B2000C1F38101012908D00068C0F381000228B7
:101B30000AD1D9F80000400206D52868800337D5BD
:101B400060680028E1D033E06068B0F5803F10D0D5
:101B5000B0F5A02F286810D020F4803028602868C5
:101B600020F4802028606068A8B1FFF7CDF9064610
:101B70000DE0286840F48030F4E740F480202860CD
:101B8000F7E700BFFFF7C0F9801B642873D8286807
:101B90008003F7D50CE0FFF7B7F9064605E000BF74
:101BA000FFF7B2F9801B6428F0D828688003F7D4C7
:101BB0002078DFF8AC8280074FF0000A3ED5A748B6
:101BC000001D016811F00C0F08D00068C0F38100FF
:101BD00002280BD1D9F80000400207D428688007FA
:101BE00016D5E068012800D112E033E1E068B8B111
:101BF0000120C8F80000FFF787F9064605E000BF9E
:101C0000FFF782F9801B0228C0D828688007F7D523
:101C10002868216920F0F80040EAC10028600DE042
:101C2000C8F800A0FFF770F9064604E0FFF76CF96A
:101C3000801B02281FD828688007F7D42078000767
:101C400022D5864F87486169703771B101210160E3
:101C5000FFF75AF9064604E0FFF756F9801B022801
:101C600009D838688007F7D50EE0C0F800A0FFF764
:101C70004BF9064605E082E0FFF746F9801B022893
:101C80007DD838688007F7D42078400768D5DFF81A
:101C9000CCB100270BF13C0BDBF80000C0000BD4EB
:101CA000DBF8001041F08051CBF80010DBF80000A9
:101CB000012700F0805000906B4E3068C00510D4B2
:101CC000306840F480703060FFF71EF9009005E046
:101CD000FFF71AF90099401A022850D83068C00559
:101CE000F6D55E4EA0686C3601280FD00528306806
:101CF00010D020F001003060306820F00400306027
:101D0000A068B8B1FFF700F900900FE0306840F02C
:101D10000100F4E740F004003060F7E7FFF7F4F863
:101D20000099411A41F28830814266D830688007B4
:101D3000F4D50EE0FFF7E8F8009007E0FFF7E4F8CD
:101D40000099411A41F28830814256D830688007A4
:101D5000F4D42FB1DBF8001021F08051CBF8001043
:101D6000A069C8B33D49091D0968C1F38101022971
:101D70004AD00228504607D0C8F8600000E03CE096
:101D8000FFF7C2F804463BE04746C8F86000FFF79B
:101D9000BBF8064605E000BFFFF7B6F8801B022837
:101DA0002BD828688001F7D4D4E907010843A16A39
:101DB0002E4A490802EB0141626A41EA8211084356
:101DC00094F82C1040EA0161C9F80010012038662F
:101DD000FFF79AF8044606E03EE000BFFFF794F8EC
:101DE000001B022809D828688001F7D534E000BF1D
:101DF000FFF78AF8001B022802D90320BDE8F88FFC
:101E000028688001F4D427E00128F7D0D9F8000031
:101E1000E26900F4800191421CD1226A00F03F0186
:101E2000914217D147F6C071626A0140B1EB821F3F
:101E300010D1A26A4FF0FF3300F4403103EB52029D
:101E4000B1EB024F06D194F82C1000F07060B0EBAB
:101E5000016F01D00120D1E70020CFE70438024014
:101E600000004742800E4742007000400000FFFF24
:101E70007047704710B590F83C20012A22D001220B
:101E800080F83C20CA688C6822F4407222434C6877
:101E900022F4806222430C6822F4006222430C691F
:101EA00022F4805222434C6922F400522243C96931
:101EB000002322F480420A4301684A6480F83C30DF
:101EC000002010BD022010BD70B590F83C20012A02
:101ED00032D0012480F83C40022280F83D20036883
:101EE0005A689D6822F070060A6832435A60134BA4
:101EF00002689A4214D0B2F1804F11D0104B9A422E
:101F00000ED0104B9A420BD00F4B9A4208D00F4B79
:101F10009A4205D00E4B9A4202D00E4B9A4204D1FF
:101F2000496825F080031943916080F83D40002105
:101F300080F83C10084670BD022070BD00000140D2
:101F40000004004000080040000C00400004014074
:101F5000004001400018004010B5040003D094F880
:101F60003D0010B107E0012010BD002084F83C00C6
:101F7000204600F01FF8022084F83D00211D206853
:101F800002F08CF9012084F8460084F83E0084F8C1
:101F90003F0084F8400084F8410084F8420084F84F
:101FA000430084F8440084F8450084F83D00002094
:101FB00010BD000008B53049026830488A4210D18F
:101FC000016841F0010101600068002200F0010099
:101FD000009005211920FFF757FC1920FFF746FC58
:101FE00035E02649091FB2F1804F0BD0244B9A42AD
:101FF00010D1086840F002000860086800F0020094
:10200000009008BD086840F001000860086800F012
:102010000100F5E71B4B9A420ED1016841F40031F3
:1020200001600068002200F40030009005211920B2
:10203000FFF72AFC192010E0134B9A4211D10168D6
:1020400041F480210160006800F4802000900022AB
:1020500005211A20FFF718FC1A20BDE80840FFF7F9
:1020600005BC0A488242CCD1086840F48070086000
:10207000086800F48070C3E7000001404438024063
:10208000000400400044014000480140002000409E
:1020900090F83D10012901D001207047022180F8FD
:1020A0003D100168CA6842F00102CA600068114927
:1020B000884214D0B0F1804F11D00F4988420ED021
:1020C0000E4988420BD00E49884208D00D498842FB
:1020D00005D00D49884202D00C49884204D181685C
:1020E00001F00701062903D0016841F001010160F8
:1020F000002070470000014000040040000800403C
:10210000000C004000040140004001400018004065
:1021100070B5044690F83C000025012817D0012630
:1021200084F83C60022084F83D002068826822F038
:10213000770222F47F4282600868502838D00DDC94
:1021400020284FD005DC90B3102811D14AE002209E
:1021500070BD302846D040280AD13BE060282FD0FF
:1021600070280DD0B0F5805F03D0B0F5005F12D0BD
:10217000012584F83D60002084F83C00284670BDAD
:10218000CB68D1E90121206802F0FDF82068816860
:1021900041F0770109E0CB68D1E90121206802F024
:1021A000F2F82068816841F480418160E1E719E03C
:1021B000CA684968206802F0BBF95021206806E02F
:1021C000CA684968206802F0C4F96021206802F0FA
:1021D000E4F8CEE7CA684968206802F0A9F940210E
:1021E0002068F4E7226801461046F0E770472DE9C1
:1021F000F04104460068C66805694FF00007A9076A
:1022000013D5B10711D5F91E01610120207720688F
:1022100080698007204602D0FFF7E8FF04E000F065
:10222000F7F8204600F089F92777680716D5700778
:1022300014D521686FF0040008610220207720681F
:10224000806910F4407F204602D0FFF7CFFF04E002
:1022500000F0DEF8204600F070F92777280715D542
:10226000300713D521686FF008000861042020773B
:102270002068C0698007204602D0FFF7B7FF04E05E
:1022800000F0C6F8204600F058F92777E80616D582
:10229000F00614D521686FF010000861082020773F
:1022A0002068C06910F4407F204602D0FFF79EFFEF
:1022B00004E000F0ADF8204600F03FF92777E8078A
:1022C00008D0F00706D021686FF0010008612046B1
:1022D00000F098F9280608D5300606D521686FF079
:1022E000800008612046FFF7C3FD680608D5700628
:1022F00006D521686FF040000861204600F0BCF967
:10230000A8060AD5B00608D521686FF0200008613C
:102310002046BDE8F041FFF7ACBDBDE8F08100000C
:10232000F0B587B0044614216846FEF726F8324A15
:102330002168002531480224012791420ED101680D
:1023400041F0100101600068694600F0100005903E
:102350004FF4D4408DE83100294847E0294A2A4EFD
:10236000B1F1804F23D0294B994243D1016841F00C
:1023700001010160016801F001010591016841F06E
:10238000020101600068694600F002000590C0206B
:102390008DE83100CDE903541046FEF7AFFC032071
:1023A0008DE83100CDE903546946304620E00168EC
:1023B00041F001010160016801F00101059101682E
:1023C00041F0020101600068694600F002000590DA
:1023D00048F20C008DE83100CDE903571046FEF7B6
:1023E0008DFC08208DE8310069463046CDE9035761
:1023F000FEF784FC07B0F0BD000001403038024019
:1024000000100240000002400004024000040040AE
:10241000704770B5044690F83C0000260D46012830
:102420000FD0012084F83C006AB1042A1DD0082A8C
:102430002FD00C2A3FD00126002084F83C003046E3
:1024400070BD022070BD206801F0B0FF2068816976
:1024500041F0080181612068816921F004018161F6
:10246000206881692A69114311E0206801F0CEFFDC
:102470002068816941F4006181612068816921F4EB
:1024800080618161206881692A6941EA0221816154
:10249000D2E7206801F0F0FF2068C16941F008012F
:1024A000C1612068C16921F00401C1612068C1696E
:1024B0002A69114311E0206802F012F82068C1690E
:1024C00041F40061C1612068C16921F48061C1618A
:1024D0002068C1692A6941EA0221C161ACE710B5EF
:1024E000040003D094F83D0010B107E0012010BDB6
:1024F000002084F83C00204600F01EF8022084F8FA
:102500003D00211D206801F0C9FE012084F846002D
:1025100084F83E0084F83F0084F8400084F84100CD
:1025200084F8420084F8430084F8440084F84500AD
:1025300084F83D00002010BD7047704710B5044678
:10254000022249B104290ED0082913D094F8410081
:10255000012816D0012010BD94F83E000128F9D1C1
:1025600084F83E200FE094F83F000128F2D184F86F
:102570003F2008E094F840000128EBD184F8402087
:1025800001E084F841200122206801F0EFFE1649A5
:102590002068164A884201D0904203D1436C43F42C
:1025A000004343642068884213D0B0F1804F10D0BC
:1025B0000F4988420DD00F4988420AD00E498842FF
:1025C00007D0904205D00D49884202D00C4988427C
:1025D00004D1816801F00701062903D0016841F0A8
:1025E00001010160002010BD000001400004014015
:1025F0000004004000080040000C00400040014082
:102600000018004038B504460020009012492068A8
:10261000884202D1694611480AE01149884202D134
:102620006946104804E0104988420ED10F486946B7
:10263000006803F0E2FF009838B10D494FF0805078
:102640000860BFF34F8FBFF36F8F0A49206888423D
:1026500001D1FFF781F838BD004801404400002057
:1026600000200040480000200044014010010020EC
:1026700004ED00E0001000407047704710B50446BC
:102680000068406994F84110C0F3C010212911D1AD
:1026900080B12068143050E8001F21F0800140E82C
:1026A0000012002AF5D1A06B08B1FEF748F92046C8
:1026B00002F033F82068406994F84210C0F38010AB
:1026C000222911D180B12068143050E8001F21F078
:1026D000400140E80012002AF5D1E06B08B1FEF796
:1026E0002EF9204601F0F2FF002010BD70470000D7
:1026F000F8B5016804460868CA684B6910F00F0F06
:102700004FF0000559D003F0010602F490773743EB
:1027100065D0C10705D0D10503D5616C41F0010139
:102720006164410705D5D90703D0616C41F002010E
:102730006164810705D5D90703D0616C41F00401BC
:102740006164010707D502F02001314303D0616CB9
:1027500041F008016164616C00293AD0800604D51B
:10276000900602D5204601F0E6FF20684069616CC2
:10277000C0F38010090700D460B3204601F0A6FF23
:1027800020684069400621D52068143050E8001FB9
:1027900021F0400140E80012002AF5D1E06BA8B119
:1027A00072490165E06BFEF713F9002811D0E06B68
:1027B000016D01B0BDE8F040084783060FD59306D0
:1027C0000DD52046BDE8F84001F0B5BF2046FFF723
:1027D0008DFFF8BD2046FFF789FF6564F8BD266BC5
:1027E0002023012E7ED1C6067CD5D6067AD5086870
:1027F0004868009048694FF0020640064DD5E26BEC
:10280000106840684FF480770004000C3AD0A18D26
:10281000814237D9E085D069B8422DD020680C308C
:1028200050E8001F21F4807140E80012002AF5D121
:102830002068143050E8001F21F0010140E8001228
:10284000002AF5D12068143050E8001F21F0400123
:1028500040E80012002AF5D184F842302563206850
:102860000C3050E8001F21F0100140E80012002A4F
:10287000F5D1E06BFEF763F86663A08DE18D401A39
:1028800081B206E0A18D8142A8D1D069B842A5D11C
:1028900066632046FFF7F1FEF8BDA08DE18D401A7A
:1028A00081B2E08D0028F7D00029F5D020680C30E7
:1028B00050E8002F22F4907240E80027002FF5D155
:1028C0002068143050E8002F22F0010240E8002771
:1028D000002FF5D184F84230256320680C3050E891
:1028E000002F00E006E022F0100240E80023002B59
:1028F000F3D1CDE705062BD5150629D594F841006F
:102900002128C9D1A068B0F5805F01D12069B0B19C
:10291000206A411C2162216800784860E08C401EDA
:102920000004000CE084B7D12068C16821F0800168
:10293000C1602068C16841F04001C160F8BD206AF3
:102940000088C0F308004860206A801C2062E5E728
:102950004006F3D55006F1D5CA68204622F0400261
:10296000CA6084F8413000F0EFFAF8BD85450008F0
:1029700070B5040004D094F84100002510B106E0C1
:10298000012070BD84F84050204600F023F8242038
:1029900084F841002068C16821F40051C1602046DC
:1029A00001F06EFF2068016921F490410161206807
:1029B000416921F02A0141612068C16841F4005158
:1029C000C1606564202084F8410084F8420065639A
:1029D000002070BD2DE9F04F87B0044614216846F1
:1029E000FDF7CBFCF848F74ED4F800C0F64A103893
:1029F0000327022108230025B4451BD1146844F4A1
:102A000000241460126802F400220592026842F069
:102A1000010202600068CDE9007100F00100CDE91B
:102A20000430CDE902576946E848FEF767F907B078
:102A3000BDE8F08FDFF898834FF040094FF0006A4F
:102A40004FF48066C44563D1D2F800C04CF4801CBA
:102A5000C2F800C0126802F480120592026842F0C7
:102A600004020260026802F004020592026842F069
:102A7000080202600068884600F008000590B00077
:102A8000CDE900080DF1080C9B468CE8A0086946CA
:102A9000D048FEF733F90420CDE900080DF108080D
:102AA000694688E8A008CC48FEF728F9CC4FCB4807
:102AB0003860C7E901A5C7E903567D61BD61FD61C5
:102AC0003D6238467D62FEF765F808B1FDF735FFD7
:102AD000E763BC63C24FC1486037A830C7F80890AD
:102AE000C7E903567D61BD61FD613D627D62C7E955
:102AF000000A3846FEF74EF808B1FDF71EFFA7633F
:102B0000002205213520BC63FEF7BEFE352066E0BD
:102B1000DFF8D082DFF8B0E24FF0070B0EF1040EC1
:102B2000C4455FD1DEF8003043F01003CEF800302A
:102B3000DEF8002002F010020592026842F0010265
:102B40000260006800F0010005904FF4C0608DE85D
:102B5000A30869469D48FEF7D1F8DFF88482A249B0
:102B600008F1C0084046C8F80010C0E901A5C0E956
:102B70000356C8F81450C8F81850C8F81C50C8F8C4
:102B800020505746C8F82450FEF704F808B1FDF766
:102B9000D4FEC4F83C80C8F83840DFF8508292492F
:102BA00040467831C0E90356C8F81450C8F81850A8
:102BB000C8F81C50C8F8205088E88202C8F8245091
:102BC000FDF7E8FF08B1FDF7B8FEC4F83880002231
:102BD00005212520C8F83840FEF756FE2520FEF7CF
:102BE00045FE24E7DFF80882C4454AD1136843F460
:102BF00000331360126802F400320592026842F05A
:102C000008020260006800F00800059060208DE86E
:102C1000A30869467048FEF771F8744F6F48603733
:102C200078303860C7E901A5C7E903567D61BD6109
:102C3000FD613D6238467D62FDF7ACFF08B1FDF7EE
:102C40007CFEE763BC63694F6448C0379030C7F8C7
:102C50000890C7E903567D61BD61FD613D627D62FB
:102C6000C7E9000A3846FDF795FF08B1FDF765FE94
:102C7000A763002205212620BC63FEF705FE26205F
:102C8000ADE7DFF87081C4454AD1136843F480236F
:102C90001360126802F480220592026842F0080272
:102CA0000260006800F0080005904FF440708DE865
:102CB000A30869464848FEF721F848484E4F1830A7
:102CC0003860C7E901A5C7E903567D61BD61FD61B3
:102CD0003D6238467D62FDF75DFF08B1FDF72DFED0
:102CE000E763BC63444F3D4860374830C7F80890FD
:102CF000C7E903567D61BD61FD613D627D62C7E943
:102D0000000A3846FDF746FF08B1FDF716FEA76337
:102D1000002205212720BC63FEF7B6FD27205EE7D1
:102D2000364A94457FF45DAFDEF800C04CF0200CCD
:102D3000CEF800C0DEF8002002F020020592026802
:102D400042F0040202600068049300F00400059061
:102D5000C0208DE8A30069461E48FDF7CFFF264F2F
:102D60002148C037183838604FF02068C7E901851E
:102D7000C7E903567D61BD61FD613D6238467D62F4
:102D8000FDF708FF08B1FDF7D8FDE763BC631C4FF2
:102D90001548C7E903567D61BD61FD613D62603044
:102DA0007D6287E801033846FDF7F4FE08B1FDF7C0
:102DB000C4FDA763002205214720BC63FEF764FD24
:102DC00047200CE7004C0040403802400000024021
:102DD0000050004000080240000C02401060024019
:102DE0006005002000100140406402408006002081
:102DF0000044004000480040A007002000140140AB
:102E0000C008002090F84230202B01D002207047EB
:102E100021B11AB10023036301F0B8BD012070474E
:102E2000704770472DE9F843044690F841009846F2
:102E300016460D46202802D00220BDE8F88385B151
:102E40007EB100206064212084F84100FEF75CF828
:102E5000A6848146E684A0682027B0F5805F02D072
:102E600003E00120E9E7206910B12E4600250EE0BD
:102E700000260CE08021204601F0D8FDA8B9C6B19B
:102E800016F8010B21684860E08C401EE084E08C5D
:102E90004B464FF00002CDF800800028EAD14FF0F9
:102EA0004001204601F0C2FD40B184F8417003208A
:102EB000C3E735F8020BC0F30800E3E784F841707C
:102EC0000020BAE770B5044690F84100202801D0F0
:102ED000022070BD01B3FAB12162A284E284002015
:102EE0006064212384F84130A56B144BEB63A56B20
:102EF000134B2B64A56B134BEB64A36B1865206815
:102F00001346A56B021D2846FDF7AEFE30B110201A
:102F10006064202084F84100012070BD21686FF0BA
:102F2000400008602068143050E8001F41F0800124
:102F300040E80012002AF5D1002070BD814600084B
:102F4000C34600089345000800680349884202D13F
:102F50000249002008707047001401400C01002055
:102F60007047FEE701684A69D24352050FD46FF4F7
:102F700080624A61002140F8301F20224273817331
:102F8000026942F0040202610173012070470020CF
:102F9000704700002DE9F84F0446C06A1E4693466C
:102FA0000D4621680A6842F480620A60082807D04A
:102FB000012805D010F5803F02D0206B112804D1E4
:102FC0002068016841F4807101604FF001195B468F
:102FD000002249462046009600F09EF94FF4007802
:102FE00040B120680068C00501D5C4F840800320C6
:102FF000BDE8F88F2069DFF884A0B0F5804F0FD0CE
:103000000620216800EAD51747F0F0000861334632
:103010005A460AF10601204600F0C6F958BB03E003
:10302000E8B240F001001CE02168E8B208613346D4
:103030005A465146204600F0B7F9E0B92068416988
:1030400081690091016841F4807101605B46002252
:1030500049462046009600F05FF90028C1D147F0AC
:10306000F1002168086133465A465146204600F077
:103070009BF90028BCD00120BAE700000200010043
:10308000F8B50446C06A1E460D461746082807D004
:10309000012805D010F5803F02D0206B122804D102
:1030A0002068016841F480710160134600224FF0EE
:1030B00001112046009600F02FF940B12068006809
:1030C000C00502D54FF4007020640320F8BD2069CC
:1030D000B0F5804F0ED00620216800EAD51040F0F0
:1030E000F000086133463A460B49204600F05CF98F
:1030F00078B902E005F0FE0000E0E8B2216808615E
:10310000054933463A46891F204600F04DF900280C
:10311000DCD00120F8BD0000080001002DE9F84FC7
:103120000446006889460B9D01689846174641F49D
:10313000806101602068016841F480710160009540
:103140004FF0011B0022594620460A9B00F0E4F88C
:103150004FF4007A40B120680068C00501D5C4F87A
:1031600040A00320BDE8F88F216809F0FE00086147
:103170002B46284920460A9A00F016F9F0BB206831
:103180004169806900902A4620460A9900F0A2F918
:1031900040B1206C04283AD12068016841F40071E4
:1031A000016034E0FEB2B8F1010F09D02168380A9D
:1031B00008612A4620460A9900F08CF90028E8D1D7
:1031C000206806612A4620460A9900F083F9002803
:1031D000DFD12068016841F4807101600095002210
:1031E000594620460A9B00F097F80028B3D1216881
:1031F00009F0FF0040F00100086100E007E02B4605
:10320000044920460A9A00F0CFF80028AAD00120ED
:10321000A8E70000020001002DE9F8430446006819
:103220000D46DDE9089701689846164641F480711D
:1032300001604B4600224FF001112046009700F03C
:103240006BF848B120680068C00502D54FF40070E3
:1032500020640320BDE8F883216805F0FE000861C2
:103260003B464A461549204600F09EF888B920683A
:103270004169806900903A464946204600F02AF9A3
:1032800048B1206C042804D12068016841F4007121
:1032900001600120DEE7F5B2B8F1010F09D0216825
:1032A000300A08613A464946204600F013F90028E2
:1032B000E7D1206805610020CCE700000200010092
:1032C00070B516460D4604461EE02046FFF74AFE3E
:1032D00008B1012070BD681C16D0FDF715FE801BDB
:1032E000A84200D885B920684069C04340070BD583
:1032F000002044F8300F20216173A073216941F050
:10330000200121612073E4E720684069C043400741
:10331000DBD4002070BD00002DE9F0479846174629
:103320000D460446C1F30746DDF820902AE000BFB1
:10333000B8F1FF3F26D0FDF7E7FDA0EB09014145BD
:1033400002D8B8F1000F1DD12068012E16D0806977
:1033500025EA00000004000C12D00020B84211D170
:10336000002044F8300F20216173A073216941F0DF
:103370002001216120730120BDE8F0874069E7E763
:103380000120EBE72068012E0AD0806925EA0000C1
:103390000004000C06D00020B842C9D00020EBE7A2
:1033A0004069F3E70120F7E72DE9F0479846164614
:1033B0000D4604464FF000094FF0200AC1F30747BD
:1033C00023E020684069C043400515D420680168A7
:1033D00041F40071016021686FF480604861C4F8B5
:1033E000309084F83DA084F83E90216C41F00401B7
:1033F000216484F83C9021E0701C06D0FDF784FD28
:10340000A0EB0800B04203D816B1012F1FD021E075
:103410002068012F15D0806925EA00000004000C07
:1034200018D000BF44F8309F84F80DA084F80E90A7
:10343000216941F02001216184F80C900120BDE850
:10344000F087406925EA00000004000CEAD12068FA
:10345000406901E02068806925EA00000004000C52
:10346000AFD1ECE72DE9F041002590460E46044629
:10347000202728E04069C043C0060CD454F8301B14
:103480006FF01000486144F810596777A577206AFB
:103490002062257714E0FDF737FDA0EB0800B0426D
:1034A00000D886B920684069C04340060BD544F86F
:1034B000305F6773A573206940F020002061257399
:1034C0000120BDE8F08120684169C9434906D1D493
:1034D0000020F6E770B516460D4604461EE020466D
:1034E000FFF740FD08B1012070BD681C16D0FDF744
:1034F0000BFD801BA84200D885B920684069C043F5
:1035000000060BD5002044F8300F20216173A07312
:10351000216941F0200121612073E4E720684069BE
:10352000C0430006DBD4002070BD00002DE9F04F41
:10353000B04B00225E781F789FEDAF0AAF4DDFF8E9
:10354000C092DFEDB00A4AE1845C552C7ED100EBDD
:10355000020A9AF801B0ABF15104032C76D84FF06F
:10356000000C644602EB0408641C10F80880E4B206
:10357000C4440CF0FF0C0A2CF4D39AF80A406445BA
:103580007ED15446DC46BBF1510F09D0BCF1520F3D
:1035900035D0BCF1530F5AD0BBF1540F55D1ECE0EC
:1035A000B4F902C001EE10CAB8EEC11A61EE001AF9
:1035B000B3EE001A21EE812ADFED931A22EE212AC2
:1035C00083ED012AB4F904C002EE10CAB8EEC22A93
:1035D00022EE002A22EE012A22EE212A83ED022A7F
:1035E000B4F906C002EE10CAB8EEC22A22EE002AD2
:1035F00022EE011A21EE211A83ED031AD5E0B4F967
:1036000002C001EE10CAB8EEC11A61EE001A9FEDB9
:103610007F1A61EE811AC3ED041AB4F904C001EEF9
:1036200090CAF8EEE11A61EE801A61EE811AC3EDDC
:10363000051ABAF9064001EE904AF8EEE11A61EE79
:10364000801A21EE811A83ED061AB8E0D0E0B4F9B1
:1036500002C001EE10CAB8EEC11A21EE001A9FEDA9
:103660006C2A21EE021A83ED0A1AB4F904C001EEA5
:1036700090CAF8EEE11A61EE801A61EE821A00E05B
:10368000ABE0C3ED0B1AB4F906C002EE90CAF8EE37
:10369000E22A62EE802A22EE822A83ED0C2A94F836
:1036A00009C09AF80840B1EE422A44EA0C245C8032
:1036B00083ED0C2AD3ED0E2A71EE622A12EE904AA7
:1036C000AC4202DD5C6E641C05E012EE904A4C4593
:1036D0005C6E01D9641E5C664FF4B47C04FB0CF490
:1036E00002EE904AF8EEE22A72EE812AC3ED112A28
:1036F000D3ED0F2A71EEE22A12EE904AAC4202DDBF
:103700001C6E641C05E012EE904A4C451C6E01D9FB
:10371000641E1C664FF4B47C04FB0CF402EE904A69
:10372000F8EEE22A72EEA12AC3ED122AD3ED102A96
:1037300072EE622A12EE904AAC4202DD9C6E641E6A
:1037400005E012EE904A4C459C6E01D9641C9C66C3
:103750004FF4B47C04FB0CF402EE904A03F13804FD
:10376000F8EEE22A72EE822AC3ED132A84EC031AE1
:103770002FBB0127C3ED142A21E0B4F902C001EEEA
:1037800010CAB8EEC11A83ED071AB4F904C001EEED
:1037900010CAB8EEC11A83ED081AB4F906C001EEDA
:1037A00010CAB8EEC11A83ED091ABAF9084001EE41
:1037B000104AB8EEC11AC1EE201AC3ED0D1A66B94F
:1037C00093ED0A1A012683ED151A93ED0B1A83ED7A
:1037D000161A93ED0C1A83ED171A0B3292B202F1FE
:1037E0000A048C42FFF4B0AE5E701F70BDE8F08F2B
:1037F000521CF3E758000020000000380000874307
:10380000000087C30000C842CDCC1C410000FA4430
:1038100000003443084D92B04FF0FF342246694611
:10382000E86E02F039FF0128F8D1BDF84010684673
:10383000FFF77CFEF2E700005800002010B50022E0
:103840004221052002F032FD0849C86608B9FDF79B
:1038500074F8402206490748FFF7D4FA0548006883
:10386000C16841F01001C16010BD00005800002087
:103870007A0A002088040020314808B5016841F424
:1038800080010160016801F480010091016841F448
:10389000001101600068002200F400100090052172
:1038A0000B20FDF7F1FF0B20FDF7E0FF00220521C3
:1038B0000C20FDF7E9FF0C20FDF7D8FF00220521C1
:1038C0000E20FDF7E1FF0E20FDF7D0FF00220521BD
:1038D0001020FDF7D9FF1020FDF7C8FF00220521B9
:1038E0001120FDF7D1FF1120FDF7C0FF00220521B7
:1038F0002F20FDF7C9FF2F20FDF7B8FF002205217B
:103900003920FDF7C1FF3920FDF7B0FF0022052166
:103910003A20FDF7B9FF3A20FDF7A8FF0022052164
:103920004520FDF7B1FF4520FDF7A0FF002205214E
:103930004620FDF7A9FFBDE808404620FDF796BFE9
:103940003038024010B500F0CBFBFFF777FF00F0F6
:10395000B5FB00F03BFB194A0021194801F0D4FBEC
:10396000184C164A002160612432174801F0CCFB44
:10397000124AA061483A0021144801F0C5FB0F4AE1
:10398000E0606C3A0021124801F0BEFB0B4AA060D7
:10399000903A00210F4801F0B7FB084A6060B43A42
:1039A00000210D4801F0B0FB044A2060243A0021B8
:1039B0000A4801F0A9FB206110BD0000046F000857
:1039C000914100080000002001080008055B000884
:1039D000153800081D4100083561000855410008F0
:1039E0002DE9F04387B014216846FCF7C6FC3D483A
:1039F0000024016841F010010160016801F010012C
:103A00000591016841F004010160016801F00401C1
:103A10000591016841F080010160016801F08001B9
:103A20000591016841F001010160016801F00101A7
:103A30000591016841F002010160016801F0020195
:103A40000591016841F0080101600068264E00F010
:103A500008000590002204213046FDF74FFA234F5D
:103A600001220A213846FDF749FADFF88480002256
:103A700002214046FDF742FADFF878900022C0218B
:103A80004846FDF73BFA042000900125CDE901549A
:103A9000694630460394FDF731F905208DE8310081
:103AA00069463846FDF72AF90A200090CDE901540D
:103AB000694638460394FDF721F902200090CDE9CC
:103AC0000154694640460394FDF718F9C020009060
:103AD000CDE90154694648460394FDF70FF907B054
:103AE000BDE8F08330380240001002400008024078
:103AF000000C0240000402400D4810B50B49016063
:103B00000C49416000214FF480428160C0E90312FA
:103B100041618161C1610162FDF7FCF9002803D0B8
:103B2000BDE81040FCF709BF10BD00000058004080
:103B3000AC010020A08601000C4810B50A490160C4
:103B400040F23F614160002140F2E732C0E90212D9
:103B500001618161FEF700FA002803D0BDE8104042
:103B6000FCF7EBBE10BD000000440140D80200206D
:103B70000C4810B50A49016040F21F314160002134
:103B800040F2E732C0E9021201618161FEF7E4F917
:103B9000002803D0BDE81040FCF7CFBE10BD0000E8
:103BA00000480140200300200C4810B50A4901607C
:103BB00040F21F314160002140F2E732C0E90212B9
:103BC00001618161FEF7C8F9002803D0BDE810400B
:103BD000FCF7B3BE10BD00000020004068030020C9
:103BE00010B596B000240F9410941194129413946D
:103BF0001C2168461494FCF7C0FB202107A8FCF7A1
:103C0000BCFB35483349016040F23F61C0E9011413
:103C100040F2CF71C0E9031444618461FEF79CF95E
:103C200008B1FCF78AFE4FF480500F900FA92A4884
:103C3000FEF76EFA08B1FCF780FE2748FEF74FFC4E
:103C400008B1FCF77AFE139413A923481494FEF7E5
:103C50003BF908B1FCF771FE602000909620CDE999
:103C60000104039404940594002269461A480694BA
:103C7000FEF7CFFB08B1FCF760FE04226946164848
:103C8000FEF7C7FB08B1FCF758FE08226946124848
:103C9000FEF7BFFB08B1FCF750FE0C2269460E4848
:103CA000FEF7B7FB08B1FCF748FE079408940994A7
:103CB0004FF400500A94CDE90B4007A906480E9432
:103CC000FEF7D8F808B1FCF738FE0348FEF728FBEA
:103CD00016B010BD000001400002002010B58EB0EB
:103CE00000240794089409940A940B941C216846B4
:103CF0000C94FCF742FB2B484FF08041016040F2EE
:103D00001F31C0E9011440F2CF71C0E9031484618E
:103D1000FEF722F908B1FCF710FE4FF4805007902F
:103D200007A92048FEF7F4F908B1FCF706FE1D4884
:103D3000FEF7D5FB08B1FCF700FE0B940BA9194860
:103D40000C94FEF7C1F808B1FCF7F7FD6020009075
:103D50009620CDE901040022694612480494FEF73A
:103D600058FB08B1FCF7E9FD042269460D48FEF74F
:103D700050FB08B1FCF7E1FD082269460948FEF74F
:103D800048FB08B1FCF7D9FD0C2269460548FEF74F
:103D900040FB08B1FCF7D1FD0248FEF7C1FA0EB0B6
:103DA00010BD00004802002010B58EB0002407941A
:103DB000089409940A940B941C2168460C94FCF70F
:103DC000DCFA2C482A49016040F21F31C0E9011495
:103DD00040F2CF71C0E903148461FEF7BDF808B169
:103DE000FCF7ABFD4FF48050079007A92148FEF780
:103DF0008FF908B1FCF7A1FD1E48FEF770FB08B172
:103E0000FCF79BFD0B940BA91A480C94FEF75CF889
:103E100008B1FCF792FD602000909620CDE90104E6
:103E20000022694613480494FEF7F3FA08B1FCF740
:103E300084FD042269460F48FEF7EBFA08B1FCF74F
:103E40007CFD082269460B48FEF7E3FA08B1FCF74F
:103E500074FD0C22694607480194FEF7DAFA08B1AE
:103E6000FCF76BFD0348FEF75BFA0EB010BD0000D7
:103E700000040040900200200C4810B50A4901607F
:103E80004FF4E1314160002181600C22C160C0E942
:103E900004128161C161FEF76BFD002803D0BDE80B
:103EA0001040FCF74ABD10BD004C0040B00300209C
:103EB0000C4810B50A4901604FF4E131416000211E
:103EC00081600C22C160C0E904128161C161FEF70A
:103ED0004FFD002803D0BDE81040FCF72EBD10BDFB
:103EE00000500040F80300200C4810B50A4901605A
:103EF0004FF4E1314160002181600C22C160C0E9D2
:103F000004128161C161FEF733FD002803D0BDE8D2
:103F10001040FCF712BD10BD00100140400400200D
:103F20000C4810B50A4901604FF416514160002158
:103F300081600C22C160C0E904128161C161FEF799
:103F400017FD002803D0BDE81040FCF7F6BC10BDFB
:103F500000440040880400200C4810B50A49016064
:103F60004FF4E1314160002181600C22C160C0E961
:103F700004128161C161FEF7FBFC002803D0BDE89B
:103F80001040FCF7DABC10BD00480040D00400200F
:103F90000C4810B50A4901604FF4E131416000213D
:103FA00081600C22C160C0E904128161C161FEF729
:103FB000DFFC002803D0BDE81040FCF7BEBC10BDFC
:103FC0000014014018050020FEE7000010B5032290
:103FD0002DED048B0021012002F068F928490860CA
:103FE000F0B39FED288ADFED288A9FED289AB0EE86
:103FF000482AF0EE681AB0EE491AF6EE000AB0EE62
:10400000000A234800F04AF82148B0EE482AF0EEB2
:10401000681AB0EE491AF6EE000AB0EE000A1C303B
:1040200000F03CF81A48B0EE482AF0EE681AB0EEFC
:10403000491AF6EE000AB0EE000A543000F02EF8ED
:104040001348B0EE482AF0EE681AB0EE491AF6EEC0
:10405000000AB0EE000A383000F020F80D4800E009
:1040600005E0BDEC048BBDE81040FEF711B8502010
:1040700080F31188BFF34F8FBFF36F8FFEE700000F
:10408000100100200000C8420000C8C2CDCCCC3DC9
:10409000280B0020D8020020FEE7000080EC030A75
:1040A0009FED050A80ED030A80ED040AC0ED051AB4
:1040B00080ED062A704700000000000010B5802245
:1040C00005490648FEF79EFE04480068C16841F0B5
:1040D0001001C16010BD0000A80B0020B00300203B
:1040E00010B501210C020022204602F0DFF8084939
:1040F000086008B9FCF721FC224606490648FEF78D
:1041000081FE05480068C16841F01001C16010BD22
:104110002C00002068090020D0040020A12000F01D
:104120006DFD322001F0D8FEA22000F067FD3220A4
:1041300001F0D2FEA32000F061FD322001F0CCFEA0
:10414000A42000F05BFD322001F0C6FE642001F0E7
:10415000C3FEE3E72DED028B4FF47A759FED0A8ADB
:104160000A4C00BFFCF7DAFA18B184ED008A84ED3E
:10417000018AFCF7D1F918B184ED038A84ED028A33
:10418000284601F0A9FEEDE700000000C80000206D
:10419000012000F07DFFFBE710B54FF0E020006943
:1041A00002F064FC012803D0BDE8104002F068B8BA
:1041B00010BD000030B593B030216846FCF7DDF843
:1041C00014210CA8FCF7D9F81D480025016841F01E
:1041D00080510160006800F080501190194801681A
:1041E00041F4804101600068022400F48040119095
:1041F00001200090000401908001CDE906400C20D0
:104200000890A020CDE9090404200B906846FDF732
:1042100079FC08B172B6FEE70CA90F2081E83100E5
:104220004FF4A0500F904FF48050109005210CA82F
:10423000FDF75CFB002801D072B6FEE713B030BD7D
:1042400040380240007000400248016841F47001AB
:104250000160704788ED00E010B50448FDF7C7FF26
:10426000BDE810400248FDF7C2BF00000002002078
:104270002003002010B50448FDF7B9FFBDE8104049
:104280000248FDF7B4BF000000020020D802002061
:104290000148FDF7ACBF000020090020F0B502681E
:1042A000274B284D284E294F294C4FF0804C9842DF
:1042B00009D0604507D0A84205D0B04203D0B8422B
:1042C00001D0A04204D122F0700E4A6842EA0E02E8
:1042D00098421BD0604519D0A84217D0B04215D0E3
:1042E000B84213D0A04211D01A4DA8420ED01A4D98
:1042F000A8420BD0194DA84208D0194DA84205D0AC
:10430000184DA84202D0184DA84203D122F440759E
:10431000CA682A434D6922F080022A438D68C5622B
:104320000D688562984201D0A04201D109690163FC
:10433000016841F004010160012141610260F0BDAA
:10434000000001400004004000080040000C004054
:104350000004014000400140004401400048014089
:1043600000180040001C00400020004010B501F083
:104370001F030121046A99408C430462016A9A4038
:104380001143016210BD10B5846842EA032224F48F
:104390007F440A432243826010BD826822F070028B
:1043A0000A4342F00701816070470000F0B5036ADC
:1043B000026A22F00102026242688469124E24F00D
:1043C00073050C682C4323F002058B682B430D4DBD
:1043D000A84201D0B04205D123F00807CB683B4387
:1043E00023F00403A84201D0B04205D14D6922F464
:1043F000407215438A692A43426084614968416377
:104400000362F0BD0000014000040140F0B5026A03
:10441000036A23F010030362436884690D6824F47F
:10442000E64444EA05248D6822F0200242EA05129F
:104430000F4D104EA84201D0B04206D1CF6822F0F5
:10444000800242EA071222F04002A84201D0B042A4
:1044500007D14D6923F4406343EA85038D6943EA3C
:10446000850343608461496881630262F0BD000096
:104470000000014000040140F0B5026A036A23F421
:10448000807303624368C46922F4007224F07305E8
:104490000C68124E2C438D6842EA05220E4DA8424C
:1044A00001D0B04206D1CF6822F4006242EA07226E
:1044B00022F48062A84201D0B04207D14D6923F4B2
:1044C000405343EA05138D6943EA05134360C46111
:1044D0004968C1630262F0BD000001400004014070
:1044E00030B5046A026A22F4805202624268C369EB
:1044F0000D6823F4E64343EA05238D6824F4005451
:1045000044EA0534084DA84202D0084DA84204D11F
:104510004D6922F4804242EA85124260C3614968D3
:104520000164046230BD000000000140000401404D
:1045300010B5036A046A24F001040462846924F05B
:10454000F00444EA021423F00A020A43846102627E
:1045500010BD10B5036A046A24F010040462846973
:1045600023F0A00324F4704444EA023243EA011128
:104570008261016210BD00000148FEF7B9B8000079
:10458000F803002010B5806B0021C185FEF7AEF85E
:1045900010BD70B5846B2068406994F84110C0F379
:1045A000C0100025212904D118B1E584204600F06F
:1045B000B4F82068406994F84210C0F380102229B2
:1045C00004D118B1E585204600F080F8606C40F019
:1045D000100060642046FEF789F870BD10B50146F2
:1045E000806B096809684FF00002C9052ED4C285A6
:1045F00001680C3151E8003F23F4807341E8003436
:10460000002CF5D10168143151E8003F23F001037B
:1046100041E80034002CF5D10168143151E8003F25
:1046200023F0400341E80034002CF5D1202180F82C
:104630004210016B012909D101680C3151E8003F9A
:1046400023F0100341E80034002CF5D14263016BE4
:10465000012902D0FEF7E4FB10BD818DFEF70DF8B5
:1046600010BD10B5806B01214163016B012902D09F
:10467000FEF7D7FB10BD818D4908FDF7FEFF10BD89
:1046800010B50146806B09680968C90516D4002178
:10469000C1840168143151E8002F22F0800241E802
:1046A0000023002BF5D101680C3151E8002F42F0B6
:1046B000400241E80023002BF5D110BDFEF744FC79
:1046C00010BD10B5806BFEF74BFC10BD01680C31BE
:1046D00051E8002F22F4907241E80023002BF5D11D
:1046E0000168143151E8002F22F0010241E8002353
:1046F000002BF5D1016B012909D101680C3151E87A
:10470000002F22F0100241E80023002BF5D12021D8
:1047100080F8421000210163704701680C3151E8B4
:10472000002F22F0C00241E80023002BF5D1202108
:1047300080F84110704708B590F84210222901D046
:10474000022008BD82684FF480539A4201D101696A
:1047500021B1816A9A421BD04AB10AE00268816A9B
:104760005268C2F308020A80816A891C08E0026963
:1047700072B10268526802F07F020A70816A491CB5
:104780008162C18D491E0904090CC18503D01BE05B
:1047900002685268F1E70168CA6822F02002CA6024
:1047A0000168CA6822F48072CA6001684A6922F00E
:1047B00001024A61202180F8421000214163026B0E
:1047C000012A03D0FEF72CFB002008BD016301681D
:1047D0000C3151E8002F22F0100241E80023002B99
:1047E000F5D101680A68D20602D50A6849680091C5
:1047F000818DFDF742FFE7E70FB42DE9F041DFF8C7
:10480000748098F800009DF81870401E384227D038
:10481000142F25D807AD184C00260CE0ED1D25F00F
:104820000705B5EC020B51EC100BFBF7C4FD761C31
:1048300044F8040BF6B2BE42F0D3002004F8010B9A
:104840000D4904F8010B802004F8020B7F2004F8C6
:10485000010C0948201A82B20848FEF733FB20B148
:104860000020BDE8F0015DF814FB012188F800107C
:104870000846F6E70C010020BA0A002018050020BF
:1048800070B5044600680169E26821F440511143A3
:1048900001612169A068E269084361691143084325
:1048A0002168CA6849F20C639A430243CA602068CF
:1048B0004169A26921F44071114341613149206885
:1048C000884202D03049884202D1FDF7D9F801E090
:1048D000FDF7C6F8E2690023192164253226B2F5F6
:1048E000004F626828D0A0FB0101930F9200FBF7F4
:1048F000C9FC0146B0FBF5F06FF01802504301EB24
:10490000800006EB0010B0FBF5F000F0F002B1FB08
:10491000F5F002EB0012B1FBF5F06FF0180358430D
:1049200001EB800006EB0010B0FBF5F000F00F008B
:1049300021681044886070BDA0FB010192185B41A2
:10494000FBF7A0FC0146B0FBF5F00201B1FBF5F06E
:104950006FF01803584301EB800006EBC000B0FB7A
:10496000F5F000F0F80002EB4002B1FBF5F058431F
:1049700001EB800006EBC000B0FBF5F000F0070093
:10498000D6E70000001001400014014038B58162F4
:1049900004468285002013466064222284F8422067
:1049A000E56B1F4AEA63E56B1E4A2A64E56B1E4A03
:1049B000EA64E26B10650A462168E06B091DFCF7AA
:1049C00053F930B110206064202084F842000120A7
:1049D00038BD2068016840680090206948B12068AF
:1049E0000C3050E8001F41F4807140E80012002AAA
:1049F000F5D12068143050E8001F41F0010140E873
:104A00000012002AF5D12068143050E8001F41F050
:104A1000400140E80012002AF5D1002038BD000016
:104A2000DD45000863460008934500082DE9F8437A
:104A3000984617460D460446089E24E0701C22D076
:104A4000FCF762FAA0EB0800B0421AD8CEB1206899
:104A5000C168490717D5802D15D0402D13D00168A6
:104A6000C94309070FD4016800254068009020461B
:104A7000FFF72CFE0820606484F840500120BDE858
:104A8000F8830320FBE72068006835EA000004D0C3
:104A90000020B842D2D00020F1E70120F9E7000061
:104AA0000148FDF725BE00004004002030B51B4C36
:104AB00093B020680068C0062AD5206800250168E8
:104AC000406812902046FDF7D9FDE06B0068406811
:104AD0001349C0F1400082B2ADF840206846FBF7B0
:104AE00033FC10481195002311AA6946006801F0B3
:104AF00025FD119838B10C494FF080500860BFF384
:104B00004F8FBFF36F8F402205490448FEF77AF9B3
:104B100013B00248BDE83040FDF7EABD880400202C
:104B20007A0A0020C400002004ED00E030B51C4CDF
:104B3000C3B020680068C0062BD520680025016836
:104B4000406842902046FDF799FDE06B00684068A0
:104B50001449C0F5807082B2ADF800216846FBF7B9
:104B6000F3FB11484195002341AA6946006801F012
:104B7000E5FC419838B10D494FF080500860BFF313
:104B80004F8FBFF36F8F4FF4807206490448FEF7D2
:104B900039F943B00248BDE83040FDF7A9BD000037
:104BA000D0040020680900202C00002004ED00E063
:104BB0000148FDF79DBD000018050020FEE709072C
:104BC000090E002804DB00F1E02080F80014704793
:104BD00000F00F0000F1E02080F8141D704702E0A3
:104BE00008C8121F08C1002AFAD170477047002078
:104BF00001E001C1121F002AFBD1704710B598B027
:104C00000446342101A8FBF7B8FBFF208DF804000F
:104C10000EA9A12C54D0A22C7ED0A32C7DD0A42CE4
:104C20004CD15C4801AB028800EE102AB8EE400A75
:104C30008DED0E0A428800EE102AB8EE400A8DED86
:104C40000F0A828800EE102AB8EE400A8DED100A95
:104C5000C28800EE102AB8EE400A8DED110A0289D2
:104C600000EE102AB8EE400A8DED120A428900EEDD
:104C7000102AB8EE400A8DED130A828900EE102A40
:104C8000B8EE400A8DED140AC28900EE102AA42263
:104C9000B8EE400A8DED150A008A00EE100AB8EE53
:104CA000400A8DED160A00912421092000F096F8A3
:104CB0006423282201A93848FEF7B4F818B010BDC3
:104CC000364890ED000A36488DED0E0A90ED000A48
:104CD00034488DED0F0A90ED000A33488DED100A2F
:104CE00090ED000A31488DED110A90ED000A304830
:104CF0008DED120A90ED000A2E488DED130A90ED0D
:104D0000000A2D488DED140A90ED000A2B488DED18
:104D1000150A90ED000A01E006E01CE08DED160A90
:104D200001ABA1220091BFE7254801ABA22290ED83
:104D3000000A24488DED0E0A90ED000A22488DED00
:104D40000F0A90ED000A8DED100A90ED010A8DED2D
:104D5000110A009116E01D4801ABA32290ED000A54
:104D60001B488DED0E0A90ED000A1A488DED0F0AD2
:104D700090ED000A18488DED100A90ED000A8DEDB7
:104D8000110A00911021042000F028F86423142255
:104D900090E70000680A0020D00400205C0000209A
:104DA0006000002064000020680000206C000020EB
:104DB0007000002080000020840000208800002077
:104DC000240100202801002030000020CC00002019
:104DD000C8000020D0000020D4000020F0B500253D
:104DE000059F5A7099702C460EE0032207EB84064B
:104DF00006EB020C02EB840E1CF803CC521C03F8E9
:104E00000EC0072AF4DB641C8442EEDB0120CA1CBE
:104E100003E01C5C401C2C44E5B29042F9DB5818BE
:104E2000C570F0BDFCF7A0FCFFF7C4F9FEF7D8FD94
:104E3000FEF722FDFFF758F8FFF71EF8FFF738F8E6
:104E4000FFF76EF8FFF788F8FFF7A2F8FEF754FEB9
:104E5000FEF7C6FEFEF742FFFEF7A6FFFEF788FE4E
:104E6000FEF7A2FEFEF768FE00F068F840F2DC52A2
:104E70000121032000F00CFE4FF47A72022103207E
:104E800000F006FE012202210448FCF737F800F08A
:104E90000DF9FEF757FD00F01BF9FEE7000C02408C
:104EA000254B00B5B3F9000000EE100A0320B8EE60
:104EB000C00A00F0A5F8B3F9020000EE100A0520C0
:104EC000B8EEC00A00F09CF8B3F9040000EE100A36
:104ED0000420B8EEC00A00F093F8B3F9060000EE23
:104EE000100A0120B8EEC00A00F08AF8B3F90800F1
:104EF00000EE100A0720B8EEC00A00F081F8B3F9FE
:104F00000A0000EE100A0620B8EEC00A00F078F899
:104F1000B3F90C0000EE100A0820B8EEC00A00F049
:104F20006FF8B3F90E005DF804EB00EE100A0220F2
:104F3000B8EEC00A00F064B8980B002010B52DED53
:104F4000028B00F06BFD9FED2C8A0024641CE0B204
:104F5000B0EE480A00F054F8E4B2082CF6D342F25E
:104F60001070FBF7B9FEDFED258A0120B0EE680A6C
:104F700000F046F841F288342046FBF7ADFEB0EE73
:104F8000480A012000F03CF8B0EE680A022000F068
:104F900037F82046FBF7A0FEB0EE480A022000F0EA
:104FA0002FF8B0EE680A032000F02AF82046FBF73D
:104FB00093FEB0EE480A032000F022F8B0EE680A33
:104FC000042000F01DF82046FBF786FEB0EE480AEC
:104FD000042000F015F84FF4FA60FBF77DFE002482
:104FE000641CE0B2B0EE480A00F00AF8E4B2082C03
:104FF000F6D3BDEC028B10BD00000000000034436E
:10500000DFED1F0AB4EEE00AF1EE10FA01DDB0EEBA
:10501000600ADFED1C0AB4EEE00AF1EE10FA01D2EC
:10502000B0EE600ADFED180A092830EE201AB3EE60
:10503000040AC1EE000A9FED150A30EE800ABCEEAC
:10504000C00A10EE101A8AB219D2DFE800F0180573
:10505000070A0C1012141600042100E0032101209D
:1050600003E0042100E00321022000F011BD022131
:10507000F5E70121F3E70221F6E70121F4E77047A4
:1050800000001644000016C400007A440000C84224
:1050900010B5EFF3058111B16FF0050403E00024B2
:1050A00008B100F019FF204610BD0000EFF30580A5
:1050B00010B16FF0050070470448016811B14FF05E
:1050C000FF30704701210160002070477C01002003
:1050D00010B5EFF3058010B16FF0050010BD084862
:1050E0000168012902D04FF0FF3010BD054A0021B0
:1050F00082F8141D0221016000F09EFF002010BD07
:105100007C0100200BE000E02DE9FF414FEA0103A4
:105110004FF00005EFF30581039549BB40B38027AD
:10512000182100244AB3166806B1344696691EB1A8
:105130003146761E382E02D21679F60703D00020AB
:1051400004B0BDE8F081566906B1B708D2F808C0CE
:10515000BCF1000F0DD0D5685C2D18D312693AB19F
:1051600036B18DE806103A46214601F054FC039012
:105170000DE0D6685EB912694AB903AACDE90012FA
:10518000BAB2214601F01AFC012800D00395039819
:10519000D6E700002DE9F041134C0F460546E668BE
:1051A0002068001D00F064FD681C07D137B121683C
:1051B000BDE8F0410D48091D00F0AABD2068354446
:1051C000B5424560216805D2A06BBDE8F041091DDC
:1051D00000F086BD606B091D00F082FDA06A85426B
:1051E00000D2A562BDE8F0812C010020181100203A
:1051F0002DE9F041054600F097FD2D4CA068401CBC
:10520000A06020682B4F10B1606930B32BE025609F
:10521000A068012827D1002606EB860007EB800056
:1052200000F050FD761C382EF6D3234800F04AFDDE
:105230002148143000F046FD1F48283000F042FDA0
:105240001D483C3000F03EFD1B48503000F03AFD58
:10525000194860631430A06305E02068E96AC06AF9
:10526000884200D82560606A401C60626864E86A11
:105270002169884200D9206100EB800007EB8000A3
:10528000291D00F045FD00F06FFD606900280CD07D
:105290002068E96AC06A884207D208494FF0805006
:1052A0000860BFF34F8FBFF36F8FBDE8F081000040
:1052B0002C010020680C0020C810002004ED00E044
:1052C00038B500F031FD104C2068C8B90F4800F027
:1052D000F9FC0E48143000F0F5FC0C48E060143086
:1052E00020610A4B0020F03B009003F15002102196
:1052F0000A2000F0FCFF206010B105A100F0B6FD0F
:10530000BDE8384000F030BD680100201C120020CC
:10531000546D72510000000030B4026C0B46002A3C
:105320000BD0C1681144C1608468A14201D30168F7
:10533000C16030BC1846FBF707B830BC70472DE998
:10534000F041856B174604460026026C82B1C7B156
:10535000E068FAF7F9FFE168206C091AE160226859
:10536000914202D2A168081AE060022F16D017E01D
:105370002068A8B9A06801F0F1FB06460020A060F3
:105380000EE06068FAF7E0FF216C60680844606036
:10539000A168884204D32068606001E005B16D1EF9
:1053A0006D1CA5633046BDE8F08110B5044690F849
:1053B000590058B101280CD002280FD0502080F39A
:1053C0001188BFF34F8FBFF36F8FFEE7206B00F0A4
:1053D000DFFC2046BDE8104000F0DABC10BD000044
:1053E00010484FF47051420706D0C01D0D4920F0FF
:1053F0000700411AC1F570510B4A00230144C2E96C
:1054000000030839183A21F0070111604B600B6066
:105410000B1AC0E9001393604FF0004053605061D5
:1054200070470000FC18002098010020144E154C15
:10543000A6F29C474FF08058DFF84C9012E000BF76
:1054400000F072FCF068C568281D00F011FCA0682F
:10545000401EA0606068401E606000F085FC284629
:10546000FFF7A3FF60680028EAD138680128F9D95E
:10547000C9F80080BFF34F8FBFF36F8FF2E70000D2
:10548000041100202C01002004ED00E070B51D4641
:10549000049C51B1C4F80020C4E90F010121204649
:1054A00000F058FF84F84C5070BD2460F4E7000011
:1054B0002DE9F05F8846DDE90B941546834691009F
:1054C0009A460A9EA522206BFAF750FF6FF003015F
:1054D000206B01EB8501084420F00707780707D00F
:1054E000502080F31188BFF34F8FBFF36F8FFEE71B
:1054F0000025B8F1000F0FD05FF00000221818F857
:10550000001082F8341018F8001011B1401C102857
:10551000F4D384F8435001E084F83450382E00D39B
:105520003726E662C4E91365201D00F0D6FB04F1BE
:10553000180000F0D2FB2461C6F138006462A0615B
:10554000656584F8585052465946384600F0C4FA0A
:105550002060B9F1000F01D0C9F80040BDE8F09F0C
:1055600030B5114900E011460A688242FBD34B680E
:105570005C18844203D14068184448600846436878
:105580001C18944209D1084C183C2468A24209D046
:1055900052681A4442600A6812680260814200D070
:1055A000086030BD0460F9E79801002070B5002460
:1055B00041600B4D0061914206D8D11A8269914237
:1055C00006D2011D286907E09A4203D2994201D30D
:1055D000012403E0011DE86800F082FB204670BD55
:1055E0006801002010B5044600F09EFBA06B28B1B6
:1055F0005FF0000400F0B8FB204610BD0124F9E77D
:1056000030B589B03C4D6EE00498002806DADDE93B
:105610000601059A90470498002864DB069C60699F
:1056200010B1201D00F024FB03A800F0D7F80246BB
:1056300004980A2857D2DFE800F00505052D334A03
:1056400005052D3394F8280040F0010084F8280067
:105650000599A069059B01442046FFF7A7FF68B3A1
:10566000216A2046884794F8280040073BD500204F
:1056700000900598A169002342181946204601F0C0
:10568000B3FBD8B9502080F31188BFF34F8FBFF31D
:105690006F8FFEE714F8280F20F00100207022E041
:1056A00094F8280040F0010084F828000598A061D3
:1056B00028B1811813462046FFF778FF13E05020E9
:1056C00080F31188BFF34F8FBFF36F8FFEE794F81D
:1056D0002800810703D4204600F05AFB03E020F0A5
:1056E000010084F82800002204A9286800F0D4FFF3
:1056F000002889D109B030BD680100202DE9FC41A6
:105700000F46054600F0DCFC01A800F067F80446EF
:10571000019818B101F0D6FABDE8FC81254EAFB171
:1057200030690068D0B30027291B3A46306800F082
:10573000B1FB01F0C7FA0028EED11F494FF08050AD
:105740000860BFF34F8FBFF36F8FE5E7A542EBD83B
:1057500001F0B8FAF0682746C068C468201D00F060
:1057600087FA94F82800410719D5A0692B464119FA
:105770003A462046FFF71AFFA8B10020034601462B
:1057800000902A46204601F02FFB60B9502080F39C
:105790001188BFF34F8FBFF36F8FFEE707E020F054
:1057A000010084F82800216A20468847B4E70127D1
:1057B000BAE700006801002004ED00E00648416BF4
:1057C000096829B1416BC968C96849688162704735
:1057D0004FF0FF31FAE700002C01002070B50546BC
:1057E00001F052F9064E0446B068844203D200F03C
:1057F00009F8012000E0002028602046B46070BD58
:1058000068010020F8B5194D20E0C068C46806683A
:10581000201D00F02DFA216A2046884794F82800C0
:10582000400713D5A0693044B04206D924616060B6
:10583000211DE86800F054FA08E000200346014604
:1058400000903246204601F0CFFA38B1E86801688E
:105850000029DAD12969C5E90310F8BD502080F389
:105860001188BFF34F8FBFF36F8FFEE768010020F1
:1058700008484068401C4FF0500080F3118804D065
:10588000BFF34F8FBFF36F8FFEE7BFF34F8FBFF3B1
:105890006F8FFEE7A0010020074CE068016841B16E
:1058A000C0680021D0F80000FFF728FFFFF7A8FE2E
:1058B000F3E701210020F7E7680100202DE9F0411E
:1058C000044600F031FA94F9455004F1240609E049
:1058D000606A48B1304601F0BDF908B100F02AFB1A
:1058E0006D1E6DB2002DF3DC4FF0FF3684F845607D
:1058F00000F03AFA00F018FA94F9445004F1100755
:1059000009E0206948B1384601F0A4F908B100F077
:1059100011FB6D1E6DB2002DF3DC84F84460BDE810
:10592000F04100F021BA00002DE9F04105460027C2
:1059300000F0C6FB324E306808B9FFF751FD7069C0
:1059400005424ED1C5B3083568070ED005F00700F3
:10595000C0F108000544680707D0502080F3118883
:10596000BFF34F8FBFF36F8FFEE72DB37068854293
:1059700037D82348183001460C6801E020460C4611
:105980006168A94202D221680029F7D131688C42AE
:1059900027D007682168016060680837411B10291B
:1059A0000FD96019420708D0502080F31188BFF347
:1059B0004F8FBFF36F8FFEE713E041606560FFF725
:1059C000CFFD61687068401A7060B268904200D282
:1059D000B060706901430020C4E90001F068401C18
:1059E000F06001F06FF9780707D0502080F311883C
:1059F000BFF34F8FBFF36F8FFEE73846BDE8F081EE
:105A0000800100200449086818B10868026D521C22
:105A100002650868704700002C01002010B50021C5
:105A20001848FCF78BFD04211648FCF787FD082178
:105A30001448FCF783FD0C211248FCF77FFD002180
:105A40001148FCF77BFD04210F48FCF777FD082186
:105A50000D48FCF773FD0C210B48FCF76FFD00218E
:105A60000A48FCF76BFD04210848FCF767FD082194
:105A70000648FCF763FDBDE810400C210348FCF725
:105A80005DBD0000000200204802002090020020BE
:105A9000012805D002280FD0032806D10B480CE0BE
:105AA0000B480AE0042900D1026470474263704742
:105AB00082637047C2637047064801290068F5D0C9
:105AC0000229F5D00329F5D0ECE700009002002070
:105AD000000200204802002010B5031F4FF0807420
