:020000040800F2
:100000007858002061020008372900082B230008D7
:1000100035290008CB030008AD32000800000000BD
:10002000000000000000000000000000A101000826
:10003000D104000800000000FD0100081D2A00088E
:100040007B0200087B0200087B0200087B0200089C
:100050007B0200087B0200087B0200087B0200088C
:100060007B0200087B0200087B020008CD03000829
:100070007B0200087B0200087B0200087B0200086C
:10008000D9030008E50300087B0200087B02000892
:100090007B0200087B0200087B0200087B0200084C
:1000A0007B0200087B0200087B0200087B0200083C
:1000B0007B0200087B0200087B0200087B0200082C
:1000C0007B0200087B0200087B0200087B0200081C
:1000D0007B0200087D320008893200089532000852
:1000E0007B0200087B0200087B0200087B020008FC
:1000F0007B0200087B0200087B020008F103000875
:100100007B0200087B0200087B0200087B020008DB
:100110007B020008A92D0008DD2A00087B020008E8
:100120007B020008FD030008090400087B020008A8
:100130007B0200087B0200087B0200087B020008AB
:100140007B0200087B0200087B0200087B0200089B
:100150007B0200081504000821040008A1320008F1
:100160007B0200087B0200087B0200087B0200087B
:100170007B0200087B0200087B02000800000000F0
:100180007B0200087B020008DFF810D000F0EEF8D8
:1001900000480047ED370008AFF300807858002092
:1001A0002C4B19680868B0E8F04F80F30988BFF35A
:1001B0006F8F4FF0000080F311887047000000003F
:1001C00008480068006880F308884FF0000080F35A
:1001D000148862B661B6BFF34F8FBFF36F8F00DF35
:1001E00000BF00BF08ED00E0DFF80C00016841F43B
:1001F00070010160704700BF88ED00E0EFF30980F7
:10020000BFF36F8F134B1A681EF0100F08BF20ED5D
:10021000108A20E9F04F106009B44FF0500080F3CD
:100220001188BFF34F8FBFF36F8F04F027FC4FF09F
:10023000000080F3118809BC19680868B0E8F04F25
:100240001EF0100F08BFB0EC108A80F30988BFF3CE
:100250006F8F7047B4000020EFF3058070470000F7
:100260000648804706480047FEE7FEE7FEE7FEE750
:10027000FEE7FEE7FEE7FEE7FEE7FEE7CD2A000821
:10028000890100082DE9F05F0546002092469B4653
:1002900088460646814640241BE02846414647469C
:1002A000224600F053F853465A46C01A914110D3E3
:1002B00011461846224600F03AF82D1A67EB01085D
:1002C0004F4622460120002100F031F817EB0009CB
:1002D0004E41201EA4F10104DFDC484631462A4687
:1002E0004346BDE8F09F40EA01039B0703D009E0C5
:1002F00008C9121F08C0042AFAD203E011F8013B12
:1003000000F8013B521EF9D27047D2B201E000F86A
:10031000012B491EFBD270470022F6E710B51346A9
:100320000A4604461946FFF7F0FF204610BD202A72
:1003300004DB203A00FA02F1002070479140C2F13C
:10034000200320FA03F3194390407047202A04DB6E
:10035000203A21FA02F00021704721FA02F3D0403E
:10036000C2F120029140084319467047064C074DE0
:1003700006E0E06840F0010394E807009847103475
:10038000AC42F6D3FFF704FF545A0008745A000831
:1003900030B58C1810F8012B12F00F0301D110F8B2
:1003A000013B120906D110F8012B03E010F8015BA4
:1003B00001F8015B5B1EF9D101E001F8013B521E1F
:1003C000FBD1A142E6D3002030BDFEE7014800F09A
:1003D000DDB8000018040020014800F0D7B8000084
:1003E00098050020014800F0D1B80000F805002071
:1003F000014800F0CBB8000078040020014800F06C
:10040000C5B8000058060020014800F0BFB8000041
:10041000D8040020014800F0B9B80000B806002058
:10042000014800F0B3B80000380500200168182327
:10043000CAB2103AB2FBF3F2054B6FF30901032A7B
:100440009B5CC36500D9091D8165084670470000A3
:100450001C5A000810B5014600208B698A6A4FF0CB
:10046000C07453B1B3F5005F15D072B1012A0CD03E
:10047000022A0AD0032A09D104E01AB1012A06D0BF
:10048000022A03D1C96AC90100D5012010BDC96A79
:10049000A142FAD010BD002AF7D0012AF2D0022AD8
:1004A000F3D0032AF3D010BD30B50468256825F4D5
:1004B00080252560046863608368402B036803D04F
:1004C00099600068C26030BD9A600068C16030BD4C
:1004D000704772B6FEE72DE9F0410446876D00F0E3
:1004E000CDFA064694F835000025022806D0802073
:1004F000606584F834500120BDE8F081206801680F
:1005000021F0160101602068416921F080014161FC
:10051000206C08B9A06C20B12068016821F00801A6
:1005200001602068016821F0010101600CE000F029
:10053000A5FA801B052807D920206065032084F8D0
:10054000350084F83450D7E720680068C007EED142
:1005500094F85C103F208840B860012084F8350092
:1005600084F834500020C7E790F83510022903D0F2
:100570008021416501207047052180F83510006811
:10058000016821F001010160002070472DE9F84366
:1005900004464FF00009CDF8009063484FF416511F
:1005A000A56D0068B0FBF1F72E6894F85C10082088
:1005B00000FA01F131420FD021680A6852070BD5C9
:1005C0000A6822F004020A6094F85C108840A8606F
:1005D000606D40F00100606594F85C104FF0010818
:1005E00008FA01F0304208D021684969090604D5AB
:1005F000A860606D40F00200606594F85C10042013
:100600008840304208D021680968890704D5A8606D
:10061000606D40F00400606594F85C101020884024
:10062000304218D021680968090714D5A8602068ED
:100630000168490304D50068000308D5A16C07E0F0
:100640000168C90503D4016821F008010160216C2B
:1006500009B12046884794F85C1020208840304239
:1006600031D021680968C9062DD5A86094F83500F5
:1006700005282068016806D0490347D500680003B3
:100680001DD4616C1CE021F01601016020684169F5
:1006900021F080014161206C08B9A06C20B1206874
:1006A000016821F00801016094F85C103F20884047
:1006B000A86084F8358084F83490216D1FE0E16BE8
:1006C00009B120468847606D00282BD0606DC007B7
:1006D00014D0052084F835002068016821F001015C
:1006E00001600098401C0090B84203D82068006860
:1006F000C007F6D184F8358084F83490E16C002985
:1007000010D001B02046BDE8F04308470168C90594
:10071000D5D4016821F01001016084F8358084F897
:100720003490CCE7BDE8F883140000202DE9F041B7
:10073000044600F0A3F906465CB1022084F83500B7
:10074000002584F834502068016821F0010101601F
:100750000DE00120BDE8F08100F090F9801B052834
:1007600005D920206065032084F83500F2E7206871
:100770000068C007F0D12268116820480140D4E920
:1007800001031843D4E9033633431843636918431C
:10079000A3691843E3691843236A18430843616A4D
:1007A000042903D1D4E90B131943084310602068CE
:1007B0004069666A20F0070130460E43012704288D
:1007C0000CD1A06A0643E06A40B12046FFF742FE22
:1007D00020B14020606584F83570BAE72068466132
:1007E0002046FFF723FE94F85C203F219140816072
:1007F000656584F835700020ACE700003F8010F09C
:100800002DE9F0410446866D90F83400002501285A
:100810000DD0012084F8340094F835700020012FA9
:1008200007D084F8340002252846BDE8F081022074
:10083000FBE7022784F8357060652046FFF734FE39
:1008400094F85C103F208840B0602068016841F057
:1008500016010160206C20B12068016841F0080198
:1008600001602068016841F001010160DCE70000DF
:100870002DE9F84FDFF8BCA10022012503264FF037
:100880000F090AF1040BAAF1040E00BF0B6805FA68
:1008900002F42340A34270D10F7907F00307012F20
:1008A00001D0022F16D187684FEA420806FA08FCE9
:1008B00027EA0C07D1F80CC00CFA08FC4CEA070C2C
:1008C000C0F808C04768A7430C79C4F300149440EB
:1008D0003C4344600C79E443A4070AD0C4684FEA5F
:1008E000420C06FA0CF7BC438F6807FA0CF7274353
:1008F000C7600C7904F00304022C12D1D40800EB79
:10090000840CDCF820405707FF0E09FA07F824EAA8
:100910000804D1F8108008FA07F848EA0408CCF86F
:10092000208004684FEA420C06FA0CF7BC430F79AA
:1009300007F0030707FA0CF7274307604C6814F425
:10094000403F70D03C4C276847F4804727602468BC
:1009500022F0030704F480440094384C07EB040CA5
:10096000DCF8084897074FEA177809FA08F7BC43FC
:10097000334FB84202D1002724E054E0314FB8424F
:1009800001D101271EE0304FB84201D1022719E002
:100990002E4FB84201D1032714E02D4FB84201D1A8
:1009A00004270FE02B4FB84201D105270AE02A4F58
:1009B000B84201D1062705E0284FB84201D10727E8
:1009C00000E0082707FA08F72743CCF80878DAF898
:1009D00000405746D1F804C09C435FEACC2C00D5B8
:1009E0001C433C60DBF800405F46D1F804C09C43E8
:1009F0005FEA8C2C00D51C433C60DEF80040774653
:100A0000D1F804C09C435FEA8C3C00D51C433C6099
:100A1000084F083F3C68D1F804C09C435FEACC3CD7
:100A200000D51C433C60521C102AFFF42FAFBDE8D8
:100A3000F88F0000083C014044380240003001407B
:100A4000000002400004024000080240000C024086
:100A5000001002400014024000180240001C024036
:100A6000426921EA02030A4043EA02418161704778
:100A70000AB1816170470904FBE700000148806802
:100A8000704700000800002070B5040025D094F8DD
:100A90003D00002520B984F83C50204600F0B8F80D
:100AA000242084F83D002068016821F001010160E4
:100AB0002068016841F4004101602068016821F468
:100AC0000041016000F05EFA4D4A6168914201D830
:100AD0004C4900E04C49884201D2012070BD4B498D
:100AE0002368B0FBF1F15E6826F03F060E435E60BE
:100AF0006368934206D94FF4967359434FF47A735F
:100B0000B1FBF3F12368491C1E6A26F03F0631430E
:100B100019626168914210D84900401EB0FBF1F2A1
:100B2000521CC2F30B02042A01D2042022E0B0FBC3
:100B3000F1F0401CC0F30B001CE0A268F2B301EB23
:100B4000C10303EB0116431EB3FBF6F35B1C43F436
:100B500080431B0549D092B301EBC10202EB0111A6
:100B6000401EB0FBF1F0401CC0F30B0040F480408D
:100B700040F400402168CA694CF6FF739A43104361
:100B8000C861D4E9071001432068026822F0C0025E
:100B900011430160D4E9030101432068826848F2EF
:100BA000FF339A4311438160D4E90501084321686A
:100BB000CA6822F0FF021043C86001E00EE016E0B0
:100BC0002068016841F0010101602564202084F85B
:100BD0003D00256384F83E50002070BD01EB4106C6
:100BE000431EB3FBF6F35B1CB3E70120C2E701EB46
:100BF0004101401EB0FBF1F0401CC0F30B00B7E711
:100C0000A086010080841E0000093D0040420F00C4
:100C100010B586B0044614216846FFF77DFB1449E1
:100C20002068884221D113480021026842F0020264
:100C30000260006800F0020005904FF440600090F0
:100C40001220CDE90101032003900420049069469D
:100C50000948FFF70DFE07481030016841F4800194
:100C60000160006800F48000059006B010BD00002F
:100C700000580040303802400004024002488168B9
:100C80000278114481607047080000200B4810B5BD
:100C9000016841F400710160016841F48061016004
:100CA000016841F480710160032000F09FF80F207B
:100CB00000F006F800F050F8002010BD003C0240A3
:100CC00030B505461F4887B00024016841F0100187
:100CD0000160006806A900F01000009001A800F073
:100CE00031F90498A8B100F04DF940001649174AAF
:100CF000B0FBF1F11648491E026040F2E732C0E94C
:100D00000324C0E90114846100F0B8FB040003D09F
:100D100015E000F037F9E9E70D4800F003FC0400A6
:100D20000DD1362000F034F8102D07D200222946CC
:100D3000362000F03BF80748056000E0012407B0CA
:100D4000204630BD4038024040420F0000100040B5
:100D5000180700200C0000200C4882B0016841F404
:100D600080410160006800F4804000900748001F47
:100D7000016841F0805101600068002200F080505D
:100D800000900F21901E02B000F010B844380240CD
:100D9000002809DB00F01F0201219140400980007A
:100DA00000F1E020C0F8001170470000F0B40E4BD5
:100DB0001B680C46C3F30223C3F10705042D00D9B9
:100DC0000425191D072901D2002300E0DB1E01269E
:100DD00006FA05F1491E214099409E40761E1640B4
:100DE0003143F0BC02F063BA0CED00E0064900F0BC
:100DF000070208684FF6FF03184040EA0220034A42
:100E000010430860704700000CED00E00000FA0598
:100E10002DE9F0470E46050065D0DFF81481D8F8BB
:100E20000000F7B200F00700B04207D288F8007067
:100E3000D8F8000000F00700B04254D128683D4CBB
:100E4000810712D5400703D5206840F4E0502060A8
:100E50002878000703D5206840F4604020602068AF
:100E6000A96820F0F000084320602878C0072DD042
:100E7000304968680839012812D0022813D00328A5
:100E800011D00968890700292DDA216821F00301B2
:100E900001432160FFF7F2FD814641F2883A0EE0FE
:100EA00009688903EFE709688901ECE7FFF7E6FDC8
:100EB000A0EB0901514502D90320BDE8F087206865
:100EC000696800F00C00B0EB810FEFD1D8F800108A
:100ED000404601F00701B14207D90770006800F0F1
:100EE0000700B04201D00120E7E72878400705D588
:100EF0002068E96820F4E050084320602878000763
:100F000006D52068296920F4604040EAC1002060CD
:100F100000F058F82168084AC1F30311515CC84039
:100F20000649086006480068FFF7CAFE0020C4E7CB
:100F3000003C024008380240245A000814000020F7
:100F40000C0000200F2202600C4A136803F0030318
:100F50004360136803F0F0038360136803F4E05305
:100F6000C36012684FF4E05303EAD20202610448FE
:100F7000006800F007000860704700000838024071
:100F8000003C02400448054900680968044AC1F36E
:100F90008221515CC840704714000020083802408C
:100FA000345A00080448054900680968044AC1F336
:100FB0004231515CC840704714000020083802409C
:100FC000345A0008154810B5006810F00C02144897
:100FD00013D01449042A0FD0082A0ED10F4C241F15
:100FE0002268236802F03F025B0207D52068C0F345
:100FF0008810A0FB010106E0084610BD2168C1F37E
:101000008811A1FB00010023FFF73CF92168C1F31F
:101010000141491C4900B0FBF1F010BD0838024005
:101020000024F40000366E012DE9F84F04006ED064
:101030002078DFF84C93C007A9F104054AD009F1E4
:1010400004000168C1F38101012908D00068C0F3E0
:10105000810002280AD1D9F80000400206D528688C
:10106000800337D560680028E1D033E06068B0F5D0
:10107000803F10D0B0F5A02F286810D020F4803029
:101080002860286820F4802028606068A8B1FFF7F5
:10109000F5FC06460DE0286840F48030F4E740F4A3
:1010A00080202860F7E700BFFFF7E8FC801B64287A
:1010B00073D828688003F7D50CE0FFF7DFFC0646FD
:1010C00005E000BFFFF7DAFC801B6428F0D8286831
:1010D0008003F7D42078DFF8AC8280074FF0000A55
:1010E0003ED5A748001D016811F00C0F08D000681C
:1010F000C0F3810002280BD1D9F80000400207D4C8
:101100002868800716D5E068012800D112E033E195
:10111000E068B8B10120C8F80000FFF7AFFC064650
:1011200005E000BFFFF7AAFC801B0228C0D8286892
:101130008007F7D52868216920F0F80040EAC1004F
:1011400028600DE0C8F800A0FFF798FC064604E010
:10115000FFF794FC801B02281FD828688007F7D46B
:101160002078000722D5864F87486169703771B1B2
:1011700001210160FFF782FC064604E0FFF77EFCD8
:10118000801B022809D838688007F7D50EE0C0F820
:1011900000A0FFF773FC064605E082E0FFF76EFC57
:1011A000801B02287DD838688007F7D42078400754
:1011B00068D5DFF8CCB100270BF13C0BDBF8000061
:1011C000C0000BD4DBF8001041F08051CBF80010C8
:1011D000DBF80000012700F0805000906B4E306873
:1011E000C00510D4306840F480703060FFF746FCD2
:1011F000009005E0FFF742FC0099401A022850D801
:101200003068C005F6D55E4EA0686C3601280FD058
:101210000528306810D020F001003060306820F0E0
:1012200004003060A068B8B1FFF728FC00900FE020
:10123000306840F00100F4E740F004003060F7E768
:10124000FFF71CFC0099411A41F28830814266D8B0
:1012500030688007F4D50EE0FFF710FC009007E03F
:10126000FFF70CFC0099411A41F28830814256D8B0
:1012700030688007F4D42FB1DBF8001021F08051E2
:10128000CBF80010A069C8B33D49091D0968C1F336
:10129000810102294AD00228504607D0C8F86000D0
:1012A00000E03CE0FFF7EAFB04463BE04746C8F8B5
:1012B0006000FFF7E3FB064605E000BFFFF7DEFB3B
:1012C000801B02282BD828688001F7D4D4E90701B5
:1012D0000843A16A2E4A490802EB0141626A41EAC9
:1012E0008211084394F82C1040EA0161C9F80010FB
:1012F00001203866FFF7C2FB044606E03EE000BF6F
:10130000FFF7BCFB001B022809D828688001F7D52D
:1013100034E000BFFFF7B2FB001B022802D9032014
:10132000BDE8F88F28688001F4D427E00128F7D0C1
:10133000D9F80000E26900F4800191421CD1226AD0
:1013400000F03F01914217D147F6C071626A014037
:10135000B1EB821F10D1A26A4FF0FF3300F440318D
:1013600003EB5202B1EB024F06D194F82C1000F0BF
:101370007060B0EB016F01D00120D1E70020CFE712
:101380000438024000004742800E4742007000408F
:101390000000FFFF7047704710B590F83C20012A0D
:1013A00022D0012280F83C20CA688C6822F4407266
:1013B00022434C6822F4806222430C6822F40062CB
:1013C00022430C6922F4805222434C6922F40052D9
:1013D0002243C969002322F480420A4301684A6417
:1013E00080F83C30002010BD022010BD70B590F890
:1013F0003C20012A32D0012480F83C40022280F8AF
:101400003D2003685A689D6822F070060A683243DE
:101410005A60134B02689A4214D0B2F1804F11D037
:10142000104B9A420ED0104B9A420BD00F4B9A425F
:1014300008D00F4B9A4205D00E4B9A4202D00E4B69
:101440009A4204D1496825F080031943916080F8DD
:101450003D40002180F83C10084670BD022070BD60
:10146000000001400004004000080040000C004063
:1014700000040140004001400018004010B5040085
:1014800003D094F83D0010B107E0012010BD00200A
:1014900084F83C00204600F01FF8022084F83D004C
:1014A000211D206801F020FB012084F8460084F80B
:1014B0003E0084F83F0084F8400084F8410084F83E
:1014C000420084F8430084F8440084F8450084F81E
:1014D0003D00002010BD000008B501680E488142A3
:1014E00001D10E4810E00D48001FB1F1804F0BD024
:1014F0000B4A914207D1016841F002010160006886
:1015000000F00200009008BD016841F00101016097
:10151000006800F00100F5E7000001404438024097
:101520000004004090F83D10012901D001207047CF
:10153000022180F83D100168CA6842F00102CA60C9
:1015400000681149884214D0B0F1804F11D00F4982
:1015500088420ED00E4988420BD00E49884208D0EE
:101560000D49884205D00D49884202D00C49884275
:1015700004D1816801F00701062903D0016841F018
:10158000010101600020704700000140000400409C
:1015900000080040000C00400004014000400140F1
:1015A0000018004070B5044690F83C000025012862
:1015B00017D0012684F83C60022084F83D002068A2
:1015C000826822F0770222F47F4282600868502805
:1015D00038D00DDC20284FD005DC90B3102811D175
:1015E0004AE0022070BD302846D040280AD13BE0B6
:1015F00060282FD070280DD0B0F5805F03D0B0F5F3
:10160000005F12D0012584F83D60002084F83C0082
:10161000284670BDCB68D1E90121206801F0CCFAE1
:101620002068816841F0770109E0CB68D1E90121A8
:10163000206801F0C1FA2068816841F4804181602E
:10164000E1E719E0CA684968206801F089FB502188
:10165000206806E0CA684968206801F092FB6021B2
:10166000206801F0B3FACEE7CA684968206801F043
:1016700077FB40212068F4E7226801461046F0E736
:1016800070472DE9F04104460068C66805694FF0CF
:101690000007A90713D5B10711D5F91E0161012073
:1016A0002077206880698007204602D0FFF7E8FF96
:1016B00004E000F0F7F8204600F089F92777680782
:1016C00016D5700714D521686FF004000861022058
:1016D00020772068806910F4407F204602D0FFF711
:1016E000CFFF04E000F0DEF8204600F070F9277725
:1016F000280715D5300713D521686FF00800086159
:10170000042020772068C0698007204602D0FFF7B8
:10171000B7FF04E000F0C6F8204600F058F927773C
:10172000E80616D5F00614D521686FF010000861A0
:10173000082020772068C06910F4407F204602D03E
:10174000FFF79EFF04E000F0ADF8204600F03FF9FF
:101750002777E80708D0F00706D021686FF001006E
:101760000861204600F034F9280608D5300606D571
:1017700021686FF0800008612046FFF70BFE6806C5
:1017800008D5700606D521686FF040000861204634
:1017900000F028F9A8060AD5B00608D521686FF030
:1017A000200008612046BDE8F041FFF7F4BDBDE828
:1017B000F0810000F0B587B0044614216846FEF7BA
:1017C000ABFD324A216800253148022401279142AD
:1017D0000ED1016841F0100101600068694600F017
:1017E000100005904FF4D4408DE83100294847E0BF
:1017F000294A2A4EB1F1804F23D0294B994243D137
:10180000016841F001010160016801F001010591E9
:10181000016841F0020101600068694600F00200C1
:101820000590C0208DE83100CDE903541046FFF744
:101830001FF803208DE83100CDE903546946304696
:1018400020E0016841F001010160016801F001013F
:101850000591016841F0020101600068694600F0ED
:101860000200059048F20C008DE83100CDE90357E5
:101870001046FEF7FDFF08208DE83100694630462E
:10188000CDE90357FEF7F4FF07B0F0BD00000140BB
:1018900030380240001002400000024000040240C4
:1018A00000040040704770B5044690F83C000026E4
:1018B0000D4601280FD0012084F83C006AB1042AAB
:1018C0001DD0082A2FD00C2A3FD00126002084F8F2
:1018D0003C00304670BD022070BD206801F07EF9EA
:1018E0002068816941F0080181612068816921F0E7
:1018F00004018161206881692A69114311E020682F
:1019000001F09CF92068816941F4006181612068DF
:10191000816921F480618161206881692A6941EAD5
:1019200002218161D2E7206801F0BEF92068C16917
:1019300041F00801C1612068C16921F00401C16161
:101940002068C1692A69114311E0206801F0E0F9BB
:101950002068C16941F40061C1612068C16921F456
:101960008061C1612068C1692A6941EA0221C161BF
:10197000ACE710B5040003D094F83D0010B107E0C7
:10198000012010BD002084F83C00204600F01EF825
:10199000022084F83D00211D206801F0A5F80120F7
:1019A00084F8460084F83E0084F83F0084F8400044
:1019B00084F8410084F8420084F8430084F844002D
:1019C00084F8450084F83D00002010BD7047704742
:1019D00000680349884201D1FFF750B97047000001
:1019E00000100040704738B5044690F842002028A7
:1019F00001D0022038BD51B14AB10120206300203E
:101A00006063204601F096FB216B012901D0012083
:101A100038BD21680A684968009121680C3151E895
:101A2000002F42F0100241E80023002BF5D138BD11
:101A300008B5002000900D480A466B460A49C06B65
:101A400003F0CEFB802208490948FFF7CCFF00983D
:101A5000002807D007494FF080500860BFF34F8F30
:101A6000BFF36F8F08BD00001A0B00204400002058
:101A70004003002004ED00E070470000F8B5016865
:101A800004460868CA684B6910F00F0F4FF0000554
:101A900059D003F0010602F49077374365D0C107AF
:101AA00005D0D10503D5616C41F0010161644107A6
:101AB00005D5D90703D0616C41F00201616481074B
:101AC00005D5D90703D0616C41F0040161640107B9
:101AD00007D502F02001314303D0616C41F00801C9
:101AE0006164616C00293AD0800604D5900602D565
:101AF000204601F038FA20684069616CC0F380101C
:101B0000090700D460B3204601F0F8F92068406965
:101B1000400621D52068143050E8001F21F0400114
:101B200040E80012002AF5D1E06BA8B172490165C6
:101B3000E06BFEF719FD002811D0E06B016D01B0DC
:101B4000BDE8F040084783060FD593060DD5204623
:101B5000BDE8F84001F007BA2046FFF78DFFF8BD59
:101B60002046FFF789FF6564F8BD266B2023012E10
:101B70007ED1C6067CD5D6067AD50868486800901E
:101B800048694FF0020640064DD5E26B1068406888
:101B90004FF480770004000C3AD0A18D814237D9F0
:101BA000E085D069B8422DD020680C3050E8001F85
:101BB00021F4807140E80012002AF5D12068143029
:101BC00050E8001F21F0010140E80012002AF5D181
:101BD0002068143050E8001F21F0400140E8001256
:101BE000002AF5D184F84230256320680C3050E893
:101BF000001F21F0100140E80012002AF5D1E06B2F
:101C0000FEF769FC6663A08DE18D401A81B206E0A3
:101C1000A18D8142A8D1D069B842A5D16663204682
:101C2000FFF706FFF8BDA08DE18D401A81B2E08D6F
:101C30000028F7D00029F5D020680C3050E8002F9C
:101C400022F4907240E80027002FF5D1206814306C
:101C500050E8002F22F0010240E80027002FF5D1C4
:101C600084F84230256320680C3050E8002F00E0F3
:101C700006E022F0100240E80023002BF3D1CDE76C
:101C800005062BD5150629D594F841002128C9D180
:101C9000A068B0F5805F01D12069B0B1206A411C15
:101CA0002162216800784860E08C401E0004000C2E
:101CB000E084B7D12068C16821F08001C16020684C
:101CC000C16841F04001C160F8BD206A0088C0F3DE
:101CD00008004860206A801C2062E5E74006F3D5D2
:101CE0005006F1D5CA68204622F04002CA6084F846
:101CF000413000F00DFBF8BDB52D000870B50400B3
:101D000004D094F84100002510B106E0012070BD18
:101D100084F84050204600F023F8242084F8410045
:101D20002068C16821F40051C160204601F07CF9AF
:101D30002068016921F4904101612068416921F026
:101D40002A0141612068C16841F40051C1606564A5
:101D5000202084F8410084F842006563002070BDB3
:101D60002DE9F04F87B0054614216846FEF7D4FAF6
:101D7000FB48FA4ED5F800C0F94B10380321022277
:101D800000244FF0080AB4451AD11D6845F4002517
:101D90001D601B6803F400230593036843F00103EF
:101DA0000360006800F0010005908DE81600CDE9A1
:101DB000031A6946EB48FEF75BFD07B0BDE8F08FFC
:101DC000DFF8A48340273E014FF00069C4456DD180
:101DD000D3F800C000244CF4801CC3F800C01B687A
:101DE00003F480130593036843F00403036003685E
:101DF00003F004030593036843F0080303600068DD
:101E00008B4600F008000590B000CDE90002CDE956
:101E1000024B90466946CDF810A0D448FEF728FD45
:101E20000420CDE90008CDE9024B6946CDF810A0A9
:101E3000CF48FEF71DFDDFF84083CE494046C8F885
:101E40000010C0E90194C0E90346C8F81440C8F87E
:101E50001840C8F81C40C8F82040C8F82440FEF7D5
:101E600065FC08B1FEF735FBC34CC5F83C80C148A2
:101E70006034C8F83850A830A760C4E900090020D1
:101E8000C4E903066061A061E061206260622046EF
:101E9000FEF74CFC08B1FEF71CFBAC6300220521E9
:101EA0003520A563FEF782FF352068E0DFF8CC829D
:101EB000DFF8ACE24FF0070B0EF1040EC44561D120
:101EC000DEF800C0A0464CF0100CCEF800C0DEF8E2
:101ED000003003F010030593036843F0010303602F
:101EE0000068CDE9024100F0010005904FF4C060A8
:101EF000CDE90002CDF810B069469A48FEF7B8FC6B
:101F0000DFF874A29E490AF1C00A5046CAF80010D0
:101F1000C0E90194C0E90346CAF81440CAF8184061
:101F2000CAF81C40CAF82040CAF82440FEF7FEFB5D
:101F300008B1FEF7CEFA934CC5F83CA09048CAF819
:101F400038507830A760C4E90009C4E90386C4F8B2
:101F50001480C4F81880C4F81C80C4F8208020467F
:101F6000C4F82480FEF7E2FB08B1FEF7B2FAAC63D6
:101F7000002205212520A563FEF718FF2520FEF786
:101F800007FF1AE7DFF80082C4455FD1D3F800C02D
:101F9000A2464CF4003CC3F800C01B6803F40033B5
:101FA0000593036843F0080303600068CDE902412C
:101FB00000F0080005906020CDE90002CDF810B0D7
:101FC00069466B48FEF754FCDFF8B881694908F1AF
:101FD000600878314046C8F80010C0E90194C0E9B3
:101FE0000346C8F81440C8F81840C8F81C40C8F8A0
:101FF0002040C8F82440FEF799FB08B1FEF769FAC3
:10200000604CC5F83C805B48C034C8F8385090300C
:10201000A760C4E90009C4E903A6C4F814A0C4F881
:1020200018A0C4F81CA0C4F820A02046C4F824A01E
:10203000FEF77CFB08B1FEF74CFAAC6300220521E9
:102040002620A563FEF7B2FE262098E7DFF83C8144
:10205000C44522D11D6845F480251D601B6803F42A
:1020600080230593036843F0080303600068CDE90B
:10207000024100F0080005904FF44070CDE90002E5
:10208000CDF810B069463A48FEF7F2FB0022052170
:102090002720FEF78BFE272071E73D4B9C457FF400
:1020A00070AFDEF800C04CF0200CCEF800C0DEF8B7
:1020B000003003F020030593036843F0040303603A
:1020C0000068CDE9024100F004000590C020CDE990
:1020D0000002CDF810A069462448FEF7C9FB284944
:1020E000DFF8B090183948464FF0206AC9F8001060
:1020F000C0E901A4C0E90346C9F81440C9F8184072
:10210000C9F81C40C9F82040B046C9F82440FEF781
:102110000DFB08B1FEF7DDF91E4EC5F83C906036A8
:10212000C9F83850C6E90274C6E90484B461144899
:10213000F461346260307462C6E9000A3046FEF72A
:10214000F5FA08B1FEF7C5F9AE6300220521472074
:10215000B563FEF72BFE472011E70000004C00405E
:102160004038024000000240005000400008024099
:10217000000C0240106002401804002000100140D2
:102180004064024038050020004400400048004000
:10219000001401405806002090F84230202B01D056
:1021A0000220704721B11AB10023036301F012B875
:1021B0000120704710B501684968094AC9B25171D8
:1021C000084A90420AD1084601F0C6FB04490122A0
:1021D000BDE81040491D0348FFF7DEBF10BD0000F9
:1021E000180000208803002070472DE9F8430446BA
:1021F00090F84100984616460D46202802D002204D
:10220000BDE8F88385B17EB100206064212084F8A8
:102210004100FEF733FCA6848146E684A0682027AF
:10222000B0F5805F02D003E00120E9E7206910B13A
:102230002E4600250EE000260CE08021204600F00E
:10224000E4FFA8B9C6B116F8010B21684860E08C1C
:10225000401EE084E08C4B464FF00002CDF8008039
:102260000028EAD14FF04001204600F0CEFF40B1F7
:1022700084F841700320C3E735F8020BC0F308006F
:10228000E3E784F841700020BAE7000070B5044627
:1022900090F84100202801D0022070BD01B3FAB1AE
:1022A0002162A284E28400206064212384F841300A
:1022B000A56B144BEB63A56B134B2B64A56B134BF6
:1022C000EB64A36B186520681346A56B021D2846B6
:1022D000FEF796FA30B110206064202084F84100A7
:1022E000012070BD21686FF0400008602068143044
:1022F00050E8001F41F0800140E80012002AF5D1AB
:10230000002070BDB12E0008F32E0008C32D000878
:1023100000680349884202D10249002008707047D2
:1023200000440040B00000207047FEE7294808B58F
:10233000016841F480010160016801F480010091AD
:10234000016841F4001101600068002200F40010EF
:10235000009005210B20FEF729FD0B20FEF718FD4C
:10236000002205211020FEF721FD1020FEF710FDB0
:10237000002205211120FEF719FD1120FEF708FDAE
:10238000002205212F20FEF711FD2F20FEF700FD72
:10239000002205213920FEF709FD3920FEF7F8FC5F
:1023A000002205213A20FEF701FD3A20FEF7F0FC5D
:1023B000002205214520FEF7F9FC4520FEF7E8FC48
:1023C000002205214620FEF7F1FCBDE8084046202A
:1023D000FEF7DEBC3038024010B50B4A00210B4836
:1023E00001F074FA0A4C084A00212060243209489E
:1023F00001F06CFA606001F0CBF900F0DDFABDE8A5
:10240000104000F099BA0000D4590008F9290008DA
:1024100000000020012A00082DE9F04186B01421B7
:102420006846FDF779FF35480024016841F0100146
:102430000160016801F010010591016841F004019B
:102440000160016801F004010591016841F080011B
:102450000160016801F080010591016841F001010E
:102460000160016801F001010591016841F002017C
:102470000160016801F002010591016841F0080165
:10248000016000681E4E00F0080005900022042143
:102490003046FEF7EDFA1B4F01220A213846FEF7BF
:1024A000E7FADFF864800022C0214046FEF7E0FA38
:1024B000042000900125CDE901546946304603947B
:1024C000FEF7D6F905208DE8310069463846FEF75B
:1024D000CFF90A200090CDE90154694638460394AB
:1024E000FEF7C6F9C0200090CDE901546946404688
:1024F0000394FEF7BDF906B0BDE8F0813038024024
:102500000010024000080240000402400D4810B5CF
:102510000B4901600C49416000214FF48042816009
:10252000C0E9031241618161C1610162FEF7ACFA49
:10253000002803D0BDE81040FDF7CBBF10BD000060
:10254000005800403C010020A086010010B596B064
:1025500000240F9410941194129413941C21684633
:102560001494FDF7D9FE202107A8FDF7D5FE3548C4
:102570003349016040F23F61C0E9011440F2CF717C
:10258000C0E9031444618461FEF778FF08B1FDF7E8
:10259000A0FF4FF480500F900FA92A48FFF702F8D0
:1025A00008B1FDF796FF2748FFF7E3F908B1FDF7FB
:1025B00090FF139413A923481494FEF717FF08B152
:1025C000FDF787FF602000909620CDE90104039479
:1025D00004940594002269461A480694FFF763F9AB
:1025E00008B1FDF776FF042269461648FFF75BF94C
:1025F00008B1FDF76EFF082269461248FFF753F94C
:1026000008B1FDF766FF0C2269460E48FFF74BF94B
:1026100008B1FDF75EFF0794089409944FF4005049
:102620000A94CDE90B4007A906480E94FEF7B4FEC4
:1026300008B1FDF74EFF0348FFF7BCF816B010BD18
:10264000000001409001002010B58EB000240794D6
:10265000089409940A940B941C2168460C94FDF785
:102660005BFE2B484FF08041016040F21F31C0E912
:10267000011440F2CF71C0E903148461FEF7FEFE3D
:1026800008B1FDF726FF4FF48050079007A92048B6
:10269000FEF788FF08B1FDF71CFF1D48FFF769F939
:1026A00008B1FDF716FF0B940BA919480C94FEF71F
:1026B0009DFE08B1FDF70DFF602000909620CDE94A
:1026C00001040022694612480494FFF7ECF808B1AF
:1026D000FDF7FFFE042269460D48FFF7E4F808B154
:1026E000FDF7F7FE082269460948FFF7DCF808B154
:1026F000FDF7EFFE0C2269460548FFF7D4F808B154
:10270000FDF7E7FE0248FFF755F80EB010BD0000D8
:10271000D801002010B58EB00024079408940994C5
:102720000A940B941C2168460C94FDF7F5FD2C4887
:102730002A49016040F21F31C0E9011440F2CF7113
:10274000C0E903148461FEF799FE08B1FDF7C1FEEC
:102750004FF48050079007A92148FEF723FF08B1E6
:10276000FDF7B7FE1E48FFF704F908B1FDF7B1FE0B
:102770000B940BA91A480C94FEF738FE08B1FDF72C
:10278000A8FE602000909620CDE901040022694651
:1027900013480494FFF787F808B1FDF79AFE042266
:1027A00069460F48FFF77FF808B1FDF792FE08224F
:1027B00069460B48FFF777F808B1FDF78AFE0C224F
:1027C000694607480194FFF76EF808B1FDF781FEEE
:1027D0000348FEF7EFFF0EB010BD000000040040FC
:1027E000200200200C4810B50A4901604FF4E13185
:1027F0004160002181600C22C160C0E90412816146
:10280000C161FFF77BFA002803D0BDE81040FDF757
:1028100060BE10BD004C0040680200200C4810B59E
:102820000A4901604FF4E1314160002181600C22CE
:10283000C160C0E904128161C161FFF75FFA00283D
:1028400003D0BDE81040FDF744BE10BD005000406D
:10285000B00200200C4810B50A4901604FF4E13184
:102860004160002181600C22C160C0E904128161D5
:10287000C161FFF743FA002803D0BDE81040FDF71F
:1028800028BE10BD00100140F80200200C4810B511
:102890000A4901604FF4E1314160002181600C225E
:1028A000C160C0E904128161C161FFF727FA002805
:1028B00003D0BDE81040FDF70CBE10BD0044004041
:1028C000400300200C4810B50A4901604FF4E13183
:1028D0004160002181600C22C160C0E90412816165
:1028E000C161FFF70BFA002803D0BDE81040FDF7E7
:1028F000F0BD10BD00480040880300200C4810B512
:102900000A4901604FF4E1314160002181600C22ED
:10291000C160C0E904128161C161FFF7EFF90028CD
:1029200003D0BDE81040FDF7D4BD10BD0014014038
:10293000D0030020FEE7FEE71CB50022822105201F
:1029400002F06AF9094901228860491D0848FFF729
:1029500023FC00210620CDE900010B464FF48072D4
:1029600004A1064802F0D0FC1CBD000018000020A5
:1029700088030020506172736572000031450008C1
:10298000A12000F0B5FC322001F0C2FFA22000F02F
:10299000AFFC322001F0BCFFA32000F0A9FC3220E4
:1029A00001F0B6FFA42000F0A3FC322001F0B0FF3C
:1029B000642001F0ADFFE3E71CB500210320CDE961
:1029C00000010B464FF4007207A10A4802F09CFC7C
:1029D000012807D0502080F31188BFF34F8FBFF339
:1029E0006F8FFEE71CBD000053656E645061636B22
:1029F0000000000081290008012000F02BFFFBE708
:102A0000054C4FF4FA7504212046FEF729F82846B4
:102A100000F020FFF7E700000010024010B54FF073
:102A2000E020006902F0C0FD012803D0BDE810409D
:102A300002F0DCB810BD000030B593B0302168461C
:102A4000FDF76AFC14210CA8FDF766FC1D48002563
:102A5000016841F080510160006800F080501190E1
:102A60001948016841F4804101600068022400F4C3
:102A70008040119001200090000401908001CDE978
:102A800006400C200890A020CDE9090404200B90FA
:102A90006846FEF7C9FA08B172B6FEE70CA90F2026
:102AA00081E831004FF4A0500F904FF48050109007
:102AB00005210CA8FEF7ACF9002801D072B6FEE79C
:102AC00013B030BD40380240007000400248016839
:102AD00041F470010160704788ED00E00148FEF7A5
:102AE000D0BD000018070020F0B50268274B284D24
:102AF000284E294F294C4FF0804C984209D0604510
:102B000007D0A84205D0B04203D0B84201D0A042BD
:102B100004D122F0700E4A6842EA0E0298421BD09D
:102B2000604519D0A84217D0B04215D0B84213D092
:102B3000A04211D01A4DA8420ED01A4DA8420BD077
:102B4000194DA84208D0194DA84205D0184DA842E9
:102B500002D0184DA84203D122F44075CA682A4316
:102B60004D6922F080022A438D68C5620D68856236
:102B7000984201D0A04201D109690163016841F086
:102B800004010160012141610260F0BD00000140CB
:102B90000004004000080040000C00400004014018
:102BA000004001400044014000480140001800403E
:102BB000001C00400020004010B5846842EA032257
:102BC00024F47F440A432243826010BD826822F0CD
:102BD00070020A4342F0070181607047F0B5036A52
:102BE000026A22F00102026242688469124E24F0F5
:102BF00073050C682C4323F002058B682B430D4DA5
:102C0000A84201D0B04205D123F00807CB683B436E
:102C100023F00403A84201D0B04205D14D6922F44B
:102C2000407215438A692A4342608461496841635E
:102C30000362F0BD0000014000040140F0B5026AEB
:102C4000036A23F010030362436884690D6824F467
:102C5000E64444EA05248D6822F0200242EA051287
:102C60000F4D104EA84201D0B04206D1CF6822F0DD
:102C7000800242EA071222F04002A84201D0B0428C
:102C800007D14D6923F4406343EA85038D6943EA24
:102C9000850343608461496881630262F0BD00007E
:102CA0000000014000040140F0B5026A036A23F409
:102CB000807303624368C46922F4007224F07305D0
:102CC0000C68124E2C438D6842EA05220E4DA84234
:102CD00001D0B04206D1CF6822F4006242EA072256
:102CE00022F48062A84201D0B04207D14D6923F49A
:102CF000405343EA05138D6943EA05134360C461F9
:102D00004968C1630262F0BD000001400004014057
:102D100030B5046A026A22F4805202624268C369D2
:102D20000D6823F4E64343EA05238D6824F4005438
:102D300044EA0534084DA84202D0084DA84204D107
:102D40004D6922F4804242EA85124260C3614968BB
:102D50000164046230BD0000000001400004014035
:102D600010B5036A046A24F001040462846924F043
:102D7000F00444EA021423F00A020A438461026266
:102D800010BD10B5036A046A24F01004046284695B
:102D900023F0A00324F4704444EA023243EA011110
:102DA0008261016210BD00000148FEF767BE0000AD
:102DB000B002002010B5806B0021C185FEF75CFEDB
:102DC00010BD70B5846B2068406994F84110C0F361
:102DD000C0100025212904D118B1E584204600F057
:102DE000B4F82068406994F84210C0F3801022299A
:102DF00004D118B1E585204600F080F8606C40F001
:102E0000100060642046FEF737FE70BD10B5014625
:102E1000806B096809684FF00002C9052ED4C2858D
:102E200001680C3151E8003F23F4807341E800341D
:102E3000002CF5D10168143151E8003F23F0010363
:102E400041E80034002CF5D10168143151E8003F0D
:102E500023F0400341E80034002CF5D1202180F814
:102E60004210016B012909D101680C3151E8003F82
:102E700023F0100341E80034002CF5D14263016BCC
:102E8000012902D0FFF796F910BD818DFEF7D0FD24
:102E900010BD10B5806B01214163016B012902D087
:102EA000FFF7A2F910BD818D4908FEF7C1FD10BDE5
:102EB00010B50146806B09680968C90516D4002160
:102EC000C1840168143151E8002F22F0800241E8EA
:102ED0000023002BF5D101680C3151E8002F42F09E
:102EE000400241E80023002BF5D110BDFFF710FA96
:102EF00010BD10B5806BFFF717FA10BD01680C31DB
:102F000051E8002F22F4907241E80023002BF5D104
:102F10000168143151E8002F22F0010241E800233A
:102F2000002BF5D1016B012909D101680C3151E861
:102F3000002F22F0100241E80023002BF5D12021C0
:102F400080F8421000210163704701680C3151E89C
:102F5000002F22F0C00241E80023002BF5D12021F0
:102F600080F84110704708B590F84210222901D02E
:102F7000022008BD82684FF480539A4201D1016952
:102F800021B1816A9A421BD04AB10AE00268816A83
:102F90005268C2F308020A80816A891C08E002694B
:102FA00072B10268526802F07F020A70816A491C9D
:102FB0008162C18D491E0904090CC18503D01BE043
:102FC00002685268F1E70168CA6822F02002CA600C
:102FD0000168CA6822F48072CA6001684A6922F0F6
:102FE00001024A61202180F8421000214163026BF6
:102FF000012A03D0FFF7DEF8002008BD0163016855
:103000000C3151E8002F22F0100241E80023002B80
:10301000F5D101680A68D20602D50A6849680091AC
:10302000818DFEF705FDE7E770B50446006801698C
:10303000E26821F44051114301612169A068E2690D
:1030400008436169114308432168CA6849F20C6367
:103050009A430243CA6020684169A26921F4407121
:103060001143416131492068884202D03049884289
:1030700002D1FDF797FF01E0FDF784FFE26900232D
:10308000192164253226B2F5004F626828D0A0FBD2
:103090000101930F9200FDF7F5F80146B0FBF5F042
:1030A0006FF01802504301EB800006EB0010B0FBFC
:1030B000F5F000F0F002B1FBF5F002EB0012B1FB0D
:1030C000F5F06FF01803584301EB800006EB001099
:1030D000B0FBF5F000F00F0021681044886070BD6F
:1030E000A0FB010192185B41FDF7CCF80146B0FB53
:1030F000F5F00201B1FBF5F06FF01803584301EB56
:10310000800006EBC000B0FBF5F000F0F80002EB29
:103110004002B1FBF5F0584301EB800006EBC00024
:10312000B0FBF5F000F00700D6E70000001001400A
:103130000014014038B581620446828500201346A0
:103140006064222284F84220E56B1F4AEA63E56B43
:103150001E4A2A64E56B1E4AEA64E26B10650A4661
:103160002168E06B091DFDF74BFB30B11020606456
:10317000202084F84200012038BD206801684068A2
:103180000090206948B120680C3050E8001F41F4DD
:10319000807140E80012002AF5D12068143050E810
:1031A000001F41F0010140E80012002AF5D120681B
:1031B000143050E8001F41F0400140E80012002A9E
:1031C000F5D1002038BD00000D2E0008932E000818
:1031D000C32D000881628285C285002141642221BD
:1031E00080F84210016921B10168CA6842F4807216
:1031F000CA6001684A6942F001024A610068C16818
:1032000041F02001C160002070472DE9F843984645
:1032100017460D460446089E24E0701C22D0FDF798
:103220002DFCA0EB0800B0421AD8CEB12068C168CE
:10323000490717D5802D15D0402D13D00168C943FB
:1032400009070FD401680025406800902046FFF769
:1032500055FE0820606484F840500120BDE8F883E2
:103260000320FBE72068006835EA000004D0002056
:10327000B842D2D00020F1E70120F9E70148FEF77B
:10328000FDBB0000F80200200148FEF7F7BB00007C
:10329000400300200148FEF7F1BB00008803002036
:1032A0000148FEF7EBBB0000D0030020FEE7090752
:1032B000090E002804DB00F1E02080F800147047BC
:1032C00000F00F0000F1E02080F8141D704702E0CC
:1032D00008C8121F08C1002AFAD1704770470020A1
:1032E00001E001C1121F002AFBD1704770470000A6
:1032F00010B598B0044634210BA8FDF70DF8FF2057
:103300008DF82C0001A9A12C54D0A22C7ED0A32C86
:103310007DD0A42C4CD15A480BAB028800EE102A69
:10332000B8EE400A8DED010A428800EE102AB8EE90
:10333000400A8DED020A828800EE102AB8EE400A9B
:103340008DED030AC28800EE102AB8EE400A8DED1A
:10335000040A028900EE102AB8EE400A8DED050A33
:10336000428900EE102AB8EE400A8DED060A8289E5
:1033700000EE102AB8EE400A8DED070AC28900EE71
:10338000102AA422B8EE400A8DED080A008A00EE49
:10339000100AB8EE400A8DED090A00912421092097
:1033A00000F09DF8642328220BA93648FEF71DFF84
:1033B00018B010BD344890ED000A34488DED010A74
:1033C00090ED000A32488DED020A90ED000A314876
:1033D0008DED030A90ED000A2F488DED040A90ED63
:1033E000000A2E488DED050A90ED000A2C488DED5F
:1033F000060A90ED000A2B488DED070A90ED000AB1
:1034000029488DED080A90ED000A01E006E019E078
:103410008DED090A0BABA1220091BFE723480BAB4E
:10342000A22290ED000A22488DED010A8DED020ADC
:1034300090ED000A8DED030A90ED010A8DED040A6E
:10344000009116E01B480BABA32290ED000A1A482E
:103450008DED010A90ED000A18488DED020A90EDFD
:10346000000A17488DED030A90ED000A8DED040A5D
:1034700000911021042000F032F86423142293E715
:10348000080B002088030020840000208800002012
:103490008C00002090000020940000209800002064
:1034A0004C00002050000020480000209C0000201C
:1034B00024000020A4000020A0000020A80000207C
:1034C000AC00002078B50B466C4603E0C55C5E1A84
:1034D0005B1CA5559342F9DD9DED000A78BDF0B562
:1034E0000025059F5A7099702C460EE0032207EBC9
:1034F000840606EB020C02EB840E1CF803CC521C73
:1035000003F80EC0072AF4DB641C8442EEDB0120C2
:10351000CA1C03E01C5C401C2C44E5B29042F9DB61
:103520005818C570F0BD0020704778B50B466C4642
:1035300003E0C55C5E1A5B1CA5559342F9DDBDF93D
:10354000000078BDA0B00D4C4FF0FF3700256E464F
:103550003B4680226946E06B01F0D8FD0028F7D099
:103560003554217829B182B269460548FEF78EFEAE
:10357000EEE7684600F006F8EAE7000044000020A5
:10358000B002002070B58DB0002102AA019131E097
:10359000552B2ED14478532C08D10021455C55542D
:1035A000491CC9B20B29F9D3552B22D1522C09D170
:1035B00000215618455C491CC9B2F5720B29F8D395
:1035C000552B16D1512C09D100215618455C491CA8
:1035D000C9B2B5750B29F8D3552B0AD1542C08D193
:1035E00000215418435C491CC9B284F821300B29CE
:1035F000F7D3401C0378002BCAD1002001AB00EBAD
:10360000400404EBC004002114441D5C665C491CAA
:103610003544C9B21D540A29F7D3401CC0B204284E
:10362000EDD39DF812009DF8041088426FD15248E6
:10363000D0ED012AC0ED052A90ED023A80ED063A60
:1036400090ED032A80ED072ABDF80A1000EE101A4B
:10365000B8EE400ADFED490A20EE200A9FED481A35
:10366000494A4A4B60EE011AC0ED021ABDF80C102F
:1036700000EE101AB8EE400A20EE200A20EE010AF1
:1036800080ED010ABDF80E1003EE901AF8EE633AD1
:1036900063EEA00ADFED3B3A20EE811A80ED031ABB
:1036A000BDF8101000EE901A0146F8EE600A80EEA8
:1036B000A34A70EE620A10EE904A944280ED044AEA
:1036C000496A01DD491E06E010EE904A9C4201D88D
:1036D000416A01E0491C41624FF4B474614300EE59
:1036E000901A2549F8EEE00A30EE800A80ED0B0AC8
:1036F00031EEC30A096A10EE104A944201DD491EF8
:1037000007E010EE104A9C4202D8016A02E030E065
:10371000491C01624FF4B474614300EE101A16495B
:10372000B8EEC00A30EE210A80ED0C0A31EE420AF2
:10373000896A10EE104A944201DD491E06E010EE3F
:10374000102A9A4201D8816A01E0491C81624FF433
:10375000B472514300EE101AB8EEC00A30EE010AFE
:1037600080ED0D0A4178002903D10121417080EDDF
:103770000E0A0DB070BD000044000020000034436C
:10378000000000380000C84200008743000087C3E3
:103790001CB501210C020022204601F081FC0D49DC
:1037A000C86378B180220C490C48FEF71CF900214F
:1037B0000220CDE900010B46224609A10A4801F08A
:1037C000A3FD1CBD502080F31188BFF34F8FBFF3C2
:1037D0006F8FFEE7440000201A0B002040030020FA
:1037E0006A7939303170000045350008FDF74EFA2E
:1037F000FFF722F9FEF710FEFEF798FDFFF72AF813
:10380000FEF7F0FFFFF70AF8FFF740F8FFF75AF866
:10381000FFF774F8FEF77AFEFEF798FEFEF714FF46
:10382000FEF778FF0948016841F08071016008489F
:1038300000214160016841F00101016000F018F8C9
:10384000FEF7CAFD00F026F8FEE70000FCED00E000
:10385000001000E010B5EFF3058111B16FF0050421
:1038600003E0002408B101F053F8204610BD000029
:10387000EFF3058010B16FF0050070470448016850
:1038800011B14FF0FF3070470121016000207047F7
:103890000C01002010B5EFF3058010B16FF00500AA
:1038A00010BD08480168012902D04FF0FF3010BD5B
:1038B000054A002182F8141D0221016001F090F8F0
:1038C000002010BD0C0100200BE000E02DE9FF41BD
:1038D0004FEA01034FF00005EFF30581039549BB63
:1038E00040B38027182100244AB3166806B1344635
:1038F00096691EB13146761E382E02D21679F60729
:1039000003D0002004B0BDE8F081566906B1B708C5
:10391000D2F808C0BCF1000F0DD0D568602D18D3C7
:1039200012693AB136B18DE806103A46214601F0E7
:1039300018FD03900DE0D6685EB912694AB903AA72
:10394000CDE90012BAB2214601F0DEFC012800D018
:1039500003950398D6E7000030B5214C0025A1B0AF
:103960002178052908D2DFE801F003090D172500A9
:10397000FF2801D10120207021B030BD607020717E
:103980000220F8E7A070217980280144217125D810
:10399000E57068B10320EEE7124AE1785054491C03
:1039A000C9B2E170227910442071A0788142E3D33A
:1039B0000420E0E72179814210D160788DF8000081
:1039C000A2788DF8012007490DF10200FCF78BFC6D
:1039D00000231A466946A06801F066FA2570CBE715
:1039E00018000020600700202DE9F041134C0F461D
:1039F0000546E6682068001D00F03FFD681C07D101
:103A000037B12168BDE8F0410D48091D00F084BDC3
:103A100020683544B5424560216805D2206CBDE878
:103A2000F041091D00F060BDE06B091D00F05CFD78
:103A3000A06A854200D2A562BDE8F081B4000020F2
:103A40008C1000202DE9F041054600F089FE2D4C38
:103A5000A068401CA06020682B4F10B1606930B393
:103A60002BE02560A068012827D1002606EB860000
:103A700007EB800000F02AFD761C382EF6D3234891
:103A800000F024FD2148143000F020FD1F482830AC
:103A900000F01CFD1D483C3000F018FD1B48503064
:103AA00000F014FD1948E0631430206405E020683C
:103AB000E96AC06A884200D82560606A401C60627A
:103AC0006864E86A2169884200D9206100EB8000BF
:103AD00007EB8000291D00F01FFD00F061FE60690A
:103AE00000280CD02068E96AC06A884207D20849D9
:103AF0004FF080500860BFF34F8FBFF36F8FBDE86A
:103B0000F0810000B4000020DC0B00203C100020FD
:103B100004ED00E0D0E9012100680A44101A814256
:103B200000D8401A7047000038B500F019FE104C5C
:103B30002068C8B90F4800F0C9FC0E48143000F0E6
:103B4000C5FC0C48E060143020610A4B0020F03BBB
:103B5000009003F1500210210A2001F07EF820604D
:103B600010B105A100F09EFEBDE8384000F018BE7F
:103B7000F800002090110020546D725100000000E8
:103B800030B4026C0B46002A0BD0C1681144C160EE
:103B90008468A14201D30168C16030BC1846FCF7BB
:103BA000A2BB30BC70472DE9F041856B1746044637
:103BB0000026026C82B1C7B1E068FCF794FBE168B3
:103BC000206C091AE1602268914202D2A168081AA9
:103BD000E060022F16D017E02068A8B9A06801F0B5
:103BE000BBFD06460020A0600EE06068FCF77BFB92
:103BF000216C606808446060A168884204D3206832
:103C0000606001E005B16D1E6D1CA5633046BDE826
:103C1000F08110B5044690F85D0058B101280CD031
:103C200002280FD0502080F31188BFF34F8FBFF3CD
:103C30006F8FFEE7206B00F0C7FD2046BDE8104007
:103C400000F0C2BD10BD000010484FF47051420793
:103C500006D0C01D0D4920F00700411AC1F5705172
:103C60000B4A00230144C2E900030839183A21F045
:103C7000070111604B600B600B1AC0E900139360E1
:103C80004FF00040536050617047000078180020EA
:103C900028010020144E154CA6F29C474FF0805886
:103CA000DFF84C9012E000BF00F05AFDF068C568E4
:103CB000281D00F0E2FBA068401EA0606068401E66
:103CC000606000F06DFD2846FFF7A3FF60680028E4
:103CD000EAD138680128F9D9C9F80080BFF34F8FBD
:103CE000BFF36F8FF2E7000078100020B4000020CF
:103CF00004ED00E070B51D46049C51B1C4F80020ED
:103D0000C4E90F010121204600F0DAFF84F84C508D
:103D100070BD2460F4E72DE9F0410D4604461E46CF
:103D2000174655212846DDF81880FCF7F7FAA84217
:103D300007D0502080F31188BFF34F8FBFF36F8FF0
:103D4000FEE724212046FCF7E7FAA561C4E90276E4
:103D500084F81C80BDE8F0812DE9F05F8846DDE93C
:103D60000B941546834691009A460A9EA522206B25
:103D7000FCF7CBFA6FF00301206B01EB85010844DF
:103D800020F00707780707D0502080F31188BFF391
:103D90004F8FBFF36F8FFEE70025B8F1000F0FD0F4
:103DA0005FF00000221818F8001082F8341018F89C
:103DB000001011B1401C1028F4D384F8435001E0E6
:103DC00084F83450382E00D33726E662C4E91365F0
:103DD000201D00F086FB04F1180000F082FB246136
:103DE000C6F138006462A0616565A56584F85C5021
:103DF00052465946384600F01DFB2060B9F1000FCD
:103E000001D0C9F80040BDE8F09F000030B511496D
:103E100000E011460A688242FBD34B685C1884427A
:103E200003D1406818444860084643681C1894420F
:103E300009D1084C183C2468A24209D052681A449F
:103E400042600A6812680260814200D0086030BD9A
:103E50000460F9E72801002070B5002441600B4D93
:103E60000061914206D8D11A8269914206D2011DA1
:103E7000286907E09A4203D2994201D3012403E062
:103E8000011DE86800F030FB204670BDF8000020FE
:103E900010B5044600F064FCA06B28B15FF000048C
:103EA00000F07EFC204610BD0124F9E730B589B052
:103EB0003C4D6EE00498002806DADDE90601059A1B
:103EC00090470498002864DB069C606910B1201DAF
:103ED00000F0D3FA03A800F03BF9024604980A2840
:103EE00057D2DFE800F00505052D334A05052D33CF
:103EF00094F8280040F0010084F828000599A06992
:103F0000059B01442046FFF7A7FF68B3216A2046BE
:103F1000884794F8280040073BD50020009005987A
:103F2000A169002342181946204601F01FFDD8B9A7
:103F3000502080F31188BFF34F8FBFF36F8FFEE7E0
:103F400014F8280F20F00100207022E094F82800D7
:103F500040F0010084F828000598A06128B181187C
:103F600013462046FFF778FF13E0502080F31188B6
:103F7000BFF34F8FBFF36F8FFEE794F828008107E0
:103F800003D4204600F020FC03E020F0010084F878
:103F90002800002204A9286800F0E6FF002889D143
:103FA00009B030BDF80000202DE9FC410F46054660
:103FB00000F05CFD01A800F0CBF80446019818B1B0
:103FC00001F042FCBDE8FC81254EAFB130690068CC
:103FD000D0B30027291B3A46306800F077FC01F087
:103FE00033FC0028EED11F494FF080500860BFF32A
:103FF0004F8FBFF36F8FE5E7A542EBD801F024FCAC
:10400000F0682746C068C468201D00F036FA94F8AE
:104010002800410719D5A0692B4641193A46204688
:10402000FFF71AFFA8B100200346014600902A4678
:10403000204601F09BFC60B9502080F31188BFF34B
:104040004F8FBFF36F8FFEE707E020F0010084F889
:104050002800216A20468847B4E70127BAE7000014
:10406000F800002004ED00E02DE9F0479046894675
:104070000646434500D343461C0038D03768B06835
:10408000C51BA54200D31D46454507D9502080F3E6
:104090001188BFF34F8FBFF36F8FFEE7791981420D
:1040A00007D9502080F31188BFF34F8FBFF36F8F74
:1040B000FEE7B0692A46C1194846FCF714F9AC423C
:1040C0000FD9444507D9502080F31188BFF34F8F93
:1040D000BFF36F8FFEE7621B09EB0500B169FCF7C8
:1040E00002F9B1683819814200D8401A3060204680
:1040F000BDE8F0872DE9F8431E46089D1446894621
:1041000007466DB1D7F800802A4669463846FFF762
:10411000ABFF009A761BA24202D9C7F800800022AA
:10412000334649463846FFF79FFFBDE8F883000055
:104130000648C16B096829B1C16BC968C96849687B
:10414000816270474FF0FF31FAE70000B4000020B1
:1041500070B5054601F036FA064E0446B068844252
:1041600003D200F009F8012000E00020286020467A
:10417000B46070BDF8000020F8B5194D20E0C068AB
:10418000C4680668201D00F078F9216A2046884737
:1041900094F82800400713D5A0693044B04206D9EE
:1041A00024616060211DE86800F09EF908E00020AD
:1041B0000346014600903246204601F0D7FB38B155
:1041C000E86801680029DAD12969C5E90310F8BD5A
:1041D000502080F31188BFF34F8FBFF36F8FFEE73E
:1041E000F800002008484068401C4FF0500080F361
:1041F000118804D0BFF34F8FBFF36F8FFEE7BFF37B
:104200004F8FBFF36F8FFEE730010020074CE0684F
:10421000016841B1C0680021D0F80000FFF7C4FE7A
:10422000FFF744FEF3E701210020F7E7F800002044
:104230002DE9F041044600F093FA94F9455004F159
:10424000240609E0606A48B1304601F0C5FA08B1B9
:1042500000F08CFB6D1E6DB2002DF3DC4FF0FF36CD
:1042600084F8456000F09CFA00F07AFA94F9445022
:1042700004F1100709E0206948B1384601F0ACFAB2
:1042800008B100F073FB6D1E6DB2002DF3DC84F8F5
:104290004460BDE8F04100F083BA2DE9F041884662
:1042A0000546160010D06F68A868C41BB44200D33E
:1042B0001446391981420FD9502080F31188BFF379
:1042C0004F8FBFF36F8FFEE7502080F31188BFF34D
:1042D0004F8FBFF36F8FFEE7A869224638444146EF
:1042E000FCF701F8A64210D9A868321B824207D910
:1042F000502080F31188BFF34F8FBFF36F8FFEE71D
:1043000008EB0401A869FBF7EEFFA968B819814220
:1043100000D8401A68603046BDE8F0817FB5044699
:1043200008980D46B3B1217FC9070DD0834211D340
:10433000042202A92046FFF7B0FF029A2946204630
:10434000FFF7ABFF04B070BD029A9A4200D31A4641
:104350000292F3E70020F5E72DE9F041054600273A
:1043600000F084FB324E306808B9FFF76DFC7069CD
:1043700005424ED1C5B3083568070ED005F00700D9
:10438000C0F108000544680707D0502080F3118869
:10439000BFF34F8FBFF36F8FFEE72DB37068854279
:1043A00037D82348183001460C6801E020460C46F7
:1043B0006168A94202D221680029F7D131688C4294
:1043C00027D007682168016060680837411B102901
:1043D0000FD96019420708D0502080F31188BFF32D
:1043E0004F8FBFF36F8FFEE713E041606560FFF70B
:1043F0000DFD61687068401A7060B268904200D22A
:10440000B060706901430020C4E90001F068401CFD
:10441000F06001F019FA780707D0502080F3118876
:10442000BFF34F8FBFF36F8FFEE73846BDE8F081D3
:104430001001002010B5031F4FF080741C601B1F7B
:1044400021F001011960191F044B0B6014390A6037
:10445000091F6FF0020244380A6010BDE5410008F0
:1044600078B50B466C4603E0C55C5E1A5B1CA5552F
:104470009342F9DDBDF8000078BDD0E90132016951
:104480009A60D0E901235A604A68824201D1826869
:104490004A60002202610868401E08600868704790
:1044A000034B036003F160000860802010607047D8
:1044B000B8110020044B036003F1600008604FF462
:1044C00080701060704700001814002000F108018F
:1044D0004FF0FF32C0E90112C160016100210160AB
:1044E000704700210161704730B50B685A1C02D03B
:1044F00000F1080202E0026904E0224654682568DF
:104500009D42FAD953684B6099608A605160086196
:104510000168491C016030BD42684A6093688B6045
:1045200093685960916008610168491C0160704797
:10453000A2B0DFF8F881DFF8F8916E464FF0FF3255
:104540006946D8F8080000F00FFD0128F6D19DF863
:104550000000B5287DD00FDCB1287BD0B2287AD0FE
:10456000B32879D0B428E9D101220021B01CFFF78B
:1045700077FF89F80100E1E7B6286ED0B7286DD043
:10458000B8286CD0C628D9D16A4F00240322002154
:10459000B01CFEF797FFC4EBC40007EBC005072271
:1045A00085ED060A0421B01CFEF78CFF85ED070A95
:1045B0000B220821B01CFEF785FF641CE4B285EDD8
:1045C000080A082CE2D3DFF870A100244FF0030B97
:1045D00004EB440004EB440581000BEB8502B01CA6
:1045E000FEF770FFC4EBC40107200AEBC10700EB24
:1045F0008502042000EB850187ED060AB01CFEF75A
:1046000061FF0B2000EB8502082000EB850187EDA0
:10461000070AB01CFEF756FF641CE4B287ED080AD7
:10462000062CD5D35A225421B01CFEF74BFF434C25
:104630005E225B2184ED000AB01CFEF743FF84ED8F
:10464000010A62225F21B01CFEF73CFF84ED020AE2
:1046500074E74BE004E03AE040E04FE056E05DE014
:1046600001220021B01CFEF760FF354C032202211D
:104670002080B01CFEF759FF608005220421B01C89
:10468000FEF753FFE08007220621B01CFEF74DFF26
:10469000208109220821B01CFEF747FF60810B2210
:1046A0000A21B01CFEF741FF264AA0802188118014
:1046B000254A618811802549E2880A80244A218997
:1046C0001180244A618911802349088036E701223C
:1046D0000021B01CFFF7C4FE204908700122002110
:1046E000B01CFFF7BDFE89F8000027E7012200217A
:1046F000B01CFFF7B5FE89F802001FE70122002178
:10470000B01CFFF7ADFE89F8060017E70122002173
:10471000B01CFFF7A5FE89F807000FE70122002172
:10472000B01CFFF79DFE89F8030007E71800002082
:104730003A00002048090020F8070020EC0700207C
:10474000E00700202C0000202E0000203000002078
:104750003200002034000020360000203800002005
:10476000502080F31188BFF34F8FBFF36F8F0A493A
:104770004868401C486001280CD10848006810F0C7
:10478000FF0F07D0502080F31188BFF34F8FBFF386
:104790006F8FFEE7704700003001002004ED00E05D
:1047A0000849486828B1401E486001D180F311884B
:1047B0007047502080F31188BFF34F8FBFF36F8F86
:1047C000FEE700003001002070B500282AD0164D09
:1047D000A0F1080460686969084207D1502080F39D
:1047E0001188BFF34F8FBFF36F8FFEE722683AB196
:1047F000502080F31188BFF34F8FBFF36F8FFEE718
:104800008843606000F032F9606869680844686055
:104810002046FFF7FBFA2869401C2861BDE870407C
:1048200001F012B870BD0000100100204FF0E02030
:1048300000210161816105494FF47A720968B1FB79
:10484000F2F1491E41610721016170471400002007
:1048500010B5FBF701FD114910280ED300F1E0203F
:1048600090F8F0030A78904207D2502080F3118824
:10487000BFF34F8FBFF36F8FFEE709480068896869
:1048800000F4E060884207D9502080F31188BFF31C
:104890004F8FBFF36F8FFEE710BD00003001002087
:1048A0000CED00E010B5084B002200BF53F8324079
:1048B0001CB1521C082AF9D310BD43F8321003EB87
:1048C000C201486010BD00009C0B002070B5154669
:1048D0000E460446FFF744FF94F944100020491C9B
:1048E00001D184F8440094F94510491C01D184F8A1
:1048F0004500FFF755FFA06B28B92A46314604F161
:10490000240000F051F82046BDE87040FFF790BC4D
:1049100010B5020014D00F48006B38B1502080F35E
:104920001188BFF34F8FBFF36F8FFEE700F09EF843
:1049300000211046FFF758F800F086FF002807D145
:1049400005494FF080500860BFF34F8FBFF36F8F62
:1049500010BD0000B400002004ED00E002490A6A26
:104960000260C96841607047B4000020014901201D
:10497000C8617047B400002010B50C4650B1094919
:1049800009681831FFF7B0FD2046BDE8104001214D
:10499000FFF72AB8502080F31188BFF34F8FBFF381
:1049A0006F8FFEE7B400002070B514460D4668B165
:1049B0000A4909681831FFF7AFFD0CB14FF0FF3518
:1049C00021462846BDE87040FFF70EB8502080F31E
:1049D0001188BFF34F8FBFF36F8FFEE7B400002045
:1049E00030B587B00024039405AA04A903A8049451
:1049F000FFF756FDDDE903010094CDE90110002326
:104A000016A11848059A00F0ACFC174D0028E86282
:104A100021D000F07BFF012809D0401C1BD1502081
:104A200080F31188BFF34F8FBFF36F8FFEE75020E5
:104A300080F31188BFF34F8FBFF36F8F4FF0FF30BC
:104A4000A86201206861EC60FEF750FC07B0BDE889
:104A5000304000F051B807B030BD000049444C452B
:104A600000000000953C0008B40000200248016BE3
:104A7000491C016370470000B400002010B51C4CB5
:104A8000206B10B10120E06110BD0020E061FEF755
:104A90004AFDA063626B904204D92168821A4B6D73
:104AA0001A444A6560632069124901E0B8B1401EAA
:104AB00000EB800251F82220002AF7D000EB8002A0
:104AC00001EB820101F108034A6852684A609A4288
:104AD00001D152684A60D1682160206110BD502028
:104AE00080F31188BFF34F8FBFF36F8FFEE7000095
:104AF000B4000020DC0B00201CB537480168374AA1
:104B0000914207D1502080F31188BFF34F8FBFF33C
:104B10006F8FFEE700683149491E884207D1502057
:104B200080F31188BFF34F8FBFF36F8FFEE72C49DF
:104B300008780190FF20087008788DF800009DF833
:104B400000009DF8002000F0F000904207D05020B7
:104B500080F31188BFF34F8FBFF36F8FFEE79DF88F
:104B60000000204C00F0500020700720A06005E0FD
:104B70009DF8002052008DF80020401E9DF8002076
:104B80001206F5D4A060032807D0502080F31188C6
:104B9000BFF34F8FBFF36F8FFEE74FF44070A060FD
:104BA000019808700C482030016841F470010160E0
:104BB000016841F070410160FFF738FE002060603D
:104BC000FBF712FB0848016841F040410160FBF728
:104BD000F7FA00201CBD000000ED00E071C20F419B
:104BE00000E400E03001002034EF00E010B5502078
:104BF00080F31188BFF34F8FBFF36F8F00F0E8FC95
:104C000018B104494FF080500860002080F31188EB
:104C100010BD000004ED00E0F8B517460E46050093
:104C200013D005FB06F05030FFF796FB04000AD0C6
:104C3000002084F8460004F150023B4631462846E5
:104C40000094FFF757F82046F8BD502080F31188F4
:104C5000BFF34F8FBFF36F8FFEE738B5049D18B1D8
:104C600053B1CAB181B120E0502080F31188BFF365
:104C70004F8FBFF36F8FFEE7502080F31188BFF393
:104C80004F8FBFF36F8FFEE7502080F31188BFF383
:104C90004F8FBFF36F8FFEE739B1502080F311883B
:104CA000BFF34F8FBFF36F8FFEE750241C460123E5
:104CB00084F846302B460094FFF71CF8204638BD98
:104CC00070B50D46040025D0FFF74AFDD4E90F204A
:104CD000216802FB0011A1600021A16321686160CD
:104CE0000A46D4E90F01401E00FB0121E160214684
:104CF0004FF0FF3001F8440F487004F110008DB1FF
:104D0000FFF7E4FB04F12400FFF7E0FBFFF748FDA9
:104D1000012070BD502080F31188BFF34F8FBFF387
:104D20006F8FFEE721690029F0D000F055FD0028C3
:104D3000ECD004494FF080500860BFF34F8FBFF3B1
:104D40006F8FE3E704ED00E02DE9FF4782B01D46D9
:104D50008A464FF00008040003D0BAF1000F08D0D3
:104D600011E0502080F31188BFF34F8FBFF36F8F96
:104D7000FEE7206C38B1502080F31188BFF34F8FCD
:104D8000BFF36F8FFEE7022D0AD1E06B012807D039
:104D9000502080F31188BFF34F8FBFF36F8FFEE772
:104DA00000F002FC3F4F4FF000094FF0805648B929
:104DB000049838B1502080F31188BFF34F8FBFF3B0
:104DC0006F8FFEE7FFF7CCFCA06BE16B884207D347
:104DD000022D05D00498D0B1B8F1000F1AD01EE012
:104DE0002A4651462046FEF7DEFE616A19B104F1FB
:104DF000240000F0F1FC20B13E60BFF34F8FBFF301
:104E00006F8FFFF7CDFC012006B0BDE8F087FFF7FC
:104E1000C7FC22E06846FFF7A1FD4FF00108FFF74D
:104E2000BFFCFFF723FEFFF79BFC94F94400401CF6
:104E300001D184F8449094F94500401C01D184F8D4
:104E40004590FFF7ADFC04A9684600F023FA30B1A5
:104E50002046FFF7EDF900F0F7FC0020D4E7FFF75C
:104E60007FFCA06BE16B884213D1FFF799FC04F142
:104E700010000499FFF780FD2046FFF7D9F900F0F4
:104E8000E3FC00289ED13E60BFF34F8FBFF36F8FCE
:104E900098E7FFF785FC2046FFF7CAF900F0D4FC3D
:104EA00090E7000004ED00E02DE9F0471F46904632
:104EB0008946040003D0B9F1000F08D011E050205A
:104EC00080F31188BFF34F8FBFF36F8FFEE7206C25
:104ED00038B1502080F31188BFF34F8FBFF36F8F2D
:104EE000FEE7022F0AD1E06B012807D0502080F3A3
:104EF0001188BFF34F8FBFF36F8FFEE7FFF7A8FC5A
:104F00005020EFF3118680F31188BFF34F8FBFF36A
:104F10006F8FA06BE16B884206D3022F04D0002074
:104F200086F31188BDE8F08794F94550A06B3A46A6
:104F300049462046FEF737FE681C04D06D1C84F8F5
:104F400045500120ECE7606A0028FAD004F1240003
:104F500000F042FC0028F4D0B8F1000FF1D001219C
:104F6000C8F80010EDE700002DE9F747002683B0F0
:104F70008A46040003D0BAF1000F08D011E0502097
:104F800080F31188BFF34F8FBFF36F8FFEE7206C64
:104F900038B1502080F31188BFF34F8FBFF36F8F6C
:104FA000FEE700F001FBDFF8F4804FF000094FF05E
:104FB000805748B9059838B1502080F31188BFF365
:104FC0004F8FBFF36F8FFEE7FFF7CAFBA56BC5B12D
:104FD00051462046FEF7D4FD6D1EA563206950B1F1
:104FE00004F1100000F0F8FB28B1C8F80070BFF31E
:104FF0004F8FBFF36F8FFFF7D3FB012006B0BDE8E3
:10500000F087059808B11EB106E0FFF7C9FB27E05D
:105010006846FFF7A3FC0126FFF7C2FBFFF726FD5A
:10502000FFF79EFB94F94400401C01D184F84490A2
:1050300094F94500401C01D184F84590FFF7B0FB7E
:1050400005A9684600F026F9002820460AD0FFF797
:10505000EFF800F0F9FB2046FEF71AFF0028B3D066
:105060000020CBE7FEF714FF90B104F1240005996E
:10507000FFF782FC2046FFF7DBF800F0E5FB002895
:10508000A2D1C8F80070BFF34F8FBFF36F8F9BE7BB
:105090002046FFF7CDF800F0D7FB95E704ED00E0E0
:1050A000F8B50C46012A02D0002658B112E00126BC
:1050B00004280FD8502080F31188BFF34F8FBFF31F
:1050C0006F8FFEE7502080F31188BFF34F8FBFF33F
:1050D0006F8FFEE7844207D9502080F31188BFF319
:1050E0004F8FBFF36F8FFEE704B90124471C2530B3
:1050F000FFF732F9050007D023463A4605F12401AF
:1051000028460096FEF707FE2846F8BD2DE9F84F21
:10511000994693465FEA010A04464FF0000705D01E
:1051200064B1207FC00711D0042610E0502080F326
:105130001188BFF34F8FBFF36F8FFEE7502080F3CE
:105140001188BFF34F8FBFF36F8FFEE700264FF03C
:105150000008B9F1000F23D0FFF702FB2046FEF74D
:10516000D9FC0546B0420FD8002000F095FA20691E
:1051700038B1502080F31188BFF34F8FBFF36F8F8A
:10518000FEE700F00BFA2061FFF70AFBB5420BD8EF
:1051900000224B461146104600F098FAC4F81080E1
:1051A0002046FEF7B7FC0546B54216D92B465A46AF
:1051B000514620460096FEF79DFF07000DD0FFF7F1
:1051C00055FC606938B1606900231A46194600F041
:1051D000F3F8C4F8148000F037FB3846BDE8F88FC8
:1051E000F8B51E4615460F00044613462ED0ACB344
:1051F000207FC00700D0131D204600F038F8009330
:1052000003462A4639462046FFF788F807001BD098
:105210002046FEF77FFCE168884215D35020EFF36B
:10522000118580F31188BFF34F8FBFF36F8F206913
:1052300040B10096206900231A46194600F02CF967
:105240000020206185F311883846F8BD502080F396
:105250001188BFF34F8FBFF36F8FFEE7FFE750203A
:1052600080F31188BFF34F8FBFF36F8FFEE748B114
:105270000268816840680A44101A401E814200D8C2
:10528000401A7047502080F31188BFF34F8FBFF34F
:105290006F8FFEE72DE9F0410C46050011D0C4B137
:1052A000FFF75EFA174BDA686E682068911B471C9F
:1052B00017D02F681B6A9F4219D0964217D8012435
:1052C00010E0502080F31188BFF34F8FBFF36F8F32
:1052D000FEE7502080F31188BFF34F8FBFF36F8F2D
:1052E000FEE70024FFF75CFA2046BDE8F081884223
:1052F00005D9401A20602846FFF730FBF1E700206F
:105300002060DCE7B40000202DE9FF5F8346DDE983
:105310000E87994616468A469000FFF71DF805004D
:105320001CD06020FFF718F8040014D0002025637B
:1053300084F85D00CDE90240CDE900874B46324656
:1053400051465846FEF708FD2046FEF77BFB01203C
:1053500004B0BDE8F09F2846FFF736FA4FF0FF3063
:10536000F6E7F0B585B0DDE90B640A9DA6B1DCB1C6
:10537000602700972663022684F85D60002604AF4C
:10538000CDE90246CDE90057FEF7E6FC2046FEF7E0
:1053900059FB049805B0F0BD502080F31188BFF38D
:1053A0004F8FBFF36F8FFEE7502080F31188BFF35C
:1053B0004F8FBFF36F8FFEE72DE9F0411F469046F8
:1053C0000D46012690B10446FFF7CAF90FB1A06D52
:1053D000386094F85C00022184F85C10B8F1050F85
:1053E00019D2DFE808F0230B0E141200502080F3CE
:1053F0001188BFF34F8FBFF36F8FFEE7A16D294375
:1054000001E0A16D491CA16510E0022801D0A5654D
:105410000CE0002634E0A16D491C07D0502080F339
:105420001188BFF34F8FBFF36F8FFEE7012827D19D
:10543000201DFFF722F8154DE06A2969884200D93E
:105440002861134900EB800001EB8000211DFFF76C
:1054500063F8A06A38B1502080F31188BFF34F8FF2
:10546000BFF36F8FFEE7E06A2968C96A884207D9EF
:1054700008494FF080500860BFF34F8FBFF36F8F24
:10548000FFF78EF93046BDE8F0810000B40000203F
:10549000DC0B002004ED00E02DE9F0471F46DDF8AD
:1054A000209092460D4604004FF001081AD0FFF7F5
:1054B000CFF95020EFF3118680F31188BFF34F8F9F
:1054C000BFF36F8F0FB1A06D386094F85C000221BC
:1054D00084F85C10BAF1050F1AD2DFE80AF0240B49
:1054E0000E141200502080F31188BFF34F8FBFF3CA
:1054F0006F8FFEE7A16D294301E0A16D491CA165F5
:1055000011E0022801D0A5650DE04FF0000839E058
:10551000A16D491C07D0502080F31188BFF34F8F35
:10552000BFF36F8FFEE701282CD1A06A38B150205D
:1055300080F31188BFF34F8FBFF36F8FFEE7144DD9
:10554000286B18B104F1180112480DE0201DFEF778
:1055500094FFE06A2969884200D928610E4900EB6E
:10556000800001EB8000211DFEF7D6FFE06A29686C
:10557000C96A884206D90120B9F1000F01D0C9F8E3
:105580000000E86186F311884046BDE8F08700001E
:10559000B400002064100020DC0B002001480068EB
:1055A00070470000B40000200548416919B1006B44
:1055B00018B100207047012070470220704700009A
:1055C000B40000200148C06870470000B40000200B
:1055D0002DE9F0412E4C0027206B28B1A069401C1A
:1055E000A0613846BDE8F081E668761CE66013D11C
:1055F000E06B006838B1502080F31188BFF34F8F03
:10560000BFF36F8FFEE7E06B216CE1632064206ADB
:10561000401C2062FEF78CFDA06ADFF8788086428D
:1056200009D3E06B0068A0B1E06BC068C56868682A
:10563000864211D2A0622068C06A00EB800158F84F
:105640002100012800D90127E0690028C9D00127DD
:10565000C7E74FF0FF30EDE7281DFEF70EFFA86A01
:1056600018B105F11800FEF708FFE86A21698842C1
:1056700000D9206100EB800108EB8100291DFEF7B5
:105680004BFFE86A2168C96A8842CAD30127C8E784
:10569000B4000020DC0B002010B568B14FEA000414
:1056A000FFF75EF894F85C00022808D05FF0000471
:1056B000FFF776F8204610BD03480468F0E70020A5
:1056C00084F85C000124F3E7B40000202DE9F041E8
:1056D0001E46154688460746FFF742F81C4C2068D0
:1056E00090F85C00022814D02068816DB943816570
:1056F0002168012081F85C005EB101213046FEF78F
:1057000073F914494FF080500860BFF34F8FBFF317
:105710006F8FFFF745F8FFF723F815B12068806D0C
:105720002860206890F85C00022801D0002505E080
:105730002068816D21EA080181650125216800202A
:1057400081F85C00FFF72CF82846BDE8F0810000E6
:10575000B400002004ED00E070B504004FF000013B
:1057600033D01B4D2868844207D0502080F3118825
:10577000BFF34F8FBFF36F8FFEE7206D38B1401E30
:105780002065E36CE26A9A421FD040B11DE05020D0
:1057900080F31188BFF34F8FBFF36F8FFEE7201D9B
:1057A000FEF76BFEE06CE062C0F13800A061E06AD9
:1057B0002969884200D92861064900EB800001EB85
:1057C0008000211DFEF7A8FE0121084670BD0000E3
:1057D000B4000020DC0B002070B5C068C46854B170
:1057E00004F118000646FEF748FE144D286B50B130
:1057F0003146134815E0502080F31188BFF34F8FD6
:10580000BFF36F8FFEE7201DFEF737FEE06A2969C0
:10581000884200D928610B4900EB800001EB800031
:10582000211DFEF779FEE06A2968C96A884202D91B
:105830000120E86170BD002070BD0000B4000020B0
:1058400064100020DC0B00202DE9F0472C4D0024D3
:105850002746286B38B1FEF783FF286B401E28636C
:10586000286B40B146E0502080F31188BFF34F8F82
:10587000BFF36F8FFEE7A968224E0120D1B3A6F5D2
:10588000916980463068E0B1F068C46804F118009E
:10589000FEF7F3FD201DFEF7F0FDE06A296988425E
:1058A00000D9286100EB800109EB8100211DFEF782
:1058B00033FEE06A2968C96A8842E3D3C5F81C80D0
:1058C000E0E70CB1FEF734FCAC694CB14FEA0806D6
:1058D000FFF77EFE00B1EE61641EF9D10020A861E1
:1058E000E86938B10849012738070860BFF34F8FCE
:1058F000BFF36F8FFEF754FF3846BDE8F087000016
:10590000B40000206410002004ED00E010B586B063
:10591000FEF70AF9114C2068B8B1002003900490FA
:1059200005AA04A903A8FEF7C5FDDDE903210220AD
:105930008DE8070000230AA10B48059AFFF711FD27
:10594000606010B106B0012010BD502080F31188B6
:10595000BFF34F8FBFF36F8FFEE70000F80000200A
:10596000546D7220537663000D4200082DE9FF410B
:105970001E46134602000A9D4FF0000016D0144C3C
:105980002768002F0FD0CDE900130292062917DAFD
:10599000FFF70AFE02284FF000030FD000226946ED
:1059A0002068FFF7D1F904B0BDE8F081502080F302
:1059B0001188BFF34F8FBFF36F8FFEE72A46EEE7E4
:1059C0000023324669463846FFF76EFAEBE70000DF
:1059D000F8000020485A0008000000000000000005
:1059E000000000000000000000020000180000009D
:1059F00000000000000000003C5A00080000000009
:105A00000000000000000000000000000002000094
:105A10000900000000000000000000000006101651
:105A20000006101600000000000000000102030440
:105A30000607080900000000010203046379636C93
:105A4000655F6C656400000064656661756C745424
:105A500061736B00745A0008000000203C010000D4
:105A600090030008845A00083C0100203C570000C5
:105A7000DE320008914201921003FF24F401205508
:045A8000AAAAAAAA7A
:040000050800018965
:00000001FF
