:020000040800F2
:100000006060002061020008E93B0008D129000877
:10001000CD390008FB040008694A00080000000010
:10002000000000000000000000000000A101000826
:100030004D06000800000000FD010008C53E000854
:100040007B0200087B0200087B0200087B0200089C
:100050007B0200087B0200087B0200087B0200088C
:100060007B0200087B0200087B02000819050008DB
:1000700025050008310500083D0500084905000870
:1000800055050008610500087B0200087B02000896
:100090007B0200087B0200087B0200087B0200084C
:1000A0007B020008A13F0008853F00087B02000892
:1000B0007B0200087B020008BD3F00087B020008AD
:1000C0007B0200087B0200087B0200087B0200081C
:1000D0007B0200089D490008A9490008BD490008A5
:1000E0007B0200087B0200087B0200087B020008FC
:1000F0007B0200087B0200087B0200086D050008F7
:100100007B0200087B0200087B0200087B020008DB
:10011000A543000811440008D13F00087B020008F5
:100120007B02000879050008850500087B020008AD
:100130007B0200087B0200087B0200087B020008AB
:100140007B0200087B0200087B0200087B0200089B
:100150007B020008910500089D050008D1490008B0
:100160007B0200087B0200087B0200087B0200087B
:100170007B0200087B0200087B02000800000000F0
:100180007B0200087B020008DFF810D000F078F94D
:1001900000480047B54E0008AFF3008060600020C3
:1001A0002C4B19680868B0E8F04F80F30988BFF35A
:1001B0006F8F4FF0000080F311887047000000003F
:1001C00008480068006880F308884FF0000080F35A
:1001D000148862B661B6BFF34F8FBFF36F8F00DF35
:1001E00000BF00BF08ED00E0DFF80C00016841F43B
:1001F00070010160704700BF88ED00E0EFF30980F7
:10020000BFF36F8F134B1A681EF0100F08BF20ED5D
:10021000108A20E9F04F106009B44FF0500080F3CD
:100220001188BFF34F8FBFF36F8F06F06DF94FF05A
:10023000000080F3118809BC19680868B0E8F04F25
:100240001EF0100F08BFB0EC108A80F30988BFF3CE
:100250006F8F704724010020EFF305807047000086
:100260000648804706480047FEE7FEE7FEE7FEE750
:10027000FEE7FEE7FEE7FEE7FEE7FEE7753F000864
:10028000890100082DE9F05F0546002092469B4653
:1002900088460646814640241BE02846414647469C
:1002A000224600F0A5F853465A46C01A914110D391
:1002B00011461846224600F08CF82D1A67EB01080B
:1002C0004F4622460120002100F083F817EB000979
:1002D0004E41201EA4F10104DFDC484631462A4687
:1002E0004346BDE8F09F40EA01039B0703D009E0C5
:1002F00008C9121F08C0042AFAD203E011F8013B12
:1003000000F8013B521EF9D27047D2B201E000F86A
:10031000012B491EFBD270470022F6E710B51346A9
:100320000A4604461946FFF7F0FF204610BD30B5D7
:1003300004460020034600E05B1C934203D2E05CCD
:10034000CD5C401BF8D030BD00F0004230F00040E2
:100350000AD0C10D01F56071C0F3160042EA0151E7
:10036000C20840071143704700200146704701F062
:10037000004330B421F0004150EA010206D00A0DDA
:10038000A2F56072C1F31301002A02DC30BC002028
:100390007047440F44EAC104C100E01830BC00EBD0
:1003A000C25000F035B830B50B460146002020227F
:1003B000012409E021FA02F59D4205D303FA02F572
:1003C000491B04FA02F52844151EA2F10102F1DCD2
:1003D00030BD202A04DB203A00FA02F100207047E9
:1003E0009140C2F1200320FA03F319439040704773
:1003F000202A04DB203A21FA02F00021704721FA7A
:1004000002F3D040C2F120029140084319467047E0
:100410000029A8BF7047401C490008BF20F0010018
:10042000704710B4B0FA80FC00FA0CF050EA0104F6
:1004300004BF10BC704749B1CCF1200421FA04F488
:1004400011FA0CF118BF012121430843A3EB0C0161
:10045000CB1D4FEA00614FEA102042BF002010BCC4
:10046000704700EBC35010440029A4BF10BC704774
:10047000401C490008BF20F0010010BC704700007C
:10048000064C074D06E0E06840F0010394E80700E1
:1004900098471034AC42F6D3FFF77AFE5C7500083B
:1004A0007C75000870B58C1810F8015B15F0070317
:1004B00001D110F8013B2A1106D110F8012B03E0FD
:1004C00010F8016B01F8016B5B1EF9D12B0705D405
:1004D0000023521E0DD401F8013BFAE710F8013B4E
:1004E000CB1A921C03E013F8015B01F8015B521E6A
:1004F000F9D5A142D8D3002070BDFEE7054D4FF4D9
:10050000FA74204604F0CEFD0421284600F07DFB5D
:10051000F7E7000000100240014800F0F5B80000C5
:1005200064060020014800F0EFB80000A408002095
:10053000014800F0E9B80000A4050020014800F0DF
:10054000E3B8000004090020014800F0DDB8000015
:1005500004060020014800F0D7B80000E40700209E
:10056000014800F0D1B8000044080020014800F024
:10057000CBB80000C4060020014800F0C5B8000058
:1005800064090020014800F0BFB8000024070020E3
:10059000014800F0B9B80000C4090020014800F08B
:1005A000B3B800008407002001681823CAB2103ACB
:1005B000B2FBF3F2054B6FF30901032A9B5CC365A1
:1005C00000D9091D8165084670470000687400085D
:1005D00010B5014600208B698A6A4FF0C07453B190
:1005E000B3F5005F15D072B1012A0CD0022A0AD0EF
:1005F000032A09D104E01AB1012A06D0022A03D144
:10060000C96AC90100D5012010BDC96AA142FAD04A
:1006100010BD002AF7D0012AF2D0022AF3D0032A13
:10062000F3D010BD30B50468256825F48025256019
:10063000046863608368402B036803D09960006896
:10064000C26030BD9A600068C16030BD704772B64C
:10065000FEE72DE9F0410446876D00F0E3FA064617
:1006600094F835000025022806D08020606584F8C3
:1006700034500120BDE8F0812068016821F01601A6
:1006800001602068416921F080014161206C08B956
:10069000A06C20B12068016821F008010160206889
:1006A000016821F0010101600CE000F0BBFA801B41
:1006B000052807D920206065032084F8350084F8D8
:1006C0003450D7E720680068C007EED194F85C107A
:1006D0003F208840B860012084F8350084F8345009
:1006E0000020C7E790F83510022903D0802141652A
:1006F00001207047052180F835100068016821F05D
:1007000001010160002070472DE9F84304464FF0D5
:100710000009CDF8009063484FF41651A56D0068AC
:10072000B0FBF1F72E6894F85C10082000FA01F194
:1007300031420FD021680A6852070BD50A6822F0AF
:1007400004020A6094F85C108840A860606D40F074
:100750000100606594F85C104FF0010808FA01F0A0
:10076000304208D021684969090604D5A860606D47
:1007700040F00200606594F85C100420884030422C
:1007800008D021680968890704D5A860606D40F029
:100790000400606594F85C1010208840304218D046
:1007A00021680968090714D5A86020680168490311
:1007B00004D50068000308D5A16C07E00168C905ED
:1007C00003D4016821F008010160216C09B12046C1
:1007D000884794F85C1020208840304231D021684E
:1007E0000968C9062DD5A86094F835000528206849
:1007F000016806D0490347D5006800031DD4616C29
:100800001CE021F0160101602068416921F080019F
:100810004161206C08B9A06C20B12068016821F00A
:100820000801016094F85C103F208840A86084F8BB
:10083000358084F83490216D1FE0E16B09B12046CA
:100840008847606D00282BD0606DC00714D005204C
:1008500084F835002068016821F0010101600098EA
:10086000401C0090B84203D820680068C007F6D149
:1008700084F8358084F83490E16C002910D001B000
:100880002046BDE8F04308470168C905D5D4016892
:1008900021F01001016084F8358084F83490CCE7B1
:1008A000BDE8F883400000202DE9F041044600F047
:1008B000B9F906465CB1022084F83500002584F8B9
:1008C00034502068016821F0010101600DE0012031
:1008D000BDE8F08100F0A6F9801B052805D920208D
:1008E0006065032084F83500F2E720680068C007DF
:1008F000F0D12268116820480140D4E9010318436F
:10090000D4E903363343184363691843A369184392
:10091000E3691843236A18430843616A042903D131
:10092000D4E90B1319430843106020684069666AD4
:1009300020F0070130460E43012704280CD1A06A9D
:100940000643E06A40B12046FFF742FE20B1402056
:10095000606584F83570BAE7206846612046FFF785
:1009600023FE94F85C203F2191408160656584F806
:1009700035700020ACE700003F8010F02DE9F04119
:100980000446866D90F83400002501280DD0012022
:1009900084F8340094F835700020012F07D084F8D3
:1009A000340002252846BDE8F0810220FBE702273B
:1009B00084F8357060652046FFF734FE94F85C10CB
:1009C0003F208840B0602068016841F01601016056
:1009D000206C20B12068016841F0080101602068A6
:1009E000016841F001010160DCE7000070B50446D8
:1009F00000F018F90546601C02D004480078044451
:100A000000F010F9401BA042FAD370BD3400002062
:100A10002DE9F84FDFF8BCA10022012503264FF095
:100A20000F090AF1040BAAF1040E00BF0B6805FAC6
:100A300002F42340A34270D10F7907F00307012F7E
:100A400001D0022F16D187684FEA420806FA08FC47
:100A500027EA0C07D1F80CC00CFA08FC4CEA070C8A
:100A6000C0F808C04768A7430C79C4F30014944049
:100A70003C4344600C79E443A4070AD0C4684FEABD
:100A8000420C06FA0CF7BC438F6807FA0CF72743B1
:100A9000C7600C7904F00304022C12D1D40800EBD7
:100AA000840CDCF820405707FF0E09FA07F824EA07
:100AB0000804D1F8108008FA07F848EA0408CCF8CE
:100AC000208004684FEA420C06FA0CF7BC430F7909
:100AD00007F0030707FA0CF7274307604C6814F484
:100AE000403F70D03C4C276847F48047276024681B
:100AF00022F0030704F480440094384C07EB040C04
:100B0000DCF8084897074FEA177809FA08F7BC435A
:100B1000334FB84202D1002724E054E0314FB842AD
:100B200001D101271EE0304FB84201D1022719E060
:100B30002E4FB84201D1032714E02D4FB84201D106
:100B400004270FE02B4FB84201D105270AE02A4FB6
:100B5000B84201D1062705E0284FB84201D1072746
:100B600000E0082707FA08F72743CCF80878DAF8F6
:100B700000405746D1F804C09C435FEACC2C00D516
:100B80001C433C60DBF800405F46D1F804C09C4346
:100B90005FEA8C2C00D51C433C60DEF800407746B1
:100BA000D1F804C09C435FEA8C3C00D51C433C60F8
:100BB000084F083F3C68D1F804C09C435FEACC3C36
:100BC00000D51C433C60521C102AFFF42FAFBDE837
:100BD000F88F0000083C01404438024000300140DA
:100BE000000002400004024000080240000C0240E5
:100BF000001002400014024000180240001C024095
:100C00000069084000D001207047426921EA0203D0
:100C10000A4043EA0241816170470AB1816170472D
:100C20000904FBE701488068704700003400002099
:100C300090F83D007047000070B5040025D094F88E
:100C40003D00002520B984F83C50204600F046FACB
:100C5000242084F83D002068016821F00101016032
:100C60002068016841F4004101602068016821F4B6
:100C70000041016000F0ECFB4D4A6168914201D8EF
:100C80004C4900E04C49884201D2012070BD4B49DB
:100C90002368B0FBF1F15E6826F03F060E435E600C
:100CA0006368934206D94FF4967359434FF47A73AD
:100CB000B1FBF3F12368491C1E6A26F03F0631435D
:100CC00019626168914210D84900401EB0FBF1F2F0
:100CD000521CC2F30B02042A01D2042022E0B0FB12
:100CE000F1F0401CC0F30B001CE0A268F2B301EB72
:100CF000C10303EB0116431EB3FBF6F35B1C43F485
:100D000080431B0549D092B301EBC10202EB0111F4
:100D1000401EB0FBF1F0401CC0F30B0040F48040DB
:100D200040F400402168CA694CF6FF739A431043AF
:100D3000C861D4E9071001432068026822F0C002AC
:100D400011430160D4E9030101432068826848F23D
:100D5000FF339A4311438160D4E9050108432168B8
:100D6000CA6822F0FF021043C86001E00EE016E0FE
:100D70002068016841F0010101602564202084F8A9
:100D80003D00256384F83E50002070BD01EB410614
:100D9000431EB3FBF6F35B1CB3E70120C2E701EB94
:100DA0004101401EB0FBF1F0401CC0F30B00B7E75F
:100DB000A086010080841E0000093D0040420F0013
:100DC0002DE9F84F1F4690468A460446DDF82890E4
:100DD000FFF728FF054694F83D00202871D119231C
:100DE000012270492046009501F0FAFE0028F5D155
:100DF00094F83C00012864D0012084F83C0020686D
:100E00000168C90703D1016841F001010160206850
:100E1000016821F400610160222084F83D00102067
:100E200084F83E0000262664C4F824806785608D1F
:100E300020855D48E0622B464A465146204601F037
:100E4000DFFD002876D1208D584F68B1012814D0DD
:100E500002282068016816D041F480610160206892
:100E60004169806900908EE0206841698169009144
:100E7000016841F40071016085E02068016821F497
:100E800080610160F0E721F4806101602068016801
:100E900041F40061E2E7032846D801280AD002287D
:100EA00010D04B46002239462046009501F098FEAE
:100EB000C8BB25E02A464946204601F037FF90BBD3
:100EC00054E06CE04B46002239462046009501F084
:100ED00087FE40BB2068016841F400710160206812
:100EE0000069616A0870606A401C6062218D491E59
:100EF0002185618D491E618521680969017039E08C
:100F00002068016821F48061016020680069616ADD
:100F10000870606A401C6062208D401E2085608DD4
:100F2000401E6085CEE705E02A464946204601F08E
:100F3000FDFE10B10120BDE8F88F20680069616AEC
:100F40000870606A401C6062208D401E81B221855D
:100F5000608D401E608520684269D243520712D4DA
:100F6000032903D1016821F48061016020680069D0
:100F7000616A0870606A401C6062208D401E208596
:100F8000608D401E6085208D002884D1202084F84B
:100F90003D0084F83E6084F83C600020CBE70220EE
:100FA000C9E70000020010000000FFFF040001007C
:100FB0002DE9F84F1F4690468A460446DDF82890F2
:100FC000FFF730FE054694F83D0020287FD1192315
:100FD000012240492046009501F002FE002876D10A
:100FE00094F83C00012872D0012084F83C0020686D
:100FF0000168C90703D1016841F00101016020685F
:10100000016821F400610160212084F83D00102076
:1010100084F83E0000262664C4F824806785608D2D
:1010200020852D48E0622B464A465146204601F075
:101030005DFD90B9206841698069009036E02A46DC
:101040004946204601F0AAFE50B1206C042804D184
:101050002068016841F4007101600120BDE8F88F4B
:10106000606A216800780861606A401C6062618D76
:10107000491E6185218D491E89B2218522685369E7
:10108000DB435B070BD451B100781061606A401CF0
:101090006062608D401E6085208D401E20852A463E
:1010A0004946204601F070FD0028CED1208D002851
:1010B000C5D154F83D0B016841F400710160202056
:1010C00004F81E09E67766770020C7E7FFE70220ED
:1010D000C4E70000020010000000FFFF10B586B05A
:1010E000044614216846FFF717F91449206888421E
:1010F00021D113480021026842F002020260006818
:1011000000F0020005904FF4406000901220CDE9FD
:101110000101032003900420049069460948FFF769
:1011200077FC07481030016841F4800101600068D5
:1011300000F48000059006B010BD0000005800408B
:1011400030380240000402400248816802781144AD
:1011500081607047340000200B4810B5016841F4ED
:1011600000710160016841F480610160016841F42F
:1011700080710160032000F09FF80F2000F006F856
:1011800000F050F8002010BD003C024030B505468C
:101190001F4887B00024016841F010010160006819
:1011A00006A900F01000009001A800F031F90498A1
:1011B000A8B100F04DF940001649174AB0FBF1F113
:1011C0001648491E026040F2E732C0E90324C0E934
:1011D0000114846100F0B8FB040003D015E000F0B6
:1011E00037F9E9E70D4800F05FFC04000DD1362027
:1011F00000F034F8102D07D200222946362000F0E6
:101200003BF80748056000E0012407B0204630BDE8
:101210004038024040420F0000100040240A0020E5
:10122000380000200C4882B0016841F48041016020
:10123000006800F4804000900748001F016841F0FA
:10124000805101600068002200F0805000900F2162
:10125000901E02B000F010B844380240002809DBAC
:1012600000F01F02012191404009800000F1E020C0
:10127000C0F8001170470000F0B40E4B1B680C461C
:10128000C3F30223C3F10705042D00D90425191D5A
:10129000072901D2002300E0DB1E012606FA05F132
:1012A000491E214099409E40761E16403143F0BCB5
:1012B00003F0ECBB0CED00E0064900F00702086803
:1012C0004FF6FF03184040EA0220034A104308602B
:1012D000704700000CED00E00000FA052DE9F04732
:1012E0000E46050065D0DFF81481D8F80000F7B28B
:1012F00000F00700B04207D288F80070D8F800006C
:1013000000F00700B04254D128683D4C810712D547
:10131000400703D5206840F4E0502060287800079B
:1013200003D5206840F4604020602068A96820F060
:10133000F000084320602878C0072DD03049686845
:101340000839012812D0022813D0032811D00968C7
:10135000890700292DDA216821F00301014321606A
:10136000FFF760FC814641F2883A0EE00968890384
:10137000EFE709688901ECE7FFF754FCA0EB0901EE
:10138000514502D90320BDE8F0872068696800F064
:101390000C00B0EB810FEFD1D8F80010404601F0FF
:1013A0000701B14207D90770006800F00700B0429A
:1013B00001D00120E7E72878400705D52068E968D3
:1013C00020F4E050084320602878000706D5206804
:1013D000296920F4604040EAC100206000F058F81C
:1013E0002168084AC1F30311515CC84006490860EE
:1013F00006480068FFF7CAFE0020C4E7003C024030
:1014000008380240707400084000002038000020B6
:101410000F2202600C4A136803F003034360136851
:1014200003F0F0038360136803F4E053C3601268B1
:101430004FF4E05303EAD20202610448006800F06E
:10144000070008607047000008380240003C024076
:101450000448054900680968044AC1F38221515CC7
:10146000C8407047400000200838024080740008DF
:101470000448054900680968044AC1F34231515CD7
:10148000C8407047400000200838024080740008BF
:10149000154810B5006810F00C02144813D0144918
:1014A000042A0FD0082A0ED10F4C241F226823686B
:1014B00002F03F025B0207D52068C0F38810A0FB52
:1014C000010106E0084610BD2168C1F38811A1FBA7
:1014D00000010023FEF7D6FE2168C1F30141491C3B
:1014E0004900B0FBF1F010BD083802400024F400C0
:1014F00000366E012DE9F84F04006ED02078DFF839
:101500004C93C007A9F104054AD009F10400016811
:10151000C1F38101012908D00068C0F381000228CD
:101520000AD1D9F80000400206D52868800337D5D3
:1015300060680028E1D033E06068B0F5803F10D0EB
:10154000B0F5A02F286810D020F4803028602868DB
:1015500020F4802028606068A8B1FFF763FB06468E
:101560000DE0286840F48030F4E740F480202860E3
:10157000F7E700BFFFF756FB801B642873D8286885
:101580008003F7D50CE0FFF74DFB064605E000BFF2
:10159000FFF748FB801B6428F0D828688003F7D445
:1015A0002078DFF8AC8280074FF0000A3ED5A748CC
:1015B000001D016811F00C0F08D00068C0F3810015
:1015C00002280BD1D9F80000400207D42868800710
:1015D00016D5E068012800D112E033E1E068B8B127
:1015E0000120C8F80000FFF71DFB064605E000BF1C
:1015F000FFF718FB801B0228C0D828688007F7D5A2
:101600002868216920F0F80040EAC10028600DE058
:10161000C8F800A0FFF706FB064604E0FFF702FB50
:10162000801B02281FD828688007F7D4207800077D
:1016300022D5864F87486169703771B101210160F9
:10164000FFF7F0FA064604E0FFF7ECFA801B0228E9
:1016500009D838688007F7D50EE0C0F800A0FFF77A
:10166000E1FA064605E082E0FFF7DCFA801B02287B
:101670007DD838688007F7D42078400768D5DFF830
:10168000CCB100270BF13C0BDBF80000C0000BD401
:10169000DBF8001041F08051CBF80010DBF80000BF
:1016A000012700F0805000906B4E3068C00510D4C8
:1016B000306840F480703060FFF7B4FA009005E0C5
:1016C000FFF7B0FA0099401A022850D83068C005D8
:1016D000F6D55E4EA0686C3601280FD0052830681C
:1016E00010D020F001003060306820F0040030603D
:1016F000A068B8B1FFF796FA00900FE0306840F0AC
:101700000100F4E740F004003060F7E7FFF78AFAE1
:101710000099411A41F28830814266D830688007CA
:10172000F4D50EE0FFF77EFA009007E0FFF77AFAB3
:101730000099411A41F28830814256D830688007BA
:10174000F4D42FB1DBF8001021F08051CBF8001059
:10175000A069C8B33D49091D0968C1F38101022987
:101760004AD00228504607D0C8F8600000E03CE0AC
:10177000FFF758FA04463BE04746C8F86000FFF719
:1017800051FA064605E000BFFFF74CFA801B02281D
:101790002BD828688001F7D4D4E907010843A16A4F
:1017A0002E4A490802EB0141626A41EA821108436C
:1017B00094F82C1040EA0161C9F800100120386645
:1017C000FFF730FA044606E03EE000BFFFF72AFAD2
:1017D000001B022809D828688001F7D534E000BF33
:1017E000FFF720FA001B022802D90320BDE8F88F7A
:1017F00028688001F4D427E00128F7D0D9F8000048
:10180000E26900F4800191421CD1226A00F03F019C
:10181000914217D147F6C071626A0140B1EB821F55
:1018200010D1A26A4FF0FF3300F4403103EB5202B3
:10183000B1EB024F06D194F82C1000F07060B0EBC1
:10184000016F01D00120D1E70020CFE7043802402A
:1018500000004742800E4742007000400000FFFF3A
:101860007047704710B590F83C20012A22D0012221
:1018700080F83C20CA688C6822F4407222434C688D
:1018800022F4806222430C6822F4006222430C6935
:1018900022F4805222434C6922F400522243C96947
:1018A000002322F480420A4301684A6480F83C30F5
:1018B000002010BD022010BD70B590F83C20012A18
:1018C00032D0012480F83C40022280F83D20036899
:1018D0005A689D6822F070060A6832435A60134BBA
:1018E00002689A4214D0B2F1804F11D0104B9A4244
:1018F0000ED0104B9A420BD00F4B9A4208D00F4B90
:101900009A4205D00E4B9A4202D00E4B9A4204D115
:10191000496825F080031943916080F83D4000211B
:1019200080F83C10084670BD022070BD00000140E8
:101930000004004000080040000C0040000401408A
:10194000004001400018004010B5040003D094F896
:101950003D0010B107E0012010BD002084F83C00DC
:10196000204600F01FF8022084F83D00211D206869
:1019700002F034FB012084F8460084F83E0084F82D
:101980003F0084F8400084F8410084F8420084F865
:10199000430084F8440084F8450084F83D000020AA
:1019A00010BD000008B5026838483949824210D19C
:1019B000086840F0010008600868002200F001009B
:1019C000009005211920FFF757FC1920FFF746FC6E
:1019D00047E02F48001FB2F1804F0BD02D4B9A42A9
:1019E00010D1016841F002010160006800F00200BE
:1019F000009008BD016841F001010160006800F03D
:101A00000100F5E7244B9A420ED1016841F0040130
:101A100001600068002200F00400009005211E20F3
:101A2000FFF72AFC1E2022E01C4B9A420ED10868C8
:101A300040F4003008600868002200F40030009094
:101A400005211920FFF718FC192010E0144B9A42C9
:101A500011D1086840F480200860086800F48020F4
:101A60000090002205211A20FFF706FC1A20BDE88D
:101A70000840FFF7F3BB0B498A42BAD1016841F431
:101A800080710160006800F48070B1E700000140DF
:101A90004438024000040040000800400044014077
:101AA000004801400020004090F83D10012901D07D
:101AB00001207047022180F83D100168CA6842F099
:101AC0000102CA6000681149884214D0B0F1804F09
:101AD00011D00F4988420ED00E4988420BD00E49D2
:101AE000884208D00D49884205D00D49884202D06D
:101AF0000C49884204D1816801F00701062903D00E
:101B0000016841F0010101600020704700000140C0
:101B10000004004000080040000C004000040140A8
:101B2000004001400018004070B5044690F83C00A9
:101B30000025012817D0012684F83C60022084F893
:101B40003D002068826822F0770222F47F428260A2
:101B50000868502838D00DDC20284FD005DC90B321
:101B6000102811D14AE0022070BD302846D040280C
:101B70000AD13BE060282FD070280DD0B0F5805FEF
:101B800003D0B0F5005F12D0012584F83D6000203D
:101B900084F83C00284670BDCB68D1E9012120685B
:101BA00002F084FA2068816841F0770109E0CB688F
:101BB000D1E90121206802F079FA2068816841F4B6
:101BC00080418160E1E719E0CA684968206802F055
:101BD00041FB5021206806E0CA684968206802F08D
:101BE0004AFB6021206802F06BFACEE7CA684968B8
:101BF000206802F02FFB40212068F4E722680146AC
:101C00001046F0E770472DE9F04104460068C668C9
:101C100005694FF00007A90713D5B10711D5F91EC3
:101C2000016101202077206880698007204602D06A
:101C3000FFF7E8FF04E000F0F7F8204600F089F92C
:101C40002777680716D5700714D521686FF0040050
:101C50000861022020772068806910F4407F2046C8
:101C600002D0FFF7CFFF04E000F0DEF8204600F0DE
:101C700070F92777280715D5300713D521686FF03D
:101C800008000861042020772068C069800720468A
:101C900002D0FFF7B7FF04E000F0C6F8204600F0DE
:101CA00058F92777E80616D5F00614D521686FF0A5
:101CB00010000861082020772068C06910F4407F78
:101CC000204602D0FFF79EFF04E000F0ADF820466A
:101CD00000F03FF92777E80708D0F00706D0216821
:101CE0006FF001000861204600F034F9280608D59D
:101CF000300606D521686FF0800008612046FFF7A6
:101D0000AFFD680608D5700606D521686FF0400063
:101D10000861204600F058F9A8060AD5B00608D593
:101D200021686FF0200008612046BDE8F041FFF710
:101D300098BDBDE8F0810000F0B587B004461421DD
:101D40006846FEF7E9FA324A216800253148022444
:101D5000012791420ED1016841F010010160006835
:101D6000694600F0100005904FF4D4408DE8310032
:101D7000294847E0294A2A4EB1F1804F23D0294B08
:101D8000994243D1016841F001010160016801F00D
:101D900001010591016841F0020101600068694696
:101DA00000F002000590C0208DE83100CDE9035419
:101DB0001046FEF72DFE03208DE83100CDE90354D7
:101DC0006946304620E0016841F001010160016888
:101DD00001F001010591016841F002010160006814
:101DE000694600F00200059048F20C008DE83100D1
:101DF000CDE903571046FEF70BFE08208DE83100B1
:101E000069463046CDE90357FEF702FE07B0F0BD44
:101E10000000014030380240001002400000024043
:101E20000004024000040040704770B5044690F87A
:101E30003C0000260D4601280FD0012084F83C000C
:101E40006AB1042A1DD0082A2FD00C2A3FD00126BF
:101E5000002084F83C00304670BD022070BD206830
:101E600002F036F92068816941F00801816120683B
:101E7000816921F004018161206881692A69114327
:101E800011E0206802F054F92068816941F4006192
:101E900081612068816921F48061816120688169A4
:101EA0002A6941EA02218161D2E7206802F076F9CD
:101EB0002068C16941F00801C1612068C16921F051
:101EC0000401C1612068C1692A69114311E02068D9
:101ED00002F098F92068C16941F40061C16120688D
:101EE000C16921F48061C1612068C1692A6941EA40
:101EF0000221C161ACE710B5040003D094F83D00A5
:101F000010B107E0012010BD002084F83C002046FD
:101F100000F01EF8022084F83D00211D206802F028
:101F20005DF8012084F8460084F83E0084F83F0004
:101F300084F8400084F8410084F8420084F84300AB
:101F400084F8440084F8450084F83D00002010BD6A
:101F50007047704738B50446002000901249206849
:101F6000884202D1694611480AE01149884202D1EB
:101F70006946104804E0104988420ED10F4869466E
:101F8000006804F05CFD009838B10D494FF08050B6
:101F90000860BFF34F8FBFF36F8F0A4920688842F4
:101FA00001D1FFF7D1F838BD004801406C00002096
:101FB000002000407000002000440140FC00002090
:101FC00004ED00E0001000407047704710B5044673
:101FD0000068406994F84110C0F3C010212911D164
:101FE00080B12068143050E8001F21F0800140E8E3
:101FF0000012002AF5D1A06B08B1FEF72AFB20469B
:1020000002F009FB2068406994F84210C0F3801088
:10201000222911D180B12068143050E8001F21F02E
:10202000400140E80012002AF5D1E06B08B1FEF74C
:1020300010FB204602F0C8FA002010BD70470000D7
:10204000F8B5016804460868CA684B6910F00F0FBC
:102050004FF0000559D003F0010602F490773743A2
:1020600065D0C10705D0D10503D5616C41F00101F0
:102070006164410705D5D90703D0616C41F00201C5
:102080006164810705D5D90703D0616C41F0040173
:102090006164010707D502F02001314303D0616C70
:1020A00041F008016164616C00293AD0800604D5D2
:1020B000900602D5204602F0BCFA20684069616CA7
:1020C000C0F38010090700D460B3204602F07CFA08
:1020D00020684069400621D52068143050E8001F70
:1020E00021F0400140E80012002AF5D1E06BA8B1D0
:1020F00072490165E06BFEF7F5FA002811D0E06B3C
:10210000016D01B0BDE8F040084783060FD5930686
:102110000DD52046BDE8F84002F08BBA2046FFF707
:102120008DFFF8BD2046FFF789FF6564F8BD266B7B
:102130002023012E7ED1C6067CD5D6067AD5086826
:102140004868009048694FF0020640064DD5E26BA2
:10215000106840684FF480770004000C3AD0A18DDD
:10216000814237D9E085D069B8422DD020680C3043
:1021700050E8001F21F4807140E80012002AF5D1D8
:102180002068143050E8001F21F0010140E80012DF
:10219000002AF5D12068143050E8001F21F04001DA
:1021A00040E80012002AF5D184F842302563206807
:1021B0000C3050E8001F21F0100140E80012002A06
:1021C000F5D1E06BFEF745FA6663A08DE18D401A0C
:1021D00081B206E0A18D8142A8D1D069B842A5D1D3
:1021E00066632046FFF7F1FEF8BDA08DE18D401A31
:1021F00081B2E08D0028F7D00029F5D020680C309E
:1022000050E8002F22F4907240E80027002FF5D10B
:102210002068143050E8002F22F0010240E8002727
:10222000002FF5D184F84230256320680C3050E847
:10223000002F00E006E022F0100240E80023002B0F
:10224000F3D1CDE705062BD5150629D594F8410025
:102250002128C9D1A068B0F5805F01D12069B0B153
:10226000206A411C2162216800784860E08C401E91
:102270000004000CE084B7D12068C16821F080011F
:10228000C1602068C16841F04001C160F8BD206AAA
:102290000088C0F308004860206A801C2062E5E7DF
:1022A0004006F3D55006F1D5CA68204622F0400218
:1022B000CA6084F8413000F025FBF8BD8144000875
:1022C00070B5040004D094F84100002510B106E078
:1022D000012070BD84F84050204600F023F82420EF
:1022E00084F841002068C16821F40051C160204693
:1022F00002F044FA2068016921F4904101612068EC
:10230000416921F02A0141612068C16841F400510E
:10231000C1606564202084F8410084F84200656350
:10232000002070BD2DE9F04F87B0044614216846A7
:10233000FDF7F2FFFF48DFF8F8831038D4F800C04B
:10234000FC4A032702210823002506154FF0400907
:102350004FF0006AC4455AD1D2F800C0AB464CF4E5
:10236000002CC2F800C0126802F400220592026834
:1023700042F0010202600068CDE9007100F0010046
:10238000CDE90430CDE902576946EB48FEF740FB42
:10239000DFF8AC83E9494046C8F80010C0E901A560
:1023A000C0E90356C8F81450C8F81850C8F81C50B3
:1023B000C8F820505746C8F82450FEF775FA08B1FF
:1023C000FEF745F9DE4DDD48C4F83C80603530301D
:1023D000C8F8384085E88102C5E903B6C5F814B0ED
:1023E000C5F818B0C5F81CB0C5F820B02846C5F827
:1023F00024B0FEF759FA08B1FEF729F9A5630022C7
:1024000005213420AC63FEF737FF342068E0DFF8A5
:102410003483C44569D1D2F800C04CF4801CC2F8A2
:1024200000C0126802F480120592026842F00402B1
:102430000260026802F004020592026842F008029B
:1024400002600068884600F0080005904FF4805054
:10245000CDE900080DF1080C9B468CE8A008694600
:10246000B948FEF7D5FA0420CDE900080DF10808B7
:10247000694688E8A008B548FEF7CAFAB04FAF48E9
:10248000C03730383860C7E901A5C7E903567D6118
:10249000BD61FD613D6238467D62FEF705FA08B117
:1024A000FEF7D5F8E763BC63A94FA448C7F80890C6
:1024B000C7E903567D61BD61FD613D6278307D6293
:1024C000C7E9000A3846FEF7EFF908B1FEF7BFF892
:1024D000A763002205213520BC63FEF7CDFE352021
:1024E000FEF7BCFE07B0BDE8F08FDFF86882DFF8CA
:1024F00044E24FF0070B0EF1040EC4454DD1DEF857
:10250000003043F01003CEF80030DEF8002002F077
:1025100010020592026842F001020260006800F0B9
:10252000010005904FF4C0608DE8A3086946824819
:10253000FEF76EFA864F884860373860C7E901A514
:10254000C7E903567D61BD61FD613D6238467D622C
:10255000FEF7AAF908B1FEF77AF8E763BC637C4F8F
:102560007D48C0377830C7F80890C7E903567D61C9
:10257000BD61FD613D627D62C7E9000A3846FEF734
:1025800093F908B1FEF763F8A7630022052125201F
:10259000BC63FEF771FE2520A2E7DFF8C081C445C9
:1025A00049D1136843F400331360126802F4003217
:1025B0000592026842F008020260006800F008001C
:1025C000059060208DE8A30869466048FEF720FA70
:1025D0005A48634F48303860C7E901A5C7E9035638
:1025E0007D61BD61FD613D6238467D62FEF75CF94B
:1025F00008B1FEF72CF8E763BC63594F4F486037CA
:102600006030C7F80890C7E903567D61BD61FD6180
:102610003D627D62C7E9000A3846FEF745F908B118
:10262000FEF715F8A763002205212620BC63FEF7FC
:1026300023FE262054E7DFF82C81C4454AD11368D5
:1026400043F480231360126802F48022059202682A
:1026500042F008020260006800F0080005904FF4A4
:1026600040708DE8A30869463848FEF7D1F93C4F21
:102670003248C03718383860C7E901A5C7E90356A2
:102680007D61BD61FD613D6238467D62FEF70CF9FA
:1026900008B1FDF7DCFFE763BC63334F2748C7F899
:1026A0000890C7E903567D61BD61FD613D62183048
:1026B0007D62C7E9000A3846FEF7F6F808B1FDF773
:1026C000C6FFA763002205212720BC63FEF7D4FDC7
:1026D000272005E7254A94457FF404AFDEF800C0C3
:1026E0004CF0200CCEF800C0DEF8002002F02002F2
:1026F0000592026842F0040202600068049300F050
:1027000004000590C0208DE8A30069460E48FEF73E
:102710007FF91148144F183860374FF0206838603F
:10272000C7E90185C7E903567D61BD61FD611FE011
:10273000004C00404038024000000240406002402F
:10274000A40500200050004000080240000C024098
:10275000C4060020001001404064024000440040D4
:10276000E407002000480040040900200014014054
:102770003D6238467D62FEF797F808B1FDF767FFC6
:10278000E763BC630D4F0C48C7E903567D61BD612B
:10279000FD613D627D6287E801033846FEF784F8FB
:1027A00008B1FDF754FFA763002205214720BC6351
:1027B000FEF762FD472093E6A0640240C4090020B2
:1027C00090F84230202B01D00220704721B11AB17D
:1027D0000023036302F058B8012070477047704728
:1027E0002DE9F843044690F84100984616460D46F8
:1027F000202802D00220BDE8F88385B17EB10020F8
:102800006064212084F84100FEF70CFAA68481461A
:10281000E684A0682027B0F5805F02D003E00120A5
:10282000E9E7206910B12E4600250EE000260CE0F5
:102830008021204602F078F8A8B9C6B116F8010B3D
:1028400021684860E08C401EE084E08C4B464FF0ED
:102850000002CDF800800028EAD14FF04001204668
:1028600002F062F840B184F841700320C3E735F804
:10287000020BC0F30800E3E784F841700020BAE7D8
:1028800070B5044690F84100202801D0022070BDA8
:1028900001B3FAB12162A284E284002060642123A2
:1028A00084F84130A56B144BEB63A56B134B2B6481
:1028B000A56B134BEB64A36B186520681346A56BDF
:1028C000021D2846FEF75AF830B11020606420201F
:1028D00084F84100012070BD21686FF0400008605D
:1028E0002068143050E8001F41F0800140E80012D9
:1028F000002AF5D1002070BD7D450008BF450008C5
:102900008F44000800680349884202D10249002030
:102910000870704700140140F80000207047000064
:102920002A4C0026251D04F1100704F10908274848
:102930000021801C01F0D0F9E8B1A178FF2901D075
:102940002670F4E720782954401CC0B22070042877
:10295000EDD3287869780844A9780844E978C0B2AA
:10296000814208D1B5F8010040BA00EE100AB8EE75
:10297000400A87ED010A15480121C01C01F0ACF99D
:1029800000B3E278FF2A01D06670D0E76178404654
:1029900008F80120491CC9B261700429C7D3027824
:1029A000417883780A441A4498F80300D2B29042DE
:1029B00008D1A87840EA012000EE100AB8EE400ADB
:1029C00087ED010A0A2003F0A3FCB0E748000020CD
:1029D000FEE701684A69D24352050FD46FF4806262
:1029E0004A61002140F8301F20224273817302693E
:1029F00042F0040202610173012070470020704719
:102A00002DE9F84F0446C06A1E4693460D462168DC
:102A10000A6842F480620A60082807D0012805D0BD
:102A200010F5803F02D0206B112804D12068016886
:102A300041F4807101604FF001195B460022494664
:102A40002046009600F0CCF84FF4007840B12068A2
:102A50000068C00501D5C4F840800320BDE8F88FA8
:102A60002069DFF884A0B0F5804F0FD006202168E0
:102A700000EAD51747F0F000086133465A460AF1DC
:102A80000601204600F0F4F858BB03E0E8B240F03D
:102A900001001CE02168E8B2086133465A465146FD
:102AA000204600F0E5F8E0B92068416981690091AD
:102AB000016841F4807101605B460022494620466E
:102AC000009600F08DF80028C1D147F0F100216890
:102AD000086133465A465146204600F0C9F800289E
:102AE000BCD00120BAE7000002000100F8B504469E
:102AF000C06A1E460D461746082807D0012805D093
:102B000010F5803F02D0206B122804D120680168A4
:102B100041F480710160134600224FF001112046FC
:102B2000009600F05DF840B120680068C00502D54D
:102B30004FF4007020640320F8BD2069B0F5804F89
:102B40000ED00620216800EAD51040F0F0000861A0
:102B500033463A460B49204600F08AF878B902E03D
:102B600005F0FE0000E0E8B221680861054933463F
:102B70003A46891F204600F07BF80028DCD001206F
:102B8000F8BD00000800010070B516460D46044669
:102B90001EE02046FFF71DFF08B1012070BD681C34
:102BA00016D0FEF73FF8801BA84200D885B92068F0
:102BB0004069C04340070BD5002044F8300F202166
:102BC0006173A073216941F0200121612073E4E762
:102BD00020684069C0434007DBD4002070BD00007E
:102BE0002DE9F047984617460D460446C1F30746BF
:102BF000DDF820902AE000BFB8F1FF3F26D0FEF7B5
:102C000011F8A0EB0901414502D8B8F1000F1DD120
:102C10002068012E16D0806925EA00000004000C0F
:102C200012D00020B84211D1002044F8300F2021EA
:102C30006173A073216941F020012161207301209B
:102C4000BDE8F0874069E7E70120EBE72068012E47
:102C50000AD0806925EA00000004000C06D000209C
:102C6000B842C9D00020EBE74069F3E70120F7E75D
:102C70002DE9F047984616460D4604464FF00009E8
:102C80004FF0200AC1F3074723E020684069C043A2
:102C9000400515D42068016841F400710160216885
:102CA0006FF480604861C4F8309084F83DA084F8E7
:102CB0003E90216C41F00401216484F83C9021E0B5
:102CC000701C06D0FDF7AEFFA0EB0800B04203D8A1
:102CD00016B1012F1FD021E02068012F15D0806987
:102CE00025EA00000004000C18D000BF44F8309F13
:102CF00084F80DA084F80E90216941F02001216133
:102D000084F80C900120BDE8F087406925EA0000B6
:102D10000004000CEAD12068406901E02068806965
:102D200025EA00000004000CAFD1ECE72DE9F041EA
:102D3000002590460E460446202728E04069C043FF
:102D4000C0060CD454F8301B6FF01000486144F8F2
:102D500010596777A577206A2062257714E0FDF780
:102D600061FFA0EB0800B04200D886B92068406936
:102D7000C04340060BD544F8305F6773A5732069E4
:102D800040F02000206125730120BDE8F08120681B
:102D90004169C9434906D1D40020F6E770B516460B
:102DA0000D4604461EE02046FFF713FE08B1012041
:102DB00070BD681C16D0FDF735FF801BA84200D8F7
:102DC00085B920684069C04300060BD5002044F84F
:102DD000300F20216173A073216941F0200121612E
:102DE0002073E4E720684069C0430006DBD400207C
:102DF00070BD00002DE9F04FB04B00225E781F78C7
:102E00009FEDAF0AAF4DDFF8C092DFEDB00A4AE1A7
:102E1000845C552C7ED100EB020A9AF801B0ABF12C
:102E20005104032C76D84FF0000C644602EB0408E2
:102E3000641C10F80880E4B2C4440CF0FF0C0A2CA7
:102E4000F4D39AF80A4064457ED15446DC46BBF17F
:102E5000510F09D0BCF1520F35D0BCF1530F5AD0ED
:102E6000BBF1540F55D1ECE0B4F902C001EE10CA29
:102E7000B8EEC11A61EE001AB3EE001A21EE812AF3
:102E8000DFED931A22EE212A83ED022AB4F904C061
:102E900002EE10CAB8EEC22A22EE002A22EE012A61
:102EA00022EE212A83ED032AB4F906C002EE10CAED
:102EB000B8EEC22A22EE002A22EE011A21EE211AD1
:102EC00083ED041AD5E0B4F902C001EE10CAB8EEE1
:102ED000C11A61EE001A9FED7F1A61EE811AC3EDEF
:102EE000051AB4F904C001EE90CAF8EEE11A61EED9
:102EF000801A61EE811AC3ED061ABAF9064001EE96
:102F0000904AF8EEE11A61EE801A21EE811A83ED03
:102F1000071AB8E0D0E0B4F902C001EE10CAB8EE6A
:102F2000C11A21EE001A9FED6C2A21EE021A83EDE0
:102F30000B1AB4F904C001EE90CAF8EEE11A61EE82
:102F4000801A61EE821A00E0ABE0C3ED0C1AB4F90E
:102F500006C002EE90CAF8EEE22A62EE802A22EE65
:102F6000822A83ED0D2A94F809C09AF80840B1EE40
:102F7000422A44EA0C249C8083ED0D2AD3ED0F2ACB
:102F800071EE622A12EE904AAC4202DD9C6E641C25
:102F900005E012EE904A4C459C6E01D9641E9C6679
:102FA0004FF4B47C04FB0CF402EE904AF8EEE22AF3
:102FB00072EE812AC3ED122AD3ED102A71EEE22AB5
:102FC00012EE904AAC4202DD5C6E641C05E012EE2B
:102FD000904A4C455C6E01D9641E5C664FF4B47C2B
:102FE00004FB0CF402EE904AF8EEE22A72EEA12AFB
:102FF000C3ED132AD3ED112A72EE622A12EE904A23
:10300000AC4202DDDC6E641E05E012EE904A4C45D7
:10301000DC6E01D9641CDC664FF4B47C04FB0CF458
:1030200002EE904A03F13C04F8EEE22A72EE822AA4
:10303000C3ED142A84EC031A2FBB0127C3ED152A14
:1030400021E0B4F902C001EE10CAB8EEC11A83ED56
:10305000081AB4F904C001EE10CAB8EEC11A83ED23
:10306000091AB4F906C001EE10CAB8EEC11A83ED10
:103070000A1ABAF9084001EE104AB8EEC11AC1EEB8
:10308000201AC3ED0E1A66B993ED0B1A012683EDD3
:10309000161A93ED0C1A83ED171A93ED0D1A83EDA2
:1030A000181A0B3292B202F10A048C42FFF4B0AE4D
:1030B0005E701F70BDE8F08F521CF3E7880000209F
:1030C0000000003800008743000087C30000C842AA
:1030D000CDCC1C410000FA4400003443074C084E9C
:1030E0000025A078012805D1B6F840100448FFF764
:1030F00081FEA570052003F00BF9F2E7880000209F
:103100009010002010B5402205490648FFF758FBF3
:1031100004480068C16841F01001C16010BD0000A2
:10312000D2100020CC040020074C084E0025207847
:10313000012804D1318C054802F0AAF925700A2033
:1031400003F0E6F8F3E700000C0100200012002075
:10315000394808B5016841F480010160016801F453
:1031600080010091016841F40011016000680022B3
:1031700000F40010009005210B20FEF77DF80B20D5
:10318000FEF76CF8002205210C20FEF775F80C20E4
:10319000FEF764F8002205210D20FEF76DF80D20E2
:1031A000FEF75CF8002205210E20FEF765F80E20E0
:1031B000FEF754F8002205210F20FEF75DF80F20DE
:1031C000FEF74CF8002205211020FEF755F81020DC
:1031D000FEF744F8002205211120FEF74DF81120DA
:1031E000FEF73CF8002205212F20FEF745F82F209E
:1031F000FEF734F8002205213920FEF73DF839208A
:10320000FEF72CF8002205213A20FEF735F83A2087
:10321000FEF724F8002205214520FEF72DF8452071
:10322000FEF71CF8002205214620FEF725F8BDE830
:1032300008404620FEF712B83038024010B500F0C2
:103240001DFDFFF75FFF00F007FD00F0C1FB01F07F
:10325000C5FB00F06BFD2D4A00212D4801F05EFFFB
:103260002C4C2A4A0021E06224322B4801F056FF00
:10327000264A2063B43A0021284801F04FFFA0619C
:10328000274A0021274801F049FF254AE0602432FF
:103290000021254801F042FF214A206148320021E7
:1032A000224801F03BFF1E4A6061483A0021204855
:1032B00001F034FF1A4A6060243A00211D4801F0F1
:1032C0002DFF174AA0606C3A00211B4801F026FF31
:1032D0000E4A2060903A0021184801F01FFF0B4A67
:1032E000E0616C3A0021164801F018FF074A20629D
:1032F000483A0021134801F011FF044A6062243A61
:103300000021114801F00AFFA06210BD20740008DE
:10331000B53D000800000020FD0400083D5F0008E6
:1033200000730008DD30000829310008553E000810
:10333000A13C0008313C00086D6500089D42000872
:10334000212900080D5F0008014A00082DE9F04717
:1033500086B014216846FCF7DFFF49480025016864
:1033600041F010010160016801F010010591016850
:1033700041F004010160016801F004010591016858
:1033800041F080010160016801F080010591016850
:1033900041F001010160016801F00101059101683E
:1033A00041F002010160016801F00201059101682C
:1033B00041F0080101600068324E00F008000590FD
:1033C000002204213046FDF728FC2F4F01220A215C
:1033D0003846FDF722FCDFF8B48001222021404668
:1033E000FDF71BFCDFF8A890002202214846FDF7FC
:1033F00014FCDFF8A0A00022C0215046FDF70DFC10
:10340000042001248DE83100694630460395FDF71C
:10341000FFFA05203601CDE90006694602943846D8
:10342000FDF7F6FA0A20CDE9000469463846CDE9F1
:103430000245FDF7EDFA1020CDE900066946029439
:103440004046FDF7E5FA2020CDE9000469464046F4
:10345000CDE90245FDF7DCFA02208DE8310069462E
:1034600048460395FDF7D4FAC0208DE8310069463F
:1034700050460395FDF7CCFA06B0BDE8F087000092
:1034800030380240001002400008024000000240B4
:10349000000C0240000402400D4810B50B490160C9
:1034A0000C49416000214FF480428160C0E9031261
:1034B00041618161C1610162FDF7BEFB002803D05B
:1034C000BDE81040FDF7C3B810BD00000058004033
:1034D000A8010020A08601000C4810B50A4901602F
:1034E00040F23F614160002140F2E732C0E9021240
:1034F00001618161FEF728FA002803D0BDE8104081
:10350000FDF7A5B810BD0000004401401C030020D9
:103510000C4810B50A49016040F21F31416000219A
:1035200040F2E732C0E9021201618161FEF70CFA54
:10353000002803D0BDE81040FDF789B810BD000099
:1035400000480140640300200C4810B50A4901609E
:1035500040F21F314160002140F2E732C0E902121F
:1035600001618161FEF7F0F9002803D0BDE8104049
:10357000FDF76DB810BD000000200040AC03002036
:1035800010B596B000240F941094119412941394D3
:103590001C2168461494FCF7BFFE202107A8FCF705
:1035A000BBFE35483349016040F23F61C0E9011478
:1035B00040F2CF71C0E9031444618461FEF7C4F99D
:1035C00008B1FDF744F84FF480500F900FA92A4836
:1035D000FEF7AAFA08B1FDF73AF82748FEF78BFC88
:1035E00008B1FDF734F8139413A923481494FEF797
:1035F00063F908B1FDF72BF8602000909620CDE923
:103600000104039404940594002269461A48069420
:10361000FEF70BFC08B1FDF71AF8042269461648BC
:10362000FEF703FC08B1FDF712F8082269461248BC
:10363000FEF7FBFB08B1FDF70AF80C2269460E48BD
:10364000FEF7F3FB08B1FDF702F80794089409941C
:103650004FF400500A94CDE90B4007A906480E9498
:10366000FEF700F908B1FCF7F2FF0348FEF764FB30
:1036700016B010BD00000140FC01002010B58EB056
:1036800000240794089409940A940B941C2168461A
:103690000C94FCF741FE2B484FF08041016040F252
:1036A0001F31C0E9011440F2CF71C0E903148461F5
:1036B000FEF74AF908B1FCF7CAFF4FF480500790B3
:1036C00007A92048FEF730FA08B1FCF7C0FF1D48F3
:1036D000FEF711FC08B1FCF7BAFF0B940BA91948CF
:1036E0000C94FEF7E9F808B1FCF7B1FF60200090F8
:1036F0009620CDE901040022694612480494FEF7A1
:1037000094FB08B1FCF7A3FF042269460D48FEF7BD
:103710008CFB08B1FCF79BFF082269460948FEF7BD
:1037200084FB08B1FCF793FF0C2269460548FEF7BD
:103730007CFB08B1FCF78BFF0248FEF7FDFA0EB0E8
:1037400010BD00004402002010B58EB00024079484
:10375000089409940A940B941C2168460C94FCF775
:10376000DBFD2C482A49016040F21F31C0E90114F9
:1037700040F2CF71C0E903148461FEF7E5F808B1A7
:10378000FCF765FF4FF48050079007A92148FEF72A
:10379000CBF908B1FCF75BFF1E48FEF7ACFB08B1A4
:1037A000FCF755FF0B940BA91A480C94FEF784F80C
:1037B00008B1FCF74CFF602000909620CDE9010491
:1037C0000022694613480494FEF72FFB08B1FCF76A
:1037D0003EFF042269460F48FEF727FB08B1FCF7BD
:1037E00036FF082269460B48FEF71FFB08B1FCF7BD
:1037F0002EFF0C22694607480194FEF716FB08B11C
:10380000FCF725FF0348FEF797FA0EB010BD000045
:10381000000400408C02002010B586B00024164839
:103820000094019402940394049412490594C0E90D
:1038300000144521C0E9024104618461FEF784F867
:1038400008B1FCF704FF4FF48050009069460A4825
:10385000FEF76AF908B1FCF7FAFE049404A90648D9
:103860000594FEF729F8002801D0FCF7F0FE06B019
:1038700010BD000000080040D40200200C4810B524
:103880000A4901604FF416514160002181600C2209
:10389000C160C0E904128161C161FEF711FD002819
:1038A00003D0BDE81040FCF7D2BE10BD004C004074
:1038B000F40300200C4810B50A4901604FF4E131CF
:1038C0004160002181600C22C160C0E90412816165
:1038D000C161FEF7F5FC002803D0BDE81040FCF7FD
:1038E000B6BE10BD005000403C0400200C4810B58E
:1038F0000A4901604FF4E1314160002181600C22EE
:10390000C160C0E904128161C161FEF7D9FC0028E1
:1039100003D0BDE81040FCF79ABE10BD0010014076
:10392000840400200C4810B50A4901604FF4165178
:103930004160002181600C22C160C0E904128161F4
:10394000C161FEF7BDFC002803D0BDE81040FCF7C4
:103950007EBE10BD00440040CC0400200C4810B5D1
:103960000A4901604FF4E1314160002181600C227D
:10397000C160C0E904128161C161FEF7A1FC0028A9
:1039800003D0BDE81040FCF762BE10BD0048004007
:10399000140500200C4810B50A4901604FF4E131CC
:1039A0004160002181600C22C160C0E90412816184
:1039B000C161FEF785FC002803D0BDE81040FCF78C
:1039C00046BE10BD001401405C050020FEE700006B
:1039D00010B503222DED048B0021012002F088FE9A
:1039E00028490860F0B39FED288ADFED288A9FED13
:1039F000289AB0EE482AF0EE681AB0EE491AF6EEB0
:103A0000000AB0EE000A234800F0F0F82148B0EEBA
:103A1000482AF0EE681AB0EE491AF6EE000AB0EE47
:103A2000000A1C3000F0E2F81A48B0EE482AF0EE26
:103A3000681AB0EE491AF6EE000AB0EE000A5430E9
:103A400000F0D4F81348B0EE482AF0EE681AB0EE51
:103A5000491AF6EE000AB0EE000A383000F0C6F857
:103A60000D4800E005E0BDEC048BBDE81040FEF71A
:103A70001BB8502080F31188BFF34F8FBFF36F8FB7
:103A8000FEE70000FC0000200000C8420000C8C2A1
:103A9000CDCCCC3D801100201C0300202DE9F0414D
:103AA0000026504D374600BF06EBC60000EB46101F
:103AB00005EB800494F8A01031B1012927D0022928
:103AC00044D0032922D14FE0B4F85820002A1DD059
:103AD00034F8561F4FF0140C4B19491C0CEB800C9A
:103AE000218013F80C3084F84C3001F03F01218024
:103AF000521E628084F84B7034F8521C55F8200036
:103B00000022FDF78AF8012084F84A0062E094F868
:103B1000A110491CC9B284F8A11008290DD894F845
:103B2000A220491ECA4012F0010F01D0012200E07C
:103B30000022A18855F8200005E0092948D1A18874
:103B400055F820000122FDF768F843E094F8A10041
:103B5000401CC0B284F8A10001283BD184F8A170B8
:103B6000032084F8A00035E094F8A110491CC9B2E4
:103B700084F8A11008290DD8A189A068FDF740F8A4
:103B800094F8A12094F8A210521E9040014384F8AA
:103B9000A2101FE009291DD0B4F89E10402917D2A9
:103BA000B4F89A104FF05A0C4B1994F8A2200CEB71
:103BB0008000491CA4F89A101A5494F89A0000F056
:103BC0003F00A4F89A00B4F89E00401CA4F89E00A0
:103BD00084F8A070761CF6B2022EFFF465AFBDE843
:103BE000F081000044120020FEE7000080EC030A90
:103BF0009FED050A80ED030A80ED040AC0ED051A69
:103C000080ED062A704700000000000070B50D46E8
:103C10000646002409E0305DFF2804D1281B81B24C
:103C2000301901F0C1FA641CE4B2AC42F3D370BDA8
:103C3000074C084E00252078012805D1B6F8001160
:103C40000448FFF7E3FF25700A2002F061FBF2E76A
:103C5000440000206C0B002010B5202205490648C6
:103C6000FEF7AEFD04480068C16841F01001C16074
:103C700010BD000022120020F403002010B54FF404
:103C8000807205490548FEF79BFD04480068C1683D
:103C900041F01001C16010BD6C0A00201405002025
:103CA000A12000F0BDFF322002F032FBA22000F084
:103CB000B7FF322002F02CFBA32000F0B1FF32202E
:103CC00002F026FBA42000F0ABFF322002F020FB24
:103CD000642002F01DFBE3E770B5022921D201EB5D
:103CE000C102114D02EB411405EB8401B1F89E2095
:103CF000BAB1EFF3108272B631F89C3F5A261D44D8
:103D000006EB84045B1C0B802B5D0370087800F0CD
:103D10003F0008804888401E488082F310880120B8
:103D200070BD002070BD0000441200202DE9F0415C
:103D30001D4C1C4801222060A2801C49A160A28168
:103D40004FF0C0622261C4F8A4000220A4F8A800C9
:103D5000C4F8AC10A4F8B000501C00263746C4F8D4
:103D6000B40000BF06EBC60000EB461004EB800574
:103D700054F82000A98801228235FCF74EFFAF7766
:103D800025F82A7C25F82C7C25F82E7CAF836F83C0
:103D9000761C2F83022EE5DBBDE8F0410448FDF7D9
:103DA00083BE0000000002404412002000040240D4
:103DB000D4020020012001F075F9FBE71FB50020B7
:103DC000019002905C208DF80C0024208DF80D00ED
:103DD0006424022303AAE02118480094FDF7E8F8C0
:103DE000002829D1062301AAE12114480094FCF7F8
:103DF000E7FFBDF80400DFED120A40BA00EE100A3A
:103E0000BDF80700B8EE401A40BA00EE100A0E489E
:103E1000C1EE201A9FED0B1AB8EE400A21EE811A6E
:103E200080ED011A80EE201ADFED080A9FED080AE6
:103E300011EE200A80ED000A1FBD0000A80100203D
:103E400000FF7F470000C8421C01002000002F43F4
:103E5000000034424FF47A74FFF7B0FF204602F0BE
:103E600057FAF9E710B543F2175000F007F8BDE82C
:103E700010404FF47A70FCF7B9BD00001CB5010A80
:103E80008DF804108DF805004FF47A70009002232D
:103E900001AAE0210748FDF78BF818B1282106A0F8
:103EA00000F0E4FD0348FCF7C3FE2028FAD100200F
:103EB0001CBD0000A801002065727220284C3D2521
:103EC00064290A0010B54FF0E020006902F0F0FF0D
:103ED000012803D0BDE8104002F0F4BB10BD000083
:103EE00030B593B030216846FCF716FA14210CA8BF
:103EF000FCF712FA1D480025016841F0805101606D
:103F0000006800F0805011901948016841F4804128
:103F100001600068022400F48040119001200090AC
:103F2000000401908001CDE906400C200890A020FB
:103F3000CDE9090404200B906846FDF7DBFA08B1CF
:103F400072B6FEE70CA90F2081E831004FF4A050B3
:103F50000F904FF48050109005210CA8FDF7BEF98A
:103F6000002801D072B6FEE713B030BD40380240E1
:103F7000007000400248016841F470010160704720
:103F800088ED00E010B50448FDF73DFEBDE81040A7
:103F90000248FDF738BE0000FC0100206403002049
:103FA00010B50448FDF72FFEBDE810400248FDF7AC
:103FB0002ABE0000FC0100201C03002010B5FFF702
:103FC0006DFDBDE810400148FDF71DBED402002084
:103FD0000148FDF718BE0000240A0020F0B5026871
:103FE000274B284D284E294F294C4FF0804C9842A2
:103FF00009D0604507D0A84205D0B04203D0B842EE
:1040000001D0A04204D122F0700E4A6842EA0E02AA
:1040100098421BD0604519D0A84217D0B04215D0A5
:10402000B84213D0A04211D01A4DA8420ED01A4D5A
:10403000A8420BD0194DA84208D0194DA84205D06E
:10404000184DA84202D0184DA84203D122F4407561
:10405000CA682A434D6922F080022A438D68C562EE
:104060000D688562984201D0A04201D109690163BF
:10407000016841F004010160012141610260F0BD6D
:10408000000001400004004000080040000C004017
:10409000000401400040014000440140004801404C
:1040A00000180040001C00400020004010B584684B
:1040B00042EA032224F47F440A432243826010BD73
:1040C000826822F070020A4342F007018160704763
:1040D000F0B5036A026A22F0010202624268846952
:1040E000124E24F073050C682C4323F002058B68F4
:1040F0002B430D4DA84201D0B04205D123F0080753
:10410000CB683B4323F00403A84201D0B04205D161
:104110004D6922F4407215438A692A4342608461E2
:10412000496841630362F0BD0000014000040140A2
:10413000F0B5026A036A23F01003036243688469DE
:104140000D6824F4E64444EA05248D6822F0200238
:1041500042EA05120F4D104EA84201D0B04206D1DE
:10416000CF6822F0800242EA071222F04002A84201
:1041700001D0B04207D14D6923F4406343EA85037F
:104180008D6943EA85034360846149688163026203
:10419000F0BD00000000014000040140F0B5026ADB
:1041A000036A23F4807303624368C46922F40072D3
:1041B00024F073050C68124E2C438D6842EA0522E8
:1041C0000E4DA84201D0B04206D1CF6822F4006261
:1041D00042EA072222F48062A84201D0B04207D10D
:1041E0004D6923F4405343EA05138D6943EA0513EF
:1041F0004360C4614968C1630262F0BD00000140D0
:104200000004014030B5046A026A22F4805202625E
:104210004268C3690D6823F4E64343EA05238D68C9
:1042200024F4005444EA0534084DA84202D0084D55
:10423000A84204D14D6922F4804242EA85124260CC
:10424000C36149680164046230BD000000000140A0
:104250000004014010B5036A046A24F001040462FA
:10426000846924F0F00444EA021423F00A020A43A9
:104270008461026210BD10B5036A046A24F0100460
:104280000462846923F0A00324F4704444EA0232F7
:1042900043EA01118261016210BD0000114D4FF42B
:1042A000FA74002202212846FCF7B7FC0A2002F02B
:1042B0002FF8012202212846FCF7AFFC204602F02D
:1042C00027F8002208212846FCF7A7FC0A2002F064
:1042D0001FF8012208212846FCF79FFC204602F027
:1042E00017F8DEE70008024038B5134C2068016873
:1042F000C9061FD50168406800902046FDF766FE9C
:10430000E06B006840680D4CC0F1400082B2A078BC
:1043100040B90B4800F14201A0F84020FBF7E3FF51
:104320000120A070BDE838400549402242310248D2
:10433000FEF746BA38BD0000CC04002088000020FB
:104340009010002038B5134C20680168C9061FD5AD
:104350000168406800902046FDF738FEE06B006879
:1043600040680D4CC0F5807082B2207840B90B488F
:10437000A0F58071A0F80021FBF7B5FF01202070A7
:10438000BDE838404FF4807205490248FEF718BA7C
:1043900038BD000014050020440000206C0B0020F4
:1043A0006C0A002010B500F007F8BDE81040014885
:1043B000FDF746BEF403002038B5124C20680168B2
:1043C000C9061ED50168406800902046FDF7FEFD35
:1043D000E06B006840680C4CC0F1200082B220788D
:1043E00038B90A4800F122010284FBF77CFF012062
:1043F0002070BDE838400549202222310148FEF7EF
:10440000DFB938BDF40300200C01002000120020A9
:1044100010B500F007F8BDE810400148FDF710BEE8
:104420003C04002038B5134C20680168C9061FD52C
:104430000168406800902046FDF7C8FDE06B006809
:1044400040680D4CC0F1400082B2207840B90B4862
:1044500000F14201A0F84020FBF745FF0120207049
:10446000BDE838400549402242310248FEF7A8B96C
:1044700038BD00003C040020740000200E10002015
:1044800010B5806B0021C185FDF7D8FD10BD70B55A
:10449000846B2068406994F84110C0F3C010002577
:1044A000212904D118B1E584204600F0B4F8206831
:1044B000406994F84210C0F38010222904D118B149
:1044C000E585204600F080F8606C40F010006064E4
:1044D0002046FDF7B3FD70BD10B50146806B09683D
:1044E00009684FF00002C9052ED4C28501680C315D
:1044F00051E8003F23F4807341E80034002CF5D1EB
:104500000168143151E8003F23F0010341E8003411
:10451000002CF5D10168143151E8003F23F040032D
:1045200041E80034002CF5D1202180F84210016BC5
:10453000012909D101680C3151E8003F23F0100333
:1045400041E80034002CF5D14263016B012902D00F
:10455000FEF744F910BD818DFDF737FD10BD10B594
:10456000806B01214163016B012902D0FEF737F90D
:1045700010BD818D4908FDF728FD10BD10B501461D
:10458000806B09680968C90516D40021C1840168D7
:10459000143151E8002F22F0800241E80023002B63
:1045A000F5D101680C3151E8002F42F0400241E89A
:1045B0000023002BF5D110BDFEF7A4F910BD10B5F6
:1045C000806BFEF7ABF910BD01680C3151E8002F8C
:1045D00022F4907241E80023002BF5D101681431D8
:1045E00051E8002F22F0010241E80023002BF5D111
:1045F000016B012909D101680C3151E8002F22F02B
:10460000100241E80023002BF5D1202180F8421050
:1046100000210163704701680C3151E8002F22F03E
:10462000C00241E80023002BF5D1202180F8411081
:10463000704708B590F84210222901D0022008BD29
:1046400082684FF480539A4201D1016921B1816A95
:104650009A421BD04AB10AE00268816A5268C2F3EA
:1046600008020A80816A891C08E0026972B1026846
:10467000526802F07F020A70816A491C8162C18D12
:10468000491E0904090CC18503D01BE00268526869
:10469000F1E70168CA6822F02002CA600168CA68AE
:1046A00022F48072CA6001684A6922F001024A61FC
:1046B000202180F8421000214163026B012A03D0BF
:1046C000FEF78CF8002008BD016301680C3151E849
:1046D000002F22F0100241E80023002BF5D10168E1
:1046E0000A68D20602D50A6849680091818DFDF7F3
:1046F0006CFCE7E70FB42DE9F041DFF8748098F81F
:1047000000009DF81870401E384227D0142F25D87D
:1047100007AD184C00260CE0ED1D25F00705B5ECA3
:10472000020B51EC100BFBF722FE761C44F8040B35
:10473000F6B2BE42F0D3002004F8010B0D4904F894
:10474000010B802004F8020B7F2004F8010C0948BB
:10475000201A82B20848FEF793F820B10020BDE885
:10476000F0015DF814FB012188F800100846F6E717
:10477000F8000020121100205C05002070B50446EE
:1047800000680169E26821F4405111430161216927
:10479000A068E26908436169114308432168CA6857
:1047A00049F20C639A430243CA6020684169A269D6
:1047B00021F440711143416131492068884202D09F
:1047C0003049884202D1FCF753FE01E0FCF740FE7D
:1047D000E2690023192164253226B2F5004F626890
:1047E00028D0A0FB0101930F9200FBF74BFD01467F
:1047F000B0FBF5F06FF01802504301EB800006EBC0
:104800000010B0FBF5F000F0F002B1FBF5F002EBA8
:104810000012B1FBF5F06FF01803584301EB800074
:1048200006EB0010B0FBF5F000F00F00216810441B
:10483000886070BDA0FB010192185B41FBF722FD6F
:104840000146B0FBF5F00201B1FBF5F06FF0180383
:10485000584301EB800006EBC000B0FBF5F000F020
:10486000F80002EB4002B1FBF5F0584301EB800089
:1048700006EBC000B0FBF5F000F00700D6E7000043
:10488000001001400014014038B581620446828561
:10489000002013466064222284F84220E56B1F4A00
:1048A000EA63E56B1E4A2A64E56B1E4AEA64E26B22
:1048B00010650A462168E06B091DFCF75FF830B10E
:1048C00010206064202084F84200012038BD206858
:1048D000016840680090206948B120680C3050E8B9
:1048E000001F41F4807140E80012002AF5D12068D1
:1048F000143050E8001F41F0010140E80012002A86
:10490000F5D12068143050E8001F41F0400140E824
:104910000012002AF5D1002038BD0000D94400085B
:104920005F4500088F4400082DE9F8439846174674
:104930000D460446089E24E0701C22D0FCF772F954
:10494000A0EB0800B0421AD8CEB12068C168490770
:1049500017D5802D15D0402D13D00168C943090704
:104960000FD401680025406800902046FFF72CFE18
:104970000820606484F840500120BDE8F8830320DB
:10498000FBE72068006835EA000004D00020B84248
:10499000D2D00020F1E70120F9E700000148FDF73F
:1049A0004FBB00008404002010B5FFF79DFCBDE85C
:1049B00010400148FDF744BBCC04002010B5FFF7C0
:1049C000C1FCBDE810400148FDF73ABB14050020CA
:1049D0000148FDF735BB00005C05002010B5402202
:1049E00005490648FDF7ECFE04480068C16841F03F
:1049F0001001C16010BD0000501000203C040020D8
:104A0000012000F02DFB154C0220154D154E207293
:104A1000002705F13608207A297A884206D0012835
:104A200000D0002000F02AFA207A28726979607993
:104A3000814204D0012800D0002000F011FB307822
:104A4000012806D1064898F84010363000F07EFC68
:104A500037700A2001F05CFCDDE700007A0C0020D2
:104A6000D80F002074000020FEE700000FB4054BB3
:104A700010B503A9044A029800F028F810BC5DF8AC
:104A800014FB0000654E0008A40100200907090E70
:104A9000002804DB00F1E02080F80014704700F0EB
:104AA0000F0000F1E02080F8141D704702E008C8F4
:104AB000121F08C1002AFAD170477047002001E098
:104AC00001C1121F002AFBD1704700002DE9FF4FE2
:104AD00089B09B460446002506E025280BD05A469F
:104AE0000B999047641C6D1C20780028F5D10DB0FF
:104AF0002846BDE8F08F0027B8460122474900E06C
:104B0000074314F8013F203B02FA03F00842F7D1B3
:104B100020782E2819D114F8010F47F004072A280D
:104B20000ED06FF02F022078A0F1300109290CD8A7
:104B300008EB880102EB410100EB0108641CF2E77D
:104B40000A98641C50F8048B0A9020780028CED074
:104B5000642808D0692806D075281ED05A460B99BB
:104B600090476D1C58E00A994FF00A0901C90A9153
:104B7000002802DA40422D2102E0390504D52B211C
:104B80008DF82010012103E0F90704D02021F7E778
:104B90008A4608AE0DE00021FAE70A994FF00A09AB
:104BA00001C90A91F7E74946FBF7FDFB303106F8EA
:104BB000011D0028F7D1ADEB060000F120097807B0
:104BC00001D44FF00108C84502DDA8EB090000E060
:104BD00000208046002706E008A85A46C05D0B99D1
:104BE00090476D1C7F1C5745F6DB04E030205A4689
:104BF0000B9990476D1CB8F10001A8F10108F5DC94
:104C000005E016F8010B5A460B9990476D1CB9F157
:104C10000001A9F10109F4DC641C65E70928010021
:104C200010B5ACB00446802101A8FBF775FBFF204E
:104C30008DF8040021A9A12C54D0A22C7ED0A32C45
:104C40007DD0A42C4CD15C4801AB028800EE102A28
:104C5000B8EE400A8DED210A428800EE102AB8EE27
:104C6000400A8DED220A828800EE102AB8EE400A32
:104C70008DED230AC28800EE102AB8EE400A8DEDB1
:104C8000240A028900EE102AB8EE400A8DED250AAA
:104C9000428900EE102AB8EE400A8DED260A82897C
:104CA00000EE102AB8EE400A8DED270AC28900EE08
:104CB000102AA422B8EE400A8DED280A008A00EEE0
:104CC000100AB8EE400A8DED290A0091242109202E
:104CD00000F0A3F86423282201A93848FDF780FDDD
:104CE0002CB010BD364890ED000A36488DED210AF3
:104CF00090ED000A34488DED220A90ED000A334809
:104D00008DED230A90ED000A31488DED240A90EDD7
:104D1000000A30488DED250A90ED000A2E488DEDF1
:104D2000260A90ED000A2D488DED270A90ED000A25
:104D30002B488DED280A90ED000A01E006E01CE00A
:104D40008DED290A01ABA1220091BFE7254801ABF7
:104D5000A22290ED000A24488DED210A90ED000A70
:104D600022488DED220A90ED000A8DED230A90ED88
:104D7000010A8DED240A009116E01D4801ABA32223
:104D800090ED000A1B488DED210A90ED000A1A48AB
:104D90008DED220A90ED000A18488DED230A90ED62
:104DA000000A8DED240A00911021042000F035F84E
:104DB0006423142290E70000E20F00201405002075
:104DC0009000002094000020980000209C0000200B
:104DD000A0000020A4000020B4000020B8000020A3
:104DE000BC00002014010020180100205800002001
:104DF0001C01002020010020780000207C00002001
:104E000078B50B466C4603E0C55C5E1A5B1CA55585
:104E10009342F9DD9DED000A78BDF0B50025059FB0
:104E20005A7099702C460EE0032207EB840606EBBD
:104E3000020C02EB840E1CF803CC521C03F80EC0CB
:104E4000072AF4DB641C8442EEDB0120CA1C03E069
:104E50001C5C401C2C44E5B29042F9DB5818C5702C
:104E6000F0BD000013B54FF6FF73012269460248FA
:104E7000FDF7B6FC00981CBD5C0500200A4910B582
:104E8000CA7910B1012803D005E022F0100001E03A
:104E900042F01000C87101F005F8BDE81040192279
:104EA00002490348FDF7ECBC80000020F40F00200D
:104EB0003C040020FCF750F9FFF712F8FEF746FA21
:104EC000FEF746F9FEF712FDFEF7D8FCFEF7F2FCFE
:104ED000FEF728FDFEF742FDFEF75CFDFEF7DCFA6B
:104EE000FEF74EFBFEF7CAFBFEF72EFCFEF710FBAB
:104EF000FEF72AFBFEF7F0FAFEF78EFC40F2DC52DA
:104F00000121032000F094FF4FF47A720221032064
:104F100000F08EFF012202210548FBF77EFEFEF71E
:104F2000A1FF00F0CDF8FEF789F900F0DBF8FEE70D
:104F3000000C0240254B00B5B3F9000000EE100A4A
:104F40000320B8EEC00A00F043F8B3F9020000EE07
:104F5000100A0520B8EEC00A00F03AF8B3F90400D0
:104F600000EE100A0420B8EEC00A00F031F8B3F9E0
:104F7000060000EE100A0120B8EEC00A00F028F882
:104F8000B3F9080000EE100A0720B8EEC00A00F0DE
:104F90001FF8B3F90A0000EE100A0620B8EEC00AA6
:104FA00000F016F8B3F90C0000EE100A0820B8EE75
:104FB000C00A00F00DF8B3F90E005DF804EB00EE46
:104FC000100A0220B8EEC00A00F002B8F01100206A
:104FD000DFED1F0AB4EEE00AF1EE10FA01DDB0EEEB
:104FE000600ADFED1C0AB4EEE00AF1EE10FA01D21D
:104FF000B0EE600ADFED180A092830EE201AB3EE91
:10500000040AC1EE000A9FED150A30EE800ABCEEDC
:10501000C00A10EE101A8AB219D2DFE800F01805A3
:10502000070A0C1012141600042100E003210120CD
:1050300003E0042100E00321022000F0F9BE022178
:10504000F5E70121F3E70221F6E70121F4E77047D4
:1050500000001644000016C400007A440000C84254
:105060000D4910B5CA79C2F38003834212D010B142
:10507000012803D005E022F0040001E042F0040022
:10508000C87100F00FFFBDE8104019220349044821
:10509000FDF7F6BB10BD000080000020F40F0020DB
:1050A0003C04002010B5EFF3058111B16FF0050449
:1050B00003E0002408B101F02BF9204610BD0000E8
:1050C000EFF3058010B16FF00500704704480168E8
:1050D00011B14FF0FF30704701210160002070478F
:1050E0007401002010B5EFF3058010B16FF00500DA
:1050F00010BD08480168012902D04FF0FF3010BDF3
:10510000054A002182F8141D0221016001F0B0F966
:10511000002010BD740100200BE000E02DE9FF41EC
:105120004FEA01034FF00005EFF30581039549BBFA
:1051300040B38027182100244AB3166806B13446CC
:1051400096691EB13146761E382E02D21679F607C0
:1051500003D0002004B0BDE8F081566906B1B7085D
:10516000D2F808C0BCF1000F0DD0D5685C2D18D363
:1051700012693AB136B18DE806103A46214601F07F
:105180006CFE03900DE0D6685EB912694AB903AAB5
:10519000CDE90012BAB2214601F032FE012800D05A
:1051A00003950398D6E700002DE9F04F04297DD33D
:1051B0000278FF2A7AD182784578131D8B427DD8F8
:1051C00000231946D41C03E0465C491C3344DBB27F
:1051D000A142F9DB8118C97899426FD1C41CB12D65
:1051E0006ED0B22D7ED0C62D68D14D4F0025032242
:1051F00000212046FFF704FEC5EBC50007EBC00603
:10520000072286ED060A04212046FFF7F9FD86ED08
:10521000070A0B2208212046FFF7F2FD6D1CEDB2B4
:1052200086ED080A082DE2D3DFF8F88000254FF05C
:10523000030B4FF007094FF0040A00BF05EB4500D0
:1052400005EB450681000BEB86022046FFF7D8FDF3
:10525000C5EBC50108EBC10709EB860287ED060A1D
:105260000AEB86012046FFF7CBFD0B2000EB860200
:10527000082000EB860187ED070A2046FFF7C0FDF6
:105280006D1CEDB287ED080A062DD7D35A225421A2
:105290002046FFF7B5FD244D5E225B2185ED000A17
:1052A0002046FFF7ADFD85ED010A00E006E0622231
:1052B0005F212046FFF7A4FD85ED020ABDE8F08FCF
:1052C0001A4821880180628852424280A5888580E0
:1052D000E3885B42C380268906816489448114483F
:1052E000018000E00AE0134802801348058013485B
:1052F00003801348068013480480DFE712482178B2
:105300000172A178017021794171A1794170217AEE
:105310008171A17AC171217B8170A17BC170CDE7C0
:10532000E00D0020900C0020840C00206E0C00206A
:105330006000002062000020640000206600002061
:10534000680000206A0000207A0C00207CB5002351
:105350001A461C460DE0065DAA2E09D1061976787C
:10536000A12E0BD0A32E09D0A42E07D0A52E05D098
:10537000ECB2651C8D42EED39C1C0BE0641CE3B2C6
:10538000FAE7055DFF2D04D1051915F8015CAF2D75
:1053900020D0641CE4B28C42F3D3C15CA1291CD0A0
:1053A000364CA3293DD0A4295DD0A52911D1D11A0D
:1053B000491E01290DDBC118835C497810440B4458
:1053C00010F8010CDBB2984203D1652901D101200C
:1053D00060707CBD641EE2B2DFE7D11A491E12295B
:1053E000F7DBC118855C11F8013F10448C7810F888
:1053F000010C2344CC7B2C442344DBB29842E8D1FB
:105400001F4A002001EB40031B885BBA22F81030D2
:10541000401CC0B20928F5D310890028D9D11081C9
:105420007CBDD11A491E0429FADBC11811F8013FCD
:10543000CD782B44855C10442B4410F8010CDBB272
:105440009842EDD1088840BA00EE100AB8EE400A42
:1054500084ED020A488840BA00EE100AB8EE400A0D
:1054600084ED010A7CBD07A10622D1E90001CDE946
:10547000000169460548FDF703FA7CBD7400002071
:10548000E20F0020AAA4CC7BAFFF00003C04002068
:1054900070B50C460546074B074A00F00FF8214649
:1054A0002846044BBDE87040034A1B1D121D00F046
:1054B00005B8000010010020887400082DE9F047AD
:1054C0009A4690460E46074600250AE0781904469B
:1054D00004224146FAF72BFF10B920793A2803D06D
:1054E0006D1C681DB042F1DB681D4FF0FF3CB042FF
:1054F0001DDA6C1D012000231A466FF02F090CE005
:105500002D2917D0A1F13008B8F1090F0AD803EB03
:10551000830809EB48030B44641CB44202DA395D8A
:105520002E29EDD1B44202DA395D2E2904D060462D
:10553000BDE8F0876046EFE70021641C10E000BF83
:1055400017F804C0ACF13008B8F1090F0AD802EB23
:10555000820809EB4802491C641C6244022901DAF2
:10556000B442EDDBE1B101291CD0642100EE101A38
:10557000F8EE400A00EE102AB8EEC00A80EE201ABB
:1055800000EE103AB8EEC00A71EE000A00EE100A02
:10559000601BB8EEC00A20EE800A8AED000AC7E759
:1055A0000121E3E70A21E1E72DE9F041134C0F4621
:1055B0000546E6682068001D00F076FD681C07D1EE
:1055C00037B12168BDE8F0410D48091D00F0BCBDB0
:1055D00020683544B5424560216805D2A06BBDE81E
:1055E000F041091D00F098BD606B091D00F094FDAD
:1055F000A06A854200D2A562BDE8F08124010020A6
:105600007C1800202DE9F041054600F0A9FD2D4C45
:10561000A068401CA06020682B4F10B1606930B3B7
:105620002BE02560A068012827D1002606EB860024
:1056300007EB800000F062FD761C382EF6D323487D
:1056400000F05CFD2148143000F058FD1F48283060
:1056500000F054FD1D483C3000F050FD1B48503018
:1056600000F04CFD194860631430A06305E0206829
:10567000E96AC06A884200D82560606A401C60629E
:105680006864E86A2169884200D9206100EB8000E3
:1056900007EB8000291D00F057FD00F081FD6069D7
:1056A00000280CD02068E96AC06A884207D20849FD
:1056B0004FF080500860BFF34F8FBFF36F8FBDE88E
:1056C000F081000024010020CC1300202C180020C1
:1056D00004ED00E038B500F043FD104C2068C8B977
:1056E0000F4800F00BFD0E48143000F007FD0C4889
:1056F000E060143020610A4B0020F03B009003F181
:10570000500210210A2001F014F8206010B105A108
:1057100000F0C8FDBDE8384000F042BD6001002047
:1057200080190020546D72510000000030B4026CEA
:105730000B46002A0BD0C1681144C1608468A142A5
:1057400001D30168C16030BC1846FAF7CCBD30BC4B
:1057500070472DE9F041856B174604460026026C20
:1057600082B1C7B1E068FAF7BEFDE168206C091AA2
:10577000E1602268914202D2A168081AE060022F1B
:1057800016D017E02068A8B9A06801F009FC064609
:105790000020A0600EE06068FAF7A5FD216C60684B
:1057A00008446060A168884204D32068606001E01A
:1057B00005B16D1E6D1CA5633046BDE8F08110B5C6
:1057C000044690F8590058B101280CD002280FD097
:1057D000502080F31188BFF34F8FBFF36F8FFEE728
:1057E000206B00F0F1FC2046BDE8104000F0ECBC5E
:1057F00010BD000010484FF47051420706D0C01D84
:105800000D4920F00700411AC1F570510B4A0023E1
:105810000144C2E900030839183A21F00701116078
:105820004B600B600B1AC0E9001393604FF000400F
:1058300053605061704700006020002090010020FC
:10584000144E154CA6F29C474FF08058DFF84C9050
:1058500012E000BF00F084FCF068C568281D00F06D
:1058600023FCA068401EA0606068401E606000F0DD
:1058700097FC2846FFF7A3FF60680028EAD1386844
:105880000128F9D9C9F80080BFF34F8FBFF36F8F9C
:10589000F2E70000681800202401002004ED00E079
:1058A00070B51D46049C51B1C4F80020C4E90F0135
:1058B0000121204600F070FF84F84C5070BD246038
:1058C000F4E700002DE9F05F8846DDE90B9415460A
:1058D000834691009A460A9EA522206BFAF715FD91
:1058E0006FF00301206B01EB8501084420F00707EE
:1058F000780707D0502080F31188BFF34F8FBFF394
:105900006F8FFEE70025B8F1000F0FD05FF00000A9
:10591000221818F8001082F8341018F8001011B18D
:10592000401C1028F4D384F8435001E084F834502C
:10593000382E00D33726E662C4E91365201D00F037
:10594000E8FB04F1180000F0E4FB2461C6F1380024
:105950006462A061656584F85850524659463846DD
:1059600000F08AFA2060B9F1000F01D0C9F80040B8
:10597000BDE8F09F30B5114900E011460A68824247
:10598000FBD34B685C18844203D1406818444860DC
:10599000084643681C18944209D1084C183C2468F6
:1059A000A24209D052681A4442600A681268026032
:1059B000814200D0086030BD0460F9E7900100200A
:1059C00070B5002441600B4D0061914206D8D11A98
:1059D0008269914206D2011D286907E09A4203D2EA
:1059E000994201D3012403E0011DE86800F094FB13
:1059F000204670BD6001002010B5044600F0B0FBE9
:105A0000A06B28B15FF0000400F0CAFB204610BD77
:105A10000124F9E730B589B03C4D6EE004980028C8
:105A200006DADDE90601059A90470498002864DB50
:105A3000069C606910B1201D00F036FB03A800F041
:105A4000D7F8024604980A2857D2DFE800F0050587
:105A5000052D334A05052D3394F8280040F0010048
:105A600084F828000599A069059B01442046FFF7AA
:105A7000A7FF68B3216A2046884794F828004007AA
:105A80003BD5002000900598A169002342181946D3
:105A9000204601F0CBFBD8B9502080F31188BFF32A
:105AA0004F8FBFF36F8FFEE714F8280F20F001002F
:105AB000207022E094F8280040F0010084F82800CB
:105AC0000598A06128B1811813462046FFF778FF9A
:105AD00013E0502080F31188BFF34F8FBFF36F8F17
