:020000040800F2
:10000000505A0020610200082D30000883250008A6
:10001000C52F00088F0400085D3A000800000000AA
:10002000000000000000000000000000A101000826
:10003000C905000800000000FD0100089930000813
:100040007B0200087B0200087B0200087B0200089C
:100050007B0200087B0200087B0200087B0200088C
:100060007B0200087B0200087B020008AD04000848
:10007000B90400087B020008C50400087B020008E0
:10008000D1040008DD0400087B0200087B020008A0
:100090007B0200087B0200087B0200087B0200084C
:1000A0007B0200087B020008593100087B0200082F
:1000B0007B0200087B0200087B0200087B0200082C
:1000C0007B0200087B0200087B0200087B0200081C
:1000D0007B020008B9390008C5390008453A000814
:1000E0007B0200087B0200087B0200087B020008FC
:1000F0007B0200087B0200087B020008E90400087C
:100100007B0200087B0200087B0200087B020008DB
:100110007B0200085D340008753100087B0200088E
:100120007B020008F5040008010500087B020008B6
:100130007B0200087B0200087B0200087B020008AB
:100140007B0200087B0200087B0200087B0200089B
:100150007B0200080D05000819050008513A000847
:100160007B0200087B0200087B0200087B0200087B
:100170007B0200087B0200087B02000800000000F0
:100180007B0200087B020008DFF810D000F042F983
:1001900000480047F93C0008AFF30080505A0020A7
:1001A0002C4B19680868B0E8F04F80F30988BFF35A
:1001B0006F8F4FF0000080F311887047000000003F
:1001C00008480068006880F308884FF0000080F35A
:1001D000148862B661B6BFF34F8FBFF36F8F00DF35
:1001E00000BF00BF08ED00E0DFF80C00016841F43B
:1001F00070010160704700BF88ED00E0EFF30980F7
:10020000BFF36F8F134B1A681EF0100F08BF20ED5D
:10021000108A20E9F04F106009B44FF0500080F3CD
:100220001188BFF34F8FBFF36F8F04F0AFFE4FF015
:10023000000080F3118809BC19680868B0E8F04F25
:100240001EF0100F08BFB0EC108A80F30988BFF3CE
:100250006F8F7047FC000020EFF3058070470000AF
:100260000648804706480047FEE7FEE7FEE7FEE750
:10027000FEE7FEE7FEE7FEE7FEE7FEE7493100089E
:10028000890100082DE9F05F0546002092469B4653
:1002900088460646814640241BE02846414647469C
:1002A000224600F06FF853465A46C01A914110D3C7
:1002B00011461846224600F056F82D1A67EB010841
:1002C0004F4622460120002100F04DF817EB0009AF
:1002D0004E41201EA4F10104DFDC484631462A4687
:1002E0004346BDE8F09F40EA01039B0703D009E0C5
:1002F00008C9121F08C0042AFAD203E011F8013B12
:1003000000F8013B521EF9D27047D2B201E000F86A
:10031000012B491EFBD270470022F6E710B51346A9
:100320000A4604461946FFF7F0FF204610BD01F0CB
:10033000004330B421F0004150EA010206D00A0D1A
:10034000A2F56072C1F31301002A02DC30BC002068
:100350007047440F44EAC104C100E01830BC00EB10
:10036000C25000F01FB8202A04DB203A00FA02F144
:10037000002070479140C2F1200320FA03F3194393
:1003800090407047202A04DB203A21FA02F0002135
:10039000704721FA02F3D040C2F120029140084395
:1003A000194670470029A8BF7047401C490008BF84
:1003B00020F00100704710B4B0FA80FC00FA0CF095
:1003C00050EA010404BF10BC704749B1CCF12004CD
:1003D00021FA04F411FA0CF118BF0121214308435A
:1003E000A3EB0C01CB1D4FEA00614FEA102042BF86
:1003F000002010BC704700EBC35010440029A4BF7C
:1004000010BC7047401C490008BF20F0010010BC20
:1004100070470000064C074D06E0E06840F001031D
:1004200094E8070098471034AC42F6D3FFF7B0FECB
:100430005C5C00087C5C000870B58C1810F8015BEF
:1004400015F0070301D110F8013B2A1106D110F86D
:10045000012B03E010F8016B01F8016B5B1EF9D171
:100460002B0705D40023521E0DD401F8013BFAE7F7
:1004700010F8013BCB1A921C03E013F8015B01F862
:10048000015B521EF9D5A142D8D3002070BDFEE712
:10049000054D4FF4FA74204603F0E6FC042128468B
:1004A00000F05AFBF7E7000000100240014800F09E
:1004B000E9B80000E8040020014800F0E3B80000BB
:1004C00028070020014800F0DDB800008807002060
:1004D000014800F0D7B8000068060020014800F08D
:1004E000D1B80000C8060020014800F0CBB80000D9
:1004F00048050020014800F0C5B80000E8070020CA
:10050000014800F0BFB80000A8050020014800F035
:10051000B9B8000048080020014800F0B3B8000056
:100520000806002001681823CAB2103AB2FBF3F2A1
:10053000054B6FF30901032A9B5CC36500D9091DB4
:100540008165084670470000F45B000810B501465D
:1005500000208B698A6A4FF0C07453B1B3F5005F15
:1005600015D072B1012A0CD0022A0AD0032A09D16F
:1005700004E01AB1012A06D0022A03D1C96AC901CE
:1005800000D5012010BDC96AA142FAD010BD002AD1
:10059000F7D0012AF2D0022AF3D0032AF3D010BDFB
:1005A00030B50468256825F48025256004686360FB
:1005B0008368402B036803D099600068C26030BD37
:1005C0009A600068C16030BD704772B6FEE72DE9E1
:1005D000F0410446876D00F0CDFA064694F83500E8
:1005E0000025022806D08020606584F83450012060
:1005F000BDE8F0812068016821F0160101602068E3
:10060000416921F080014161206C08B9A06C20B1E2
:100610002068016821F0080101602068016821F06C
:10062000010101600CE000F0A5FA801B052807D944
:1006300020206065032084F8350084F83450D7E723
:1006400020680068C007EED194F85C103F20884015
:10065000B860012084F8350084F834500020C7E7E2
:1006600090F83510022903D08021416501207047A0
:10067000052180F835100068016821F00101016052
:10068000002070472DE9F84304464FF00009CDF8EB
:10069000009063484FF41651A56D0068B0FBF1F768
:1006A0002E6894F85C10082000FA01F131420FD056
:1006B00021680A6852070BD50A6822F004020A6012
:1006C00094F85C108840A860606D40F0010060659F
:1006D00094F85C104FF0010808FA01F0304208D09D
:1006E00021684969090604D5A860606D40F00200E0
:1006F000606594F85C1004208840304208D021687E
:100700000968890704D5A860606D40F00400606541
:1007100094F85C1010208840304218D02168096895
:10072000090714D5A86020680168490304D500684A
:10073000000308D5A16C07E00168C90503D401686E
:1007400021F008010160216C09B12046884794F826
:100750005C1020208840304231D021680968C906E9
:100760002DD5A86094F8350005282068016806D0CA
:10077000490347D5006800031DD4616C1CE021F0DB
:10078000160101602068416921F080014161206CFF
:1007900008B9A06C20B12068016821F0080101604F
:1007A00094F85C103F208840A86084F8358084F875
:1007B0003490216D1FE0E16B09B120468847606DE0
:1007C00000282BD0606DC00714D0052084F83500B8
:1007D0002068016821F0010101600098401C009030
:1007E000B84203D820680068C007F6D184F8358085
:1007F00084F83490E16C002910D001B02046BDE8A7
:10080000F04308470168C905D5D4016821F01001FB
:10081000016084F8358084F83490CCE7BDE8F88333
:10082000240000202DE9F041044600F0A3F906461B
:100830005CB1022084F83500002584F8345020682B
:10084000016821F0010101600DE00120BDE8F081A7
:1008500000F090F9801B052805D920206065032051
:1008600084F83500F2E720680068C007F0D12268FC
:10087000116820480140D4E901031843D4E9033644
:100880003343184363691843A3691843E369184362
:10089000236A18430843616A042903D1D4E90B137E
:1008A00019430843106020684069666A20F0070118
:1008B00030460E43012704280CD1A06A0643E06AA3
:1008C00040B12046FFF742FE20B14020606584F829
:1008D0003570BAE7206846612046FFF723FE94F89A
:1008E0005C203F2191408160656584F8357000206F
:1008F000ACE700003F8010F02DE9F0410446866D22
:1009000090F83400002501280DD0012084F834002F
:1009100094F835700020012F07D084F834000225A8
:100920002846BDE8F0810220FBE7022784F83570F5
:1009300060652046FFF734FE94F85C103F20884045
:10094000B0602068016841F016010160206C20B1A0
:100950002068016841F0080101602068016841F0E9
:1009600001010160DCE700002DE9F84FDFF8BCA1D0
:100970000022012503264FF00F090AF1040BAAF10A
:10098000040E00BF0B6805FA02F42340A34270D1A5
:100990000F7907F00307012F01D0022F16D18768C6
:1009A0004FEA420806FA08FC27EA0C07D1F80CC007
:1009B0000CFA08FC4CEA070CC0F808C04768A743CB
:1009C0000C79C4F3001494403C4344600C79E44334
:1009D000A4070AD0C4684FEA420C06FA0CF7BC43DD
:1009E0008F6807FA0CF72743C7600C7904F00304FB
:1009F000022C12D1D40800EB840CDCF820405707FD
:100A0000FF0E09FA07F824EA0804D1F8108008FA62
:100A100007F848EA0408CCF8208004684FEA420C42
:100A200006FA0CF7BC430F7907F0030707FA0CF737
:100A3000274307604C6814F4403F70D03C4C276853
:100A400047F480472760246822F0030704F48044B9
:100A50000094384C07EB040CDCF8084897074FEA81
:100A6000177809FA08F7BC43334FB84202D1002780
:100A700024E054E0314FB84201D101271EE0304F4D
:100A8000B84201D1022719E02E4FB84201D1032705
:100A900014E02D4FB84201D104270FE02B4FB8428C
:100AA00001D105270AE02A4FB84201D1062705E007
:100AB000284FB84201D1072700E0082707FA08F7B6
:100AC0002743CCF80878DAF800405746D1F804C03C
:100AD0009C435FEACC2C00D51C433C60DBF8004013
:100AE0005F46D1F804C09C435FEA8C2C00D51C43C0
:100AF0003C60DEF800407746D1F804C09C435FEAD2
:100B00008C3C00D51C433C60084F083F3C68D1F842
:100B100004C09C435FEACC3C00D51C433C60521CA3
:100B2000102AFFF42FAFBDE8F88F0000083C014009
:100B300044380240003001400000024000040240FE
:100B400000080240000C0240001002400014024065
:100B500000180240001C0240426921EA02030A40D8
:100B600043EA0241816170470AB18161704709041B
:100B7000FBE7000001488068704700001800002073
:100B800070B5040025D094F83D00002520B984F804
:100B90003C50204600F0B8F8242084F83D0020683E
:100BA000016821F0010101602068016841F4004101
:100BB00001602068016821F40041016000F05EFAE4
:100BC0004D4A6168914201D84C4900E04C49884245
:100BD00001D2012070BD4B492368B0FBF1F15E6882
:100BE00026F03F060E435E606368934206D94FF4D9
:100BF000967359434FF47A73B1FBF3F12368491CA0
:100C00001E6A26F03F06314319626168914210D88E
:100C10004900401EB0FBF1F2521CC2F30B02042A41
:100C200001D2042022E0B0FBF1F0401CC0F30B0025
:100C30001CE0A268F2B301EBC10303EB0116431EF3
:100C4000B3FBF6F35B1C43F480431B0549D092B31E
:100C500001EBC10202EB0111401EB0FBF1F0401CA0
:100C6000C0F30B0040F4804040F400402168CA69A2
:100C70004CF6FF739A431043C861D4E9071001434F
:100C80002068026822F0C00211430160D4E9030128
:100C900001432068826848F2FF339A431143816020
:100CA000D4E9050108432168CA6822F0FF02104315
:100CB000C86001E00EE016E02068016841F0010123
:100CC00001602564202084F83D00256384F83E50AF
:100CD000002070BD01EB4106431EB3FBF6F35B1C25
:100CE000B3E70120C2E701EB4101401EB0FBF1F088
:100CF000401CC0F30B00B7E7A086010080841E00F3
:100D000000093D0040420F0010B586B00446142192
:100D10006846FFF701FB14492068884221D1134837
:100D20000021026842F002020260006800F0020046
:100D300005904FF4406000901220CDE9010103209E
:100D400003900420049069460948FFF70DFE074808
:100D50001030016841F480010160006800F48000F7
:100D6000059006B010BD0000005800403038024029
:100D70000004024002488168027811448160704793
:100D8000180000200B4810B5016841F400710160A3
:100D9000016841F480610160016841F48071016083
:100DA000032000F09FF80F2000F006F800F050F844
:100DB000002010BD003C024030B505461F4887B0FA
:100DC0000024016841F010010160006806A900F0EC
:100DD0001000009001A800F031F90498A8B100F0CB
:100DE0004DF940001649174AB0FBF1F11648491E6B
:100DF000026040F2E732C0E90324C0E901148461D3
:100E000000F0B8FB040003D015E000F037F9E9E783
:100E10000D4800F02FFC04000DD1362000F034F80E
:100E2000102D07D200222946362000F03BF8074853
:100E3000056000E0012407B0204630BD4038024084
:100E400040420F0000100040A80800201C000020B5
:100E50000C4882B0016841F480410160006800F4F0
:100E6000804000900748001F016841F080510160F8
:100E70000068002200F0805000900F21901E02B008
:100E800000F010B844380240002809DB00F01F02CF
:100E9000012191404009800000F1E020C0F80011DC
:100EA00070470000F0B40E4B1B680C46C3F30223DE
:100EB000C3F10705042D00D90425191D072901D206
:100EC000002300E0DB1E012606FA05F1491E214041
:100ED00099409E40761E16403143F0BC02F0BFBDE3
:100EE0000CED00E0064900F0070208684FF6FF032A
:100EF000184040EA0220034A10430860704700008F
:100F00000CED00E00000FA052DE9F0470E46050063
:100F100065D0DFF81481D8F80000F7B200F00700C0
:100F2000B04207D288F80070D8F8000000F007003F
:100F3000B04254D128683D4C810712D5400703D5F3
:100F4000206840F4E05020602878000703D520682E
:100F500040F4604020602068A96820F0F000084359
:100F600020602878C0072DD03049686808390128EA
:100F700012D0022813D0032811D00968890700294C
:100F80002DDA216821F0030101432160FFF7F2FD12
:100F9000814641F2883A0EE009688903EFE7096863
:100FA0008901ECE7FFF7E6FDA0EB0901514502D905
:100FB0000320BDE8F0872068696800F00C00B0EB02
:100FC000810FEFD1D8F80010404601F00701B1427F
:100FD00007D90770006800F00700B04201D0012077
:100FE000E7E72878400705D52068E96820F4E05055
:100FF000084320602878000706D52068296920F476
:10100000604040EAC100206000F058F82168084ABA
:10101000C1F30311515CC8400649086006480068E6
:10102000FFF7CAFE0020C4E7003C02400838024037
:10103000FC5B0008240000201C0000200F2202603E
:101040000C4A136803F003034360136803F0F003D2
:101050008360136803F4E053C36012684FF4E053F5
:1010600003EAD20202610448006800F00700086049
:101070007047000008380240003C0240044805491F
:1010800000680968044AC1F38221515CC840704776
:1010900024000020083802400C5C00080448054980
:1010A00000680968044AC1F34231515CC840704786
:1010B00024000020083802400C5C0008154810B5D8
:1010C000006810F00C02144813D01449042A0FD001
:1010D000082A0ED10F4C241F2268236802F03F0219
:1010E0005B0207D52068C0F38810A0FB010106E071
:1010F000084610BD2168C1F38811A1FB000100233F
:10110000FFF7C0F82168C1F30141491C4900B0FB59
:10111000F1F010BD083802400024F40000366E01E2
:101120002DE9F84F04006ED02078DFF84C93C0070B
:10113000A9F104054AD009F104000168C1F3810155
:10114000012908D00068C0F3810002280AD1D9F82B
:101150000000400206D52868800337D56068002863
:10116000E1D033E06068B0F5803F10D0B0F5A02F3B
:10117000286810D020F480302860286820F480206F
:1011800028606068A8B1FFF7F5FC06460DE0286806
:1011900040F48030F4E740F480202860F7E700BF97
:1011A000FFF7E8FC801B642873D828688003F7D514
:1011B0000CE0FFF7DFFC064605E000BFFFF7DAFCB6
:1011C000801B6428F0D828688003F7D42078DFF8E3
:1011D000AC8280074FF0000A3ED5A748001D016889
:1011E00011F00C0F08D00068C0F3810002280BD169
:1011F000D9F80000400207D42868800716D5E068B7
:10120000012800D112E033E1E068B8B10120C8F84C
:101210000000FFF7AFFC064605E000BFFFF7AAFCA1
:10122000801B0228C0D828688007F7D52868216964
:1012300020F0F80040EAC10028600DE0C8F800A0E6
:10124000FFF798FC064604E0FFF794FC801B022899
:101250001FD828688007F7D42078000722D5864F4A
:1012600087486169703771B101210160FFF782FC25
:10127000064604E0FFF77EFC801B022809D8386888
:101280008007F7D50EE0C0F800A0FFF773FC064614
:1012900005E082E0FFF76EFC801B02287DD83868ED
:1012A0008007F7D42078400768D5DFF8CCB1002755
:1012B0000BF13C0BDBF80000C0000BD4DBF8001096
:1012C00041F08051CBF80010DBF80000012700F05E
:1012D000805000906B4E3068C00510D4306840F4E8
:1012E00080703060FFF746FC009005E0FFF742FC9D
:1012F0000099401A022850D83068C005F6D55E4ED5
:10130000A0686C3601280FD00528306810D020F076
:1013100001003060306820F004003060A068B8B18F
:10132000FFF728FC00900FE0306840F00100F4E780
:1013300040F004003060F7E7FFF71CFC0099411A09
:1013400041F28830814266D830688007F4D50EE0DB
:10135000FFF710FC009007E0FFF70CFC0099411A22
:1013600041F28830814256D830688007F4D42FB1DA
:10137000DBF8001021F08051CBF80010A069C8B351
:101380003D49091D0968C1F3810102294AD002289B
:10139000504607D0C8F8600000E03CE0FFF7EAFBE9
:1013A00004463BE04746C8F86000FFF7E3FB06460B
:1013B00005E000BFFFF7DEFB801B02282BD8286862
:1013C0008001F7D4D4E907010843A16A2E4A4908ED
:1013D00002EB0141626A41EA8211084394F82C1041
:1013E00040EA0161C9F8001001203866FFF7C2FB2E
:1013F000044606E03EE000BFFFF7BCFB001B0228EE
:1014000009D828688001F7D534E000BFFFF7B2FBA8
:10141000001B022802D90320BDE8F88F286880014C
:10142000F4D427E00128F7D0D9F80000E26900F4ED
:10143000800191421CD1226A00F03F01914217D1F4
:1014400047F6C071626A0140B1EB821F10D1A26AF7
:101450004FF0FF3300F4403103EB5202B1EB024F87
:1014600006D194F82C1000F07060B0EB016F01D041
:101470000120D1E70020CFE70438024000004742B6
:10148000800E4742007000400000FFFF7047704729
:1014900010B590F83C20012A22D0012280F83C208F
:1014A000CA688C6822F4407222434C6822F480623D
:1014B00022430C6822F4006222430C6922F4805219
:1014C00022434C6922F400522243C969002322F4CA
:1014D00080420A4301684A6480F83C30002010BD15
:1014E000022010BD70B590F83C20012A32D00124B2
:1014F00080F83C40022280F83D2003685A689D68CD
:1015000022F070060A6832435A60134B02689A420E
:1015100014D0B2F1804F11D0104B9A420ED0104B24
:101520009A420BD00F4B9A4208D00F4B9A4205D0EB
:101530000E4B9A4202D00E4B9A4204D1496825F0D4
:1015400080031943916080F83D40002180F83C10F1
:10155000084670BD022070BD00000140000400403C
:1015600000080040000C0040000401400040014021
:101570000018004010B5040003D094F83D0010B1ED
:1015800007E0012010BD002084F83C00204600F058
:101590001FF8022084F83D00211D206801F0F0FDB5
:1015A000012084F8460084F83E0084F83F0084F867
:1015B000400084F8410084F8420084F8430084F835
:1015C000440084F8450084F83D00002010BD000070
:1015D00008B501682248234A814207D1106840F0CB
:1015E00001001060106800F0010022E01D48001F9B
:1015F000B1F1804F0BD01C4B994210D1016841F0E2
:1016000002010160006800F00200009008BD01685E
:1016100041F001010160006800F00100F5E7134BA3
:10162000994211D1106840F480201060106800F4D5
:1016300080200090002205211A20FFF733FCBDE82E
:1016400008401A20FFF720BC094A9142DED1016808
:1016500041F480710160006800F48070D5E70000FB
:1016600000000140443802400004004000480140AE
:101670000020004090F83D10012901D00120704762
:10168000022180F83D100168CA6842F00102CA6078
:1016900000681149884214D0B0F1804F11D00F4931
:1016A00088420ED00E4988420BD00E49884208D09D
:1016B0000D49884205D00D49884202D00C49884224
:1016C00004D1816801F00701062903D0016841F0C7
:1016D000010101600020704700000140000400404B
:1016E00000080040000C00400004014000400140A0
:1016F0000018004070B5044690F83C000025012811
:1017000017D0012684F83C60022084F83D00206850
:10171000826822F0770222F47F42826008685028B3
:1017200038D00DDC20284FD005DC90B3102811D123
:101730004AE0022070BD302846D040280AD13BE064
:1017400060282FD070280DD0B0F5805F03D0B0F5A1
:10175000005F12D0012584F83D60002084F83C0031
:10176000284670BDCB68D1E90121206801F07DFDDC
:101770002068816841F0770109E0CB68D1E9012157
:10178000206801F072FD2068816841F48041816029
:10179000E1E719E0CA684968206801F03BFE502182
:1017A000206806E0CA684968206801F044FE6021AC
:1017B000206801F064FDCEE7CA684968206801F03E
:1017C00029FE40212068F4E7226801461046F0E730
:1017D00070472DE9F04104460068C66805694FF07E
:1017E0000007A90713D5B10711D5F91E0161012022
:1017F0002077206880698007204602D0FFF7E8FF45
:1018000004E000F0F7F8204600F089F92777680730
:1018100016D5700714D521686FF004000861022006
:1018200020772068806910F4407F204602D0FFF7BF
:10183000CFFF04E000F0DEF8204600F070F92777D3
:10184000280715D5300713D521686FF00800086107
:10185000042020772068C0698007204602D0FFF767
:10186000B7FF04E000F0C6F8204600F058F92777EB
:10187000E80616D5F00614D521686FF0100008614F
:10188000082020772068C06910F4407F204602D0ED
:10189000FFF79EFF04E000F0ADF8204600F03FF9AE
:1018A0002777E80708D0F00706D021686FF001001D
:1018B0000861204600F098F9280608D5300606D5BC
:1018C00021686FF0800008612046FFF7DFFD6806A1
:1018D00008D5700606D521686FF0400008612046E3
:1018E00000F0B2F9A8060AD5B00608D521686FF055
:1018F000200008612046BDE8F041FFF7C8BDBDE803
:10190000F0810000F0B587B0044614216846FEF768
:1019100003FD324A21680025314802240127914203
:101920000ED1016841F0100101600068694600F0C5
:10193000100005904FF4D4408DE83100294847E06D
:10194000294A2A4EB1F1804F23D0294B994243D1E5
:10195000016841F001010160016801F00101059198
:10196000016841F0020101600068694600F0020070
:101970000590C0208DE83100CDE903541046FEF7F4
:10198000F3FF03208DE83100CDE90354694630466A
:1019900020E0016841F001010160016801F00101EE
:1019A0000591016841F0020101600068694600F09C
:1019B0000200059048F20C008DE83100CDE9035794
:1019C0001046FEF7D1FF08208DE831006946304609
:1019D000CDE90357FEF7C8FF07B0F0BD0000014096
:1019E0003038024000100240000002400004024073
:1019F00000040040704770B5044690F83C00002693
:101A00000D4601280FD0012084F83C006AB1042A59
:101A10001DD0082A2FD00C2A3FD00126002084F8A0
:101A20003C00304670BD022070BD206801F030FCE3
:101A30002068816941F0080181612068816921F095
:101A400004018161206881692A69114311E02068DD
:101A500001F04EFC2068816941F4006181612068D9
:101A6000816921F480618161206881692A6941EA84
:101A700002218161D2E7206801F070FC2068C16911
:101A800041F00801C1612068C16921F00401C16110
:101A90002068C1692A69114311E0206801F092FCB5
:101AA0002068C16941F40061C1612068C16921F405
:101AB0008061C1612068C1692A6941EA0221C1616E
:101AC000ACE710B5040003D094F83D0010B107E076
:101AD000012010BD002084F83C00204600F01EF8D4
:101AE000022084F83D00211D206801F049FB0120FF
:101AF00084F8460084F83E0084F83F0084F84000F3
:101B000084F8410084F8420084F8430084F84400DB
:101B100084F8450084F83D00002010BD70477047F0
:101B200010B50446022249B104290ED0082913D069
:101B300094F84100012816D0012010BD94F83E0011
:101B40000128F9D184F83E200FE094F83F000128E5
:101B5000F2D184F83F2008E094F840000128EBD14E
:101B600084F8402001E084F841200122206801F03F
:101B70006FFB16492068164A884201D0904203D173
:101B8000436C43F4004343642068884213D0B0F1AF
:101B9000804F10D00F4988420DD00F4988420AD09B
:101BA0000E49884207D0904205D00D49884202D0A4
:101BB0000C49884204D1816801F00701062903D04D
:101BC000016841F001010160002010BD00000140EA
:101BD000000401400004004000080040000C0040E8
:101BE000004001400018004038B504460020009035
:101BF0000F492068884202D169460E4804E00E4928
:101C000088420ED10D486946006803F054FC0098E4
:101C100038B10B494FF080500860BFF34F8FBFF3CE
:101C20006F8F08492068884201D1FFF7A3F838BDBB
:101C300000480140500000200020004054000020D7
:101C400004ED00E0001000407047704710B50446F6
:101C50000068406994F84110C0F3C010212911D1E7
:101C600080B12068143050E8001F21F0800140E866
:101C70000012002AF5D1A06B08B1FEF7A8FC20469F
:101C800001F0BDFC2068406994F84210C0F3801058
:101C9000222911D180B12068143050E8001F21F0B2
:101CA000400140E80012002AF5D1E06B08B1FEF7D0
:101CB0008EFC204601F07CFC002010BD7047000027
:101CC000F8B5016804460868CA684B6910F00F0F40
:101CD0004FF0000559D003F0010602F49077374326
:101CE00065D0C10705D0D10503D5616C41F0010174
:101CF0006164410705D5D90703D0616C41F0020149
:101D00006164810705D5D90703D0616C41F00401F6
:101D10006164010707D502F02001314303D0616CF3
:101D200041F008016164616C00293AD0800604D555
:101D3000900602D5204601F070FC20684069616C75
:101D4000C0F38010090700D460B3204601F030FCD6
:101D500020684069400621D52068143050E8001FF3
:101D600021F0400140E80012002AF5D1E06BA8B153
:101D700072490165E06BFEF773FC002811D0E06B3F
:101D8000016D01B0BDE8F040084783060FD593060A
:101D90000DD52046BDE8F84001F03FBC2046FFF7D6
:101DA0008DFFF8BD2046FFF789FF6564F8BD266BFF
:101DB0002023012E7ED1C6067CD5D6067AD50868AA
:101DC0004868009048694FF0020640064DD5E26B26
:101DD000106840684FF480770004000C3AD0A18D61
:101DE000814237D9E085D069B8422DD020680C30C7
:101DF00050E8001F21F4807140E80012002AF5D15C
:101E00002068143050E8001F21F0010140E8001262
:101E1000002AF5D12068143050E8001F21F040015D
:101E200040E80012002AF5D184F84230256320688A
:101E30000C3050E8001F21F0100140E80012002A89
:101E4000F5D1E06BFEF7C3FB6663A08DE18D401A10
:101E500081B206E0A18D8142A8D1D069B842A5D156
:101E600066632046FFF7F1FEF8BDA08DE18D401AB4
:101E700081B2E08D0028F7D00029F5D020680C3021
:101E800050E8002F22F4907240E80027002FF5D18F
:101E90002068143050E8002F22F0010240E80027AB
:101EA000002FF5D184F84230256320680C3050E8CB
:101EB000002F00E006E022F0100240E80023002B93
:101EC000F3D1CDE705062BD5150629D594F84100A9
:101ED0002128C9D1A068B0F5805F01D12069B0B1D7
:101EE000206A411C2162216800784860E08C401E15
:101EF0000004000CE084B7D12068C16821F08001A3
:101F0000C1602068C16841F04001C160F8BD206A2D
:101F10000088C0F308004860206A801C2062E5E762
:101F20004006F3D55006F1D5CA68204622F040029B
:101F3000CA6084F8413000F017FBF8BD693400082E
:101F400070B5040004D094F84100002510B106E0FB
:101F5000012070BD84F84050204600F023F8242072
:101F600084F841002068C16821F40051C160204616
:101F700001F0F8FB2068016921F4904101612068BB
:101F8000416921F02A0141612068C16841F4005192
:101F9000C1606564202084F8410084F842006563D4
:101FA000002070BD2DE9F04F87B00446142168462B
:101FB000FEF7B2F9F848F74ED4F800C0F64A1038E8
:101FC0000327022108230025B4451BD1146844F4DB
:101FD00000241460126802F400220592026842F0A4
:101FE000010202600068CDE9007100F00100CDE956
:101FF0000430CDE902576946E848FEF7B5FC07B062
:10200000BDE8F08FDFF898834FF040094FF0006A89
:102010004FF48066C44563D1D2F800C04CF4801CF4
:10202000C2F800C0126802F480120592026842F001
:1020300004020260026802F004020592026842F0A3
:10204000080202600068884600F008000590B000B1
:10205000CDE900080DF1080C9B468CE8A008694604
:10206000D048FEF781FC0420CDE900080DF10808F6
:10207000694688E8A008CC48FEF776FCCC4FCB48F0
:102080003860C7E901A5C7E903567D61BD61FD61FF
:102090003D6238467D62FEF7C5FB08B1FEF795FA52
:1020A000E763BC63C24FC1486037A830C7F80890E7
:1020B000C7E903567D61BD61FD613D627D62C7E98F
:1020C000000A3846FEF7AEFB08B1FEF77EFAA763BA
:1020D000002205213520BC63FEF7E4FE352066E0D2
:1020E000DFF8D082DFF8B0E24FF0070B0EF1040EFC
:1020F000C4455FD1DEF8003043F01003CEF8003065
:10210000DEF8002002F010020592026842F001029F
:102110000260006800F0010005904FF4C0608DE897
:10212000A30869469D48FEF71FFCDFF88482A24998
:1021300008F1C0084046C8F80010C0E901A5C0E990
:102140000356C8F81450C8F81850C8F81C50C8F8FE
:1021500020505746C8F82450FEF764FB08B1FEF73C
:1021600034FAC4F83C80C8F83840DFF8508292490D
:1021700040467831C0E90356C8F81450C8F81850E2
:10218000C8F81C50C8F8205088E88202C8F82450CB
:10219000FEF748FB08B1FEF718FAC4F838800022B1
:1021A00005212520C8F83840FEF77CFE2520FEF7E3
:1021B0006BFE24E7DFF80882C4454AD1136843F474
:1021C00000331360126802F400320592026842F094
:1021D00008020260006800F00800059060208DE8A9
:1021E000A30869467048FEF7BFFB744F6F4860371D
:1021F00078303860C7E901A5C7E903567D61BD6144
:10220000FD613D6238467D62FEF70CFB08B1FEF7CA
:10221000DCF9E763BC63694F6448C0379030C7F8A6
:102220000890C7E903567D61BD61FD613D627D6235
:10223000C7E9000A3846FEF7F5FA08B1FEF7C5F916
:10224000A763002205212620BC63FEF72BFE262073
:10225000ADE7DFF87081C4454AD1136843F48023A9
:102260001360126802F480220592026842F00802AC
:102270000260006800F0080005904FF440708DE89F
:10228000A30869464848FEF76FFB48484E4F183090
:102290003860C7E901A5C7E903567D61BD61FD61ED
:1022A0003D6238467D62FEF7BDFA08B1FEF78DF952
:1022B000E763BC63444F3D4860374830C7F8089037
:1022C000C7E903567D61BD61FD613D627D62C7E97D
:1022D000000A3846FEF7A6FA08B1FEF776F9A763BA
:1022E000002205212720BC63FEF7DCFD27205EE7E6
:1022F000364A94457FF45DAFDEF800C04CF0200C08
:10230000CEF800C0DEF8002002F02002059202683C
:1023100042F0040202600068049300F0040005909B
:10232000C0208DE8A30069461E48FEF71DFB264F1E
:102330002148C037183838604FF02068C7E9018558
:10234000C7E903567D61BD61FD613D6238467D622E
:10235000FEF768FA08B1FEF738F9E763BC631C4F73
:102360001548C7E903567D61BD61FD613D6260307E
:102370007D6287E801033846FEF754FA08B1FEF79C
:1023800024F9A763002205214720BC63FEF78AFDDC
:1023900047200CE7004C004040380240000002405B
:1023A0000050004000080240000C02401060024053
:1023B000E8040020001001404064024008060020AC
:1023C000004400400048004028070020001401405D
:1023D0004808002090F84230202B01D0022070479E
:1023E00021B11AB10023036301F042BA0120704702
:1023F00090F84230202B01D00220704721B11AB151
:102400000023036301F084BA0120704710B501680E
:102410004968094AC9B25171084A90420AD108462E
:1024200001F0A4FD04490122BDE81040491D034804
:10243000FFF7DEBF10BD0000280000205804002078
:1024400070472DE9F843044690F841009846164637
:102450000D46202802D00220BDE8F88385B17EB168
:1024600000206064212084F84100FEF783FBA684ED
:102470008146E684A0682027B0F5805F02D003E0A3
:102480000120E9E7206910B12E4600250EE0002664
:102490000CE08021204601F056FAA8B9C6B116F822
:1024A000010B21684860E08C401EE084E08C4B46C4
:1024B0004FF00002CDF800800028EAD14FF0400133
:1024C000204601F040FA40B184F841700320C3E790
:1024D00035F8020BC0F30800E3E784F841700020F0
:1024E000BAE7000070B5044690F84100202801D0FA
:1024F000022070BD01B3FAB12162A284E2840020FF
:102500006064212384F84130A56B144BEB63A56B09
:10251000134B2B64A56B134BEB64A36B18652068FE
:102520001346A56B021D2846FEF7E6F930B11020D0
:102530006064202084F84100012070BD21686FF0A4
:10254000400008602068143050E8001F41F080010E
:1025500040E80012002AF5D1002070BD6535000862
:10256000A73500087734000800680349884202D183
:10257000024900200870704700140140F00000205C
:102580007047FEE72DE9F04FB54B00225E78D3EDA2
:10259000100AD3ED0F1A93ED0E1A1F789FEDB10AB2
:1025A000B14DDFF8C8929FEDB22A4EE1845C552C04
:1025B0007ED100EB020A9AF801B0ABF15104032C72
:1025C00076D84FF0000C644602EB0408641C10F847
:1025D0000880E4B2C4440CF0FF0C0A2CF4D39AF83F
:1025E0000A4064457ED15446DC46BBF1510F09D008
:1025F000BCF1520F35D0BCF1530F5AD0BBF1540F80
:1026000055D1F0E0B4F902C002EE90CAF8EEE22A29
:1026100022EE803AF3EE002A63EE223A9FED953ADD
:1026200063EE833AC3ED013AB4F904C003EE90CAF5
:10263000F8EEE33A63EE803A63EEA23A63EE833A51
:10264000C3ED023AB4F906C003EE90CAF8EEE33ADD
:1026500063EE803A63EEA22A62EE832AC3ED032A78
:10266000D9E0B4F902C002EE90CAF8EEE22A62EEB6
:10267000802A9FED813A62EE832AC3ED042AB4F9E1
:1026800004C002EE90CAF8EEE22A62EE802A62EE00
:10269000832AC3ED052ABAF9064002EE904AF8EE05
:1026A000E22A62EE802A62EE832AC3ED062ABCE0AB
:1026B000D4E0B4F902C002EE90CAF8EEE22A62EE6B
:1026C000802A9FED6E3A62EE833AC3ED0A3AB4F97E
:1026D00004C002EE90CAF8EEE22A62EE802A22EEF0
:1026E000834A00E0AFE083ED0B4AB4F906C002EE86
:1026F00090CAF8EEE22A62EE802A62EE832AC3EDE7
:102700000C2A94F809C09AF8084044EA0C245C802A
:1027100093ED163A34EE434A83ED0B4A93ED153AA6
:1027200033EEC33A83ED0A3AD3ED173A72EEE33A49
:1027300073EE412AC3ED0C3A12EE904AAC4202DD30
:102740005C6E641E05E012EE904A4C455C6E01D949
:10275000641C5C664FF4B47C04FB0CF402EE904AFB
:10276000F8EEE22A72EE832AC3ED112A74EE612A92
:1027700012EE904AAC4202DD1C6E641E05E012EEC1
:10278000904A4C451C6E01D9641C1C664FF4B47C05
:1027900004FB0CF402EE904AF8EEE22A72EE842A70
:1027A000C3ED122A73EEE02A12EE904AAC4202DD2B
:1027B0009C6E641E05E012EE904A4C459C6E01D959
:1027C000641C9C664FF4B47C04FB0CF402EE904A4B
:1027D000F8EEE22A72EEA32AC3ED132A2FBB0127DB
:1027E000C3ED142A21E0B4F902C002EE90CAF8EE5B
:1027F000E22AC3ED072AB4F904C002EE90CAF8EE4B
:10280000E22AC3ED082AB4F906C002EE90CAF8EE37
:10281000E22AC3ED092ABAF9084002EE904AF8EE1E
:10282000E22A82EE823A83ED0D3A66B9D3ED0A2AA6
:102830000126C3ED152AD3ED0B2AC3ED162AD3EDDD
:102840000C2AC3ED172A0B3292B202F10A048C4211
:10285000FFF4ACAE5E701F70BDE8F08F521CF3E762
:10286000700000200000003800008743000087C38C
:102870000000C842CDCC1C410000FA4400003443A3
:10288000084D92B04FF0FF3422466946E86E02F0E0
:1028900061FE0128F8D1BDF840106846FFF772FECE
:1028A000F2E700007000002010B500224221052050
:1028B00002F05AFC0849C86608B9FDF786FE4022B6
:1028C00006490748FFF786FD05480068C16841F0E2
:1028D0001001C16010BD000070000020E20C00205B
:1028E00010040020314808B5016841F480010160FE
:1028F000016801F480010091016841F40011016058
:102900000068002200F40010009005210B20FEF763
:10291000C9FA0B20FEF7B8FA002205210C20FEF7B9
:10292000C1FA0C20FEF7B0FA002205210E20FEF7B6
:10293000B9FA0E20FEF7A8FA002205211020FEF7B2
:10294000B1FA1020FEF7A0FA002205211120FEF7AF
:10295000A9FA1120FEF798FA002205212F20FEF790
:10296000A1FA2F20FEF790FA002205213920FEF768
:1029700099FA3920FEF788FA002205213A20FEF75D
:1029800091FA3A20FEF780FA002205214520FEF751
:1029900089FA4520FEF778FA002205214620FEF745
:1029A00081FABDE808404620FEF76EBA3038024092
:1029B00010B500F03DFBFFF777FF002000F004FBAF
:1029C000154A0021154801F08BFA154C124A0021D6
:1029D00020612432134801F083FA0F4A6061243ADF
:1029E0000021114801F07CFA0B4AE0606C3A0021AA
:1029F0000E4801F075FA084A6060483A00210C4818
:102A000001F06EFA044AA060903A0021094801F0F2
:102A100067FA206010BD0000AC5B00089130000830
:102A200000000020910400088128000859300008A7
:102A3000454A0008F14F00082DE9F04186B0142105
:102A40006846FDF769FC35480024016841F0100133
:102A50000160016801F010010591016841F0040175
:102A60000160016801F004010591016841F08001F5
:102A70000160016801F080010591016841F00101E8
:102A80000160016801F001010591016841F0020156
:102A90000160016801F002010591016841F008013F
:102AA000016000681E4E00F008000590002204211D
:102AB0003046FEF759F81B4F01220A213846FEF72F
:102AC00053F8DFF864800022C0214046FEF74CF83E
:102AD000042000900125CDE9015469463046039455
:102AE000FDF742FF05208DE8310069463846FDF7C5
:102AF0003BFF0A200090CDE9015469463846039413
:102B0000FDF732FFC0200090CDE9015469464046F0
:102B10000394FDF729FF06B0BDE8F081303802408C
:102B20000010024000080240000402400D4810B5A9
:102B30000B4901600C49416000214FF480428160E3
:102B4000C0E9031241618161C1610162FEF718F8B9
:102B5000002803D0BDE81040FDF737BD10BD0000D0
:102B6000005800407C010020A08601000C4810B5F0
:102B70000A49016040F21F314160002140F2E73212
:102B8000C0E9021201618161FEF7F4FC002803D064
:102B9000BDE81040FDF719BD10BD00000048014020
:102BA000A80200200C4810B50A49016040F21F310C
:102BB0004160002140F2E732C0E902120161816107
:102BC000FEF7D8FC002803D0BDE81040FDF7FDBC9F
:102BD00010BD000000200040F002002010B596B0AB
:102BE00000240F9410941194129413941C2168469D
:102BF0001494FDF791FB202107A8FDF78DFB3548C4
:102C00003349016040F23F61C0E9011440F2CF71E5
:102C1000C0E9031444618461FEF7ACFC08B1FDF720
:102C2000D4FC4FF480500F900FA92A48FEF762FDA4
:102C300008B1FDF7CAFC2748FEF743FF08B1FDF7CE
:102C4000C4FC139413A923481494FEF74BFC08B159
:102C5000FDF7BBFC602000909620CDE901040394B1
:102C600004940594002269461A480694FEF7C3FEB0
:102C700008B1FDF7AAFC042269461648FEF7BBFE20
:102C800008B1FDF7A2FC082269461248FEF7B3FE20
:102C900008B1FDF79AFC0C2269460E48FEF7ABFE20
:102CA00008B1FDF792FC0794089409944FF4005082
:102CB0000A94CDE90B4007A906480E94FEF7E8FBFD
:102CC00008B1FDF782FC0348FEF71CFE16B010BDEC
:102CD00000000140D001002010B58EB00024079400
:102CE000089409940A940B941C2168460C94FDF7EF
:102CF00013FB2B484FF08041016040F21F31C0E9C7
:102D0000011440F2CF71C0E903148461FEF732FC74
:102D100008B1FDF75AFC4FF48050079007A92048EE
:102D2000FEF7E8FC08B1FDF750FC1D48FEF7C9FEB0
:102D300008B1FDF74AFC0B940BA919480C94FEF757
:102D4000D1FB08B1FDF741FC602000909620CDE951
:102D500001040022694612480494FEF74CFE08B1B3
:102D6000FDF733FC042269460D48FEF744FE08B126
:102D7000FDF72BFC082269460948FEF73CFE08B126
:102D8000FDF723FC0C2269460548FEF734FE08B126
:102D9000FDF71BFC0248FEF7B5FD0EB010BD0000AC
:102DA0001802002010B58EB00024079408940994EE
:102DB0000A940B941C2168460C94FDF7ADFA2C483C
:102DC0002A49016040F21F31C0E9011440F2CF717D
:102DD000C0E903148461FEF7CDFB08B1FDF7F5FBF4
:102DE0004FF48050079007A92148FEF783FC08B1F3
:102DF000FDF7EBFB1E48FEF764FE08B1FDF7E5FBAF
:102E00000B940BA91A480C94FEF76CFB08B1FDF764
:102E1000DCFB602000909620CDE901040022694689
:102E200013480494FEF7E7FD08B1FDF7CEFB04223A
:102E300069460F48FEF7DFFD08B1FDF7C6FB082223
:102E400069460B48FEF7D7FD08B1FDF7BEFB0C2223
:102E5000694607480194FEF7CEFD08B1FDF7B5FBC2
:102E60000348FEF74FFD0EB010BD00000004004007
:102E7000600200200C4810B50A4901604FF4E131AE
:102E80004160002181600C22C160C0E904128161AF
:102E9000C161FFF755F8002803D0BDE81040FDF7E9
:102EA00094BB10BD004C0040380300200C4810B506
:102EB0000A4901604FF4E1314160002181600C2238
:102EC000C160C0E904128161C161FFF739F80028CF
:102ED00003D0BDE81040FDF778BB10BD00500040A6
:102EE000800300200C4810B50A4901604FF4E1311D
:102EF0004160002181600C22C160C0E9041281613F
:102F0000C161FFF71DF8002803D0BDE81040FDF7B0
:102F10005CBB10BD00100140C80300200C4810B578
:102F20000A4901604FF416514160002181600C2272
:102F3000C160C0E904128161C161FFF701F8002896
:102F400003D0BDE81040FDF740BB10BD0044004079
:102F5000100400200C4810B50A4901604FF4E1311B
:102F60004160002181600C22C160C0E904128161CE
:102F7000C161FEF7E5FF002803D0BDE81040FDF772
:102F800024BB10BD00480040580400200C4810B578
:102F90000A4901604FF4E1314160002181600C2257
:102FA000C160C0E904128161C161FEF7C9FF002858
:102FB00003D0BDE81040FDF708BB10BD0014014070
:102FC000A0040020FEE7000010B500F0BDFE0322C3
:102FD0000021012002F0C8F8114C0322002160609A
:102FE000012002F0C1F8A060616841B178B10D48DC
:102FF000FEF740FBBDE810400B48FEF73BBB5020FE
:1030000080F31188BFF34F8FBFF36F8FFEE750201F
:1030100080F31188BFF34F8FBFF36F8FFEE700007F
:103020004C000020A8020020F0020020FEE7000073
:1030300010B500228221082002F096F804490122EE
:103040008860BDE81040491D0248FFF7D1B9000073
:103050002800002058040020A12000F01FFD32208D
:1030600001F0E0FEA22000F019FD322001F0DAFEAE
:10307000A32000F013FD322001F0D4FEA42000F0C4
:103080000DFD322001F0CEFE642001F0CBFEE3E71F
:10309000012000F0E9FEFBE710B54FF0E0200069E9
:1030A00002F086FB012803D0BDE8104002F046B8CC
:1030B00010BD000030B593B030216846FDF72CF903
:1030C00014210CA8FDF728F91D480025016841F0DE
:1030D00080510160006800F080501190194801682B
:1030E00041F4804101600068022400F480401190A6
:1030F00001200090000401908001CDE906400C20E1
:103100000890A020CDE9090404200B906846FEF742
:1031100007F808B172B6FEE70CA90F2081E831006C
:103120004FF4A0500F904FF48050109005210CA840
:10313000FDF7EAFE002801D072B6FEE713B030BDFD
:1031400040380240007000400248016841F47001BC
:103150000160704788ED00E010B50448FEF739FBC8
:10316000BDE810400248FEF734BB0000D00100204B
:10317000A80200200148FEF72CBB0000A808002090
:10318000F0B50268274B284D284E294F294C4FF0A7
:10319000804C984209D0604507D0A84205D0B04283
:1031A00003D0B84201D0A04204D122F0700E4A6888
:1031B00042EA0E0298421BD0604519D0A84217D0AF
:1031C000B04215D0B84213D0A04211D01A4DA84237
:1031D0000ED01A4DA8420BD0194DA84208D0194D57
:1031E000A84205D0184DA84202D0184DA84203D1DC
:1031F00022F44075CA682A434D6922F080022A43AE
:103200008D68C5620D688562984201D0A04201D1E7
:1032100009690163016841F0040101600121416114
:103220000260F0BD000001400004004000080040C2
:10323000000C0040000401400040014000440140F7
:103240000048014000180040001C004000200040E1
:1032500010B501F01F030121046A99408C430462F8
:10326000016A9A401143016210BD10B5846842EAB8
:10327000032224F47F440A432243826010BD826803
:1032800022F070020A4342F007018160704700009B
:10329000F0B5036A026A22F00102026242688469A0
:1032A000124E24F073050C682C4323F002058B6842
:1032B0002B430D4DA84201D0B04205D123F00807A1
:1032C000CB683B4323F00403A84201D0B04205D1B0
:1032D0004D6922F4407215438A692A434260846131
:1032E000496841630362F0BD0000014000040140F1
:1032F000F0B5026A036A23F010030362436884692D
:103300000D6824F4E64444EA05248D6822F0200286
:1033100042EA05120F4D104EA84201D0B04206D12C
:10332000CF6822F0800242EA071222F04002A8424F
:1033300001D0B04207D14D6923F4406343EA8503CD
:103340008D6943EA85034360846149688163026251
:10335000F0BD00000000014000040140F0B5026A29
:10336000036A23F4807303624368C46922F4007221
:1033700024F073050C68124E2C438D6842EA052236
:103380000E4DA84201D0B04206D1CF6822F40062AF
:1033900042EA072222F48062A84201D0B04207D15B
:1033A0004D6923F4405343EA05138D6943EA05133D
:1033B0004360C4614968C1630262F0BD000001401E
:1033C0000004014030B5046A026A22F480520262AD
:1033D0004268C3690D6823F4E64343EA05238D6818
:1033E00024F4005444EA0534084DA84202D0084DA4
:1033F000A84204D14D6922F4804242EA851242601B
:10340000C36149680164046230BD000000000140EE
:103410000004014010B5036A046A24F00104046248
:10342000846924F0F00444EA021423F00A020A43F7
:103430008461026210BD10B5036A046A24F01004AE
:103440000462846923F0A00324F4704444EA023245
:1034500043EA01118261016210BD00000148FEF7DC
:103460002FBC00008003002010B5806B0021C185B7
:10347000FEF724FC10BD70B5846B2068406994F899
:103480004110C0F3C0100025212904D118B1E584F2
:10349000204600F0B4F82068406994F84210C0F368
:1034A0008010222904D118B1E585204600F080F86B
:1034B000606C40F0100060642046FEF7FFFB70BDBA
:1034C00010B50146806B096809684FF00002C90514
:1034D0002ED4C28501680C3151E8003F23F480737B
:1034E00041E80034002CF5D10168143151E8003F67
:1034F00023F0010341E80034002CF5D101681431B8
:1035000051E8003F23F0400341E80034002CF5D19E
:10351000202180F84210016B012909D101680C318A
:1035200051E8003F23F0100341E80034002CF5D1AE
:103530004263016B012902D0FEF768FF10BD818D47
:10354000FEF783FB10BD10B5806B01214163016B59
:10355000012902D0FEF774FF10BD818D4908FEF7E6
:1035600074FB10BD10B50146806B09680968C90578
:1035700016D40021C1840168143151E8002F22F0D3
:10358000800241E80023002BF5D101680C3151E89D
:10359000002F42F0400241E80023002BF5D110BD7E
:1035A000FEF7E2FF10BD10B5806BFEF7E9FF10BD1E
:1035B00001680C3151E8002F22F4907241E8002399
:1035C000002BF5D10168143151E8002F22F00102DF
:1035D00041E80023002BF5D1016B012909D10168D5
:1035E0000C3151E8002F22F0100241E80023002B9B
:1035F000F5D1202180F84210002101637047016855
:103600000C3151E8002F22F0C00241E80023002BCA
:10361000F5D1202180F84110704708B590F842108C
:10362000222901D0022008BD82684FF480539A42BB
:1036300001D1016921B1816A9A421BD04AB10AE0E5
:103640000268816A5268C2F308020A80816A891C92
:1036500008E0026972B10268526802F07F020A70E3
:10366000816A491C8162C18D491E0904090CC1850A
:1036700003D01BE002685268F1E70168CA6822F0D3
:103680002002CA600168CA6822F48072CA600168B8
:103690004A6922F001024A61202180F8421000218B
:1036A0004163026B012A03D0FEF7B0FE002008BD83
:1036B000016301680C3151E8002F22F0100241E84B
:1036C0000023002BF5D101680A68D20602D50A68EA
:1036D00049680091818DFEF7B8FAE7E70FB42DE94C
:1036E000F041DFF8748098F800009DF81870401ED3
:1036F000384227D0142F25D807AD184C00260CE0EF
:10370000ED1D25F00705B5EC020B51EC100BFCF795
:103710000EFE761C44F8040BF6B2BE42F0D3002035
:1037200004F8010B0D4904F8010B802004F8020B8A
:103730007F2004F8010C0948201A82B20848FEF7DD
:10374000D1FE20B10020BDE8F0015DF814FB01219D
:1037500088F800100846F6E7F0000020220D00204F
:10376000A004002070B5044600680169E26821F4F5
:103770004051114301612169A068E2690843616910
:10378000114308432168CA6849F20C639A43024313
:10379000CA6020684169A26921F440711143416106
:1037A00031492068884202D03049884202D1FDF771
:1037B00075FC01E0FDF762FCE26900231921642534
:1037C0003226B2F5004F626828D0A0FB0101930FAA
:1037D0009200FCF757FD0146B0FBF5F06FF01802C0
:1037E000504301EB800006EB0010B0FBF5F000F059
:1037F000F002B1FBF5F002EB0012B1FBF5F06FF057
:103800001803584301EB800006EB0010B0FBF5F005
:1038100000F00F0021681044886070BDA0FB01011A
:1038200092185B41FCF72EFD0146B0FBF5F002015A
:10383000B1FBF5F06FF01803584301EB800006EB85
:10384000C000B0FBF5F000F0F80002EB4002B1FB65
:10385000F5F0584301EB800006EBC000B0FBF5F03B
:1038600000F00700D6E700000010014000140140FE
:1038700038B58162044682850020134660642222A6
:1038800084F84220E56B1F4AEA63E56B1E4A2A640E
:10389000E56B1E4AEA64E26B10650A462168E06B3C
:1038A000091DFDF729F830B110206064202084F84C
:1038B0004200012038BD20680168406800902069FE
:1038C00048B120680C3050E8001F41F4807140E896
:1038D0000012002AF5D12068143050E8001F41F092
:1038E000010140E80012002AF5D12068143050E8A8
:1038F000001F41F0400140E80012002AF5D10020ED
:1039000038BD0000C134000847350008773400088E
:1039100081628285C28500214164222180F84210A3
:10392000016921B10168CA6842F48072CA60016805
:103930004A6942F001024A610068C16841F0200111
:10394000C160002070472DE9F843984617460D46A0
:103950000446089E24E0701C22D0FDF70BF9A0EB72
:103960000800B0421AD8CEB12068C168490717D5FF
:10397000802D15D0402D13D00168C94309070FD4FD
:1039800001680025406800902046FFF711FE0820DE
:10399000606484F840500120BDE8F8830320FBE711
:1039A0002068006835EA000004D00020B842D2D078
:1039B0000020F1E70120F9E70148FEF781B9000096
:1039C000C803002030B51B4C93B020680068C006C7
:1039D0002AD5206800250168406812902046FEF72D
:1039E00035F9E06B006840681349C0F1400082B2CD
:1039F000ADF840206846FCF776FC1048119500238E
:103A000011AA6946006801F0F7FC119838B10C4919
:103A10004FF080500860BFF34F8FBFF36F8F40228D
:103A200005490448FEF7D6FC13B00248BDE8304013
:103A3000FEF746B910040020E20C0020DC00002054
:103A400004ED00E00148FEF73BB9000058040020F7
:103A50000148FEF735B90000A0040020FEE7090781
:103A6000090E002804DB00F1E02080F80014704704
:103A700000F00F0000F1E02080F8141D704702E014
:103A800008C8121F08C1002AFAD1704770470020E9
:103A900001E001C1121F002AFBD1704710B598B098
:103AA0000446342101A8FCF737FCFF208DF8040000
:103AB0000EA9A12C54D0A22C7ED0A32C7DD0A42C56
:103AC0004CD15C4801AB028800EE102AB8EE400AE7
:103AD0008DED0E0A428800EE102AB8EE400A8DEDF8
:103AE0000F0A828800EE102AB8EE400A8DED100A07
:103AF000C28800EE102AB8EE400A8DED110A028944
:103B000000EE102AB8EE400A8DED120A428900EE4E
:103B1000102AB8EE400A8DED130A828900EE102AB1
:103B2000B8EE400A8DED140AC28900EE102AA422D4
:103B3000B8EE400A8DED150A008A00EE100AB8EEC4
:103B4000400A8DED160A00912421092000F0A3F807
:103B50006423282201A93848FEF773FC18B010BD71
:103B6000364890ED000A36488DED0E0A90ED000AB9
:103B700034488DED0F0A90ED000A33488DED100AA0
:103B800090ED000A31488DED110A90ED000A3048A1
:103B90008DED120A90ED000A2E488DED130A90ED7E
:103BA000000A2D488DED140A90ED000A2B488DED8A
:103BB000150A90ED000A01E006E01CE08DED160A02
:103BC00001ABA1220091BFE7254801ABA22290EDF5
:103BD000000A24488DED0E0A90ED000A22488DED72
:103BE0000F0A90ED000A8DED100A90ED010A8DED9F
:103BF000110A009116E01D4801ABA32290ED000AC6
:103C00001B488DED0E0A90ED000A1A488DED0F0A43
:103C100090ED000A18488DED100A90ED000A8DED28
:103C2000110A00911021042000F035F864231422B9
:103C300090E70000D00C0020580400207400002001
:103C4000780000207C0000208000002084000020FC
:103C500088000020980000209C000020A000002088
:103C6000F4000020F800002034000020E4000020D0
:103C7000E0000020E8000020EC00002078B50B46B2
:103C80006C4603E0C55C5E1A5B1CA5559342F9DDEA
:103C90009DED000A78BDF0B50025059F5A7099701A
:103CA0002C460EE0032207EB840606EB020C02EB27
:103CB000840E1CF803CC521C03F80EC0072AF4DB58
:103CC000641C8442EEDB0120CA1C03E01C5C401C27
:103CD0002C44E5B29042F9DB5818C570F0BD78B5B8
:103CE0000B466C4603E0C55C5E1A5B1CA55593420F
:103CF000F9DDBDF9000078BDFDF744F8FFF7DAF90A
:103D0000FEF79AFEFEF7EEFDFFF7ECF8FFF7B2F8CC
:103D1000FFF7CCF8FFF702F9FFF71CF9FFF736F9C8
:103D2000FEF704FFFEF75AFFFEF7D6FFFFF73AF85B
:103D3000FEF71CFFFEF736FF00F0A4F8FEF738FE92
:103D400000F0B2F8FEE7000070B52DED028B00F038
:103D50009DFD9FED1E8A0024641CE0B2B0EE480A6F
:103D600000F03AF8E4B2082CF6D341F2883001F0C2
:103D700059F8DFED178A0024641CE0B2B0EE680A3F
:103D800000F02AF8E4B2082CF6D34FF47A752846EE
:103D900001F048F80024641CE0B2B0EE480A00F0DC
:103DA0001BF8E4B2082CF6D3284601F03BF89FED4F
:103DB000098A0024641CE0B2B0EE480A00F00CF856
:103DC000E4B2082CF6D3BDEC028B70BD00000000FD
:103DD000000034430000FA43DFED1F0AB4EEE00AAE
:103DE000F1EE10FA01DDB0EE600ADFED1C0AB4EE70
:103DF000E00AF1EE10FA01D2B0EE600ADFED180A27
:103E0000092830EE201AB3EE040AC1EE000A9FED35
:103E1000150A30EE800ABCEEC00A10EE101A8AB203
:103E200019D2DFE800F01805070A0C10121416006A
:103E3000042100E00321012003E0042100E003212C
:103E4000022000F05DBD0221F5E70121F3E7022128
:103E5000F6E70121F4E7704700004844000048C439
:103E600000007A440000C84210B5EFF3058111B19B
:103E70006FF0050403E0002408B100F0D3FF2046F2
:103E800010BD0000EFF3058010B16FF00500704722
:103E90000448016811B14FF0FF3070470121016003
:103EA000002070474C01002010B5EFF3058010B1E1
:103EB0006FF0050010BD08480168012902D04FF0DD
:103EC000FF3010BD054A002182F8141D0221016057
:103ED00001F010F8002010BD4C0100200BE000E0C4
:103EE0002DE9FF414FEA01034FF00005EFF3058193
:103EF000039549BB40B38027182100244AB31668B4
:103F000006B1344696691EB13146761E382E02D26D
:103F10001679F60703D0002004B0BDE8F081566999
:103F200006B1B708D2F808C0BCF1000F0DD0D568B3
:103F30005C2D18D312693AB136B18DE806103A46B5
:103F4000214601F00AFC03900DE0D6685EB91269C3
:103F50004AB903AACDE90012BAB2214601F0D0FB5A
:103F6000012800D003950398D6E7000030B5284C0F
:103F70000025A3B02178052909D2DFE801F0030A62
:103F8000101A2800FF2802D120710120207023B0D0
:103F900030BD60702179084420710220F6E7A070DE
:103FA000217980280144217130D8E57068B103205F
:103FB000ECE7184AE1785054491CC9B2E170227903
:103FC00010442071A0788142E1D30420DEE72179FA
:103FD00081421BD160788DF80000A2788DF8012015
:103FE0000C490DF10200FCF77EF92195002321AA6E
:103FF0006946A06801F000FA219838B106494FF0EF
:1040000080500860BFF34F8FBFF36F8F2570BEE7FE
:1040100028000020F008002004ED00E02DE9F04128
:10402000134C0F460546E6682068001D00F0AFFC03
:10403000681C07D137B12168BDE8F0410D48091D62
:1040400000F0F4BC20683544B5424560216805D2D3
:10405000A06BBDE8F041091D00F0D0BC606B091DEC
:1040600000F0CCFCA06A854200D2A562BDE8F081D8
:10407000FC000020681200202DE9F041054600F008
:10408000F9FD2D4CA068401CA06020682B4F10B19A
:10409000606930B32BE02560A068012827D1002695
:1040A00006EB860007EB800000F09AFC761C382EA9
:1040B000F6D3234800F094FC2148143000F090FC23
:1040C0001F48283000F08CFC1D483C3000F088FC74
:1040D0001B48503000F084FC194860631430A06322
:1040E00005E02068E96AC06A884200D82560606AF5
:1040F000401C60626864E86A2169884200D92061D6
:1041000000EB800007EB8000291D00F08FFC00F021
:10411000D1FD606900280CD02068E96AC06A884235
:1041200007D208494FF080500860BFF34F8FBFF3AC
:104130006F8FBDE8F0810000FC000020B80D00206A
:104140001812002004ED00E038B500F093FD104C8B
:104150002068C8B90F4800F043FC0E48143000F046
:104160003FFC0C48E060143020610A4B0020F03B1B
:10417000009003F1500210210A2001F016F820608F
:1041800010B105A100F018FEBDE8384000F092BD66
:10419000380100206C130020546D725100000000A3
:1041A00030B4026C0B46002A0BD0C1681144C160C8
:1041B0008468A14201D30168C16030BC1846FCF795
:1041C00092B830BC70472DE9F041856B1746044624
:1041D0000026026C82B1C7B1E068FCF784F8E168A0
:1041E000206C091AE1602268914202D2A168081A83
:1041F000E060022F16D017E02068A8B9A06801F08F
:104200004FFB06460020A0600EE06068FCF76BF8EC
:10421000216C606808446060A168884204D320680B
:10422000606001E005B16D1E6D1CA5633046BDE800
:10423000F08110B5044690F8590058B101280CD00F
:1042400002280FD0502080F31188BFF34F8FBFF3A7
:104250006F8FFEE7206B00F041FD2046BDE8104067
:1042600000F03CBD10BD000010484FF470514207F3
:1042700006D0C01D0D4920F00700411AC1F570514C
:104280000B4A00230144C2E900030839183A21F01F
:10429000070111604B600B600B1AC0E900139360BB
:1042A0004FF0004053605061704700004C1A0020EE
:1042B00068010020144E154CA6F29C474FF0805820
:1042C000DFF84C9012E000BF00F0D4FCF068C56845
:1042D000281D00F05CFBA068401EA0606068401EC6
:1042E000606000F0E7FC2846FFF7A3FF6068002845
:1042F000EAD138680128F9D9C9F80080BFF34F8F97
:10430000BFF36F8FF2E7000054120020FC00002082
:1043100004ED00E070B51D46049C51B1C4F80020C6
:10432000C4E90F010121204600F072FF84F84C50CF
:1043300070BD2460F4E700002DE9F05F8846DDE9F8
:104340000B941546834691009A460A9EA522206B3F
:10435000FBF7DBFF6FF00301206B01EB85010844E5
:1043600020F00707780707D0502080F31188BFF3AB
:104370004F8FBFF36F8FFEE70025B8F1000F0FD00E
:104380005FF00000221818F8001082F8341018F8B6
:10439000001011B1401C1028F4D384F8435001E000
:1043A00084F83450382E00D33726E662C4E913650A
:1043B000201D00F020FB04F1180000F01CFB24611C
:1043C000C6F138006462A061656584F858505246B1
:1043D0005946384600F0B8FA2060B9F1000F01D014
:1043E000C9F80040BDE8F09F30B5114900E0114622
:1043F0000A688242FBD34B685C18844203D1406850
:1044000018444860084643681C18944209D1084C77
:10441000183C2468A24209D052681A4442600A68D3
:1044200012680260814200D0086030BD0460F9E784
:104430006801002070B5002441600B4D006191427D
:1044400006D8D11A8269914206D2011D286907E077
:104450009A4203D2994201D3012403E0011DE86886
:1044600000F0CCFA204670BD3801002010B504469B
:1044700000F000FCA06B28B15FF0000400F01AFC13
:10448000204610BD0124F9E730B589B03C4D6EE0FF
:104490000498002806DADDE90601059A9047049899
:1044A000002864DB069C606910B1201D00F06FFAE3
:1044B00003A800F0D7F8024604980A2857D2DFE88C
:1044C00000F00505052D334A05052D3394F8280025
:1044D00040F0010084F828000599A069059B01447B
:1044E0002046FFF7A7FF68B3216A2046884794F863
:1044F000280040073BD5002000900598A1690023C3
:1045000042181946204601F0D5FAD8B9502080F358
:104510001188BFF34F8FBFF36F8FFEE714F8280F9A
:1045200020F00100207022E094F8280040F0010003
:1045300084F828000598A06128B181181346204608
:10454000FFF778FF13E0502080F31188BFF34F8FFF
:10455000BFF36F8FFEE794F82800810703D420464D
:1045600000F0BCFB03E020F0010084F828000022EA
:1045700004A9286800F0EEFF002889D109B030BDF9
:10458000380100202DE9FC410F46054600F0F6FCFD
:1045900001A800F067F80446019818B101F0F8F995
:1045A000BDE8FC81254EAFB130690068D0B300276B
:1045B000291B3A46306800F013FC01F0E9F90028A5
:1045C000EED11F494FF080500860BFF34F8FBFF30B
:1045D0006F8FE5E7A542EBD801F0DAF9F0682746DE
:1045E000C068C468201D00F0D2F994F82800410783
:1045F00019D5A0692B4641193A462046FFF71AFF04
:10460000A8B100200346014600902A46204601F04A
:1046100051FA60B9502080F31188BFF34F8FBFF378
:104620006F8FFEE707E020F0010084F82800216A80
:1046300020468847B4E70127BAE700003801002088
:1046400004ED00E00648416B096829B1416BC96877
:10465000C9684968816270474FF0FF31FAE700008E
:10466000FC00002070B5054601F0B0F8064E044687
:10467000B068844203D200F009F8012000E0002075
:1046800028602046B46070BD38010020F8B5194D8F
:1046900020E0C068C4680668201D00F078F9216A2F
:1046A0002046884794F82800400713D5A069304475
:1046B000B04206D924616060211DE86800F09EF9CF
:1046C00008E000200346014600903246204601F0F3
:1046D000F1F938B1E86801680029DAD12969C5E93A
:1046E0000310F8BD502080F31188BFF34F8FBFF344
:1046F0006F8FFEE73801002008484068401C4FF0EB
:10470000500080F3118804D0BFF34F8FBFF36F8F39
:10471000FEE7BFF34F8FBFF36F8FFEE770010020FE
:10472000074CE068016841B1C0680021D0F8000082
:10473000FFF728FFFFF7A8FEF3E701210020F7E7C6
:10474000380100202DE9F041044600F093FA94F975
:10475000455004F1240609E0606A48B1304601F092
:10476000DFF808B100F08CFB6D1E6DB2002DF3DC9C
:104770004FF0FF3684F8456000F09CFA00F07AFABA
:1047800094F9445004F1100709E0206948B1384613
:1047900001F0C6F808B100F073FB6D1E6DB2002D7C
:1047A000F3DC84F84460BDE8F04100F083BA000017
:1047B0002DE9F0410546002700F0E0FB324E30685D
:1047C00008B9FFF751FD706905424ED1C5B30835F0
:1047D00068070ED005F00700C0F10800054468071F
:1047E00007D0502080F31188BFF34F8FBFF36F8F36
:1047F000FEE72DB37068854237D82348183001464C
:104800000C6801E020460C466168A94202D221688A
:104810000029F7D131688C4227D0076821680160F0
:1048200060680837411B10290FD96019420708D06A
:10483000502080F31188BFF34F8FBFF36F8FFEE7D7
:1048400013E041606560FFF7CFFD61687068401A52
:104850007060B268904200D2B0607069014300207D
:10486000C4E90001F068401CF06001F091F878079D
:1048700007D0502080F31188BFF34F8FBFF36F8FA5
:10488000FEE73846BDE8F0815001002010B5002158
:104890001848FDF745F904211648FDF741F90821AC
:1048A0001448FDF73DF90C211248FDF739F90021B4
:1048B0001148FDF735F904210F48FDF731F90821BA
:1048C0000D48FDF72DF90C210B48FDF729F90021C2
:1048D0000A48FDF725F904210848FDF721F90821C8
:1048E0000648FDF71DF9BDE810400C210348FDF70F
:1048F00017B90000D001002018020020600200203B
:10490000012805D002280FD0032806D10B480CE05F
:104910000B480AE0042900D10264704742637047E3
:1049200082637047C2637047064801290068F5D06A
:104930000229F5D00329F5D0ECE700006002002041
:10494000D00100201802002010B5031F4FF0807422
:104950001C601B1F21F001011960191F044B0B6023
:1049600014390A60091F6FF0020244380A6010BD52
:10497000F946000878B50B466C4603E0C55C5E1A44
:104980005B1CA5559342F9DDBDF8000078BDD0E968
:10499000013201699A60D0E901235A604A68824273
:1049A00001D182684A60002202610868401E0860E6
:1049B00008687047034B036003F15C0008608020C7
:1049C0001060704794130020044B036003F15C00F7
:1049D00008604FF48070106070470000F0150020F0
:1049E00000F108014FF0FF32C0E90112C16001611E
:1049F00000210160704700210161704730B50B68EC
:104A00005A1C02D000F1080202E0026904E02246CA
:104A1000546825689D42FAD953684B6099608A6052
:104A2000516008610168491C016030BD42684A60FC
:104A300093688B6093685960916008610168491CB4
:104A400001607047A2B0DFF8F881DFF8F8916E4698
:104A50004FF0FF326946D8F8080000F07BFD0128CE
:104A6000F6D19DF80000B5287DD00FDCB1287BD0B1
:104A7000B2287AD0B32879D0B428E9D10122002114
:104A8000B01CFFF777FF89F80100E1E7B6286ED088
:104A9000B7286DD0B8286CD0C628D9D16A4F002469
:104AA00003220021B01CFFF7E9F8C4EBC40007EBB8
:104AB000C005072285ED060A0421B01CFFF7DEF8C9
:104AC00085ED070A0B220821B01CFFF7D7F8641CFC
:104AD000E4B285ED080A082CE2D3DFF870A10024C7
:104AE0004FF0030B04EB440004EB440581000BEB97
:104AF0008502B01CFFF7C2F8C4EBC40107200AEB23
:104B0000C10700EB8502042000EB850187ED060A52
:104B1000B01CFFF7B3F80B2000EB8502082000EB78
:104B2000850187ED070AB01CFFF7A8F8641CE4B202
:104B300087ED080A062CD5D35A225421B01CFFF762
:104B40009DF8434C5E225B2184ED000AB01CFFF708
:104B500095F884ED010A62225F21B01CFFF78EF800
:104B600084ED020A74E74BE004E03AE040E04FE0F5
:104B700056E05DE001220021B01CFFF7B0F8354C93
:104B8000032202212080B01CFFF7A9F860800522D3
:104B90000421B01CFFF7A3F8A08007220621B01C57
:104BA000FFF79DF8E08009220821B01CFFF797F875
:104BB00020810B220A21B01CFFF791F8264A608160
:104BC00021881180254A618811802549A2880A80A0
:104BD000244AE1881180244A2189118023490880D0
:104BE00036E701220021B01CFFF7C4FE20490870FF
:104BF00001220021B01CFFF7BDFE89F8000027E765
:104C000001220021B01CFFF7B5FE89F802001FE762
:104C100001220021B01CFFF7ADFE89F8060017E75E
:104C200001220021B01CFFF7A5FE89F807000FE75D
:104C300001220021B01CFFF79DFE89F8030007E761
:104C40002800002068000020D80A002088090020E1
:104C50007C090020700900203C0000203E0000205C
:104C600040000020420000204400002046000020B8
:104C700048000020502080F31188BFF34F8FBFF30E
:104C80006F8F0A494868401C486001280CD10848C9
:104C9000006810F0FF0F07D0502080F31188BFF399
:104CA0004F8FBFF36F8FFEE7704700007001002049
:104CB00004ED00E00849486828B1401E486001D171
:104CC00080F311887047502080F31188BFF34F8F15
:104CD000BFF36F8FFEE700007001002070B5002861
:104CE0002AD0164DA0F1080460686969084207D10E
:104CF000502080F31188BFF34F8FBFF36F8FFEE713
:104D000022683AB1502080F31188BFF34F8FBFF370
:104D10006F8FFEE78843606000F030F96068696873
:104D2000084468602046FFF75FFB2869401C286143
:104D3000BDE8704000F02CBE70BD000050010020A6
:104D40004FF0E02000210161816105494FF47A7242
:104D50000968B1FBF2F1491E416107210161704709
:104D60002400002010B5FBF777FA114910280ED364
:104D700000F1E02090F8F0030A78904207D250202A
:104D800080F31188BFF34F8FBFF36F8FFEE70948A1
:104D90000068896800F4E060884207D9502080F3F9
:104DA0001188BFF34F8FBFF36F8FFEE710BD000078
:104DB000700100200CED00E010B5084B002200BF90
:104DC00053F832401CB1521C082AF9D310BD43F8E5
:104DD000321003EBC201486010BD0000780D0020C6
:104DE00070B515460E460446FFF744FF94F944108B
:104DF0000020491C01D184F8440094F94510491C55
:104E000001D184F84500FFF755FFA06B28B92A4669
:104E1000314604F1240000F051F82046BDE870400E
:104E2000FFF790BC10B5020014D00F48006B38B1EA
:104E3000502080F31188BFF34F8FBFF36F8FFEE7D1
:104E400000F09CF800211046FFF7E8F800F0A0FD04
:104E5000002807D105494FF080500860BFF34F8FFD
:104E6000BFF36F8F10BD0000FC00002004ED00E0D8
:104E700002490A6A0260C96841607047FC0000206C
:104E800001490120C8617047FC00002010B50C46A4
:104E900050B1094909681831FFF7B0FD2046BDE857
:104EA00010400121FFF7BAB8502080F31188BFF3FA
:104EB0004F8FBFF36F8FFEE7FC00002070B51446E4
:104EC0000D4668B10A4909681831FFF7AFFD0CB10A
:104ED0004FF0FF3521462846BDE87040FFF79EB8E9
:104EE000502080F31188BFF34F8FBFF36F8FFEE721
:104EF000FC00002030B587B00024039405AA04A963
:104F000003A80494FFF756FDDDE903010094CDE901
:104F10000110002315A11748059A00F01EFC164D3C
:104F20000028E8621FD000F095FD012809D0401C40
:104F300019D1502080F31188BFF34F8FBFF36F8FCB
:104F4000FEE7502080F31188BFF34F8FBFF36F8FC0
:104F50004FF0FF30A86201206861EC6007B0BDE847
:104F6000304000F071B807B030BD000049444C45F6
:104F700000000000B5420008FC0000200248016B60
:104F8000491C016370470000FC000020164810B562
:104F9000016B11B10121C16110BD0021C161016925
:104FA000124A01E0B9B1491E01EB810352F82330E6
:104FB000002BF7D001EB810302EB830202F108041E
:104FC00053685B685360A34201D15B685360DA6841
:104FD0000260016110BD502080F31188BFF34F8F34
:104FE000BFF36F8FFEE70000FC000020B80D00202B
:104FF0000EB50F4C0F4D104E104FDFF84480DFF808
:10500000449000BFB6F90000B4F90020B5F90010D3
:105010008DE80700B7F90030B8F90020B9F90010A1
:105020000620FEF75BFBC820FFF7FCFEEAE7000066
:1050300046000020440000204200002040000020E4
:105040003E0000203C0000201CB537480168374A6C
:10505000914207D1502080F31188BFF34F8FBFF3E7
:105060006F8FFEE700683149491E884207D1502002
:1050700080F31188BFF34F8FBFF36F8FFEE72C498A
:1050800008780190FF20087008788DF800009DF8DE
:1050900000009DF8002000F0F000904207D0502062
:1050A00080F31188BFF34F8FBFF36F8FFEE79DF83A
:1050B0000000204C00F0500020700720A06005E0A8
:1050C0009DF8002052008DF80020401E9DF8002021
:1050D0001206F5D4A060032807D0502080F3118871
:1050E000BFF34F8FBFF36F8FFEE74FF44070A060A8
:1050F000019808700C482030016841F4700101608B
:10510000016841F070410160FFF71AFE0020606005
:10511000FBF76AF80848016841F040410160FBF77D
:105120004FF800201CBD000000ED00E071C20F41EF
:1051300000E400E07001002034EF00E010B55020E2
:1051400080F31188BFF34F8FBFF36F8F00F044FBE4
:1051500018B104494FF080500860002080F3118896
:1051600010BD000004ED00E0F8B517460E4605003E
:1051700013D005FB06F05030FFF71AFB04000AD0ED
:10518000002084F8460004F150023B463146284690
:105190000094FFF7BFF82046F8BD502080F3118837
:1051A000BFF34F8FBFF36F8FFEE738B5049D18B183
:1051B00053B1CAB181B120E0502080F31188BFF310
:1051C0004F8FBFF36F8FFEE7502080F31188BFF33E
:1051D0004F8FBFF36F8FFEE7502080F31188BFF32E
:1051E0004F8FBFF36F8FFEE739B1502080F31188E6
:1051F000BFF34F8FBFF36F8FFEE750241C46012390
:1052000084F846302B460094FFF784F8204638BDDA
:1052100070B50D46040025D0FFF72CFDD4E90F2012
:10522000216802FB0011A1600021A1632168616077
:105230000A46D4E90F01401E00FB0121E16021462E
:105240004FF0FF3001F8440F487004F110008DB1A9
:10525000FFF7C6FB04F12400FFF7C2FBFFF72AFDAE
:10526000012070BD502080F31188BFF34F8FBFF332
:105270006F8FFEE721690029F0D000F051FB002874
:10528000ECD004494FF080500860BFF34F8FBFF35C
:105290006F8FE3E704ED00E02DE9FF4782B01D4684
:1052A0008A464FF00008040003D0BAF1000F08D07E
:1052B00011E0502080F31188BFF34F8FBFF36F8F41
:1052C000FEE7206C38B1502080F31188BFF34F8F78
:1052D000BFF36F8FFEE7022D0AD1E06B012807D0E4
:1052E000502080F31188BFF34F8FBFF36F8FFEE71D
:1052F00000F05EFA3F4F4FF000094FF0805648B97A
:10530000049838B1502080F31188BFF34F8FBFF35A
:105310006F8FFEE7FFF7AEFCA06BE16B884207D30F
:10532000022D05D00498D0B1B8F1000F1AD01EE0BC
:105330002A4651462046FEF746FF616A19B104F13C
:10534000240000F0EDFA20B13E60BFF34F8FBFF3B1
:105350006F8FFFF7AFFC012006B0BDE8F087FFF7C5
:10536000A9FC22E06846FFF783FD4FF00108FFF734
:10537000A1FCFFF703FEFFF77DFC94F94400401CFD
:1053800001D184F8449094F94500401C01D184F87F
:105390004590FFF78FFC04A9684600F077F930B11B
:1053A0002046FFF7CFF900F0F3FA0020D4E7FFF72B
:1053B00061FCA06BE16B884213D1FFF77BFC04F129
:1053C00010000499FFF762FD2046FFF7BBF900F0DB
:1053D000DFFA00289ED13E60BFF34F8FBFF36F8F7F
:1053E00098E7FFF767FC2046FFF7ACF900F0D0FA2A
:1053F00090E7000004ED00E02DE9F0471F469046DD
:105400008946040003D0B9F1000F08D011E0502004
:1054100080F31188BFF34F8FBFF36F8FFEE7206CCF
:1054200038B1502080F31188BFF34F8FBFF36F8FD7
:10543000FEE7022F0AD1E06B012807D0502080F34D
:105440001188BFF34F8FBFF36F8FFEE7FFF78AFC22
:105450005020EFF3118680F31188BFF34F8FBFF315
:105460006F8FA06BE16B884206D3022F04D000201F
:1054700086F31188BDE8F08794F94550A06B3A4651
:1054800049462046FEF79FFE681C04D06D1C84F838
:1054900045500120ECE7606A0028FAD004F12400AE
:1054A00000F03EFA0028F4D0B8F1000FF1D001214D
:1054B000C8F80010EDE770B50E46040009D0206C66
:1054C00078B1502080F31188BFF34F8FBFF36F8FF7
:1054D000FEE7502080F31188BFF34F8FBFF36F8F2B
:1054E000FEE7206848B9A06838B1502080F31188E1
:1054F000BFF34F8FBFF36F8FFEE7FFF733FC5020F2
:10550000EFF3118580F31188BFF34F8FBFF36F8FD7
:10551000A16BE06B884218D994F94500491CA1633E
:10552000411C04D0401C84F8450001200EE0606A54
:105530000028FAD004F1240000F0F2F90028F4D099
:10554000002EF2D001203060EFE7002085F31188B3
:1055500070BD00002DE9F747002683B08A4604009D
:1055600003D0BAF1000F08D011E0502080F3118869
:10557000BFF34F8FBFF36F8FFEE7206C38B1502021
:1055800080F31188BFF34F8FBFF36F8FFEE700F0FA
:105590000FF9DFF8F4804FF000094FF0805748B959
:1055A000059838B1502080F31188BFF34F8FBFF3B7
:1055B0006F8FFEE7FFF75EFBA56BC5B15146204636
:1055C000FEF7EEFD6D1EA563206950B104F11000D9
:1055D00000F0A6F928B1C8F80070BFF34F8FBFF3F1
:1055E0006F8FFFF767FB012006B0BDE8F0870598D5
:1055F00008B11EB106E0FFF75DFB27E06846FFF744
:1056000037FC0126FFF756FBFFF7B8FCFFF732FB2C
:1056100094F94400401C01D184F8449094F9450069
:10562000401C01D184F84590FFF744FB05A968466A
:1056300000F02CF8002820460AD0FFF783F800F08D
:10564000A7F92046FEF712FF0028B3D00020CBE7D1
:10565000FEF70CFF90B104F124000599FFF716FC4A
:105660002046FFF76FF800F093F90028A2D1C8F8A0
:105670000070BFF34F8FBFF36F8F9BE72046FFF79C
:1056800061F800F085F995E704ED00E02DE9F041BF
:105690000C46050011D0C4B1FFF7ECFA174BDA68DD
:1056A0006E682068911B471C17D02F681B6A9F42A9
:1056B00019D0964217D8012410E0502080F31188A9
:1056C000BFF34F8FBFF36F8FFEE7502080F3118839
:1056D000BFF34F8FBFF36F8FFEE70024FFF7EAFAA7
:1056E0002046BDE8F081884205D9401A206028464E
:1056F000FFF7BEFBF1E700202060DCE7FC000020A4
:105700002DE9FF5F8346DDE90E87994616468A46F6
:105710009000FFF74DF805001CD05C20FFF748F81B
:10572000040014D00020256384F85900CDE902401C
:10573000CDE900874B46324651465846FEF7FCFD00
:105740002046FEF799FC012004B0BDE8F09F2846F2
:10575000FFF7C4FA4FF0FF30F6E7F0B585B0DDE9AA
:105760000B640A9DA6B1DCB15C2700972663022674
:1057700084F85960002604AFCDE90246CDE9005710
:10578000FEF7DAFD2046FEF777FC049805B0F0BD81
:10579000502080F31188BFF34F8FBFF36F8FFEE768
:1057A000502080F31188BFF34F8FBFF36F8FFEE758
:1057B0000548416919B1006B18B1002070470120FC
:1057C0007047022070470000FC0000200148C068BC
:1057D00070470000FC0000202DE9F0412E4C00270E
:1057E000206B28B1A069401CA0613846BDE8F0815B
:1057F000E668761CE66013D1606B006838B1502013
:1058000080F31188BFF34F8FBFF36F8FFEE7606B9C
:10581000A16B6163A063206A401C2062FEF712FF47
:10582000A06ADFF87880864209D3606B0068A0B177
:10583000606BC068C5686868864211D2A062206843
:10584000C06A00EB800158F82100012800D9012727
:10585000E0690028C9D00127C7E74FF0FF30EDE726
:10586000281DFFF794F8A86A18B105F11800FFF792
:105870008EF8E86A2169884200D9206100EB800136
:1058800008EB8100291DFFF7D1F8E86A2168C96A91
:105890008842CAD30127C8E7FC000020B80D0020C9
:1058A00070B504004FF0000133D01B4D28688442CE
:1058B00007D0502080F31188BFF34F8FBFF36F8F55
:1058C000FEE7206D38B1401E2065E36CE26A9A4223
:1058D0001FD040B11DE0502080F31188BFF34F8FDF
:1058E000BFF36F8FFEE7201DFFF751F8E06CE06219
:1058F000C0F13800A061E06A2969884200D92861B6
:10590000064900EB800001EB8000211DFFF78EF8B7
:105910000121084670BD0000FC000020B80D0020E9
:1059200070B5C068C46854B104F118000646FFF7AA
:105930002EF8144D286B50B13146134815E0502015
:1059400080F31188BFF34F8FBFF36F8FFEE7201DE9
:10595000FFF71DF8E06A2969884200D928610B49E0
:1059600000EB800001EB8000211DFFF75FF8E06A8B
:105970002968C96A884202D90120E86170BD002007
:1059800070BD0000FC00002040120020B80D002077
:105990002DE9F0472C4D00242746286B38B1FFF73E
:1059A00069F9286B401E2863286B40B146E05020FF
:1059B00080F31188BFF34F8FBFF36F8FFEE7A968A5
:1059C000224E0120D1B3A6F5916980463068E0B13E
:1059D000F068C46804F11800FEF7D9FF201DFEF737
:1059E000D6FFE06A2969884200D9286100EB80016E
:1059F00009EB8100211DFFF719F8E06A2968C96ADF
:105A00008842E3D3C5F81C80E0E70CB1FEF71AFE2C
:105A1000AC694CB14FEA0806FFF7DEFE00B1EE615B
:105A2000641EF9D10020A861E86938B1084901274E
:105A300038070860BFF34F8FBFF36F8FFFF73AF956
:105A40003846BDE8F0870000FC000020401200202E
:105A500004ED00E010B586B0FEF776FB114C20682F
:105A6000B8B100200390049005AA04A903A8FEF78A
:105A7000ABFFDDE9032102208DE8070000230AA126
:105A80000B48059AFFF769FE606010B106B001206F
:105A900010BD502080F31188BFF34F8FBFF36F8F7D
:105AA000FEE7000038010020546D72205376630039
:105AB000214700082DE9FF411E46134602000A9DBA
:105AC0004FF0000016D0144C2768002F0FD0CDE9FE
:105AD00000130292062917DAFFF76AFE02284FF038
