:020000040800F2
:100000000859002061020008BF380008E7290008ED
:10001000BD38000867050008BD4200080000000068
:10002000000000000000000000000000A101000826
:100030006D06000800000000FD010008A539000859
:100040007B0200087B0200087B0200087B0200089C
:100050007B0200087B0200087B0200087B0200088C
:100060007B0200087B0200087B020008690500088B
:100070007B0200087B0200087B0200087B0200086C
:1000800075050008810500087B0200087B02000856
:100090007B0200087B0200087B0200087B0200084C
:1000A0007B0200087B0200087B0200087B0200083C
:1000B0007B0200087B0200087B0200087B0200082C
:1000C0007B0200087B0200087B0200087B0200081C
:1000D0007B0200088D42000899420008A5420008F2
:1000E0007B0200087B0200087B0200087B020008FC
:1000F0007B0200087B0200087B0200088D050008D7
:100100007B0200087B0200087B0200087B020008DB
:100110007B020008313D0008653A00087B020008B8
:100120007B02000899050008A50500087B0200086D
:100130007B0200087B0200087B0200087B020008AB
:100140007B0200087B0200087B0200087B0200089B
:100150007B020008B1050008BD050008B142000897
:100160007B0200087B0200087B0200087B0200087B
:100170007B0200087B0200087B02000800000000F0
:100180007B0200087B020008DFF810D000F0BCF909
:1001900000480047914C0008AFF300800859002048
:1001A0002C4B19680868B0E8F04F80F30988BFF35A
:1001B0006F8F4FF0000080F311887047000000003F
:1001C00008480068006880F308884FF0000080F35A
:1001D000148862B661B6BFF34F8FBFF36F8F00DF35
:1001E00000BF00BF08ED00E0DFF80C00016841F43B
:1001F00070010160704700BF88ED00E0EFF30980F7
:10020000BFF36F8F134B1A681EF0100F08BF20ED5D
:10021000108A20E9F04F106009B44FF0500080F3CD
:100220001188BFF34F8FBFF36F8F05F079FE4FF04A
:10023000000080F3118809BC19680868B0E8F04F25
:100240001EF0100F08BFB0EC108A80F30988BFF3CE
:100250006F8F7047E0000020EFF3058070470000CB
:100260000648804706480047FEE7FEE7FEE7FEE750
:10027000FEE7FEE7FEE7FEE7FEE7FEE7553A000889
:10028000890100082DE9F05F0546002092469B4653
:1002900088460646814640241BE02846414647469C
:1002A000224600F0EAF853465A46C01A914110D34C
:1002B00011461846224600F0D1F82D1A67EB0108C6
:1002C0004F4622460120002100F0C8F817EB000934
:1002D0004E41201EA4F10104DFDC484631462A4687
:1002E0004346BDE8F09F2DE9F0410024061B25465A
:1002F00071F1000605DA01240027D0EB070067EB57
:100300000101161E73F1000605DA0027D2EB070281
:10031000012567EB0303FFF7B5FF86460E46174638
:100320009C46AC4204D00025D0EB050E65EB0106DF
:1003300024B10020D2EB000760EB030C704631467D
:100340003A466346BDE8F08140EA01039B0703D0CB
:1003500009E008C9121F08C0042AFAD203E011F804
:10036000013B00F8013B521EF9D27047D2B201E0C6
:1003700000F8012B491EFBD270470022F6E710B5AA
:1003800013460A4604461946FFF7F0FF204610BD03
:10039000F0B4CA17CB0F50405140C61841F10005C8
:1003A0004FEAC372314628004FF0960303D0B623BC
:1003B000F0BC00F07BB830460021F9E710B500F042
:1003C000004420F00040C20DC0F3160040F40000CD
:1003D0007F2A02DA0020014610BD0021962A03DCA4
:1003E000C2F19602D04002E0963A00F037F8002CB5
:1003F000F2D00023D0EB030063EB010110BD00F04D
:10040000004230F000400AD0C10D01F56071C0F328
:10041000160042EA0151C20840071143704700200C
:100420000146704701F0004330B421F0004150EA2A
:10043000010206D00A0DA2F56072C1F31301002A71
:1004400002DC30BC00207047440F44EAC104C10004
:10045000E01830BC00EBC25000F01FB8202A04DBCB
:10046000203A00FA02F1002070479140C2F12003C7
:1004700020FA03F3194390407047202A04DB203A06
:1004800021FA02F00021704721FA02F3D040C2F1B4
:10049000200291400843194670470029A8BF7047C1
:1004A000401C490008BF20F00100704710B4B0FAAA
:1004B00080FC00FA0CF050EA010404BF10BC704745
:1004C00049B1CCF1200421FA04F411FA0CF118BF5F
:1004D000012121430843A3EB0C01CB1D4FEA00612E
:1004E0004FEA102042BF002010BC704700EBC35001
:1004F00010440029A4BF10BC7047401C490008BF2D
:1005000020F0010010BC7047064C074D06E0E06883
:1005100040F0010394E8070098471034AC42F6D34A
:10052000FFF736FE007000082070000830B58C1808
:1005300010F8012B12F00F0301D110F8013B120942
:1005400006D110F8012B03E010F8015B01F8015B04
:100550005B1EF9D101E001F8013B521EFBD1A14223
:10056000E6D3002030BDFEE7014800F0DDB8000012
:1005700048040020014800F0D7B80000C80500205A
:10058000014800F0D1B8000028060020014800F022
:10059000CBB80000A8040020014800F0C5B8000056
:1005A00088060020014800F0BFB8000008050020C0
:1005B000014800F0B9B80000E8060020014800F04A
:1005C000B3B800006805002001681823CAB2103AC9
:1005D000B2FBF3F2054B6FF30901032A9B5CC36581
:1005E00000D9091D8165084670470000246F000886
:1005F00010B5014600208B698A6A4FF0C07453B170
:10060000B3F5005F15D072B1012A0CD0022A0AD0CE
:10061000032A09D104E01AB1012A06D0022A03D123
:10062000C96AC90100D5012010BDC96AA142FAD02A
:1006300010BD002AF7D0012AF2D0022AF3D0032AF3
:10064000F3D010BD30B50468256825F480252560F9
:10065000046863608368402B036803D09960006876
:10066000C26030BD9A600068C16030BD704772B62C
:10067000FEE72DE9F0410446876D00F0CDFA06460D
:1006800094F835000025022806D08020606584F8A3
:1006900034500120BDE8F0812068016821F0160186
:1006A00001602068416921F080014161206C08B936
:1006B000A06C20B12068016821F008010160206869
:1006C000016821F0010101600CE000F0A5FA801B37
:1006D000052807D920206065032084F8350084F8B8
:1006E0003450D7E720680068C007EED194F85C105A
:1006F0003F208840B860012084F8350084F83450E9
:100700000020C7E790F83510022903D08021416509
:1007100001207047052180F835100068016821F03C
:1007200001010160002070472DE9F84304464FF0B5
:100730000009CDF8009063484FF41651A56D00688C
:10074000B0FBF1F72E6894F85C10082000FA01F174
:1007500031420FD021680A6852070BD50A6822F08F
:1007600004020A6094F85C108840A860606D40F054
:100770000100606594F85C104FF0010808FA01F080
:10078000304208D021684969090604D5A860606D27
:1007900040F00200606594F85C100420884030420C
:1007A00008D021680968890704D5A860606D40F009
:1007B0000400606594F85C1010208840304218D026
:1007C00021680968090714D5A860206801684903F1
:1007D00004D50068000308D5A16C07E00168C905CD
:1007E00003D4016821F008010160216C09B12046A1
:1007F000884794F85C1020208840304231D021682E
:100800000968C9062DD5A86094F835000528206828
:10081000016806D0490347D5006800031DD4616C08
:100820001CE021F0160101602068416921F080017F
:100830004161206C08B9A06C20B12068016821F0EA
:100840000801016094F85C103F208840A86084F89B
:10085000358084F83490216D1FE0E16B09B12046AA
:100860008847606D00282BD0606DC00714D005202C
:1008700084F835002068016821F0010101600098CA
:10088000401C0090B84203D820680068C007F6D129
:1008900084F8358084F83490E16C002910D001B0E0
:1008A0002046BDE8F04308470168C905D5D4016872
:1008B00021F01001016084F8358084F83490CCE791
:1008C000BDE8F883140000202DE9F041044600F053
:1008D000A3F906465CB1022084F83500002584F8AF
:1008E00034502068016821F0010101600DE0012011
:1008F000BDE8F08100F090F9801B052805D9202083
:100900006065032084F83500F2E720680068C007BE
:10091000F0D12268116820480140D4E9010318434E
:10092000D4E903363343184363691843A369184372
:10093000E3691843236A18430843616A042903D111
:10094000D4E90B1319430843106020684069666AB4
:1009500020F0070130460E43012704280CD1A06A7D
:100960000643E06A40B12046FFF742FE20B1402036
:10097000606584F83570BAE7206846612046FFF765
:1009800023FE94F85C203F2191408160656584F8E6
:1009900035700020ACE700003F8010F02DE9F041F9
:1009A0000446866D90F83400002501280DD0012002
:1009B00084F8340094F835700020012F07D084F8B3
:1009C000340002252846BDE8F0810220FBE702271B
:1009D00084F8357060652046FFF734FE94F85C10AB
:1009E0003F208840B0602068016841F01601016036
:1009F000206C20B12068016841F008010160206886
:100A0000016841F001010160DCE700002DE9F84FC9
:100A1000DFF8BCA10022012503264FF00F090AF1DF
:100A2000040BAAF1040E00BF0B6805FA02F4234080
:100A3000A34270D10F7907F00307012F01D0022FD5
:100A400016D187684FEA420806FA08FC27EA0C0725
:100A5000D1F80CC00CFA08FC4CEA070CC0F808C02E
:100A60004768A7430C79C4F3001494403C434460A6
:100A70000C79E443A4070AD0C4684FEA420C06FA92
:100A80000CF7BC438F6807FA0CF72743C7600C7953
:100A900004F00304022C12D1D40800EB840CDCF81F
:100AA00020405707FF0E09FA07F824EA0804D1F896
:100AB000108008FA07F848EA0408CCF82080046897
:100AC0004FEA420C06FA0CF7BC430F7907F0030714
:100AD00007FA0CF7274307604C6814F4403F70D0C6
:100AE0003C4C276847F480472760246822F00307BE
:100AF00004F480440094384C07EB040CDCF80848FC
:100B000097074FEA177809FA08F7BC43334FB84202
:100B100002D1002724E054E0314FB84201D101272F
:100B20001EE0304FB84201D1022719E02E4FB842E3
:100B300001D1032714E02D4FB84201D104270FE063
:100B40002B4FB84201D105270AE02A4FB84201D104
:100B5000062705E0284FB84201D1072700E0082703
:100B600007FA08F72743CCF80878DAF80040574628
:100B7000D1F804C09C435FEACC2C00D51C433C60F8
:100B8000DBF800405F46D1F804C09C435FEA8C2C40
:100B900000D51C433C60DEF800407746D1F804C025
:100BA0009C435FEA8C3C00D51C433C60084F083FE7
:100BB0003C68D1F804C09C435FEACC3C00D51C43A0
:100BC0003C60521C102AFFF42FAFBDE8F88F0000E4
:100BD000083C01404438024000300140000002401F
:100BE0000004024000080240000C024000100240D5
:100BF0000014024000180240001C0240426921EA31
:100C000002030A4043EA0241816170470AB18161EF
:100C100070470904FBE70000014880687047000046
:100C20000800002070B5040025D094F83D00002590
:100C300020B984F83C50204600F048FB242084F87A
:100C40003D002068016821F0010101602068016811
:100C500041F4004101602068016821F40041016015
:100C600000F0EEFC4D4A6168914201D84C4900E029
:100C70004C49884201D2012070BD4B492368B0FB2A
:100C8000F1F15E6826F03F060E435E6063689342B2
:100C900006D94FF4967359434FF47A73B1FBF3F1CD
:100CA0002368491C1E6A26F03F06314319626168B9
:100CB000914210D84900401EB0FBF1F2521CC2F321
:100CC0000B02042A01D2042022E0B0FBF1F0401C08
:100CD000C0F30B001CE0A268F2B301EBC10303EB0D
:100CE0000116431EB3FBF6F35B1C43F480431B0564
:100CF00049D092B301EBC10202EB0111401EB0FBDF
:100D0000F1F0401CC0F30B0040F4804040F4004080
:100D10002168CA694CF6FF739A431043C861D4E94D
:100D2000071001432068026822F0C00211430160ED
:100D3000D4E9030101432068826848F2FF339A43F3
:100D400011438160D4E9050108432168CA6822F093
:100D5000FF021043C86001E00EE016E02068016861
:100D600041F0010101602564202084F83D002563E5
:100D700084F83E50002070BD01EB4106431EB3FBDA
:100D8000F6F35B1CB3E70120C2E701EB4101401E13
:100D9000B0FBF1F0401CC0F30B00B7E7A0860100E8
:100DA00080841E0000093D0040420F002DE9F84FED
:100DB0001F4690468A460446DDF82890FFF72CFF30
:100DC000054694F83D00202871D11923012270496D
:100DD0002046009501F08EFF0028F5D194F83C00E4
:100DE000012864D0012084F83C0020680168C9070C
:100DF00003D1016841F0010101602068016821F41C
:100E000000610160222084F83D00102084F83E003B
:100E100000262664C4F824806785608D20855D489F
:100E2000E0622B464A465146204601F0F5FD002877
:100E300076D1208D584F68B1012814D0022820683F
:100E4000016816D041F480610160206841698069C1
:100E500000908EE02068416981690091016841F449
:100E60000071016085E02068016821F48061016003
:100E7000F0E721F4806101602068016841F40061BD
:100E8000E2E7032846D801280AD0022810D04B46B2
:100E9000002239462046009501F02CFFC8BB25E012
:100EA0002A464946204601F0CBFF90BB54E06CE057
:100EB0004B46002239462046009501F01BFF40BBFF
:100EC0002068016841F40071016020680069616A6E
:100ED0000870606A401C6062218D491E2185618D09
:100EE000491E618521680969017039E0206801683F
:100EF00021F48061016020680069616A0870606A9D
:100F0000401C6062208D401E2085608D401E6085E3
:100F1000CEE705E02A464946204601F091FF10B190
:100F20000120BDE8F88F20680069616A0870606A76
:100F3000401C6062208D401E81B22185608D401E64
:100F4000608520684269D243520712D4032903D135
:100F5000016821F48061016020680069616A08709D
:100F6000606A401C6062208D401E2085608D401E9E
:100F70006085208D002884D1202084F83D0084F8ED
:100F80003E6084F83C600020CBE70220C9E7000007
:100F9000020010000000FFFF040001002DE9F84FDF
:100FA0001F4690468A460446DDF82890FFF734FE37
:100FB000054694F83D0020287FD11923012240499D
:100FC0002046009501F096FE002876D194F83C006A
:100FD000012872D0012084F83C0020680168C9070C
:100FE00003D1016841F0010101602068016821F42A
:100FF00000610160212084F83D00102084F83E004B
:1010000000262664C4F824806785608D20852D48DD
:10101000E0622B464A465146204601F073FD90B9E6
:10102000206841698069009036E02A46494620469A
:1010300001F03EFF50B1206C042804D12068016803
:1010400041F4007101600120BDE8F88F606A2168F9
:1010500000780861606A401C6062618D491E61858C
:10106000218D491E89B2218522685369DB435B07C4
:101070000BD451B100781061606A401C6062608DD1
:10108000401E6085208D401E20852A464946204608
:1010900001F004FE0028CED1208D0028C5D154F8DF
:1010A0003D0B016841F400710160202004F81E0925
:1010B000E67766770020C7E7FFE70220C4E7000075
:1010C000020010000000FFFF2DE9FF4F83B09A4699
:1010D000DDE9118793460446DDF84090FFF79CFD5B
:1010E000054694F83D00202870D119230122744947
:1010F0002046009501F0FEFD0028F5D194F83C0053
:10110000012863D0012084F83C0020680168C907E9
:1011100003D1016841F0010101602068016821F4F8
:1011200000610160222084F83D00402084F83E00E8
:1011300000262664C4F82490A4F82A80608D2085B7
:101140006048E062CDE9007553465A46204604994E
:1011500001F026FD002879D1208DD0B1012821D0C1
:101160000228206824D0416980690090208D0328DE
:1011700066D801282BD0544902283B464FF0000284
:10118000009557D08846204601F0B4FD00285DD177
:101190003AE02068416981690091016841F4007179
:1011A00001607DE02068016821F480610160F0E762
:1011B000016821F4806101602068016841F40061E8
:1011C0000160206841698069009069E075E02A4605
:1011D0003946204601F034FE88BB54E0206801689F
:1011E00041F40071016020680069616A0870606AFA
:1011F000401C6062218D491E2185618D491E6185DB
:1012000021680969017042E02068016821F4806169
:10121000016020680069616A0870606A401C606251
:10122000208D401E2085608D401E60853B4600223B
:1012300041460095204601F05DFD00B9CEE705E08E
:101240002A463946204601F0FBFD18B1012007B0BF
:10125000BDE8F08F20680069616A0870606A401C10
:101260006062208D401E81B22185608D401E6085A8
:1012700020684269D243520712D4032903D101687E
:1012800021F48061016020680069616A0870606A09
:10129000401C6062208D401E2085608D401E608550
:1012A000208D00287FF462AF202084F83D0084F870
:1012B0003E6084F83C600020C9E70220C7E70000D8
:1012C000020010000000FFFF0400010010B586B00E
:1012D000044614216846FFF750F8144920688842F4
:1012E00021D113480021026842F002020260006826
:1012F00000F0020005904FF4406000901220CDE90C
:101300000101032003900420049069460948FFF777
:101310007DFB07481030016841F4800101600068DE
:1013200000F48000059006B010BD00000058004099
:1013300030380240000402400248816802781144BB
:1013400081607047080000200B4810B5016841F427
:1013500000710160016841F480610160016841F43D
:1013600080710160032000F09FF80F2000F006F864
:1013700000F050F8002010BD003C024030B505469A
:101380001F4887B00024016841F010010160006827
:1013900006A900F01000009001A800F031F90498AF
:1013A000A8B100F04DF940001649174AB0FBF1F121
:1013B0001648491E026040F2E732C0E90324C0E942
:1013C0000114846100F0B8FB040003D015E000F0C4
:1013D00037F9E9E70D4800F003FC04000DD1362091
:1013E00000F034F8102D07D200222946362000F0F4
:1013F0003BF80748056000E0012407B0204630BDF7
:101400004038024040420F000010004048070020D2
:101410000C0000200C4882B0016841F4804101605A
:10142000006800F4804000900748001F016841F008
:10143000805101600068002200F0805000900F2170
:10144000901E02B000F010B844380240002809DBBA
:1014500000F01F02012191404009800000F1E020CE
:10146000C0F8001170470000F0B40E4B1B680C462A
:10147000C3F30223C3F10705042D00D90425191D68
:10148000072901D2002300E0DB1E012606FA05F140
:10149000491E214099409E40761E16403143F0BCC3
:1014A00002F01EBF0CED00E0064900F007020868DC
:1014B0004FF6FF03184040EA0220034A1043086039
:1014C000704700000CED00E00000FA052DE9F04740
:1014D0000E46050065D0DFF81481D8F80000F7B299
:1014E00000F00700B04207D288F80070D8F800007A
:1014F00000F00700B04254D128683D4C810712D556
:10150000400703D5206840F4E050206028780007A9
:1015100003D5206840F4604020602068A96820F06E
:10152000F000084320602878C0072DD03049686853
:101530000839012812D0022813D0032811D00968D5
:10154000890700292DDA216821F003010143216078
:10155000FFF762FB814641F2883A0EE00968890391
:10156000EFE709688901ECE7FFF756FBA0EB0901FB
:10157000514502D90320BDE8F0872068696800F072
:101580000C00B0EB810FEFD1D8F80010404601F00D
:101590000701B14207D90770006800F00700B042A8
:1015A00001D00120E7E72878400705D52068E968E1
:1015B00020F4E050084320602878000706D5206812
:1015C000296920F4604040EAC100206000F058F82A
:1015D0002168084AC1F30311515CC84006490860FC
:1015E00006480068FFF7CAFE0020C4E7003C02403E
:1015F000083802402C6F0008140000200C00002066
:101600000F2202600C4A136803F00303436013685F
:1016100003F0F0038360136803F4E053C3601268BF
:101620004FF4E05303EAD20202610448006800F07C
:10163000070008607047000008380240003C024084
:101640000448054900680968044AC1F38221515CD5
:10165000C840704714000020083802403C6F000862
:101660000448054900680968044AC1F34231515CE5
:10167000C840704714000020083802403C6F000842
:10168000154810B5006810F00C02144813D0144926
:10169000042A0FD0082A0ED10F4C241F2268236879
:1016A00002F03F025B0207D52068C0F38810A0FB60
:1016B000010106E0084610BD2168C1F38811A1FBB5
:1016C00000010023FEF7DEFD2168C1F30141491C42
:1016D0004900B0FBF1F010BD083802400024F400CE
:1016E00000366E012DE9F84F04006ED02078DFF847
:1016F0004C93C007A9F104054AD009F10400016820
:10170000C1F38101012908D00068C0F381000228DB
:101710000AD1D9F80000400206D52868800337D5E1
:1017200060680028E1D033E06068B0F5803F10D0F9
:10173000B0F5A02F286810D020F4803028602868E9
:1017400020F4802028606068A8B1FFF765FA06469B
:101750000DE0286840F48030F4E740F480202860F1
:10176000F7E700BFFFF758FA801B642873D8286892
:101770008003F7D50CE0FFF74FFA064605E000BFFF
:10178000FFF74AFA801B6428F0D828688003F7D452
:101790002078DFF8AC8280074FF0000A3ED5A748DA
:1017A000001D016811F00C0F08D00068C0F3810023
:1017B00002280BD1D9F80000400207D4286880071E
:1017C00016D5E068012800D112E033E1E068B8B135
:1017D0000120C8F80000FFF71FFA064605E000BF29
:1017E000FFF71AFA801B0228C0D828688007F7D5AF
:1017F0002868216920F0F80040EAC10028600DE067
:10180000C8F800A0FFF708FA064604E0FFF704FA5C
:10181000801B02281FD828688007F7D4207800078B
:1018200022D5864F87486169703771B10121016007
:10183000FFF7F2F9064604E0FFF7EEF9801B0228F5
:1018400009D838688007F7D50EE0C0F800A0FFF788
:10185000E3F9064605E082E0FFF7DEF9801B022887
:101860007DD838688007F7D42078400768D5DFF83E
:10187000CCB100270BF13C0BDBF80000C0000BD40F
:10188000DBF8001041F08051CBF80010DBF80000CD
:10189000012700F0805000906B4E3068C00510D4D6
:1018A000306840F480703060FFF7B6F9009005E0D2
:1018B000FFF7B2F90099401A022850D83068C005E5
:1018C000F6D55E4EA0686C3601280FD0052830682A
:1018D00010D020F001003060306820F0040030604B
:1018E000A068B8B1FFF798F900900FE0306840F0B9
:1018F0000100F4E740F004003060F7E7FFF78CF9EF
:101900000099411A41F28830814266D830688007D8
:10191000F4D50EE0FFF780F9009007E0FFF77CF9BF
:101920000099411A41F28830814256D830688007C8
:10193000F4D42FB1DBF8001021F08051CBF8001067
:10194000A069C8B33D49091D0968C1F38101022995
:101950004AD00228504607D0C8F8600000E03CE0BA
:10196000FFF75AF904463BE04746C8F86000FFF726
:1019700053F9064605E000BFFFF74EF9801B022829
:101980002BD828688001F7D4D4E907010843A16A5D
:101990002E4A490802EB0141626A41EA821108437A
:1019A00094F82C1040EA0161C9F800100120386653
:1019B000FFF732F9044606E03EE000BFFFF72CF9DE
:1019C000001B022809D828688001F7D534E000BF41
:1019D000FFF722F9001B022802D90320BDE8F88F87
:1019E00028688001F4D427E00128F7D0D9F8000056
:1019F000E26900F4800191421CD1226A00F03F01AB
:101A0000914217D147F6C071626A0140B1EB821F63
:101A100010D1A26A4FF0FF3300F4403103EB5202C1
:101A2000B1EB024F06D194F82C1000F07060B0EBCF
:101A3000016F01D00120D1E70020CFE70438024038
:101A400000004742800E4742007000400000FFFF48
:101A50007047704710B590F83C20012A22D001222F
:101A600080F83C20CA688C6822F4407222434C689B
:101A700022F4806222430C6822F4006222430C6943
:101A800022F4805222434C6922F400522243C96955
:101A9000002322F480420A4301684A6480F83C3003
:101AA000002010BD022010BD70B590F83C20012A26
:101AB00032D0012480F83C40022280F83D200368A7
:101AC0005A689D6822F070060A6832435A60134BC8
:101AD00002689A4214D0B2F1804F11D0104B9A4252
:101AE0000ED0104B9A420BD00F4B9A4208D00F4B9E
:101AF0009A4205D00E4B9A4202D00E4B9A4204D124
:101B0000496825F080031943916080F83D40002129
:101B100080F83C10084670BD022070BD00000140F6
:101B20000004004000080040000C00400004014098
:101B3000004001400018004010B5040003D094F8A4
:101B40003D0010B107E0012010BD002084F83C00EA
:101B5000204600F01FF8022084F83D00211D206877
:101B600001F086FF012084F8460084F83E0084F8E6
:101B70003F0084F8400084F8410084F8420084F873
:101B8000430084F8440084F8450084F83D000020B8
:101B900010BD000008B501680E48814201D10E4811
:101BA00010E00D48001FB1F1804F0BD00B4A91425D
:101BB00007D1016841F002010160006800F00200F5
:101BC000009008BD016841F001010160006800F06B
:101BD0000100F5E7000001404438024000040040E5
:101BE00090F83D10012901D001207047022180F8B2
:101BF0003D100168CA6842F00102CA6000681149DC
:101C0000884214D0B0F1804F11D00F4988420ED0D5
:101C10000E4988420BD00E49884208D00D498842AF
:101C200005D00D49884202D00C49884204D1816810
:101C300001F00701062903D0016841F001010160AC
:101C400000207047000001400004004000080040F0
:101C5000000C00400004014000400140001800401A
:101C600070B5044690F83C000025012817D00126E5
:101C700084F83C60022084F83D002068826822F0ED
:101C8000770222F47F4282600868502838D00DDC49
:101C900020284FD005DC90B3102811D14AE0022053
:101CA00070BD302846D040280AD13BE060282FD0B4
:101CB00070280DD0B0F5805F03D0B0F5005F12D072
:101CC000012584F83D60002084F83C00284670BD62
:101CD000CB68D1E90121206801F032FF20688168DA
:101CE00041F0770109E0CB68D1E90121206801F0DA
:101CF00027FF2068816841F480418160E1E719E0B5
:101D0000CA684968206801F0EFFF5021206806E0AA
:101D1000CA684968206801F0F8FF6021206801F076
:101D200019FFCEE7CA684968206801F0DDFF40214D
:101D30002068F4E7226801461046F0E770472DE975
:101D4000F04104460068C66805694FF00007A9071E
:101D500013D5B10711D5F91E016101202077206844
:101D600080698007204602D0FFF7E8FF04E000F01A
:101D7000F7F8204600F089F92777680716D570072D
:101D800014D521686FF004000861022020772068D4
:101D9000806910F4407F204602D0FFF7CFFF04E0B7
:101DA00000F0DEF8204600F070F92777280715D5F7
:101DB000300713D521686FF00800086104202077F0
:101DC0002068C0698007204602D0FFF7B7FF04E013
:101DD00000F0C6F8204600F058F92777E80616D537
:101DE000F00614D521686FF01000086108202077F4
:101DF0002068C06910F4407F204602D0FFF79EFFA4
:101E000004E000F0ADF8204600F03FF92777E8073E
:101E100008D0F00706D021686FF001000861204665
:101E200000F034F9280608D5300606D521686FF091
:101E3000800008612046FFF70BFE680608D5700693
:101E400006D521686FF040000861204600F028F9AF
:101E5000A8060AD5B00608D521686FF020000861F1
:101E60002046BDE8F041FFF7F4BDBDE8F081000079
:101E7000F0B587B0044614216846FEF77EFA324A70
:101E80002168002531480224012791420ED10168C2
:101E900041F0100101600068694600F010000590F3
:101EA0004FF4D4408DE83100294847E0294A2A4EB2
:101EB000B1F1804F23D0294B994243D1016841F0C1
:101EC00001010160016801F001010591016841F023
:101ED000020101600068694600F002000590C02020
:101EE0008DE83100CDE903541046FEF78FFD032045
:101EF0008DE83100CDE903546946304620E00168A1
:101F000041F001010160016801F0010105910168E2
:101F100041F0020101600068694600F0020005908E
:101F200048F20C008DE83100CDE903571046FEF76A
:101F30006DFD08208DE8310069463046CDE9035734
:101F4000FEF764FD07B0F0BD0000014030380240EC
:101F50000010024000000240000402400004004063
:101F6000704770B5044690F83C0000260D460128E5
:101F70000FD0012084F83C006AB1042A1DD0082A41
:101F80002FD00C2A3FD00126002084F83C00304698
:101F900070BD022070BD206801F0E4FD20688169F9
:101FA00041F0080181612068816921F004018161AB
:101FB000206881692A69114311E0206801F002FE5E
:101FC0002068816941F4006181612068816921F4A0
:101FD00080618161206881692A6941EA0221816109
:101FE000D2E7206801F024FE2068C16941F00801B1
:101FF000C1612068C16921F00401C1612068C16923
:102000002A69114311E0206801F046FE2068C16989
:1020100041F40061C1612068C16921F48061C1613E
:102020002068C1692A6941EA0221C161ACE710B5A3
:10203000040003D094F83D0010B107E0012010BD6A
:10204000002084F83C00204600F01EF8022084F8AE
:102050003D00211D206801F00BFD012084F84600A1
:1020600084F83E0084F83F0084F8400084F8410082
:1020700084F8420084F8430084F8440084F8450062
:1020800084F83D00002010BD704770470068034988
:10209000884201D1FFF750B970470000001000409E
:1020A000704738B5044690F84200202801D002203D
:1020B00038BD51B14AB10120206300206063204641
:1020C00002F040F8216B012901D0012038BD2168C0
:1020D0000A684968009121680C3151E8002F42F0EC
:1020E000100241E80023002BF5D138BD08B50020CF
:1020F00000900D480A466B460A49C06B04F0F4FA9A
:10210000802208490948FFF7CCFF0098002807D033
:1021100007494FF080500860BFF34F8FBFF36F8FB8
:1021200008BD00004A0B002044000020700300207E
:1021300004ED00E070470000F8B501680446086847
:10214000CA684B6910F00F0F4FF0000559D003F02B
:10215000010602F49077374365D0C10705D0D10559
:1021600003D5616C41F001016164410705D5D907D0
:1021700003D0616C41F002016164810705D5D90784
:1021800003D0616C41F004016164010707D502F0DE
:102190002001314303D0616C41F008016164616C3E
:1021A00000293AD0800604D5900602D5204601F0D9
:1021B0009EFE20684069616CC0F38010090700D45E
:1021C00060B3204601F05EFE20684069400621D5DC
:1021D0002068143050E8001F21F0400140E8001250
:1021E000002AF5D1E06BA8B172490165E06BFEF7FA
:1021F00089FA002811D0E06B016D01B0BDE8F04014
:10220000084783060FD593060DD52046BDE8F84054
:1022100001F06DBE2046FFF78DFFF8BD2046FFF7A9
:1022200089FF6564F8BD266B2023012E7ED1C6068A
:102230007CD5D6067AD508684868009048694FF082
:10224000020640064DD5E26B106840684FF4807777
:102250000004000C3AD0A18D814237D9E085D069C5
:10226000B8422DD020680C3050E8001F21F4807156
:1022700040E80012002AF5D12068143050E8001F11
:1022800021F0010140E80012002AF5D12068143045
:1022900050E8001F21F0400140E80012002AF5D16B
:1022A00084F84230256320680C3050E8001F21F08C
:1022B000100140E80012002AF5D1E06BFEF7D9F9D1
:1022C0006663A08DE18D401A81B206E0A18D814246
:1022D000A8D1D069B842A5D166632046FFF706FFB2
:1022E000F8BDA08DE18D401A81B2E08D0028F7D0B5
:1022F0000029F5D020680C3050E8002F22F49072AD
:1023000040E80027002FF5D12068143050E8002F56
:1023100022F0010240E80027002FF5D184F8423076
:10232000256320680C3050E8002F00E006E022F022
:10233000100240E80023002BF3D1CDE705062BD592
:10234000150629D594F841002128C9D1A068B0F517
:10235000805F01D12069B0B1206A411C21622168EF
:1023600000784860E08C401E0004000CE084B7D187
:102370002068C16821F08001C1602068C16841F017
:102380004001C160F8BD206A0088C0F308004860C1
:10239000206A801C2062E5E74006F3D55006F1D59F
:1023A000CA68204622F04002CA6084F8413000F03A
:1023B0000DFBF8BD3D3D000870B5040004D094F855
:1023C0004100002510B106E0012070BD84F84050A6
:1023D000204600F023F8242084F841002068C168DA
:1023E00021F40051C160204601F026FE20680169F9
:1023F00021F4904101612068416921F02A01416185
:102400002068C16841F40051C1606564202084F8EF
:10241000410084F842006563002070BD2DE9F04F53
:1024200087B0054614216846FDF7A7FFFB48FA4E22
:10243000D5F800C0F94B10380321022200244FF0D8
:10244000080AB4451AD11D6845F400251D601B68B3
:1024500003F400230593036843F00103036000685D
:1024600000F0010005908DE81600CDE9031A6946D9
:10247000EB48FEF7CBFA07B0BDE8F08FDFF8A48396
:1024800040273E014FF00069C4456DD1D3F800C02C
:1024900000244CF4801CC3F800C01B6803F48013B4
:1024A0000593036843F004030360036803F0040327
:1024B0000593036843F00803036000688B4600F04F
:1024C00008000590B000CDE90002CDE9024B90462E
:1024D0006946CDF810A0D448FEF798FA0420CDE95B
:1024E0000008CDE9024B6946CDF810A0CF48FEF7B1
:1024F0008DFADFF84083CE494046C8F80010C0E9A5
:102500000194C0E90346C8F81440C8F81840C8F858
:102510001C40C8F82040C8F82440FEF7D5F908B19F
:10252000FEF7A5F8C34CC5F83C80C1486034C8F834
:102530003850A830A760C4E900090020C4E90306A8
:102540006061A061E061206260622046FEF7BCF934
:1025500008B1FEF78CF8AC63002205213520A56395
:10256000FEF782FF352068E0DFF8CC82DFF8ACE2CE
:102570004FF0070B0EF1040EC44561D1DEF800C028
:10258000A0464CF0100CCEF800C0DEF8003003F08E
:1025900010030593036843F0010303600068CDE96D
:1025A000024100F0010005904FF4C060CDE9000247
:1025B000CDF810B069469A48FEF728FADFF874A201
:1025C0009E490AF1C00A5046CAF80010C0E90194B9
:1025D000C0E90346CAF81440CAF81840CAF81C40BB
:1025E000CAF82040CAF82440FEF76EF908B1FEF799
:1025F0003EF8934CC5F83CA09048CAF83850783063
:10260000A760C4E90009C4E90386C4F81480C4F8CB
:102610001880C4F81C80C4F820802046C4F82480A8
:10262000FEF752F908B1FEF722F8AC63002205214B
:102630002520A563FEF718FF2520FEF707FF1AE700
:10264000DFF80082C4455FD1D3F800C0A2464CF445
:10265000003CC3F800C01B6803F400330593036813
:1026600043F0080303600068CDE9024100F0080070
:1026700005906020CDE90002CDF810B069466B48A6
:10268000FEF7C4F9DFF8B881694908F160087831CC
:102690004046C8F80010C0E90194C0E90346C8F8F4
:1026A0001440C8F81840C8F81C40C8F82040C8F8C2
:1026B0002440FEF709F908B1FDF7D9FF604CC5F8D1
:1026C0003C805B48C034C8F838509030A760C4E9FB
:1026D0000009C4E903A6C4F814A0C4F818A0C4F8FB
:1026E0001CA0C4F820A02046C4F824A0FEF7ECF8F3
:1026F00008B1FDF7BCFFAC63002205212620A563CD
:10270000FEF7B2FE262098E7DFF83C81C44522D1CF
:102710001D6845F480251D601B6803F48023059324
:10272000036843F0080303600068CDE9024100F04C
:10273000080005904FF44070CDE90002CDF810B0CC
:1027400069463A48FEF762F9002205212720FEF784
:102750008BFE272071E73D4B9C457FF470AFDEF880
:1027600000C04CF0200CCEF800C0DEF8003003F0C2
:1027700020030593036843F0040303600068CDE978
:10278000024100F004000590C020CDE90002CDF820
:1027900010A069462448FEF739F92849DFF8B090BF
:1027A000183948464FF0206AC9F80010C0E901A462
:1027B000C0E90346C9F81440C9F81840C9F81C40DC
:1027C000C9F82040B046C9F82440FEF77DF808B1AA
:1027D000FDF74DFF1E4EC5F83C906036C9F83850E5
:1027E000C6E90274C6E90484B4611448F461346231
:1027F00060307462C6E9000A3046FEF765F808B139
:10280000FDF735FFAE63002205214720B563FEF7D3
:102810002BFE472011E70000004C004040380240EA
:10282000000002400050004000080240000C02403E
:102830001060024048040020001001404064024043
:10284000680500200044004000480040001401409A
:102850008806002090F84230202B01D002207047DB
:1028600021B11AB10023036301F0BCBC0120704701
:1028700010B501684968094AC9B25171084A9042C5
:102880000AD1084602F0BAFA04490122BDE8104014
:10289000491D0348FFF7DEBF10BD000018000020EF
:1028A000B803002070472DE9F843044690F8410032
:1028B000984616460D46202802D00220BDE8F8832F
:1028C00085B17EB100206064212084F84100FEF7CC
:1028D000A3F9A6848146E684A0682027B0F5805F2E
:1028E00002D003E00120E9E7206910B12E4600255F
:1028F0000EE000260CE08021204601F08EFCA8B9F5
:10290000C6B116F8010B21684860E08C401EE084D7
:10291000E08C4B464FF00002CDF800800028EAD151
:102920004FF04001204601F078FC40B184F841703E
:102930000320C3E735F8020BC0F30800E3E784F88F
:1029400041700020BAE7000070B5044690F84100DD
:10295000202801D0022070BD01B3FAB12162A28407
:10296000E28400206064212384F84130A56B144B7D
:10297000EB63A56B134B2B64A56B134BEB64A36B41
:10298000186520681346A56B021D2846FEF706F859
:1029900030B110206064202084F84100012070BD17
:1029A00021686FF0400008602068143050E8001F74
:1029B00041F0800140E80012002AF5D1002070BDEE
:1029C000393E00087B3E00084B3D00080068034983
:1029D000884202D10249002008707047001401406B
:1029E000AC0000207047FEE701684A69D2435205F7
:1029F0000FD46FF480624A61002140F8301F20221A
:102A000042738173026942F0040202610173012082
:102A100070470020704700002DE9F84F0446C06A57
:102A20001E4693460D4621680A6842F480620A6099
:102A3000082807D0012805D010F5803F02D0206B70
:102A4000112804D12068016841F4807101604FF0C1
:102A500001195B46002249462046009600F04AF9DB
:102A60004FF4007840B120680068C00501D5C4F873
:102A700040800320BDE8F88F2069DFF884A0B0F51E
:102A8000804F0FD00620216800EAD51747F0F000EC
:102A9000086133465A460AF10601204600F072F9F1
:102AA00058BB03E0E8B240F001001CE02168E8B246
:102AB000086133465A465146204600F063F9E0B9B2
:102AC0002068416981690091016841F48071016069
:102AD0005B46002249462046009600F00BF900288C
:102AE000C1D147F0F1002168086133465A4651468A
:102AF000204600F047F90028BCD00120BAE70000CA
:102B000002000100F8B50446C06A1E460D4617468D
:102B1000082807D0012805D010F5803F02D0206B8F
:102B2000122804D12068016841F4807101601346C5
:102B300000224FF001112046009600F0DBF840B172
:102B400020680068C00502D54FF40070206403209F
:102B5000F8BD2069B0F5804F0ED00620216800EA4C
:102B6000D51040F0F000086133463A460B49204644
:102B700000F008F978B902E005F0FE0000E0E8B2E4
:102B800021680861054933463A46891F204600F00E
:102B9000F9F80028DCD00120F8BD00000800010091
:102BA0002DE9F84F0446006889460B9D0168984658
:102BB000174641F4806101602068016841F480712A
:102BC000016000954FF0011B0022594620460A9BE8
:102BD00000F090F84FF4007A40B120680068C0051A
:102BE00001D5C4F840A00320BDE8F88F216809F0A2
:102BF000FE0008612B46284920460A9A00F0C2F8D8
:102C0000F0BB20684169806900902A4620460A99F5
:102C100000F04EF940B1206C04283AD120680168D8
:102C200041F40071016034E0FEB2B8F1010F09D047
:102C30002168380A08612A4620460A9900F038F9C6
:102C40000028E8D1206806612A4620460A9900F04B
:102C50002FF90028DFD12068016841F480710160FC
:102C600000950022594620460A9B00F043F80028B0
:102C7000B3D1216809F0FF0040F00100086100E0D5
:102C800007E02B46044920460A9A00F07BF800280A
:102C9000AAD00120A8E700000200010070B5164686
:102CA0000D4604461EE02046FFF79EFE08B10120B7
:102CB00070BD681C16D0FDF7AFFF801BA84200D87E
:102CC00085B920684069C04340070BD5002044F80F
:102CD000300F20216173A073216941F0200121612F
:102CE0002073E4E720684069C0434007DBD400203C
:102CF00070BD00002DE9F047984617460D46044682
:102D0000C1F30746DDF820902AE000BFB8F1FF3F8D
:102D100026D0FDF781FFA0EB0901414502D8B8F1AB
:102D2000000F1DD12068012E16D0806925EA000011
:102D30000004000C12D00020B84211D1002044F849
:102D4000300F20216173A073216941F020012161BE
:102D500020730120BDE8F0874069E7E70120EBE739
:102D60002068012E0AD0806925EA00000004000CCA
:102D700006D00020B842C9D00020EBE74069F3E755
:102D80000120F7E72DE9F047984616460D46044620
:102D90004FF000094FF0200AC1F3074723E02068F5
:102DA0004069C043400515D42068016841F40071B2
:102DB000016021686FF480604861C4F8309084F845
:102DC0003DA084F83E90216C41F00401216484F818
:102DD0003C9021E0701C06D0FDF71EFFA0EB080020
:102DE000B04203D816B1012F1FD021E02068012F77
:102DF00015D0806925EA00000004000C18D000BF3F
:102E000044F8309F84F80DA084F80E90216941F0B9
:102E10002001216184F80C900120BDE8F087406911
:102E200025EA00000004000CEAD12068406901E0B6
:102E30002068806925EA00000004000CAFD1ECE7AF
:102E40002DE9F041002590460E460446202728E053
:102E50004069C043C0060CD454F8301B6FF010001A
:102E6000486144F810596777A577206A2062257772
:102E700014E0FDF7D1FEA0EB0800B04200D886B9FF
:102E800020684069C04340060BD544F8305F677343
:102E9000A573206940F02000206125730120BDE862
:102EA000F08120684169C9434906D1D40020F6E782
:102EB00070B516460D4604461EE02046FFF794FD09
:102EC00008B1012070BD681C16D0FDF7A5FE801B5F
:102ED000A84200D885B920684069C04300060BD5D8
:102EE000002044F8300F20216173A073216941F064
:102EF000200121612073E4E720684069C043000697
:102F0000DBD4002070BD00002DE9F34F0020054602
:102F1000824604468146794800232DED028B83B01A
:102F20004089A1EB00217648CA178B46016173489E
:102F300086890292A6FB010703FB0B7106FB0211B7
:102F40004FF40002FDF7CFF94FF4FA62801841F117
:102F50000001FDF71DFA08EE100A6948002380ED14
:102F6000018A6648029A8188080C0E0463490F8919
:102F7000A7FB0BC803FB0B8107FB02124FEADC1116
:102F800041EA4261711840EBE2105D4AC2E9061065
:102F9000CDE900105948029A40884FEA50474FEA5D
:102FA000C0335648C6884FF00000A6FB0BC800FB94
:102FB0000B8006FB02014FEA1C2040EA0160181852
:102FC00047EB21274E498046C1E9080718EE100A51
:102FD0004C49884254DA9FED4C0A38EE400A10EE14
:102FE000100AFDF7EBF9A0FB002301FB003300FB07
:102FF00001300323A2FB034500FB0353002102FB26
:1030000001314D104FEA340A4FF00501A2FB014691
:1030100000FB01604FF0000302FB03014FEAD40004
:1030200040EA41794FEAE10418EE100A3749884234
:1030300026D99FED370A38EE000A10EE100AFDF788
:10304000BDF9A0FB002301FB003300FB0130072189
:10305000A2FB016C00FB01C1002302FB031116EB74
:103060000A0A0B23A2FB036C4D4100FB03C00021A5
:1030700002FB010040104FEA360212EB09094441FD
:10308000DDE90002B0EB0A001D4E62EB0502B8EB71
:103090000901C6E9060267EB0407C6E90817059CA3
:1030A0000023A4FB015C03FB01C104FB07116B0DB2
:1030B00043EAC1234915181A61EB0201FDF768F9CB
:1030C00000EE100ADFED130A20EE201A9FED120A1F
:1030D000C1EE000A9FED111AC6ED020A70EEC10A98
:1030E00020EE800ADFED0E0A80EE201A86ED031A2C
:1030F00003B0BDEC028BBDE8FC8F00001E0C00206D
:10310000B80000200000FA440000FA440080BBC46C
:103110000080BB44000000380000C84200507D44DD
:10312000CD901D462DE9FF4724A0012300680190A2
:103130004FF0FF30009001AAEC212148FDF72EFF4F
:10314000142002F037FE01251E4C03AE32274FF04B
:1031500002084FF0A00900BFCDE9006809EB450265
:103160000123EC2116480297FDF7AEFFE0B11822CB
:1031700015A11C48FFF7E8FB2089A28961898DE829
:103180000700E388A2886188174801F099F8208930
:10319000A28961898DE80700E388A28861881248C6
:1031A00001F08EF8BDE8FF87BDF80C0040BA24F8A6
:1031B00015006D1CEDB2062DCED9E8E71E0000000B
:1031C0006C0100201E0C00204D5335383337205041
:1031D000524F4D2072656164206572726F72210AD0
:1031E0000000000000040020B46F00087FB50D4609
:1031F0008DF808004FF0FF34012302AAEC21154896
:103200000094FDF7CBFE002822D10A2002F0D2FD67
:1032100000200390012303AAEC2100940D48FDF740
:10322000BDFE002814D1032301AAEC210948009413
:10323000FDF7BCFD00280BD19DF804009DF805109A
:10324000000440EA01209DF8061008432860002091
:1032500004B070BD6C01002000B589B0FFF762FFBB
:10326000242206496846FDF76FF86A4600210448A3
:1032700001F07EFD0349086009B000BD686F0008D9
:1032800089320008B80000201CB569464820FFF7C5
:10329000ADFF01A95820FFF7A9FFDDE90001FFF705
:1032A00033FEC82002F086FDEFE70000294808B58C
:1032B000016841F480010160016801F4800100911E
:1032C000016841F4001101600068002200F4001060
:1032D000009005210B20FEF7C7F80B20FEF7B6F88B
:1032E000002205211020FEF7BFF81020FEF7AEF8EF
:1032F000002205211120FEF7B7F81120FEF7A6F8ED
:10330000002205212F20FEF7AFF82F20FEF79EF8B0
:10331000002205213920FEF7A7F83920FEF796F89C
:10332000002205213A20FEF79FF83A20FEF78EF89A
:10333000002205214520FEF797F84520FEF786F884
:10334000002205214620FEF78FF8BDE80840462000
:10335000FEF77CB83038024010B50D4A00210D4808
:1033600001F006FD0C4C0A4A0021206024320B4873
:1033700001F0FEFC606001F05DFC00F0E1FA00F09D
:103380009FFAFFF769FFBDE8104002F007BE00009A
:10339000DC6E00088139000800000020893900082F
:1033A0002DE9F04186B014216846FCF7E6FF354868
:1033B0000024016841F010010160016801F0100172
:1033C0000591016841F004010160016801F0040108
:1033D0000591016841F080010160016801F0800100
:1033E0000591016841F001010160016801F00101EE
:1033F0000591016841F002010160016801F00201DC
:103400000591016841F00801016000681E4E00F05E
:1034100008000590002204213046FDF7F7FB1B4F02
:1034200001220A213846FDF7F1FBDFF86480002213
:10343000C0214046FDF7EAFB042000900125CDE9BC
:103440000154694630460394FDF7E0FA05208DE803
:10345000310069463846FDF7D9FA0A200090CDE9D7
:103460000154694638460394FDF7D0FAC020009015
:10347000CDE90154694640460394FDF7C7FA06B00A
:10348000BDE8F081303802400010024000080240E0
:10349000000402400D4810B50B4901600C49416021
:1034A00000214FF480428160C0E9031241618161D3
:1034B000C1610162FDF7B6FB002803D0BDE81040F2
:1034C000FDF7D5B810BD0000005800406C01002089
:1034D000A086010010B596B000240F9410941194AA
:1034E000129413941C2168461494FCF746FF202183
:1034F00007A8FCF742FF35483349016040F23F61BD
:10350000C0E9011440F2CF71C0E903144461846141
:10351000FEF712FB08B1FDF7AAF84FF480500F90A8
:103520000FA92A48FEF79CFB08B1FDF7A0F8274831
:10353000FEF77DFD08B1FDF79AF8139413A923480F
:103540001494FEF7B1FA08B1FDF791F860200090ED
:103550009620CDE901040394049405940022694661
:103560001A480694FEF7FDFC08B1FDF780F8042226
:1035700069461648FEF7F5FC08B1FDF778F8082211
:1035800069461248FEF7EDFC08B1FDF770F80C2211
:1035900069460E48FEF7E5FC08B1FDF768F80794A8
:1035A000089409944FF400500A94CDE90B4007A900
:1035B00006480E94FEF74EFA08B1FDF758F8034896
:1035C000FEF756FC16B010BD00000140C0010020FF
:1035D00010B58EB000240794089409940A940B94B3
:1035E0001C2168460C94FCF7C8FE2B484FF0804124
:1035F000016040F21F31C0E9011440F2CF71C0E90F
:1036000003148461FEF798FA08B1FDF730F84FF41F
:103610008050079007A92048FEF722FB08B1FDF76C
:1036200026F81D48FEF703FD08B1FDF720F80B94BE
:103630000BA919480C94FEF737FA08B1FDF717F8F3
:10364000602000909620CDE90104002269461248CE
:103650000494FEF786FC08B1FDF709F804226946D8
:103660000D48FEF77EFC08B1FDF701F80822694617
:103670000948FEF776FC08B1FCF7F9FF0C22694611
:103680000548FEF76EFC08B1FCF7F1FF0248FEF7B3
:10369000EFFB0EB010BD00000802002010B58EB088
:1036A00000240794089409940A940B941C216846FA
:1036B0000C94FCF762FE2C482A49016040F21F314D
:1036C000C0E9011440F2CF71C0E903148461FEF730
:1036D00033FA08B1FCF7CBFF4FF48050079007A9ED
:1036E0002148FEF7BDFA08B1FCF7C1FF1E48FEF7FE
:1036F0009EFC08B1FCF7BBFF0B940BA91A480C9475
:10370000FEF7D2F908B1FCF7B2FF602000909620D6
:10371000CDE901040022694613480494FEF721FC18
:1037200008B1FCF7A4FF042269460F48FEF719FC14
:1037300008B1FCF79CFF082269460B48FEF711FC14
:1037400008B1FCF794FF0C22694607480194FEF784
:1037500008FC08B1FCF78BFF0348FEF789FB0EB0AD
:1037600010BD000000040040500200200C4810B5BD
:103770000A4901604FF4E1314160002181600C226F
:10378000C160C0E904128161C161FEF715FE002825
:1037900003D0BDE81040FCF76ABF10BD004C0040EC
:1037A000980200200C4810B50A4901604FF4E1313D
:1037B0004160002181600C22C160C0E90412816176
:1037C000C161FEF7F9FD002803D0BDE81040FCF709
:1037D0004EBF10BD00500040E00200200C4810B564
:1037E0000A4901604FF4E1314160002181600C22FF
:1037F000C160C0E904128161C161FEF7DDFD0028EE
:1038000003D0BDE81040FCF732BF10BD00100140EE
:10381000280300200C4810B50A4901604FF4E1313B
:103820004160002181600C22C160C0E90412816105
:10383000C161FEF7C1FD002803D0BDE81040FCF7D0
:1038400016BF10BD00440040700300200C4810B5A6
:103850000A4901604FF4E1314160002181600C228E
:10386000C160C0E904128161C161FEF7A5FD0028B5
:1038700003D0BDE81040FCF7FABE10BD0048004080
:10388000B80300200C4810B50A4901604FF4E1313B
:103890004160002181600C22C160C0E90412816195
:1038A000C161FEF789FD002803D0BDE81040FCF798
:1038B000DEBE10BD0014014000040020FEE7FEE75C
:1038C0001CB500228221052002F02AFC09490122B0
:1038D0008860491D0848FEF7BDFF00210620CDE99C
:1038E00000010B464FF4007204A1064802F090FF5D
:1038F0001CBD000018000020B80300205061727346
:1039000065720000D5590008A12000F035FF322073
:1039100002F050FAA22000F02FFF322002F04AFA03
:10392000A32000F029FF322002F044FAA42000F086
:1039300023FF322002F03EFA642002F03BFAE3E774
:103940001CB500210320CDE900010B464FF40072A5
:1039500007A10A4802F05CFF012807D0502080F33D
:103960001188BFF34F8FBFF36F8FFEE71CBD0000C0
:1039700053656E645061636B0000000009390008F4
:10398000012001F0B9F9FBE7054C4FF4FA75042169
:103990002046FDF733F9284601F0AEF9F7E70000BD
:1039A0000010024010B54FF0E020006903F080F8ED
:1039B000012803D0BDE8104002F09CBB10BD000000
:1039C00030B593B030216846FCF7D7FC14210CA821
:1039D000FCF7D3FC1D480025016841F080510160CF
:1039E000006800F0805011901948016841F480414E
:1039F00001600068022400F48040119001200090D2
:103A0000000401908001CDE906400C200890A02020
:103A1000CDE9090404200B906846FDF763FE08B168
:103A200072B6FEE70CA90F2081E831004FF4A050D8
:103A30000F904FF48050109005210CA8FDF746FD23
:103A4000002801D072B6FEE713B030BD4038024006
:103A5000007000400248016841F470010160704745
:103A600088ED00E00148FEF76AB900004807002031
:103A7000F0B50268274B284D284E294F294C4FF0AE
:103A8000804C984209D0604507D0A84205D0B0428A
:103A900003D0B84201D0A04204D122F0700E4A688F
:103AA00042EA0E0298421BD0604519D0A84217D0B6
:103AB000B04215D0B84213D0A04211D01A4DA8423E
:103AC0000ED01A4DA8420BD0194DA84208D0194D5E
:103AD000A84205D0184DA84202D0184DA84203D1E3
:103AE00022F44075CA682A434D6922F080022A43B5
:103AF0008D68C5620D688562984201D0A04201D1EF
:103B000009690163016841F004010160012141611B
:103B10000260F0BD000001400004004000080040C9
:103B2000000C0040000401400040014000440140FE
:103B30000048014000180040001C004000200040E8
:103B400010B5846842EA032224F47F440A432243E6
:103B5000826010BD826822F070020A4342F00701C1
:103B600081607047F0B5036A026A22F001020262C6
:103B700042688469124E24F073050C682C4323F0CC
:103B800002058B682B430D4DA84201D0B04205D1F0
:103B900023F00807CB683B4323F00403A84201D07D
:103BA000B04205D14D6922F4407215438A692A4317
:103BB00042608461496841630362F0BD00000140D6
:103BC00000040140F0B5026A036A23F010030362A7
:103BD000436884690D6824F4E64444EA05248D684A
:103BE00022F0200242EA05120F4D104EA84201D0E9
:103BF000B04206D1CF6822F0800242EA071222F0DA
:103C00004002A84201D0B04207D14D6923F440637D
:103C100043EA85038D6943EA85034360846149680B
:103C200081630262F0BD0000000001400004014019
:103C3000F0B5026A036A23F4807303624368C469BF
:103C400022F4007224F073050C68124E2C438D6828
:103C500042EA05220E4DA84201D0B04206D1CF68FB
:103C600022F4006242EA072222F48062A84201D0D4
:103C7000B04207D14D6923F4405343EA05138D69DF
:103C800043EA05134360C4614968C1630262F0BD41
:103C9000000001400004014030B5046A026A22F4C9
:103CA000805202624268C3690D6823F4E64343EA26
:103CB00005238D6824F4005444EA0534084DA842D5
:103CC00002D0084DA84204D14D6922F4804242EA54
:103CD00085124260C36149680164046230BD00001E
:103CE000000001400004014010B5036A046A24F09A
:103CF00001040462846924F0F00444EA021423F00D
:103D00000A020A438461026210BD10B5036A046AA4
:103D100024F010040462846923F0A00324F47044A6
:103D200044EA023243EA01118261016210BD0000DF
:103D30000148FEF701BA0000E002002010B5806BD8
:103D40000021C185FEF7F6F910BD70B5846B2068BF
:103D5000406994F84110C0F3C0100025212904D116
:103D600018B1E584204600F0B4F82068406994F862
:103D70004210C0F38010222904D118B1E5852046F5
:103D800000F080F8606C40F0100060642046FEF7A0
:103D9000D1F970BD10B50146806B096809684FF014
:103DA0000002C9052ED4C28501680C3151E8003FDC
:103DB00023F4807341E80034002CF5D101681431FC
:103DC00051E8003F23F0010341E80034002CF5D115
:103DD0000168143151E8003F23F0400341E800340A
:103DE000002CF5D1202180F84210016B012909D166
:103DF00001680C3151E8003F23F0100341E8003422
:103E0000002CF5D14263016B012902D0FEF730FD91
:103E100010BD818DFEF76AF910BD10B5806B0121D0
:103E20004163016B012902D0FEF73CFD10BD818D7D
:103E30004908FEF75BF910BD10B50146806B0968B3
:103E40000968C90516D40021C1840168143151E8FC
:103E5000002F22F0800241E80023002BF5D10168F9
:103E60000C3151E8002F42F0400241E80023002BC2
:103E7000F5D110BDFEF7AAFD10BD10B5806BFEF7A1
:103E8000B1FD10BD01680C3151E8002F22F4907291
:103E900041E80023002BF5D10168143151E8002FCF
:103EA00022F0010241E80023002BF5D1016B01292A
:103EB00009D101680C3151E8002F22F0100241E8CD
:103EC0000023002BF5D1202180F84210002101634E
:103ED000704701680C3151E8002F22F0C00241E820
:103EE0000023002BF5D1202180F84110704708B540
:103EF00090F84210222901D0022008BD82684FF4B8
:103F000080539A4201D1016921B1816A9A421BD042
:103F10004AB10AE00268816A5268C2F308020A8064
:103F2000816A891C08E0026972B10268526802F075
:103F30007F020A70816A491C8162C18D491E090491
:103F4000090CC18503D01BE002685268F1E70168E3
:103F5000CA6822F02002CA600168CA6822F480722E
:103F6000CA6001684A6922F001024A61202180F892
:103F7000421000214163026B012A03D0FEF778FC56
:103F8000002008BD016301680C3151E8002F22F0C8
:103F9000100241E80023002BF5D101680A68D2061F
:103FA00002D50A6849680091818DFEF79FF8E7E71E
:103FB0000FB42DE9F041DFF8748098F800009DF807
:103FC0001870401E384227D0142F25D807AD184C42
:103FD00000260CE0ED1D25F00705B5EC020B51ECB9
:103FE000100BFCF71FFA761C44F8040BF6B2BE4225
:103FF000F0D3002004F8010B0D4904F8010B8020D8
:1040000004F8020B7F2004F8010C0948201A82B240
:104010000848FEF799FC20B10020BDE8F0015DF8EA
:1040200014FB012188F800100846F6E7AC000020D8
:10403000CA0B00200004002070B504460068016926
:10404000E26821F44051114301612169A068E269ED
:1040500008436169114308432168CA6849F20C6347
:104060009A430243CA6020684169A26921F4407101
:104070001143416131492068884202D03049884269
:1040800002D1FDF7EDFA01E0FDF7DAFAE26900236B
:10409000192164253226B2F5004F626828D0A0FBB2
:1040A0000101930F9200FCF7EDF80146B0FBF5F02B
:1040B0006FF01802504301EB800006EB0010B0FBDC
:1040C000F5F000F0F002B1FBF5F002EB0012B1FBED
:1040D000F5F06FF01803584301EB800006EB001079
:1040E000B0FBF5F000F00F0021681044886070BD4F
:1040F000A0FB010192185B41FCF7C4F80146B0FB3C
:10410000F5F00201B1FBF5F06FF01803584301EB35
:10411000800006EBC000B0FBF5F000F0F80002EB09
:104120004002B1FBF5F0584301EB800006EBC00004
:10413000B0FBF5F000F00700D6E7000000100140EA
:104140000014014038B58162044682850020134680
:104150006064222284F84220E56B1F4AEA63E56B23
:104160001E4A2A64E56B1E4AEA64E26B10650A4641
:104170002168E06B091DFCF711FC30B11020606470
:10418000202084F84200012038BD20680168406882
:104190000090206948B120680C3050E8001F41F4BD
:1041A000807140E80012002AF5D12068143050E8F0
:1041B000001F41F0010140E80012002AF5D12068FB
:1041C000143050E8001F41F0400140E80012002A7E
:1041D000F5D1002038BD0000953D00081B3E0008C9
:1041E0004B3D000881628285C28500214164222105
:1041F00080F84210016921B10168CA6842F48072F6
:10420000CA6001684A6942F001024A610068C168F7
:1042100041F02001C160002070472DE9F843984625
:1042200017460D460446089E24E0701C22D0FCF779
:10423000F3FCA0EB0800B0421AD8CEB12068C168E8
:10424000490717D5802D15D0402D13D00168C943DB
:1042500009070FD401680025406800902046FFF749
:1042600011FE0820606484F840500120BDE8F88306
:104270000320FBE72068006835EA000004D0002036
:10428000B842D2D00020F1E70120F9E70148FDF75C
:1042900053BF0000280300200148FDF74DBF000078
:1042A000700300200148FDF747BF0000B80300205D
:1042B0000148FDF741BF000000040020FEE70000B8
:1042C0000FB4054B10B503A9044A029800F028F872
:1042D00010BC5DF814FB0000B14900086801002023
:1042E0000907090E002804DB00F1E02080F8001423
:1042F000704700F00F0000F1E02080F8141D7047B7
:1043000002E008C8121F08C1002AFAD1704770479E
:10431000002001E001C1121F002AFBD170470000FC
:104320002DE9FF4F8DB00F460546002606E02528F3
:104330000BD0DDE90F1290476D1C761C2878002801
:10434000F5D111B03046BDE8F08F0024A246A14659
:104350000122E94900E0044315F8013F203B02FA3D
:1043600003F00842F7D128782A2810D06FF02F02E6
:104370002878A0F13001092914D80AEB8A0102EB50
:10438000410144F0020400EB010A6D1CF0E701CF8B
:104390005FEA000A03D544F40054CAF1000A44F06D
:1043A00002046D1C28782E2817D115F8010F44F04F
:1043B00004042A280ED06FF02F022878A0F13001D3
:1043C00009290AD809EB890102EB410100EB010937
:1043D0006D1CF2E757F8049B6D1C28786C280FD0F1
:1043E00006DC4C2817D068280DD06A2814D104E0C8
:1043F000742810D07A280FD10DE044F400140AE09C
:1044000044F4801401E044F440146978814202D1FC
:1044100004F580146D1C6D1C28786E281ED00CDCF1
:10442000632830D004DC00288BD0582811D19FE0BD
:10443000642867D069280CD164E073282DD004DC8F
:104440006F2872D0702804D194E075286ED0782837
:104450006DD0DDE90F129047761C4BE1C4F302509A
:10446000022806D0032809D0042801CF09D006600D
:1044700040E101CFF117C0E900613BE101CF0680C7
:1044800038E1067036E117F8040B8DF800000020C3
:104490008DF80100EB46012003E057F804BB4FF014
:1044A000FF3061074FF0000102D40DE008F1010177
:1044B000884649450FDA8045F8DB1BF808100029CB
:1044C000F4D108E008F1010188468142FADB1BF8CB
:1044D00008100029F6D1DDE90F23AAEB0800814678
:1044E000214600F031F9304400EB080604E0DDE934
:1044F0000F121BF8010B9047B8F10108F7D22146C3
:104500004846F2E00A21C4F302524FF0000B089132
:10451000022A04D001CFC117032A09D00AE0FF1DE7
:1045200027F00707F7E8020108E02CE01EE01FE093
:1045300000B2C117042A01D140B2C117021E71F1A5
:10454000000206DA0023D0EB030063EB01012D2209
:1045500002E0220504D52B228DF82420012203E05D
:10456000E20701D02022F7E7904653E00A210BE052
:10457000102109E010214FF0000B44F004044FF02B
:104580000809089103E008214FF0000B0891C4F3DB
:104590000252022A04D001CF0021032A06D006E0ED
:1045A000FF1D27F00707F7E8020103E080B2042AA5
:1045B00000D1C0B24FF0000822072BD52A78702A0C
:1045C00007D0DDF820C08CF0100C5CEA0B0C05D095
:1045D0000EE040228DF82420012208E050EA010379
:1045E00006D030238DF824308DF825200222904605
:1045F000089B83F0080353EA0B030BD150EA010236
:1046000001D1620706D530228DF824204FF0010831
:10461000A9F101092A78582A04D038A20B9208AAD5
:104620000A920BE03AA2F9E75B46089AFBF72AFEEA
:104630000B9B9B5C0A9A521E0A92137050EA01026D
:10464000F2D10A98ADEB000000F1200B600702D513
:1046500024F4803401E04FF00109D94502DDA9EBD3
:104660000B0000E0002000EB0B0141440890AAEB96
:10467000010AE00306D4DDE90F232146504600F08D
:1046800063F806444FF0000908E009A911F8090091
:10469000DDE90F12904709F10109761CC145F4DBF1
:1046A000E0030CD5DDE90F232146504600F04CF81D
:1046B000064404E0DDE90F1230209047761C08998B
:1046C000481E08900029F5DC08E00A980A9900784D
:1046D000491C0A91DDE90F129047761CBBF10001DD
:1046E000ABF1010BF1DC21465046DDE90F2300F070
:1046F00019F806446D1C21E60928010030313233D7
:10470000343536373839616263646566000000000D
:1047100030313233343536373839414243444546F7
:10472000000000002DE9F041044600251E46174612
:10473000880404D405E039462020B0476D1C641E6F
:10474000F9D52846BDE8F0812DE9F0410446002561
:104750001E469046C80301D5302700E02027880474
:1047600004D505E041463846B0476D1C641EF9D5B6
:104770002846BDE8F081704710B598B00446342152
:104780000BA8FBF7FAFDFF208DF82C0001A9A12C46
:1047900054D0A22C7ED0A32C7DD0A42C4CD15A482E
:1047A0000BAB028800EE102AB8EE400A8DED010A2C
:1047B000428800EE102AB8EE400A8DED020A828887
:1047C00000EE102AB8EE400A8DED030AC28800EE12
:1047D000102AB8EE400A8DED040A028900EE102A74
:1047E000B8EE400A8DED050A428900EE102AB8EEB7
:1047F000400A8DED060A828900EE102AB8EE400AC2
:104800008DED070AC28900EE102AA422B8EE400AF4
:104810008DED080A008A00EE100AB8EE400A8DED10
:10482000090A00912421092000F09DF86423282220
:104830000BA93648FEF737F818B010BD344890ED94
:10484000000A34488DED010A90ED000A32488DEDE2
:10485000020A90ED000A31488DED030A90ED000A3E
:104860002F488DED040A90ED000A2E488DED050AC3
:1048700090ED000A2C488DED060A90ED000A2B48B9
:104880008DED070A90ED000A29488DED080A90ED9C
:10489000000A01E006E019E08DED090A0BABA12248
:1048A0000091BFE723480BABA22290ED000A2248FB
:1048B0008DED010A8DED020A90ED000A8DED030ADF
:1048C00090ED010A8DED040A009116E01B480BAB38
:1048D000A32290ED000A1A488DED010A90ED000A1E
:1048E00018488DED020A90ED000A17488DED030A75
:1048F00090ED000A8DED040A00911021042000F0D3
:1049000032F86423142293E7380B0020B803002008
:1049100084000020880000208C00002090000020EF
:1049200094000020980000204C000020500000203F
:1049300048000020C400002024000020A000002027
:104940009C000020A4000020A800002078B50B46A1
:104950006C4603E0C55C5E1A5B1CA5559342F9DD0D
:104960009DED000A78BDF0B50025059F5A7099703D
:104970002C460EE0032207EB840606EB020C02EB4A
:10498000840E1CF803CC521C03F80EC0072AF4DB7B
:10499000641C8442EEDB0120CA1C03E01C5C401C4A
:1049A0002C44E5B29042F9DB5818C570F0BD000008
:1049B00013B54FF6FF73012269460248FDF773FFF6
:1049C00000981CBD000400200020704778B50B46FD
:1049D0006C4603E0C55C5E1A5B1CA5559342F9DD8D
:1049E000BDF9000078BD0000A0B00D4C4FF0FF37BE
:1049F00000256E463B4680226946E06B01F00AFEC8
:104A00000028F7D03554217829B182B2694605488B
:104A1000FDF79AFFEEE7684600F006F8EAE70000C7
:104A200044000020E002002070B58DB0002102AAF1
:104A3000019131E0552B2ED14478532C08D100211F
:104A4000455C5554491CC9B20B29F9D3552B22D1C9
:104A5000522C09D100215618455C491CC9B2F57287
:104A60000B29F8D3552B16D1512C09D100215618FA
:104A7000455C491CC9B2B5750B29F8D3552B0AD131
:104A8000542C08D100215418435C491CC9B284F845
:104A900021300B29F7D3401C0378002BCAD100200A
:104AA00001AB00EB400404EBC004002114441D5C86
:104AB000665C491C3544C9B21D540A29F7D3401C11
:104AC000C0B20428EDD39DF812009DF8041088426E
:104AD0006FD15248D0ED012AC0ED052A90ED023A7F
:104AE00080ED063A90ED032A80ED072ABDF80A1002
:104AF00000EE101AB8EE400ADFED490A20EE200A57
:104B00009FED481A494A4A4B60EE011AC0ED021A5D
:104B1000BDF80C1000EE101AB8EE400A20EE200A84
:104B200020EE010A80ED010ABDF80E1003EE901A86
:104B3000F8EE633A63EEA00ADFED3B3A20EE811A0D
:104B400080ED031ABDF8101000EE901A0146F8EE41
:104B5000600A80EEA34A70EE620A10EE904A944218
:104B600080ED044A496A01DD491E06E010EE904AD4
:104B70009C4201D8416A01E0491C41624FF4B4747F
:104B8000614300EE901A2549F8EEE00A30EE800A03
:104B900080ED0B0A31EEC30A096A10EE104A944206
:104BA00001DD491E07E010EE104A9C4202D8016A5E
:104BB00002E030E0491C01624FF4B474614300EE3E
:104BC000101A1649B8EEC00A30EE210A80ED0C0A20
:104BD00031EE420A896A10EE104A944201DD491E04
:104BE00006E010EE102A9A4201D8816A01E0491CC1
:104BF00081624FF4B472514300EE101AB8EEC00A4D
:104C000030EE010A80ED0D0A4178002903D101211F
:104C1000417080ED0E0A0DB070BD00004400002010
:104C200000003443000000380000C8420000874301
:104C3000000087C31CB501210C020022204601F0B0
:104C4000B3FC0D49C86378B180220C490C48FDF7CC
:104C500028FA00210220CDE900010B46224609A1D5
:104C60000A4801F0D5FD1CBD502080F31188BFF328
:104C70004F8FBFF36F8FFEE7440000204A0B0020E8
:104C8000700300206A79393031700000E94900086A
:104C9000FCF75AFBFEF794FEFEF782FBFEF706FBDD
:104CA000FEF79CFDFEF762FDFEF77CFDFEF7B2FD10
:104CB000FEF7CCFDFEF7E6FDFEF7ECFBFEF70AFC87
:104CC000FEF786FCFEF7EAFC0948016841F08071B6
:104CD0000160084800214160016841F00101016064
:104CE00000F018F8FEF738FB00F026F8FEE70000A9
:104CF000FCED00E0001000E010B5EFF3058111B10C
:104D00006FF0050403E0002408B101F053F82046D9
:104D100010BD0000EFF3058010B16FF00500704783
:104D20000448016811B14FF0FF3070470121016064
:104D3000002070473801002010B5EFF3058010B156
:104D40006FF0050010BD08480168012902D04FF03E
:104D5000FF3010BD054A002182F8141D02210160B8
:104D600001F090F8002010BD380100200BE000E0B9
:104D70002DE9FF414FEA01034FF00005EFF30581F4
:104D8000039549BB40B38027182100244AB3166815
:104D900006B1344696691EB13146761E382E02D2CF
:104DA0001679F60703D0002004B0BDE8F0815669FB
:104DB00006B1B708D2F808C0BCF1000F0DD0D56815
:104DC000602D18D312693AB136B18DE806103A4613
:104DD000214601F04AFD03900DE0D6685EB91269E4
:104DE0004AB903AACDE90012BAB2214601F010FD7A
:104DF000012800D003950398D6E7000030B5214C78
:104E00000025A1B02178052908D2DFE801F00309C7
:104E10000D172500FF2801D10120207021B030BDE1
:104E2000607020710220F8E7A07021798028014489
:104E3000217125D8E57068B10320EEE7124AE178C8
:104E40005054491CC9B2E170227910442071A078F5
:104E50008142E3D30420E0E72179814210D16078D8
:104E60008DF80000A2788DF8012007490DF10200AD
:104E7000FBF76AFA00231A466946A06801F098FA1F
:104E80002570CBE718000020900700202DE9F041A5
:104E9000134C0F460546E6682068001D00F03FFDF4
:104EA000681C07D137B12168BDE8F0410D48091DE4
:104EB00000F084BD20683544B5424560216805D2C4
:104EC000206CBDE8F041091D00F060BDE06B091DDC
:104ED00000F05CFDA06A854200D2A562BDE8F081C9
:104EE000E00000201C1100202DE9F041054600F0F3
:104EF00089FE2D4CA068401CA06020682B4F10B18B
:104F0000606930B32BE02560A068012827D1002616
:104F100006EB860007EB800000F02AFD761C382E99
:104F2000F6D3234800F024FD2148143000F020FD82
:104F30001F48283000F01CFD1D483C3000F018FDD3
:104F40001B48503000F014FD1948E0631430206411
:104F500005E02068E96AC06A884200D82560606A76
:104F6000401C60626864E86A2169884200D9206157
:104F700000EB800007EB8000291D00F01FFD00F012
:104F800061FE606900280CD02068E96AC06A884226
:104F900007D208494FF080500860BFF34F8FBFF32E
:104FA0006F8FBDE8F0810000E00000206C0C002055
:104FB000CC10002004ED00E0D0E9012100680A4493
:104FC000101A814200D8401A7047000038B500F02E
:104FD00019FE104C2068C8B90F4800F0C9FC0E48F3
:104FE000143000F0C5FC0C48E060143020610A4B1E
:104FF0000020F03B009003F1500210210A2001F044
:10500000B0F8206010B105A100F09EFEBDE8384068
:1050100000F018BE2401002020120020546D7251AF
:105020000000000030B4026C0B46002A0BD0C168AF
:105030001144C1608468A14201D30168C16030BCE1
:105040001846FBF781B930BC70472DE9F041856BFC
:10505000174604460026026C82B1C7B1E068FBF730
:1050600073F9E168206C091AE1602268914202D26A
:10507000A168081AE060022F16D017E02068A8B9CE
:10508000A06801F0EDFD06460020A0600EE060681B
:10509000FBF75AF9216C606808446060A168884297
:1050A00004D32068606001E005B16D1E6D1CA5632E
:1050B0003046BDE8F08110B5044690F85D0058B167
:1050C00001280CD002280FD0502080F31188BFF3A4
:1050D0004F8FBFF36F8FFEE7206B00F0C7FD2046B8
:1050E000BDE8104000F0C2BD10BD000010484FF4F4
:1050F0007051420706D0C01D0D4920F00700411A2B
:10510000C1F570510B4A00230144C2E9000308397C
:10511000183A21F0070111604B600B600B1AC0E9CF
:10512000001393604FF000405360506170470000DF
:105130000819002054010020144E154CA6F29C477B
:105140004FF08058DFF84C9012E000BF00F05AFD9D
:10515000F068C568281D00F0E2FBA068401EA06052
:105160006068401E606000F06DFD2846FFF7A3FFF9
:1051700060680028EAD138680128F9D9C9F80080A8
:10518000BFF34F8FBFF36F8FF2E7000008110020CD
:10519000E000002004ED00E070B51D46049C51B114
:1051A000C4F80020C4E90F010121204601F00CF8E9
:1051B00084F84C5070BD2460F4E72DE9F0410D46B1
:1051C00004461E46174655212846DDF81880FBF791
:1051D000D6F8A84207D0502080F31188BFF34F8F34
:1051E000BFF36F8FFEE724212046FBF7C6F8A561C9
:1051F000C4E9027684F81C80BDE8F0812DE9F05FF7
:105200008846DDE90B941546834691009A460A9E2E
:10521000A522206BFBF7AAF86FF00301206B01EBCE
:105220008501084420F00707780707D0502080F355
:105230001188BFF34F8FBFF36F8FFEE70025B8F1E2
:10524000000F0FD05FF00000221818F8001082F84D
:10525000341018F8001011B1401C1028F4D384F851
:10526000435001E084F83450382E00D33726E662EC
:10527000C4E91365201D00F086FB04F1180000F05E
:1052800082FB2461C6F138006462A0616565A56592
:1052900084F85C5052465946384600F01DFB2060A9
:1052A000B9F1000F01D0C9F80040BDE8F09F00003F
:1052B00030B5114900E011460A688242FBD34B68C1
:1052C0005C18844203D1406818444860084643682B
:1052D0001C18944209D1084C183C2468A24209D0F9
:1052E00052681A4442600A6812680260814200D023
:1052F000086030BD0460F9E75401002070B5002457
:1053000041600B4D0061914206D8D11A82699142E9
:1053100006D2011D286907E09A4203D2994201D3BF
:10532000012403E0011DE86800F030FB204670BD59
:105330002401002010B5044600F064FCA06B28B1E5
:105340005FF0000400F07EFC204610BD0124F9E768
:1053500030B589B03C4D6EE00498002806DADDE9EE
:105360000601059A90470498002864DB069C606952
:1053700010B1201D00F0D3FA03A800F03BF902465B
:1053800004980A2857D2DFE800F00505052D334AB6
:1053900005052D3394F8280040F0010084F828001A
:1053A0000599A069059B01442046FFF7A7FF68B354
:1053B000216A2046884794F8280040073BD5002002
:1053C00000900598A169002342181946204601F073
:1053D00051FDD8B9502080F31188BFF34F8FBFF330
:1053E0006F8FFEE714F8280F20F00100207022E0F4
:1053F00094F8280040F0010084F828000598A06186
:1054000028B1811813462046FFF778FF13E050209B
:1054100080F31188BFF34F8FBFF36F8FFEE794F8CF
:105420002800810703D4204600F020FC03E020F090
:10543000010084F82800002204A9286801F018F867
:10544000002889D109B030BD240100202DE9FC419C
:105450000F46054600F05CFD01A800F0CBF80446BD
:10546000019818B101F074FCBDE8FC81254EAFB184
:1054700030690068D0B30027291B3A46306800F035
:1054800077FC01F065FC0028EED11F494FF08050F9
:105490000860BFF34F8FBFF36F8FE5E7A542EBD8EE
:1054A00001F056FCF0682746C068C468201D00F073
:1054B00036FA94F82800410719D5A0692B464119FE
:1054C0003A462046FFF71AFFA8B1002003460146DE
:1054D00000902A46204601F0CDFC60B9502080F3B0
:1054E0001188BFF34F8FBFF36F8FFEE707E020F007
:1054F000010084F82800216A20468847B4E7012784
:10550000BAE700002401002004ED00E02DE9F04797
:10551000904689460646434500D343461C0038D092
:105520003768B068C51BA54200D31D46454507D95D
:10553000502080F31188BFF34F8FBFF36F8FFEE7CA
:105540007919814207D9502080F31188BFF34F8F1A
:10555000BFF36F8FFEE7B0692A46C1194846FAF7D4
:10556000F3FEAC420FD9444507D9502080F311888F
:10557000BFF34F8FBFF36F8FFEE7621B09EB050090
:10558000B169FAF7E1FEB1683819814200D8401AD2
:1055900030602046BDE8F0872DE9F8431E46089D9F
:1055A0001446894607466DB1D7F800802A466946F9
:1055B0003846FFF7ABFF009A761BA24202D9C7F824
:1055C00000800022334649463846FFF79FFFBDE87A
:1055D000F88300000648C16B096829B1C16BC9682E
:1055E000C9684968816270474FF0FF31FAE70000EF
:1055F000E000002070B5054601F068FA064E04464A
:10560000B068844203D200F009F8012000E00020D5
:1056100028602046B46070BD24010020F8B5194D03
:1056200020E0C068C4680668201D00F078F9216A8F
:105630002046884794F82800400713D5A0693044D5
:10564000B04206D924616060211DE86800F09EF92F
:1056500008E000200346014600903246204601F053
:1056600009FC38B1E86801680029DAD12969C5E97F
:105670000310F8BD502080F31188BFF34F8FBFF3A4
:105680006F8FFEE72401002008484068401C4FF05F
:10569000500080F3118804D0BFF34F8FBFF36F8F9A
:1056A000FEE7BFF34F8FBFF36F8FFEE75C01002073
:1056B000074CE068016841B1C0680021D0F80000E3
:1056C000FFF7C4FEFFF744FEF3E701210020F7E7F0
:1056D000240100202DE9F041044600F093FA94F9EA
:1056E000455004F1240609E0606A48B1304601F0F3
:1056F000F7FA08B100F08CFB6D1E6DB2002DF3DCE3
:105700004FF0FF3684F8456000F09CFA00F07AFA1A
:1057100094F9445004F1100709E0206948B1384673
:1057200001F0DEFA08B100F073FB6D1E6DB2002DC2
:10573000F3DC84F84460BDE8F04100F083BA2DE961
:10574000F04188460546160010D06F68A868C41B53
:10575000B44200D31446391981420FD9502080F346
:105760001188BFF34F8FBFF36F8FFEE7502080F398
:105770001188BFF34F8FBFF36F8FFEE7A8692246F2
:1057800038444146FAF7E0FDA64210D9A868321B1A
:10579000824207D9502080F31188BFF34F8FBFF3A7
:1057A0006F8FFEE708EB0401A869FAF7CDFDA96841
:1057B000B819814200D8401A68603046BDE8F081CF
:1057C0007FB5044608980D46B3B1217FC9070DD0B7
:1057D000834211D3042202A92046FFF7B0FF029AA8
:1057E00029462046FFF7ABFF04B070BD029A9A42EB
:1057F00000D31A460292F3E70020F5E72DE9F041C5
:105800000546002700F084FB324E306808B9FFF7E8
:105810006DFC706905424ED1C5B3083568070ED0DE
:1058200005F00700C0F108000544680707D05020C4
:1058300080F31188BFF34F8FBFF36F8FFEE72DB357
:105840007068854237D82348183001460C6801E05B
:1058500020460C466168A94202D221680029F7D18E
:1058600031688C4227D0076821680160606808377A
:10587000411B10290FD96019420708D0502080F32E
:105880001188BFF34F8FBFF36F8FFEE713E04160C6
:105890006560FFF70DFD61687068401A7060B2685E
:1058A000904200D2B060706901430020C4E9000159
:1058B000F068401CF06001F04BFA780707D05020E8
:1058C00080F31188BFF34F8FBFF36F8FFEE7384629
:1058D000BDE8F0813C01002010B5031F4FF080743B
:1058E0001C601B1F21F001011960191F044B0B6084
:1058F00014390A60091F6FF0020244380A6010BDB3
:105900008956000878B50B466C4603E0C55C5E1A04
:105910005B1CA5559342F9DDBDF8000078BDD0E9C8
:10592000013201699A60D0E901235A604A688242D3
:1059300001D182684A60002202610868401E086046
:1059400008687047034B036003F160000860802023
:105950001060704748120020044B036003F16000A0
:1059600008604FF48070106070470000A814002099
:1059700000F108014FF0FF32C0E90112C16001617E
:1059800000210160704700210161704730B50B684C
:105990005A1C02D000F1080202E0026904E022462B
:1059A000546825689D42FAD953684B6099608A60B3
:1059B000516008610168491C016030BD42684A605D
:1059C00093688B6093685960916008610168491C15
:1059D00001607047A2B0DFF8F881DFF8F8916E46F9
:1059E0004FF0FF326946D8F8080000F041FD012869
:1059F000F6D19DF80000B5287DD00FDCB1287BD012
:105A0000B2287AD0B32879D0B428E9D10122002174
:105A1000B01CFFF777FF89F80100E1E7B6286ED0E8
:105A2000B7286DD0B8286CD0C628D9D16A4F0024C9
:105A300003220021B01CFEF789FFC4EBC40007EB72
:105A4000C005072285ED060A0421B01CFEF77EFF83
:105A500085ED070A0B220821B01CFEF777FF641CB6
:105A6000E4B285ED080A082CE2D3DFF870A1002427
:105A70004FF0030B04EB440004EB440581000BEBF7
:105A80008502B01CFEF762FFC4EBC40107200AEBDD
:105A9000C10700EB8502042000EB850187ED060AB3
:105AA000B01CFEF753FF0B2000EB8502082000EB33
:105AB000850187ED070AB01CFEF748FF641CE4B2BD
:105AC00087ED080A062CD5D35A225421B01CFEF7C4
:105AD0003DFF434C5E225B2184ED000AB01CFEF7C3
