:020000040800F2
:10000000305E002061020008793400085B26000899
:100010002D320008CF0400088D40000800000000C9
:10002000000000000000000000000000A101000826
:100030002106000800000000FD0100082535000829
:100040007B0200087B0200087B0200087B0200089C
:100050007B0200087B0200087B0200087B0200088C
:100060007B0200087B0200087B020008ED04000808
:10007000F904000805050008110500081D05000821
:1000800029050008350500087B0200087B020008EE
:100090007B0200087B0200087B0200087B0200084C
:1000A0007B02000801360008E53500087B020008E5
:1000B0007B0200087B0200081D3600087B02000856
:1000C0007B0200087B0200087B0200087B0200081C
:1000D0007B020008014000080D4000082140000894
:1000E0007B0200087B0200087B0200087B020008FC
:1000F0007B0200087B0200087B0200084105000823
:100100007B0200087B0200087B0200087B020008DB
:10011000053A0008713A0008313600087B020008F1
:100120007B0200084D050008590500087B02000805
:100130007B0200087B0200087B0200087B020008AB
:100140007B0200087B0200087B0200087B0200089B
:100150007B020008650500087105000835400008AD
:100160007B0200087B0200087B0200087B0200087B
:100170007B0200087B0200087B02000800000000F0
:100180007B0200087B020008DFF810D000F062F963
:1001900000480047F5420008AFF30080305E0020C1
:1001A0002C4B19680868B0E8F04F80F30988BFF35A
:1001B0006F8F4FF0000080F311887047000000003F
:1001C00008480068006880F308884FF0000080F35A
:1001D000148862B661B6BFF34F8FBFF36F8F00DF35
:1001E00000BF00BF08ED00E0DFF80C00016841F43B
:1001F00070010160704700BF88ED00E0EFF30980F7
:10020000BFF36F8F134B1A681EF0100F08BF20ED5D
:10021000108A20E9F04F106009B44FF0500080F3CD
:100220001188BFF34F8FBFF36F8F05F097FA4FF030
:10023000000080F3118809BC19680868B0E8F04F25
:100240001EF0100F08BFB0EC108A80F30988BFF3CE
:100250006F8F704764010020EFF305807047000046
:100260000648804706480047FEE7FEE7FEE7FEE750
:10027000FEE7FEE7FEE7FEE7FEE7FEE7D53500080E
:10028000890100082DE9F05F0546002092469B4653
:1002900088460646814640241BE02846414647469C
:1002A000224600F08FF853465A46C01A914110D3A7
:1002B00011461846224600F076F82D1A67EB010821
:1002C0004F4622460120002100F06DF817EB00098F
:1002D0004E41201EA4F10104DFDC484631462A4687
:1002E0004346BDE8F09F40EA01039B0703D009E0C5
:1002F00008C9121F08C0042AFAD203E011F8013B12
:1003000000F8013B521EF9D27047D2B201E000F86A
:10031000012B491EFBD270470022F6E710B51346A9
:100320000A4604461946FFF7F0FF204610BD30B5D7
:1003300004460020034600E05B1C934203D2E05CCD
:10034000CD5C401BF8D030BD00F0004230F00040E2
:100350000AD0C10D01F56071C0F3160042EA0151E7
:10036000C20840071143704700200146704701F062
:10037000004330B421F0004150EA010206D00A0DDA
:10038000A2F56072C1F31301002A02DC30BC002028
:100390007047440F44EAC104C100E01830BC00EBD0
:1003A000C25000F01FB8202A04DB203A00FA02F104
:1003B000002070479140C2F1200320FA03F3194353
:1003C00090407047202A04DB203A21FA02F00021F5
:1003D000704721FA02F3D040C2F120029140084355
:1003E000194670470029A8BF7047401C490008BF44
:1003F00020F00100704710B4B0FA80FC00FA0CF055
:1004000050EA010404BF10BC704749B1CCF120048C
:1004100021FA04F411FA0CF118BF01212143084319
:10042000A3EB0C01CB1D4FEA00614FEA102042BF45
:10043000002010BC704700EBC35010440029A4BF3B
:1004400010BC7047401C490008BF20F0010010BCE0
:1004500070470000064C074D06E0E06840F00103DD
:1004600094E8070098471034AC42F6D3FFF790FEAB
:10047000A4670008C467000870B58C1810F8015B09
:1004800015F0070301D110F8013B2A1106D110F82D
:10049000012B03E010F8016B01F8016B5B1EF9D131
:1004A0002B0705D40023521E0DD401F8013BFAE7B7
:1004B00010F8013BCB1A921C03E013F8015B01F822
:1004C000015B521EF9D5A142D8D3002070BDFEE7D2
:1004D000054D4FF4FA74204603F0E0FF042128464E
:1004E00000F06BFBF7E7000000100240014800F04D
:1004F000F5B80000A0060020014800F0EFB80000A9
:10050000E0080020014800F0E9B80000E005002004
:10051000014800F0E3B8000040090020014800F065
:10052000DDB8000040060020014800F0D7B8000008
:1005300020080020014800F0D1B800008008002009
:10054000014800F0CBB8000000070020014800F08F
:10055000C5B80000A0090020014800F0BFB80000A5
:1005600060070020014800F0B9B80000000A002030
:10057000014800F0B3B80000C0070020016818234C
:10058000CAB2103AB2FBF3F2054B6FF30901032A2A
:100590009B5CC36500D9091D816508467047000052
:1005A000E066000810B5014600208B698A6A4FF0AA
:1005B000C07453B1B3F5005F15D072B1012A0CD0ED
:1005C000022A0AD0032A09D104E01AB1012A06D06E
:1005D000022A03D1C96AC90100D5012010BDC96A28
:1005E000A142FAD010BD002AF7D0012AF2D0022A87
:1005F000F3D0032AF3D010BD30B50468256825F484
:1006000080252560046863608368402B036803D0FD
:1006100099600068C26030BD9A600068C16030BDFA
:10062000704772B6FEE72DE9F0410446876D00F091
:10063000D1FA064694F835000025022806D080201D
:10064000606584F834500120BDE8F08120680168BD
:1006500021F0160101602068416921F080014161AB
:10066000206C08B9A06C20B12068016821F0080155
:1006700001602068016821F0010101600CE000F0D8
:10068000A9FA801B052807D920206065032084F87B
:10069000350084F83450D7E720680068C007EED1F1
:1006A00094F85C103F208840B860012084F8350041
:1006B00084F834500020C7E790F83510022903D0A1
:1006C0008021416501207047052180F835100068C0
:1006D000016821F001010160002070472DE9F84315
:1006E00004464FF00009CDF8009063484FF41651CE
:1006F000A56D0068B0FBF1F72E6894F85C10082037
:1007000000FA01F131420FD021680A6852070BD577
:100710000A6822F004020A6094F85C108840A8601D
:10072000606D40F00100606594F85C104FF00108C6
:1007300008FA01F0304208D021684969090604D559
:10074000A860606D40F00200606594F85C100420C1
:100750008840304208D021680968890704D5A8601C
:10076000606D40F00400606594F85C1010208840D3
:10077000304218D021680968090714D5A86020689C
:100780000168490304D50068000308D5A16C07E09F
:100790000168C90503D4016821F008010160216CDA
:1007A00009B12046884794F85C10202088403042E8
:1007B00031D021680968C9062DD5A86094F83500A4
:1007C00005282068016806D0490347D50068000362
:1007D0001DD4616C1CE021F01601016020684169A4
:1007E00021F080014161206C08B9A06C20B1206823
:1007F000016821F00801016094F85C103F208840F6
:10080000A86084F8358084F83490216D1FE0E16B96
:1008100009B120468847606D00282BD0606DC00765
:1008200014D0052084F835002068016821F001010A
:1008300001600098401C0090B84203D8206800680E
:10084000C007F6D184F8358084F83490E16C002933
:1008500010D001B02046BDE8F04308470168C90543
:10086000D5D4016821F01001016084F8358084F846
:100870003490CCE7BDE8F883340000202DE9F04146
:10088000044600F0A7F906465CB1022084F8350062
:10089000002584F834502068016821F001010160CE
:1008A0000DE00120BDE8F08100F094F9801B0528DF
:1008B00005D920206065032084F83500F2E7206820
:1008C0000068C007F0D12268116820480140D4E9CF
:1008D00001031843D4E903363343184363691843CB
:1008E000A3691843E3691843236A18430843616AFC
:1008F000042903D1D4E90B1319430843106020687D
:100900004069666A20F0070130460E43012704283B
:100910000CD1A06A0643E06A40B12046FFF742FED0
:1009200020B14020606584F83570BAE720684661E0
:100930002046FFF723FE94F85C203F219140816020
:10094000656584F835700020ACE700003F8010F04A
:100950002DE9F0410446866D90F834000025012809
:100960000DD0012084F8340094F835700020012F58
:1009700007D084F8340002252846BDE8F081022023
:10098000FBE7022784F8357060652046FFF734FEE8
:1009900094F85C103F208840B0602068016841F006
:1009A00016010160206C20B12068016841F0080147
:1009B00001602068016841F001010160DCE700008E
:1009C0002DE9F84FDFF8BCA10022012503264FF0E6
:1009D0000F090AF1040BAAF1040E00BF0B6805FA17
:1009E00002F42340A34270D10F7907F00307012FCF
:1009F00001D0022F16D187684FEA420806FA08FC98
:100A000027EA0C07D1F80CC00CFA08FC4CEA070CDA
:100A1000C0F808C04768A7430C79C4F30014944099
:100A20003C4344600C79E443A4070AD0C4684FEA0D
:100A3000420C06FA0CF7BC438F6807FA0CF7274301
:100A4000C7600C7904F00304022C12D1D40800EB27
:100A5000840CDCF820405707FF0E09FA07F824EA57
:100A60000804D1F8108008FA07F848EA0408CCF81E
:100A7000208004684FEA420C06FA0CF7BC430F7959
:100A800007F0030707FA0CF7274307604C6814F4D4
:100A9000403F70D03C4C276847F48047276024686B
:100AA00022F0030704F480440094384C07EB040C54
:100AB000DCF8084897074FEA177809FA08F7BC43AB
:100AC000334FB84202D1002724E054E0314FB842FE
:100AD00001D101271EE0304FB84201D1022719E0B1
:100AE0002E4FB84201D1032714E02D4FB84201D157
:100AF00004270FE02B4FB84201D105270AE02A4F07
:100B0000B84201D1062705E0284FB84201D1072796
:100B100000E0082707FA08F72743CCF80878DAF846
:100B200000405746D1F804C09C435FEACC2C00D566
:100B30001C433C60DBF800405F46D1F804C09C4396
:100B40005FEA8C2C00D51C433C60DEF80040774601
:100B5000D1F804C09C435FEA8C3C00D51C433C6048
:100B6000084F083F3C68D1F804C09C435FEACC3C86
:100B700000D51C433C60521C102AFFF42FAFBDE887
:100B8000F88F0000083C014044380240003001402A
:100B9000000002400004024000080240000C024035
:100BA000001002400014024000180240001C0240E5
:100BB0000069084000D001207047426921EA020321
:100BC0000A4043EA0241816170470AB1816170477E
:100BD0000904FBE7014880687047000028000020F6
:100BE00070B5040025D094F83D00002520B984F8A4
:100BF0003C50204600F0B8F8242084F83D002068DE
:100C0000016821F0010101602068016841F40041A0
:100C100001602068016821F40041016000F05EFA83
:100C20004D4A6168914201D84C4900E04C498842E4
:100C300001D2012070BD4B492368B0FBF1F15E6821
:100C400026F03F060E435E606368934206D94FF478
:100C5000967359434FF47A73B1FBF3F12368491C3F
:100C60001E6A26F03F06314319626168914210D82E
:100C70004900401EB0FBF1F2521CC2F30B02042AE1
:100C800001D2042022E0B0FBF1F0401CC0F30B00C5
:100C90001CE0A268F2B301EBC10303EB0116431E93
:100CA000B3FBF6F35B1C43F480431B0549D092B3BE
:100CB00001EBC10202EB0111401EB0FBF1F0401C40
:100CC000C0F30B0040F4804040F400402168CA6942
:100CD0004CF6FF739A431043C861D4E907100143EF
:100CE0002068026822F0C00211430160D4E90301C8
:100CF00001432068826848F2FF339A4311438160C0
:100D0000D4E9050108432168CA6822F0FF021043B4
:100D1000C86001E00EE016E02068016841F00101C2
:100D200001602564202084F83D00256384F83E504E
:100D3000002070BD01EB4106431EB3FBF6F35B1CC4
:100D4000B3E70120C2E701EB4101401EB0FBF1F027
:100D5000401CC0F30B00B7E7A086010080841E0092
:100D600000093D0040420F0010B586B00446142132
:100D70006846FFF7D1FA14492068884221D1134808
:100D80000021026842F002020260006800F00200E6
:100D900005904FF4406000901220CDE9010103203E
:100DA00003900420049069460948FFF709FE0748AC
:100DB0001030016841F480010160006800F4800097
:100DC000059006B010BD00000058004030380240C9
:100DD0000004024002488168027811448160704733
:100DE000280000200B4810B5016841F40071016033
:100DF000016841F480610160016841F48071016023
:100E0000032000F09FF80F2000F006F800F050F8E3
:100E1000002010BD003C024030B505461F4887B099
:100E20000024016841F010010160006806A900F08B
:100E30001000009001A800F031F90498A8B100F06A
:100E40004DF940001649174AB0FBF1F11648491E0A
:100E5000026040F2E732C0E90324C0E90114846172
:100E600000F0B8FB040003D015E000F037F9E9E723
:100E70000D4800F05FFC04000DD1362000F034F87E
:100E8000102D07D200222946362000F03BF80748F3
:100E9000056000E0012407B0204630BD4038024024
:100EA00040420F0000100040600A00202C0000208B
:100EB0000C4882B0016841F480410160006800F490
:100EC000804000900748001F016841F08051016098
:100ED0000068002200F0805000900F21901E02B0A8
:100EE00000F010B844380240002809DB00F01F026F
:100EF000012191404009800000F1E020C0F800117C
:100F000070470000F0B40E4B1B680C46C3F302237D
:100F1000C3F10705042D00D90425191D072901D2A5
:100F2000002300E0DB1E012606FA05F1491E2140E0
:100F300099409E40761E16403143F0BC03F0A7B89E
:100F40000CED00E0064900F0070208684FF6FF03C9
:100F5000184040EA0220034A10430860704700002E
:100F60000CED00E00000FA052DE9F0470E46050003
:100F700065D0DFF81481D8F80000F7B200F0070060
:100F8000B04207D288F80070D8F8000000F00700DF
:100F9000B04254D128683D4C810712D5400703D593
:100FA000206840F4E05020602878000703D52068CE
:100FB00040F4604020602068A96820F0F0000843F9
:100FC00020602878C0072DD030496868083901288A
:100FD00012D0022813D0032811D0096889070029EC
:100FE0002DDA216821F0030101432160FFF7F2FDB2
:100FF000814641F2883A0EE009688903EFE7096803
:101000008901ECE7FFF7E6FDA0EB0901514502D9A4
:101010000320BDE8F0872068696800F00C00B0EBA1
:10102000810FEFD1D8F80010404601F00701B1421E
:1010300007D90770006800F00700B04201D0012016
:10104000E7E72878400705D52068E96820F4E050F4
:10105000084320602878000706D52068296920F415
:10106000604040EAC100206000F058F82168084A5A
:10107000C1F30311515CC840064908600648006886
:10108000FFF7CAFE0020C4E7003C024008380240D7
:10109000E8660008340000202C0000200F220260C7
:1010A0000C4A136803F003034360136803F0F00372
:1010B0008360136803F4E053C36012684FF4E05395
:1010C00003EAD20202610448006800F007000860E9
:1010D0007047000008380240003C024004480549BF
:1010E00000680968044AC1F38221515CC840704716
:1010F0003400002008380240F8660008044805491A
:1011000000680968044AC1F34231515CC840704725
:101110003400002008380240F8660008154810B571
:10112000006810F00C02144813D01449042A0FD0A0
:10113000082A0ED10F4C241F2268236802F03F02B8
:101140005B0207D52068C0F38810A0FB010106E010
:10115000084610BD2168C1F38811A1FB00010023DE
:10116000FFF790F82168C1F30141491C4900B0FB29
:10117000F1F010BD083802400024F40000366E0182
:101180002DE9F84F04006ED02078DFF84C93C007AB
:10119000A9F104054AD009F104000168C1F38101F5
:1011A000012908D00068C0F3810002280AD1D9F8CB
:1011B0000000400206D52868800337D56068002803
:1011C000E1D033E06068B0F5803F10D0B0F5A02FDB
:1011D000286810D020F480302860286820F480200F
:1011E00028606068A8B1FFF7F5FC06460DE02868A6
:1011F00040F48030F4E740F480202860F7E700BF37
:10120000FFF7E8FC801B642873D828688003F7D5B3
:101210000CE0FFF7DFFC064605E000BFFFF7DAFC55
:10122000801B6428F0D828688003F7D42078DFF882
:10123000AC8280074FF0000A3ED5A748001D016828
:1012400011F00C0F08D00068C0F3810002280BD108
:10125000D9F80000400207D42868800716D5E06856
:10126000012800D112E033E1E068B8B10120C8F8EC
:101270000000FFF7AFFC064605E000BFFFF7AAFC41
:10128000801B0228C0D828688007F7D52868216904
:1012900020F0F80040EAC10028600DE0C8F800A086
:1012A000FFF798FC064604E0FFF794FC801B022839
:1012B0001FD828688007F7D42078000722D5864FEA
:1012C00087486169703771B101210160FFF782FCC5
:1012D000064604E0FFF77EFC801B022809D8386828
:1012E0008007F7D50EE0C0F800A0FFF773FC0646B4
:1012F00005E082E0FFF76EFC801B02287DD838688D
:101300008007F7D42078400768D5DFF8CCB10027F4
:101310000BF13C0BDBF80000C0000BD4DBF8001035
:1013200041F08051CBF80010DBF80000012700F0FD
:10133000805000906B4E3068C00510D4306840F487
:1013400080703060FFF746FC009005E0FFF742FC3C
:101350000099401A022850D83068C005F6D55E4E74
:10136000A0686C3601280FD00528306810D020F016
:1013700001003060306820F004003060A068B8B12F
:10138000FFF728FC00900FE0306840F00100F4E720
:1013900040F004003060F7E7FFF71CFC0099411AA9
:1013A00041F28830814266D830688007F4D50EE07B
:1013B000FFF710FC009007E0FFF70CFC0099411AC2
:1013C00041F28830814256D830688007F4D42FB17A
:1013D000DBF8001021F08051CBF80010A069C8B3F1
:1013E0003D49091D0968C1F3810102294AD002283B
:1013F000504607D0C8F8600000E03CE0FFF7EAFB89
:1014000004463BE04746C8F86000FFF7E3FB0646AA
:1014100005E000BFFFF7DEFB801B02282BD8286801
:101420008001F7D4D4E907010843A16A2E4A49088C
:1014300002EB0141626A41EA8211084394F82C10E0
:1014400040EA0161C9F8001001203866FFF7C2FBCD
:10145000044606E03EE000BFFFF7BCFB001B02288D
:1014600009D828688001F7D534E000BFFFF7B2FB48
:10147000001B022802D90320BDE8F88F28688001EC
:10148000F4D427E00128F7D0D9F80000E26900F48D
:10149000800191421CD1226A00F03F01914217D194
:1014A00047F6C071626A0140B1EB821F10D1A26A97
:1014B0004FF0FF3300F4403103EB5202B1EB024F27
:1014C00006D194F82C1000F07060B0EB016F01D0E1
:1014D0000120D1E70020CFE7043802400000474256
:1014E000800E4742007000400000FFFF70477047C9
:1014F00010B590F83C20012A22D0012280F83C202F
:10150000CA688C6822F4407222434C6822F48062DC
:1015100022430C6822F4006222430C6922F48052B8
:1015200022434C6922F400522243C969002322F469
:1015300080420A4301684A6480F83C30002010BDB4
:10154000022010BD70B590F83C20012A32D0012451
:1015500080F83C40022280F83D2003685A689D686C
:1015600022F070060A6832435A60134B02689A42AE
:1015700014D0B2F1804F11D0104B9A420ED0104BC4
:101580009A420BD00F4B9A4208D00F4B9A4205D08B
:101590000E4B9A4202D00E4B9A4204D1496825F074
:1015A00080031943916080F83D40002180F83C1091
:1015B000084670BD022070BD0000014000040040DC
:1015C00000080040000C00400004014000400140C1
:1015D0000018004010B5040003D094F83D0010B18D
:1015E00007E0012010BD002084F83C00204600F0F8
:1015F0001FF8022084F83D00211D206802F01EF82B
:10160000012084F8460084F83E0084F83F0084F806
:10161000400084F8410084F8420084F8430084F8D4
:10162000440084F8450084F83D00002010BD00000F
:1016300008B5026838483949824210D1086840F03C
:10164000010008600868002200F0010000900521F8
:101650001920FFF757FC1920FFF746FC47E02F48F9
:10166000001FB2F1804F0BD02D4B9A4210D1016870
:1016700041F002010160006800F00200009008BD26
:10168000016841F001010160006800F00100F5E728
:10169000244B9A420ED1016841F0040101600068B8
:1016A000002200F00400009005211E20FFF72AFC14
:1016B0001E2022E01C4B9A420ED1086840F40030F4
:1016C00008600868002200F400300090052119200D
:1016D000FFF718FC192010E0144B9A4211D108684A
:1016E00040F480200860086800F480200090002208
:1016F00005211A20FFF706FC1A20BDE80840FFF775
:10170000F3BB0B498A42BAD1016841F48071016090
:10171000006800F48070B1E70000014044380240E6
:10172000000400400008004000440140004801401F
:101730000020004090F83D10012901D001207047A1
:10174000022180F83D100168CA6842F00102CA60B7
:1017500000681149884214D0B0F1804F11D00F4970
:1017600088420ED00E4988420BD00E49884208D0DC
:101770000D49884205D00D49884202D00C49884263
:1017800004D1816801F00701062903D0016841F006
:10179000010101600020704700000140000400408A
:1017A00000080040000C00400004014000400140DF
:1017B0000018004070B5044690F83C000025012850
:1017C00017D0012684F83C60022084F83D00206890
:1017D000826822F0770222F47F42826008685028F3
:1017E00038D00DDC20284FD005DC90B3102811D163
:1017F0004AE0022070BD302846D040280AD13BE0A4
:1018000060282FD070280DD0B0F5805F03D0B0F5E0
:10181000005F12D0012584F83D60002084F83C0070
:10182000284670BDCB68D1E90121206801F06EFF28
:101830002068816841F0770109E0CB68D1E9012196
:10184000206801F063FF2068816841F48041816075
:10185000E1E719E0CA684968206802F02BF85021D6
:10186000206806E0CA684968206802F034F8602100
:10187000206801F055FFCEE7CA684968206802F089
:1018800019F840212068F4E7226801461046F0E785
:1018900070472DE9F04104460068C66805694FF0BD
:1018A0000007A90713D5B10711D5F91E0161012061
:1018B0002077206880698007204602D0FFF7E8FF84
:1018C00004E000F020F9204600F0E0F927776807EF
:1018D00016D5700714D521686FF004000861022046
:1018E00020772068806910F4407F204602D0FFF7FF
:1018F000CFFF04E000F007F9204600F0C7F9277792
:10190000280715D5300713D521686FF00800086146
:10191000042020772068C0698007204602D0FFF7A6
:10192000B7FF04E000F0EFF8204600F0AFF92777AA
:10193000E80616D5F00614D521686FF0100008618E
:10194000082020772068C06910F4407F204602D02C
:10195000FFF79EFF04E000F0D6F8204600F096F96D
:101960002777E80708D0F00706D021686FF001005C
:101970000861204600F08CF9280608D5300606D507
:1019800021686FF0800008612046FFF7AFFD680610
:1019900008D5700606D521686FF040000861204622
:1019A00000F0B0F9A8060AD5B00608D521686FF096
:1019B000200008612046BDE8F041FFF798BDBDE872
:1019C000F0810000F0B587B0044614216846FEF7A8
:1019D000A3FC324A216800253148022401279142A4
:1019E0000ED1016841F0100101600068694600F005
:1019F000100005904FF4D4408DE83100294847E0AD
:101A0000294A2A4EB1F1804F23D0294B994243D124
:101A1000016841F001010160016801F001010591D7
:101A2000016841F0020101600068694600F00200AF
:101A30000590C0208DE83100CDE903541046FEF733
:101A4000BFFF03208DE83100CDE9035469463046DD
:101A500020E0016841F001010160016801F001012D
:101A60000591016841F0020101600068694600F0DB
:101A70000200059048F20C008DE83100CDE90357D3
:101A80001046FEF79DFF08208DE83100694630467C
:101A9000CDE90357FEF794FF07B0F0BD0000014009
:101AA00030380240001002400000024000040240B2
:101AB0000004004070B5044690F83C000025012861
:101AC0000FD0012084F83C006AB1042A0FD0082A04
:101AD00011D00C2A13D00125002084F83C002846A0
:101AE00070BD022070BD206801F022FEF4E720687E
:101AF00001F04EFEF0E7206801F080FEECE7206880
:101B000001F0B0FEE8E7704710B5040003D094F888
:101B10003D0010B107E0012010BD002084F83C001A
:101B2000204600F01EF8022084F83D00211D2068A8
:101B300001F084FD012084F8460084F83E0084F81A
:101B40003F0084F8400084F8410084F8420084F8A3
:101B5000430084F8440084F8450084F83D000020E8
:101B600010BD704770B5044690F83C0000260D4645
:101B700001280FD0012084F83C006AB1042A1DD04E
:101B8000082A2FD00C2A3FD00126002084F83C00E0
:101B9000304670BD022070BD206801F0C9FD20688C
:101BA000816941F0080181612068816921F00401A7
:101BB0008161206881692A69114311E0206801F080
:101BC000E7FD2068816941F40061816120688169D5
:101BD00021F480618161206881692A6941EA0221DA
:101BE0008161D2E7206801F009FE2068C16941F0F7
:101BF0000801C1612068C16921F00401C161206848
:101C0000C1692A69114311E0206801F02BFE2068A8
:101C1000C16941F40061C1612068C16921F480613A
:101C2000C1612068C1692A6941EA0221C161ACE74A
:101C300010B5040003D094F83D0010B107E0012076
:101C400010BD002084F83C00204600F01EF8022061
:101C500084F83D00211D206801F0F0FC012084F88B
:101C6000460084F83E0084F83F0084F8400084F881
:101C7000410084F8420084F8430084F8440084F86A
:101C8000450084F83D00002010BD704770470000FB
:101C900038B504460020009012492068884202D1DD
:101CA000694611480AE01149884202D16946104844
:101CB00004E0104988420ED10F486946006803F0DD
:101CC000E2FF009838B10D494FF080500860BFF333
:101CD0004F8FBFF36F8F0A492068884201D1FFF709
:101CE00079F838BD00480140600000200020004025
:101CF00064000020004401404001002004ED00E0A9
:101D0000001000407047704710B5044600684069F5
:101D100094F84110C0F3C010212911D180B120687E
:101D2000143050E8001F21F0800140E80012002A22
:101D3000F5D1A06B08B1FEF776FC204601F09DFFBF
:101D40002068406994F84210C0F38010222911D114
:101D500080B12068143050E8001F21F0400140E8B5
:101D60000012002AF5D1E06B08B1FEF75CFC2046BA
:101D700001F05CFF002010BD70470000F8B501685D
:101D800004460868CA684B6910F00F0F4FF0000551
:101D900059D003F0010602F49077374365D0C107AC
:101DA00005D0D10503D5616C41F0010161644107A3
:101DB00005D5D90703D0616C41F002016164810748
:101DC00005D5D90703D0616C41F0040161640107B6
:101DD00007D502F02001314303D0616C41F00801C6
:101DE0006164616C00293AD0800604D5900602D562
:101DF000204601F050FF20684069616CC0F38010FC
:101E0000090700D460B3204601F010FF2068406944
:101E1000400621D52068143050E8001F21F0400111
:101E200040E80012002AF5D1E06BA8B172490165C3
:101E3000E06BFEF741FC002811D0E06B016D01B0B2
:101E4000BDE8F040084783060FD593060DD5204620
:101E5000BDE8F84001F01FBF2046FFF78DFFF8BD39
:101E60002046FFF789FF6564F8BD266B2023012E0D
:101E70007ED1C6067CD5D6067AD50868486800901B
:101E800048694FF0020640064DD5E26B1068406885
:101E90004FF480770004000C3AD0A18D814237D9ED
:101EA000E085D069B8422DD020680C3050E8001F82
:101EB00021F4807140E80012002AF5D12068143026
:101EC00050E8001F21F0010140E80012002AF5D17E
:101ED0002068143050E8001F21F0400140E8001253
:101EE000002AF5D184F84230256320680C3050E890
:101EF000001F21F0100140E80012002AF5D1E06B2C
:101F0000FEF791FB6663A08DE18D401A81B206E079
:101F1000A18D8142A8D1D069B842A5D1666320467F
:101F2000FFF7F1FEF8BDA08DE18D401A81B2E08D82
:101F30000028F7D00029F5D020680C3050E8002F99
:101F400022F4907240E80027002FF5D12068143069
:101F500050E8002F22F0010240E80027002FF5D1C1
:101F600084F84230256320680C3050E8002F00E0F0
:101F700006E022F0100240E80023002BF3D1CDE769
:101F800005062BD5150629D594F841002128C9D17D
:101F9000A068B0F5805F01D12069B0B1206A411C12
:101FA0002162216800784860E08C401E0004000C2B
:101FB000E084B7D12068C16821F08001C160206849
:101FC000C16841F04001C160F8BD206A0088C0F3DB
:101FD00008004860206A801C2062E5E74006F3D5CF
:101FE0005006F1D5CA68204622F04002CA6084F843
:101FF000413000F025FBF8BDE53A000870B504005B
:1020000004D094F84100002510B106E0012070BD15
:1020100084F84050204600F023F8242084F8410042
:102020002068C16821F40051C160204601F0D8FE4B
:102030002068016921F4904101612068416921F023
:102040002A0141612068C16841F40051C1606564A2
:10205000202084F8410084F842006563002070BDB0
:102060002DE9F04F87B0044614216846FEF754F975
:10207000FF48DFF8F8831038D4F800C0FC4A032783
:1020800002210823002506154FF040094FF0006A91
:10209000C4455AD1D2F800C0AB464CF4002CC2F86B
:1020A00000C0126802F400220592026842F00102A8
:1020B00002600068CDE9007100F00100CDE9043054
:1020C000CDE902576946EB48FEF77AFCDFF8AC83AE
:1020D000E9494046C8F80010C0E901A5C0E9035627
:1020E000C8F81450C8F81850C8F81C50C8F8205048
:1020F0005746C8F82450FEF7C1FB08B1FEF791FA25
:10210000DE4DDD48C4F83C8060353030C8F83840DA
:1021100085E88102C5E903B6C5F814B0C5F818B062
:10212000C5F81CB0C5F820B02846C5F824B0FEF7A5
:10213000A5FB08B1FEF775FAA5630022052134203E
:10214000AC63FEF7DFFE342068E0DFF83483C4457B
:1021500069D1D2F800C04CF4801CC2F800C01268EB
:1021600002F480120592026842F0040202600268E2
:1021700002F004020592026842F008020260006860
:10218000884600F0080005904FF48050CDE9000823
:102190000DF1080C9B468CE8A0086946B948FEF78B
:1021A0000FFC0420CDE900080DF10808694688E815
:1021B000A008B548FEF704FCB04FAF48C037303830
:1021C0003860C7E901A5C7E903567D61BD61FD61BE
:1021D0003D6238467D62FEF751FB08B1FEF721FAF9
:1021E000E763BC63A94FA448C7F80890C7E9035642
:1021F0007D61BD61FD613D6278307D62C7E9000AA5
:102200003846FEF73BFB08B1FEF70BFAA763002246
:1022100005213520BC63FEF775FE3520FEF764FE10
:1022200007B0BDE8F08FDFF86882DFF844E24FF0D6
:10223000070B0EF1040EC4454DD1DEF8003043F01B
:102240001003CEF80030DEF8002002F010020592F4
:10225000026842F001020260006800F0010005908F
:102260004FF4C0608DE8A30869468248FEF7A8FBDA
:10227000864F884860373860C7E901A5C7E903562B
:102280007D61BD61FD613D6238467D62FEF7F6FA13
:1022900008B1FEF7C6F9E763BC637C4F7D48C037E1
:1022A0007830C7F80890C7E903567D61BD61FD61CC
:1022B0003D627D62C7E9000A3846FEF7DFFA08B1E1
:1022C000FEF7AFF9A763002205212520BC63FEF7C6
:1022D00019FE2520A2E7DFF8C081C44549D1136863
:1022E00043F400331360126802F40032059202686E
:1022F00042F008020260006800F0080005906020CB
:102300008DE8A30869466048FEF75AFB5A48634FB8
:1023100048303860C7E901A5C7E903567D61BD6152
:10232000FD613D6238467D62FEF7A8FA08B1FEF70E
:1023300078F9E763BC63594F4F4860376030C7F89E
:102340000890C7E903567D61BD61FD613D627D6214
:10235000C7E9000A3846FEF791FA08B1FEF761F9BD
:10236000A763002205212620BC63FEF7CBFD2620B3
:1023700054E7DFF82C81C4454AD1136843F4802325
:102380001360126802F480220592026842F008028B
:102390000260006800F0080005904FF440708DE87E
:1023A000A30869463848FEF70BFB3C4F3248C0375C
:1023B00018383860C7E901A5C7E903567D61BD61DA
:1023C000FD613D6238467D62FEF758FA08B1FEF7BE
:1023D00028F9E763BC63334F2748C7F80890C7E97B
:1023E00003567D61BD61FD613D6218307D62C7E9C4
:1023F000000A3846FEF742FA08B1FEF712F9A76361
:10240000002205212720BC63FEF77CFD272005E77D
:10241000254A94457FF404AFDEF800C04CF0200C50
:10242000CEF800C0DEF8002002F02002059202681B
:1024300042F0040202600068049300F0040005907A
:10244000C0208DE8A30069460E48FEF7B9FA11488E
:10245000144F183860374FF020683860C7E901859D
:10246000C7E903567D61BD61FD611FE0004C00407E
:10247000403802400000024040600240E005002079
:102480000050004000080240000C024000070020FD
:102490000010014040640240004400402008002039
:1024A0000048004040090020001401403D623846C9
:1024B0007D62FEF7E3F908B1FEF7B3F8E763BC63AA
:1024C0000D4F0C48C7E903567D61BD61FD613D625A
:1024D0007D6287E801033846FEF7D0F908B1FEF7C0
:1024E000A0F8A763002205214720BC63FEF70AFD80
:1024F000472093E6A0640240000A002090F8423092
:10250000202B01D00220704721B11AB100230363B0
:1025100001F0ECBC01207047704770472DE9F8438B
:10252000044690F84100984616460D46202802D0F1
:102530000220BDE8F88385B17EB1002060642120CF
:1025400084F84100FEF746FBA6848146E684A06835
:102550002027B0F5805F02D003E00120E9E7206981
:1025600010B12E4600250EE000260CE0802120460A
:1025700001F00CFDA8B9C6B116F8010B216848603E
:10258000E08C401EE084E08C4B464FF00002CDF81A
:1025900000800028EAD14FF04001204601F0F6FC0F
:1025A00040B184F841700320C3E735F8020BC0F353
:1025B0000800E3E784F841700020BAE770B50446EC
:1025C00090F84100202801D0022070BD01B3FAB17B
:1025D0002162A284E28400206064212384F84130D7
:1025E000A56B144BEB63A56B134B2B64A56B134BC3
:1025F000EB64A36B186520681346A56B021D284683
:10260000FEF7A6F930B110206064202084F8410064
:10261000012070BD21686FF0400008602068143010
:1026200050E8001F41F0800140E80012002AF5D177
:10263000002070BDE13B0008233C0008F33A00088D
:1026400000680349884202D102490020087070479F
:1026500000140140F80000207047FEE72DE9F04F1C
:10266000B04B00225E781F789FEDAF0AAF4DDFF8C8
:10267000C092DFEDB00A4AE1845C552C7ED100EBBC
:10268000020A9AF801B0ABF15104032C76D84FF04E
:10269000000C644602EB0408641C10F80880E4B2E5
:1026A000C4440CF0FF0C0A2CF4D39AF80A40644599
:1026B0007ED15446DC46BBF1510F09D0BCF1520F1C
:1026C00035D0BCF1530F5AD0BBF1540F55D1ECE0CB
:1026D000B4F902C001EE10CAB8EEC11A61EE001AD8
:1026E000B3EE001A21EE812ADFED931A22EE212AA1
:1026F00083ED022AB4F904C002EE10CAB8EEC22A71
:1027000022EE002A22EE012A22EE212A83ED032A5C
:10271000B4F906C002EE10CAB8EEC22A22EE002AB0
:1027200022EE011A21EE211A83ED041AD5E0B4F944
:1027300002C001EE10CAB8EEC11A61EE001A9FED98
:102740007F1A61EE811AC3ED051AB4F904C001EED7
:1027500090CAF8EEE11A61EE801A61EE811AC3EDBB
:10276000061ABAF9064001EE904AF8EEE11A61EE57
:10277000801A21EE811A83ED071AB8E0D0E0B4F98F
:1027800002C001EE10CAB8EEC11A21EE001A9FED88
:102790006C2A21EE021A83ED0B1AB4F904C001EE83
:1027A00090CAF8EEE11A61EE801A61EE821A00E03A
:1027B000ABE0C3ED0C1AB4F906C002EE90CAF8EE15
:1027C000E22A62EE802A22EE822A83ED0D2A94F814
:1027D00009C09AF80840B1EE422A44EA0C249C80D1
:1027E00083ED0D2AD3ED0F2A71EE622A12EE904A84
:1027F000AC4202DD9C6E641C05E012EE904A4C4532
:102800009C6E01D9641E9C664FF4B47C04FB0CF4EE
:1028100002EE904AF8EEE22A72EE812AC3ED122A05
:10282000D3ED102A71EEE22A12EE904AAC4202DD9C
:102830005C6E641C05E012EE904A4C455C6E01D95A
:10284000641E5C664FF4B47C04FB0CF402EE904A08
:10285000F8EEE22A72EEA12AC3ED132AD3ED112A73
:1028600072EE622A12EE904AAC4202DDDC6E641E09
:1028700005E012EE904A4C45DC6E01D9641CDC6622
:102880004FF4B47C04FB0CF402EE904A03F13C04D8
:10289000F8EEE22A72EE822AC3ED142A84EC031ABF
:1028A0002FBB0127C3ED152A21E0B4F902C001EEC8
:1028B00010CAB8EEC11A83ED081AB4F904C001EECB
:1028C00010CAB8EEC11A83ED091AB4F906C001EEB8
:1028D00010CAB8EEC11A83ED0A1ABAF9084001EE1F
:1028E000104AB8EEC11AC1EE201AC3ED0E1A66B92D
:1028F00093ED0B1A012683ED161A93ED0C1A83ED56
:10290000171A93ED0D1A83ED181A0B3292B202F1D9
:102910000A048C42FFF4B0AE5E701F70BDE8F08F09
:10292000521CF3E7880000200000003800008743B5
:10293000000087C30000C842CDCC1C410000FA440F
:1029400000003443074C084E0025A078012805D12B
:10295000B6F840100448FFF781FEA570052002F08C
:1029600001FEF2E788000020D80E002010B54022BA
:1029700005490648FFF7C2FD04480068C16841F0F8
:102980001001C16010BD00001A0F002008050020D2
:10299000074C084E00252078012804D1318C0548C9
:1029A00001F0A0FE25700A2002F0DCFDF3E7000034
:1029B0005001002048100020394808B5016841F452
:1029C00080010160016801F480010091016841F417
:1029D000001101600068002200F400100090052141
:1029E0000B20FEF78FFA0B20FEF77EFA002205215E
:1029F0000C20FEF787FA0C20FEF776FA002205215C
:102A00000D20FEF77FFA0D20FEF76EFA0022052159
:102A10000E20FEF777FA0E20FEF766FA0022052157
:102A20000F20FEF76FFA0F20FEF75EFA0022052155
:102A30001020FEF767FA1020FEF756FA0022052153
:102A40001120FEF75FFA1120FEF74EFA0022052151
:102A50002F20FEF757FA2F20FEF746FA0022052115
:102A60003920FEF74FFA3920FEF73EFA0022052101
:102A70003A20FEF747FA3A20FEF736FA00220521FF
:102A80004520FEF73FFA4520FEF72EFA00220521E9
:102A90004620FEF737FABDE808404620FEF724BA84
:102AA0003038024010B500F00BFDFFF75FFF00F07B
:102AB000F5FC00F0BDFB01F0C3FA234A00212348D6
:102AC00001F028FD224C204A0021206224322148B6
:102AD00001F020FD1C4A6062903A00211E4801F07E
:102AE00019FD194A2061D83A00211C4801F012FD55
:102AF000154AA060B43A0021194801F00BFD124AB2
:102B0000E060FC3A0021174801F004FD6060164ABD
:102B10000021164801F0FEFC0B4A20606C3A0021AF
:102B2000134801F0F7FC084A6061483A0021114857
:102B300001F0F0FC044AA061243A00210E4801F0A3
:102B4000E9FCE06110BD0000986600081D35000832
:102B500000000020D1040008915100084529000818
:102B600091290008E534000878650008C15700087D
:102B7000FD38000861510008654000082DE9F04764
:102B800086B014216846FDF7C7FB49480025016857
:102B900041F010010160016801F010010591016828
:102BA00041F004010160016801F004010591016830
:102BB00041F080010160016801F080010591016828
:102BC00041F001010160016801F001010591016816
:102BD00041F002010160016801F002010591016804
:102BE00041F0080101600068324E00F008000590D5
:102BF000002204213046FDF7E8FF2F4F01220A2171
:102C00003846FDF7E2FFDFF8B4800122202140467C
:102C1000FDF7DBFFDFF8A890002202214846FDF710
:102C2000D4FFDFF8A0A00022C0215046FDF7CDFF61
:102C3000042001248DE83100694630460395FDF7F4
:102C4000BFFE05203601CDE90006694602943846EC
:102C5000FDF7B6FE0A20CDE9000469463846CDE905
:102C60000245FDF7ADFE1020CDE90006694602944D
:102C70004046FDF7A5FE2020CDE900046946404608
:102C8000CDE90245FDF79CFE02208DE83100694642
:102C900048460395FDF794FEC0208DE83100694653
:102CA00050460395FDF78CFE06B0BDE8F0870000A6
:102CB000303802400010024000080240000002408C
:102CC000000C0240000402400D4810B50B490160A1
:102CD0000C49416000214FF480428160C0E9031239
:102CE00041618161C1610162FDF77AFF002803D073
:102CF000BDE81040FDF795BC10BD00000058004035
:102D0000E4010020A08601000C4810B50A490160CA
:102D100040F23F614160002140F2E732C0E9021217
:102D200001618161FEF756FC002803D0BDE8104028
:102D3000FDF777BC10BD000000440140580300209F
:102D40000C4810B50A49016040F21F314160002172
:102D500040F2E732C0E9021201618161FEF73AFCFC
:102D6000002803D0BDE81040FDF75BBC10BD00009B
:102D700000480140A00300200C4810B50A4901603A
:102D800040F21F314160002140F2E732C0E90212F7
:102D900001618161FEF71EFC002803D0BDE81040F0
:102DA000FDF73FBC10BD000000200040E8030020FC
:102DB00010B596B000240F941094119412941394AB
:102DC0001C2168461494FDF7A7FA202107A8FDF7F7
:102DD000A3FA35483349016040F23F61C0E901146C
:102DE00040F2CF71C0E9031444618461FEF7F2FB45
:102DF00008B1FDF716FC4FF480500F900FA92A4838
:102E0000FEF7D8FC08B1FDF70CFC2748FEF710FFD1
:102E100008B1FDF706FC139413A923481494FEF798
:102E200091FB08B1FDF7FDFB602000909620CDE9F5
:102E30000104039404940594002269461A480694F8
:102E4000FEF790FE08B1FDF7ECFB04226946164838
:102E5000FEF788FE08B1FDF7E4FB08226946124838
:102E6000FEF780FE08B1FDF7DCFB0C2269460E4838
:102E7000FEF778FE08B1FDF7D4FB07940894099497
:102E80004FF400500A94CDE90B4007A906480E9470
:102E9000FEF72EFB08B1FDF7C4FB0348FEF792FDD9
:102EA00016B010BD000001403802002010B58EB0F1
:102EB00000240794089409940A940B941C216846F2
:102EC0000C94FDF729FA2B484FF08041016040F245
:102ED0001F31C0E9011440F2CF71C0E903148461CD
:102EE000FEF778FB08B1FDF79CFB4FF4805007908C
:102EF00007A92048FEF75EFC08B1FDF792FB1D48CC
:102F0000FEF796FE08B1FDF78CFB0B940BA9194850
:102F10000C94FEF717FB08B1FDF783FB60200090CF
:102F20009620CDE901040022694612480494FEF778
:102F300019FE08B1FDF775FB042269460D48FEF73E
:102F400011FE08B1FDF76DFB082269460948FEF73E
:102F500009FE08B1FDF765FB0C2269460548FEF73E
:102F600001FE08B1FDF75DFB0248FEF72BFD0EB038
:102F700010BD00008002002010B58EB00024079420
:102F8000089409940A940B941C2168460C94FDF74C
:102F9000C3F92C482A49016040F21F31C0E90114ED
:102FA00040F2CF71C0E903148461FEF713FB08B14E
:102FB000FDF737FB4FF48050079007A92148FEF733
:102FC000F9FB08B1FDF72DFB1E48FEF731FE08B1F5
:102FD000FDF727FB0B940BA91A480C94FEF7B2FAE5
:102FE00008B1FDF71EFB602000909620CDE901049A
:102FF0000022694613480494FEF7B4FD08B1FDF7BA
:1030000010FB042269460F48FEF7ACFD08B1FDF73E
:1030100008FB082269460B48FEF7A4FD08B1FDF73E
:1030200000FB0C22694607480194FEF79BFD08B19E
:10303000FDF7F7FA0348FEF7C5FC0EB010BD00001F
:1030400000040040C802002010B58EB00024079490
:10305000089409940A940B941C2168460C94FDF77B
:103060005BF91D481B4901604F21C0E901144FF66F
:10307000FF71C0E903148461FEF7ACFA08B1FDF7F3
:10308000D0FA4FF48050079007A91348FEF792FB3F
:1030900008B1FDF7C6FA1048FEF736FD08B1FDF796
:1030A000C0FA0B940BA90C480C94FEF74BFA08B12C
:1030B000FDF7B7FA0094019402940022694606488D
:1030C0000494FEF7F7FC002801D0FDF7AAFA0EB031
:1030D00010BD000000080040100300200C4810B58F
:1030E0000A4901604FF416514160002181600C22B1
:1030F000C160C0E904128161C161FEF77FFF002851
:1031000003D0BDE81040FDF78CBA10BD004C004064
:10311000300400200C4810B50A4901604FF4E13139
:103120004160002181600C22C160C0E9041281610C
:10313000C161FEF763FF002803D0BDE81040FDF732
:1031400070BA10BD00500040780400200C4810B543
:103150000A4901604FF4E1314160002181600C2295
:10316000C160C0E904128161C161FEF747FF002818
:1031700003D0BDE81040FDF754BA10BD0010014067
:10318000C00400200C4810B50A4901604FF41651E4
:103190004160002181600C22C160C0E9041281619C
:1031A000C161FEF72BFF002803D0BDE81040FDF7FA
:1031B00038BA10BD00440040080500200C4810B586
:1031C0000A4901604FF4E1314160002181600C2225
:1031D000C160C0E904128161C161FEF70FFF0028E0
:1031E00003D0BDE81040FDF71CBA10BD00480040F8
:1031F000500500200C4810B50A4901604FF4E13138
:103200004160002181600C22C160C0E9041281612B
:10321000C161FEF7F3FE002803D0BDE81040FDF7C2
:1032200000BA10BD0014014098050020FEE7000020
:1032300010B503222DED048B0021012002F07CFB50
:1032400028490860F0B39FED288ADFED288A9FEDBA
:10325000289AB0EE482AF0EE681AB0EE491AF6EE57
:10326000000AB0EE000A234800F008F92148B0EE49
:10327000482AF0EE681AB0EE491AF6EE000AB0EEEF
:10328000000A1C3000F0FAF81A48B0EE482AF0EEB6
:10329000681AB0EE491AF6EE000AB0EE000A543091
:1032A00000F0ECF81348B0EE482AF0EE681AB0EEE1
:1032B000491AF6EE000AB0EE000A383000F0DEF8E7
:1032C0000D4800E005E0BDEC048BBDE81040FEF7C2
:1032D00031BA502080F31188BFF34F8FBFF36F8F47
:1032E000FEE70000400100200000C8420000C8C204
:1032F000CDCCCC3DC80F0020580300202DE9F84F5D
:10330000594908680269920775D56FF0020288462C
:1033100002610868D0F824900024544FA246544E0D
:1033200037E000BF04EB840000EBC40007EB80052E
:10333000287F01282CD1A9882868FDF739FC0128AD
:1033400000D00020A97F8840697F08436877A87F64
:10335000401CC0B2A877082815D385F81CA0CDF86A
:1033600000A000236A4605F11D01686902F02CFCEB
:10337000009868B13F494FF080500860BFF34F8F0D
:10338000BFF36F8F04E02969D8F800004944416316
:10339000641C30788442C5DB00255FE005EB8500C6
:1033A00000EBC50007EB8004207F022855D194F87C
:1033B0003200401CC0B284F8320008280ED294F8C3
:1033C000311021FA00F111F0010F02D04FF001028B
:1033D00001E04FF00002A189A06804E00CD1A189AE
:1033E0004FF00102A068FDF7F0FB2169D8F800005A
:1033F0004944416331E034E000221146A06902F003
:103400002DFD94F82F1094F83000814219D004F16A
:103410001F02411C84F83010805C84F83100C8B26F
:10342000102801D384F830A084F832A0A1890022AA
:10343000A068FDF7CAFB2169D8F800004944416340
:1034400007E084F81CA0D8F80000C16821F0020150
:10345000C1600021A06902F016FC6D1C3078854225
:103460009CDBBDE8F88F0000100300208C100020CA
:103470006001002004ED00E0FEE7000080EC030A9C
:103480009FED050A80ED030A80ED040AC0ED051AE0
:1034900080ED062A704700000000000010B52022D1
:1034A00005490648FFF72AF804480068C16841F05A
:1034B0001001C16010BD00006A100020300400201F
:1034C00010B54FF4807205490548FFF717F8044816
:1034D0000068C16841F01001C16010BDA80A002059
:1034E00050050020A12000F0F1FD322002F03AF852
:1034F000A22000F0EBFD322002F034F8A32000F00F
:10350000E5FD322002F02EF8A42000F0DFFD32208D
:1035100002F028F8642002F025F8E3E7012000F02B
:10352000BDFFFBE710B54FF0E020006902F032FE6E
:10353000012803D0BDE8104002F0E8B910BD00003A
:1035400030B593B030216846FCF7E6FE14210CA894
:10355000FCF7E2FE1D480025016841F08051016042
:10356000006800F0805011901948016841F48041D2
:1035700001600068022400F4804011900120009056
:10358000000401908001CDE906400C200890A020A5
:10359000CDE9090404200B906846FDF7F1FD08B160
:1035A00072B6FEE70CA90F2081E831004FF4A0505D
:1035B0000F904FF48050109005210CA8FDF7D4FC1B
:1035C000002801D072B6FEE713B030BD403802408B
:1035D000007000400248016841F4700101607047CA
:1035E00088ED00E010B50448FEF753F9BDE810403F
:1035F0000248FEF74EB9000038020020A003002068
:1036000010B50448FEF745F9BDE810400248FEF742
:1036100040B90000380200205803002010B5FFF721
:103620006DFEBDE810400148FEF733B910030020DD
:103630000148FEF72EB90000600A0020F0B50268CC
:10364000274B284D284E294F294C4FF0804C98424B
:1036500009D0604507D0A84205D0B04203D0B84297
:1036600001D0A04204D122F0700E4A6842EA0E0254
:1036700098421BD0604519D0A84217D0B04215D04F
:10368000B84213D0A04211D01A4DA8420ED01A4D04
:10369000A8420BD0194DA84208D0194DA84205D018
:1036A000184DA84202D0184DA84203D122F440750B
:1036B000CA682A434D6922F080022A438D68C56298
:1036C0000D688562984201D0A04201D10969016369
:1036D000016841F004010160012141610260F0BD17
:1036E000000001400004004000080040000C0040C1
:1036F00000040140004001400044014000480140F6
:1037000000180040001C00400020004010B58468F4
:1037100042EA032224F47F440A432243826010BD1C
:10372000826822F070020A4342F00701816070470C
:10373000F0B5036A026A22F00102026242688469FB
:10374000124E24F073050C682C4323F002058B689D
:103750002B430D4DA84201D0B04205D123F00807FC
:10376000CB683B4323F00403A84201D0B04205D10B
:103770004D6922F4407215438A692A43426084618C
:10378000496841630362F0BD00000140000401404C
:10379000F0B5026A036A23F0100303624368846988
:1037A0000D6824F4E64444EA05248D6822F02002E2
:1037B00042EA05120F4D104EA84201D0B04206D188
:1037C000CF6822F0800242EA071222F04002A842AB
:1037D00001D0B04207D14D6923F4406343EA850329
:1037E0008D6943EA850343608461496881630262AD
:1037F000F0BD00000000014000040140F0B5026A85
:10380000036A23F4807303624368C46922F400727C
:1038100024F073050C68124E2C438D6842EA052291
:103820000E4DA84201D0B04206D1CF6822F400620A
:1038300042EA072222F48062A84201D0B04207D1B6
:103840004D6923F4405343EA05138D6943EA051398
:103850004360C4614968C1630262F0BD0000014079
:103860000004014030B5046A026A22F48052026208
:103870004268C3690D6823F4E64343EA05238D6873
:1038800024F4005444EA0534084DA84202D0084DFF
:10389000A84204D14D6922F4804242EA8512426076
:1038A000C36149680164046230BD0000000001404A
:1038B0000004014010B5036A046A24F001040462A4
:1038C000846924F0F00444EA021423F00A020A4353
:1038D0008461026210BD10B5036A046A24F010040A
:1038E0000462846923F0A00324F4704444EA0232A1
:1038F00043EA01118261016210BD0000114D4FF4D5
:10390000FA74002202212846FDF75FF90A2001F02F
:1039100029FE012202212846FDF757F9204601F031
:1039200021FE002208212846FDF74FF90A2001F068
:1039300019FE012208212846FDF747F9204601F02B
:1039400011FEDEE70008024038B5134C206801681C
:10395000C9061FD50168406800902046FEF7D4F9DB
:10396000E06B006840680D4CC0F1400082B2A07866
:1039700040B90B4800F14201A0F84020FCF7B3FC2D
:103980000120A070BDE8384005494022423102487C
:10399000FEF7B4BD38BD00000805002088000020F7
:1039A000D80E002038B5134C20680168C9061FD511
:1039B0000168406800902046FEF7A6F9E06B0068B9
:1039C00040680D4CC0F5807082B2207840B90B4839
:1039D000A0F58071A0F80021FCF785FC0120207083
:1039E000BDE838404FF4807205490248FEF786BDB5
:1039F00038BD00005005002038000020A80B002032
:103A0000A80A002010B500F007F8BDE810400148F2
:103A1000FEF7B4B93004002038B5124C20680168B4
:103A2000C9061ED50168406800902046FEF76CF973
:103A3000E06B006840680C4CC0F1200082B2207836
:103A400038B90A4800F122010284FCF74CFC01203D
:103A50002070BDE838400549202222310148FEF798
:103A60004DBD38BD3004002050010020481000201A
:103A700010B500F007F8BDE810400148FEF77EB928
:103A80007804002038B5134C20680168C9061FD59A
:103A90000168406800902046FEF736F9E06B006848
:103AA00040680D4CC0F5807082B2207840B90B4858
:103AB00000F58171A0F80021FCF715FC01202070B1
:103AC000BDE838404FF4807205490248FEF716BD44
:103AD00038BD00007804002074000020D60C0020BF
:103AE000D80D002010B5806B0021C185FEF744F988
:103AF00010BD70B5846B2068406994F84110C0F324
:103B0000C0100025212904D118B1E584204600F019
:103B1000B4F82068406994F84210C0F3801022295C
:103B200004D118B1E585204600F080F8606C40F0C3
:103B3000100060642046FEF71FF970BD10B5014605
:103B4000806B096809684FF00002C9052ED4C28550
:103B500001680C3151E8003F23F4807341E80034E0
:103B6000002CF5D10168143151E8003F23F0010326
:103B700041E80034002CF5D10168143151E8003FD0
:103B800023F0400341E80034002CF5D1202180F8D7
:103B90004210016B012909D101680C3151E8003F45
:103BA00023F0100341E80034002CF5D14263016B8F
:103BB000012902D0FEF7B0FC10BD818DFEF7A3F8FD
:103BC00010BD10B5806B01214163016B012902D04A
:103BD000FEF7A3FC10BD818D4908FEF794F810BDD7
:103BE00010B50146806B09680968C90516D4002123
:103BF000C1840168143151E8002F22F0800241E8AD
:103C00000023002BF5D101680C3151E8002F42F060
:103C1000400241E80023002BF5D110BDFEF710FD56
:103C200010BD10B5806BFEF717FD10BD01680C319B
:103C300051E8002F22F4907241E80023002BF5D1C7
:103C40000168143151E8002F22F0010241E80023FD
:103C5000002BF5D1016B012909D101680C3151E824
:103C6000002F22F0100241E80023002BF5D1202183
:103C700080F8421000210163704701680C3151E85F
:103C8000002F22F0C00241E80023002BF5D12021B3
:103C900080F84110704708B590F84210222901D0F1
:103CA000022008BD82684FF480539A4201D1016915
:103CB00021B1816A9A421BD04AB10AE00268816A46
:103CC0005268C2F308020A80816A891C08E002690E
:103CD00072B10268526802F07F020A70816A491C60
:103CE0008162C18D491E0904090CC18503D01BE006
:103CF00002685268F1E70168CA6822F02002CA60CF
:103D00000168CA6822F48072CA6001684A6922F0B8
:103D100001024A61202180F8421000214163026BB8
:103D2000012A03D0FEF7F8FB002008BD01630168FB
:103D30000C3151E8002F22F0100241E80023002B43
:103D4000F5D101680A68D20602D50A68496800916F
:103D5000818DFDF7D8FFE7E70FB42DE9F041DFF8DB
:103D6000748098F800009DF81870401E384227D0E3
:103D7000142F25D807AD184C00260CE0ED1D25F0BA
:103D80000705B5EC020B51EC100BFCF7F0FA761CB2
:103D900044F8040BF6B2BE42F0D3002004F8010B45
:103DA0000D4904F8010B802004F8020B7F2004F871
:103DB000010C0948201A82B20848FEF7FFFB20B127
:103DC0000020BDE8F0015DF814FB012188F8001027
:103DD0000846F6E7F80000205A0F0020980500205A
:103DE00070B5044600680169E26821F4405111434E
:103DF00001612169A068E2690843616911430843D0
:103E00002168CA6849F20C639A430243CA60206879
:103E10004169A26921F4407111434161314920682F
:103E2000884202D03049884202D1FDF767F901E0AB
:103E3000FDF754F9E2690023192164253226B2F511
:103E4000004F626828D0A0FB0101930F9200FCF79D
:103E500019FA0146B0FBF5F06FF01802504301EB80
:103E6000800006EB0010B0FBF5F000F0F002B1FBB3
:103E7000F5F002EB0012B1FBF5F06FF018035843B8
:103E800001EB800006EB0010B0FBF5F000F00F0036
:103E900021681044886070BDA0FB010192185B414D
:103EA000FCF7F0F90146B0FBF5F00201B1FBF5F0CB
:103EB0006FF01803584301EB800006EBC000B0FB25
:103EC000F5F000F0F80002EB4002B1FBF5F05843CA
:103ED00001EB800006EBC000B0FBF5F000F007003E
:103EE000D6E70000001001400014014038B581629F
:103EF00004468285002013466064222284F8422012
:103F0000E56B1F4AEA63E56B1E4A2A64E56B1E4AAD
:103F1000EA64E26B10650A462168E06B091DFCF754
:103F200017FD30B110206064202084F84200012089
:103F300038BD2068016840680090206948B1206859
:103F40000C3050E8001F41F4807140E80012002A54
:103F5000F5D12068143050E8001F41F0010140E81D
:103F60000012002AF5D12068143050E8001F41F0FB
:103F7000400140E80012002AF5D1002038BD0000C1
:103F80003D3B0008C33B0008F33A00082DE9F84325
:103F9000984617460D460446089E24E0701C22D021
:103FA000FCF718FEA0EB0800B0421AD8CEB120688A
:103FB000C168490717D5802D15D0402D13D0016851
:103FC000C94309070FD401680025406800902046C6
:103FD000FFF72CFE0820606484F840500120BDE803
:103FE000F8830320FBE72068006835EA000004D06E
:103FF0000020B842D2D00020F1E70120F9E700000C
:104000000148FDF7BBBE0000C004002010B5FFF75B
:104010009BFCBDE810400148FDF7B0BE080500203C
:1040200010B5FFF7BFFCBDE810400148FDF7A6BE84
:10403000500500200148FDF7A1BE000098050020B2
:1040400010B54FF4807205490548FEF757FA044849
:104050000068C16841F01001C16010BDD80D00209A
:1040600078040020074C084E00252078012805D14F
:1040700096F80011044800F093FA25700A2001F028
:1040800071FAF2E774000020D60C0020FEE7090761
:10409000090E002804DB00F1E02080F800147047CE
:1040A00000F00F0000F1E02080F8141D704702E0DE
:1040B00008C8121F08C1002AFAD1704770470020B3
:1040C00001E001C1121F002AFBD1704710B598B062
:1040D0000446342101A8FCF71FF9FF208DF80400E5
:1040E0000EA9A12C54D0A22C7ED0A32C7DD0A42C20
:1040F0004CD15C4801AB028800EE102AB8EE400AB1
:104100008DED0E0A428800EE102AB8EE400A8DEDC1
:104110000F0A828800EE102AB8EE400A8DED100AD0
:10412000C28800EE102AB8EE400A8DED110A02890D
:1041300000EE102AB8EE400A8DED120A428900EE18
:10414000102AB8EE400A8DED130A828900EE102A7B
:10415000B8EE400A8DED140AC28900EE102AA4229E
:10416000B8EE400A8DED150A008A00EE100AB8EE8E
:10417000400A8DED160A00912421092000F096F8DE
:104180006423282201A93848FEF7C8F918B010BDE9
:10419000364890ED000A36488DED0E0A90ED000A83
:1041A00034488DED0F0A90ED000A33488DED100A6A
:1041B00090ED000A31488DED110A90ED000A30486B
:1041C0008DED120A90ED000A2E488DED130A90ED48
:1041D000000A2D488DED140A90ED000A2B488DED54
:1041E000150A90ED000A01E006E01CE08DED160ACC
:1041F00001ABA1220091BFE7254801ABA22290EDBF
:10420000000A24488DED0E0A90ED000A22488DED3B
:104210000F0A90ED000A8DED100A90ED010A8DED68
:10422000110A009116E01D4801ABA32290ED000A8F
:104230001B488DED0E0A90ED000A1A488DED0F0A0D
:1042400090ED000A18488DED100A90ED000A8DEDF2
:10425000110A00911021042000F028F86423142290
:1042600090E70000AA0C00205005002090000020DC
:1042700094000020980000209C000020A000002056
:10428000A4000020B4000020B8000020BC000020E2
:10429000580100205C0100204C000020000100209B
:1042A000FC0000200401002008010020F0B50025DA
:1042B000059F5A7099702C460EE0032207EB840686
:1042C00006EB020C02EB840E1CF803CC521C03F824
:1042D0000EC0072AF4DB641C8442EEDB0120CA1CFA
:1042E00003E01C5C401C2C44E5B29042F9DB5818FA
:1042F000C570F0BDFCF776FDFFF722F9FEF73EFC36
:10430000FEF75AFBFEF722FFFEF7E8FEFEF702FF7C
:10431000FEF738FFFEF752FFFEF76CFFFEF7D4FC06
:10432000FEF746FDFEF7C2FDFEF726FEFEF708FD8E
:10433000FEF722FDFEF7E8FCFEF786FE40F2DC52B7
:104340000121032000F09EFE4FF47A720221032027
:1043500000F098FE012202210448FCF736FC00F030
:10436000ABF8FEF79FFB00F0B9F8FEE7000C024047
:10437000254B00B5B3F9000000EE100A0320B8EE9B
:10438000C00A00F043F8B3F9020000EE100A05205D
:10439000B8EEC00A00F03AF8B3F9040000EE100AD3
:1043A0000420B8EEC00A00F031F8B3F9060000EEC0
:1043B000100A0120B8EEC00A00F028F8B3F908008E
:1043C00000EE100A0720B8EEC00A00F01FF8B3F99B
:1043D0000A0000EE100A0620B8EEC00A00F016F837
:1043E000B3F90C0000EE100A0820B8EEC00A00F085
:1043F0000DF8B3F90E005DF804EB00EE100A022090
:10440000B8EEC00A00F002B838100020DFED1F0A35
:10441000B4EEE00AF1EE10FA01DDB0EE600ADFED75
:104420001C0AB4EEE00AF1EE10FA01D2B0EE600A16
:10443000DFED180A092830EE201AB3EE040AC1EEA7
:10444000000A9FED150A30EE800ABCEEC00A10EE9D
:10445000101A8AB219D2DFE800F01805070A0C100A
:1044600012141600042100E00321012003E00421BE
:1044700000E00321022000F005BE0221F5E7012142
:10448000F3E70221F6E70121F4E770470000164444
:10449000000016C400007A440000C84210B5EFF3D3
:1044A000058111B16FF0050403E0002408B101F0AB
:1044B00059F8204610BD0000EFF3058010B16FF0F1
:1044C000050070470448016811B14FF0FF30704794
:1044D0000121016000207047B401002010B5EFF306
:1044E000058010B16FF0050010BD08480168012972
:1044F00002D04FF0FF3010BD054A002182F8141D94
:104500000221016001F0DEF8002010BDB40100209E
:104510000BE000E02DE9FF414FEA01034FF00005F9
:10452000EFF30581039549BB40B380271821002490
:104530004AB3166806B1344696691EB13146761EF6
:10454000382E02D21679F60703D0002004B0BDE859
:10455000F081566906B1B708D2F808C0BCF1000F67
:104560000DD0D5685C2D18D312693AB136B18DE8FB
:1045700006103A46214601F0E2FD03900DE0D668B0
:104580005EB912694AB903AACDE90012BAB221464E
:1045900001F0A8FD012800D003950398D6E700009C
:1045A0007CB500231A461C460DE0065DAA2E09D1F3
:1045B00006197678A12E0BD0A32E09D0A42E07D0F1
:1045C000A52E05D0ECB2651C8D42EED39C1C0BE0F1
:1045D000641CE3B2FAE7055DFF2D04D1051915F857
:1045E000015CAF2D20D0641CE4B28C42F3D3C15CDB
:1045F000A1291CD0364CA3293DD0A4295DD0A529E2
:1046000011D1D11A491E01290DDBC118835C4978EB
:1046100010440B4410F8010CDBB2984203D1652919
:1046200001D1012060707CBD641EE2B2DFE7D11AC7
:10463000491E1229F7DBC118855C11F8013F1044AF
:104640008C7810F8010C2344CC7B2C442344DBB23F
:104650009842E8D11F4A002001EB40031B885BBA57
:1046600022F81030401CC0B20928F5D31089002868
:10467000D9D110817CBDD11A491E0429FADBC11899
:1046800011F8013FCD782B44855C10442B4410F881
:10469000010CDBB29842EDD1088840BA00EE100A56
:1046A000B8EE400A84ED020A488840BA00EE100ACB
:1046B000B8EE400A84ED010A7CBD07A10622D1E9CB
:1046C0000001CDE9000169460548FDF777FF7CBD93
:1046D00074000020AA0C0020AAA4CC7BAFFF00002D
:1046E0007804002070B50C460546074B074A00F0D9
:1046F0000FF821462846044BBDE87040034A1B1DB5
:10470000121D00F005B800005401002000670008E9
:104710002DE9F0479A4690460E46074600250AE0E6
:104720007819044604224146FBF701FE10B92079AE
:104730003A2803D06D1C681DB042F1DB681D4FF0B4
:10474000FF3CB0421DDA6C1D012000231A466FF0B9
:104750002F090CE02D2917D0A1F13008B8F1090F6D
:104760000AD803EB830809EB48030B44641CB442EA
:1047700002DA395D2E29EDD1B44202DA395D2E29F3
:1047800004D06046BDE8F0876046EFE70021641C76
:1047900010E000BF17F804C0ACF13008B8F1090F01
:1047A0000AD802EB820809EB4802491C641C6244E7
:1047B000022901DAB442EDDBE1B101291CD0642108
:1047C00000EE101AF8EE400A00EE102AB8EEC00A09
:1047D00080EE201A00EE103AB8EEC00A71EE000A20
:1047E00000EE100A601BB8EEC00A20EE800A8AEDC7
:1047F000000AC7E70121E3E70A21E1E72DE9F041DB
:10480000134C0F460546E6682068001D00F076FD53
:10481000681C07D137B12168BDE8F0410D48091D7A
:1048200000F0BCBD20683544B5424560216805D222
:10483000A06BBDE8F041091D00F098BD606B091D3B
:1048400000F094FDA06A854200D2A562BDE8F08127
:10485000640100204C1600202DE9F041054600F0CF
:10486000A9FD2D4CA068401CA06020682B4F10B102
:10487000606930B32BE02560A068012827D10026AD
:1048800006EB860007EB800000F062FD761C382EF8
:10489000F6D3234800F05CFD2148143000F058FDA9
:1048A0001F48283000F054FD1D483C3000F050FDFA
:1048B0001B48503000F04CFD194860631430A06371
:1048C00005E02068E96AC06A884200D82560606A0D
:1048D000401C60626864E86A2169884200D92061EE
:1048E00000EB800007EB8000291D00F057FD00F071
:1048F00081FD606900280CD02068E96AC06A88429E
:1049000007D208494FF080500860BFF34F8FBFF3C4
:104910006F8FBDE8F0810000640100209C11002031
:10492000FC15002004ED00E038B500F043FD104C0C
:104930002068C8B90F4800F00BFD0E48143000F095
:1049400007FD0C48E060143020610A4B0020F03B6A
:10495000009003F1500210210A2001F00EF82060AF
:1049600010B105A100F0C8FDBDE8384000F042BD1F
:10497000A001002050170020546D7251000000006B
:1049800030B4026C0B46002A0BD0C1681144C160E0
:104990008468A14201D30168C16030BC1846FBF7AE
:1049A000A2BC30BC70472DE9F041856B1746044628
:1049B0000026026C82B1C7B1E068FBF794FCE168A5
:1049C000206C091AE1602268914202D2A168081A9B
:1049D000E060022F16D017E02068A8B9A06801F0A7
:1049E00051FC06460020A0600EE06068FBF77BFCEF
:1049F000216C606808446060A168884204D3206824
:104A0000606001E005B16D1E6D1CA5633046BDE818
:104A1000F08110B5044690F8590058B101280CD027
:104A200002280FD0502080F31188BFF34F8FBFF3BF
:104A30006F8FFEE7206B00F0F1FC2046BDE81040D0
:104A400000F0ECBC10BD000010484FF4705142075C
:104A500006D0C01D0D4920F00700411AC1F5705164
:104A60000B4A00230144C2E900030839183A21F037
:104A7000070111604B600B600B1AC0E900139360D3
:104A80004FF000405360506170470000301E00201E
:104A9000D0010020144E154CA6F29C474FF08058D0
:104AA000DFF84C9012E000BF00F084FCF068C568AD
:104AB000281D00F023FCA068401EA0606068401E16
:104AC000606000F097FC2846FFF7A3FF60680028AD
:104AD000EAD138680128F9D9C9F80080BFF34F8FAF
:104AE000BFF36F8FF2E7000038160020640100204A
:104AF00004ED00E070B51D46049C51B1C4F80020DF
:104B0000C4E90F010121204600F06AFF84F84C50EF
:104B100070BD2460F4E700002DE9F05F8846DDE910
:104B20000B941546834691009A460A9EA522206B57
:104B3000FBF7EBFB6FF00301206B01EB85010844F1
:104B400020F00707780707D0502080F31188BFF3C3
:104B50004F8FBFF36F8FFEE70025B8F1000F0FD026
:104B60005FF00000221818F8001082F8341018F8CE
:104B7000001011B1401C1028F4D384F8435001E018
:104B800084F83450382E00D33726E662C4E9136522
:104B9000201D00F0E8FB04F1180000F0E4FB2461A4
:104BA000C6F138006462A061656584F858505246C9
:104BB0005946384600F08AFA2060B9F1000F01D05A
:104BC000C9F80040BDE8F09F30B5114900E011463A
:104BD0000A688242FBD34B685C18844203D1406868
:104BE00018444860084643681C18944209D1084C90
:104BF000183C2468A24209D052681A4442600A68EC
:104C000012680260814200D0086030BD0460F9E79C
:104C1000D001002070B5002441600B4D006191422D
:104C200006D8D11A8269914206D2011D286907E08F
:104C30009A4203D2994201D3012403E0011DE8689E
:104C400000F094FB204670BDA001002010B5044682
:104C500000F0B0FBA06B28B15FF0000400F0CAFBCD
:104C6000204610BD0124F9E730B589B03C4D6EE017
:104C70000498002806DADDE90601059A90470498B1
:104C8000002864DB069C606910B1201D00F036FB33
:104C900003A800F0D7F8024604980A2857D2DFE8A4
:104CA00000F00505052D334A05052D3394F828003D
:104CB00040F0010084F828000599A069059B014493
:104CC0002046FFF7A7FF68B3216A2046884794F87B
:104CD000280040073BD5002000900598A1690023DB
:104CE00042181946204601F013FCD8B9502080F331
:104CF0001188BFF34F8FBFF36F8FFEE714F8280FB3
:104D000020F00100207022E094F8280040F001001B
:104D100084F828000598A06128B181181346204620
:104D2000FFF778FF13E0502080F31188BFF34F8F17
:104D3000BFF36F8FFEE794F82800810703D4204665
:104D400000F06CFB03E020F0010084F82800002252
:104D500004A9286800F0E6FF002889D109B030BD19
:104D6000A00100202DE9FC410F46054600F0EEFCB5
:104D700001A800F067F80446019818B101F036FB6D
:104D8000BDE8FC81254EAFB130690068D0B3002783
:104D9000291B3A46306800F0C3FB01F027FB0028CE
:104DA000EED11F494FF080500860BFF34F8FBFF323
:104DB0006F8FE5E7A542EBD801F018FBF0682746B6
:104DC000C068C468201D00F099FA94F828004107D3
:104DD00019D5A0692B4641193A462046FFF71AFF1C
:104DE000A8B100200346014600902A46204601F063
:104DF0008FFB60B9502080F31188BFF34F8FBFF352
:104E00006F8FFEE707E020F0010084F82800216A98
:104E100020468847B4E70127BAE70000A001002038
:104E200004ED00E00648416B096829B1416BC9688F
:104E3000C9684968816270474FF0FF31FAE70000A6
:104E40006401002070B5054601F0B2F9064E044633
:104E5000B068844203D200F009F8012000E000208D
:104E600028602046B46070BDA0010020F8B5194D3F
:104E700020E0C068C4680668201D00F03FFA216A7F
:104E80002046884794F82800400713D5A06930448D
:104E9000B04206D924616060211DE86800F066FA1E
:104EA00008E000200346014600903246204601F00B
:104EB0002FFB38B1E86801680029DAD12969C5E912
:104EC0000310F8BD502080F31188BFF34F8FBFF35C
:104ED0006F8FFEE7A001002008484068401C4FF09B
:104EE000500080F3118804D0BFF34F8FBFF36F8F52
:104EF000FEE7BFF34F8FBFF36F8FFEE7D8010020AF
:104F0000074CE068016841B1C0680021D0F800009A
:104F1000FFF728FFFFF7A8FEF3E701210020F7E7DE
:104F2000A00100202DE9F041044600F043FA94F975
:104F3000455004F1240609E0606A48B1304601F0AA
:104F40001DFA08B100F03CFB6D1E6DB2002DF3DCC4
:104F50004FF0FF3684F8456000F04CFA00F02AFA72
:104F600094F9445004F1100709E0206948B138462B
:104F700001F004FA08B100F023FB6D1E6DB2002DA4
:104F8000F3DC84F84460BDE8F04100F033BA00007F
:104F90002DE9F0410546002700F0D8FB324E30687D
:104FA00008B9FFF751FD706905424ED1C5B3083508
:104FB00068070ED005F00700C0F108000544680737
:104FC00007D0502080F31188BFF34F8FBFF36F8F4E
:104FD000FEE72DB37068854237D823481830014664
:104FE0000C6801E020460C466168A94202D22168A3
:104FF0000029F7D131688C4227D007682168016009
:1050000060680837411B10290FD96019420708D082
:10501000502080F31188BFF34F8FBFF36F8FFEE7EF
:1050200013E041606560FFF7CFFD61687068401A6A
:105030007060B268904200D2B06070690143002095
:10504000C4E90001F068401CF06001F0CFF9780776
:1050500007D0502080F31188BFF34F8FBFF36F8FBD
:10506000FEE73846BDE8F081B80100200449086831
:1050700018B10868026D521C02650868704700008C
:1050800064010020012805D002280FD0032806D192
:105090000B480CE00B480AE0042900D10264704779
:1050A0004263704782637047C263704706480129B4
:1050B0000068F5D00229F5D00329F5D0ECE700000F
:1050C000C8020020380200208002002010B5031F13
:1050D0004FF080741C601B1F21F001011960191F23
:1050E000044B0B6014390A60091F6FF00202443848
:1050F0000A6010BDD94E00083CB500201649024692
:105100000A54401CC0B21928FAD3AA200870A22061
:105110004870124A00206B46145C1C5444F0800412
:105120001C54401CC0B20828F6D302201C1814F8E6
:10513000024C0C54401CC0B20A28F7D30B18AF2401
:105140005C7014789578D2792C44AF3222440A549A
:10515000FF2098703CBD0000BC0C002080000020A7
:10516000084C002084F80100FFF7C6FF0D22064915
:105170000648FDF723FAC82000F0F4F9607800280B
:10518000F9D1F1E774000020BC0C00207804002065
:10519000504C4FF0FF352946206800F0ADFE012845
:1051A000F9D14D48504990ED000A4C4884ED020A6F
:1051B00084ED010A90ED000A494884ED030AB0F934
:1051C0000000400000EE100A4648B8EEC00A80ED2C
:1051D000000AB1F90010490000EE901A4349B8EEF8
:1051E000E01A80ED011AB1F90010490000EE901AA2
:1051F0003F49F8EEE00AC0ED020AB1F9001049009B
:1052000001EE901A3B49F8EEE11AC0ED041AB1F92B
:105210000010490002EE101A3749B8EEC22A80ED9C
:10522000052A31EE823AB1F90010490033EE203AF6
:1052300002EE901ABDEEC33AF8EEE22A13EE101A0F
:1052400031EEC23AC0ED032A883033EE203A0180B5
:10525000BDEEC33A13EE101A32EE613AF1EE611A66
:10526000418071EEC21A33EE203A71EEA00ABDEE13
:10527000C33A13EE101AFDEEE00A818010EE901A88
:1052800072EE800AC18070EEC10AFDEEE00A10EEF7
:10529000901A70EE620A018170EE810AFDEEE00A5A
:1052A00010EE901AF1EE620A418170EEC00A32EE01
:1052B000C00A70EEC10A30EE010AFDEEE00ABDEE52
:1052C000C00A10EE901A818110EE101AC181FFF70A
:1052D0004FF860E740010020D0000020D8000020F7
:1052E00054000020B00F002056000020580000207D
:1052F0005C0000205E0000205A000020D0E901324E
:1053000001699A60D0E901235A604A68824201D15A
:1053100082684A60002202610868401E08600868CE
:1053200070470000034B036003F15C0008608020BD
:105330001060704778170020044B036003F15C0095
:1053400008604FF48070106070470000D41900208E
:1053500000F108014FF0FF32C0E90112C1600161A4
:1053600000210160704700210161704730B50B6872
:105370005A1C02D000F1080202E0026904E0224651
:10538000546825689D42FAD953684B6099608A60D9
:10539000516008610168491C016030BD42684A6083
:1053A00093688B6093685960916008610168491C3B
:1053B00001607047502080F31188BFF34F8FBFF317
:1053C0006F8F0A494868401C486001280CD1084882
:1053D000006810F0FF0F07D0502080F31188BFF352
:1053E0004F8FBFF36F8FFEE770470000D80100209A
:1053F00004ED00E00849486828B1401E486001D12A
:1054000080F311887047502080F31188BFF34F8FCD
:10541000BFF36F8FFEE70000D801002070B50028B1
:105420002AD0164DA0F1080460686969084207D1C6
:10543000502080F31188BFF34F8FBFF36F8FFEE7CB
:1054400022683AB1502080F31188BFF34F8FBFF329
:105450006F8FFEE78843606000F078F960686968E4
:10546000084468602046FFF7AFFB2869401C2861AC
:10547000BDE8704000F0BABF70BD0000B801002068
:105480004FF0E02000210161816105494FF47A72FB
:105490000968B1FBF2F1491E4161072101617047C2
:1054A0003400002010B5FAF7D7FE114910280ED3AA
:1054B00000F1E02090F8F0030A78904207D25020E3
:1054C00080F31188BFF34F8FBFF36F8FFEE709485A
:1054D0000068896800F4E060884207D9502080F3B2
:1054E0001188BFF34F8FBFF36F8FFEE710BD000031
:1054F000D80100200CED00E010B5084B002200BFE1
:1055000053F832401CB1521C082AF9D310BD43F89D
:10551000321003EBC201486010BD00005C11002096
:1055200070B515460E460446FFF744FF94F9441043
:105530000020491C01D184F8440094F94510491C0D
:1055400001D184F84500FFF755FFA06B28B92A4622
:10555000314604F1240000F051F82046BDE87040C7
:10556000FFF7E0BC10B5020014D00F48006B38B153
:10557000502080F31188BFF34F8FBFF36F8FFEE78A
:1055800000F0E4F800211046FFF738F900F02EFF94
:10559000002807D105494FF080500860BFF34F8FB6
:1055A000BFF36F8F10BD00006401002004ED00E028
:1055B00002490A6A0260C9684160704764010020BC
:1055C00001490120C86170476401002010B50C46F4
:1055D00050B1094909681831FFF7C8FE2046BDE8F7
:1055E00010400121FFF70AB9502080F31188BFF362
:1055F0004F8FBFF36F8FFEE76401002070B5144634
:105600000D4668B10A4909681831FFF7C7FE0CB1A9
:105610004FF0FF3521462846BDE87040FFF7EEB851
:10562000502080F31188BFF34F8FBFF36F8FFEE7D9
:105630006401002070B504003ED0226DA2B1E06C80
:10564000884200D30146E06A884235D0012A33D12E
:105650001A4D2A6894420FD1502080F31188BFF36D
:105660004F8FBFF36F8FFEE7502080F31188BFF399
:105670004F8FBFF36F8FFEE7E162A269002A02DB62
:10568000C1F13801A1610E4E00EB8000616906EBAB
:105690008000814210D1201DFFF730FEE06A2969A9
:1056A000884200D9286100EB800006EB8000211DB4
:1056B000BDE87040FFF772BE70BD000064010020BD
:1056C0009C11002030B587B00024039405AA04A9DA
:1056D00003A80494FFF726FEDDE903010094CDE959
:1056E0000110002315A11748059A00F028FD164D5A
:1056F0000028E8621FD000F0DBFE012809D0401C22
:1057000019D1502080F31188BFF34F8FBFF36F8FF3
:10571000FEE7502080F31188BFF34F8FBFF36F8FE8
:105720004FF0FF30A86201206861EC6007B0BDE86F
:10573000304000F071B807B030BD000049444C451E
:1057400000000000954A0008640100200248016B37
:10575000491C01637047000064010020164810B521
:10576000016B11B10121C16110BD0021C16101694D
:10577000124A01E0B9B1491E01EB810352F823300E
:10578000002BF7D001EB810302EB830202F1080446
:1057900053685B685360A34201D15B685360DA6869
:1057A0000260016110BD502080F31188BFF34F8F5C
:1057B000BFF36F8FFEE70000640100209C11002002
:1057C0001FB5DFF84880DFF84890DFF848A000BF39
:1057D000D8F80000FAF7B8FD06460F46D9F80000E1
:1057E000FAF7B2FD04460D46DAF80000FAF7ACFD10
:1057F0008DE8F00041EC100B032053EC102BFEF76A
:10580000ABFAC820FFF7AEFEE2E70000D8000020A8
:10581000D0000020D40000201CB537480168374A6A
:10582000914207D1502080F31188BFF34F8FBFF30F
:105830006F8FFEE700683149491E884207D150202A
:1058400080F31188BFF34F8FBFF36F8FFEE72C49B2
:1058500008780190FF20087008788DF800009DF806
:1058600000009DF8002000F0F000904207D050208A
:1058700080F31188BFF34F8FBFF36F8FFEE79DF862
:105880000000204C00F0500020700720A06005E0D0
:105890009DF8002052008DF80020401E9DF8002049
:1058A0001206F5D4A060032807D0502080F3118899
:1058B000BFF34F8FBFF36F8FFEE74FF44070A060D0
:1058C000019808700C482030016841F470010160B3
:1058D000016841F070410160FFF7D2FD0020606077
:1058E000FAF782FC0848016841F040410160FAF78C
:1058F00067FC00201CBD000000ED00E071C20F41FC
:1059000000E400E0D801002034EF00E010B55020A2
:1059100080F31188BFF34F8FBFF36F8F00F04EFC01
:1059200018B104494FF080500860002080F31188BE
:1059300010BD000004ED00E0F8B517460E46050066
:1059400013D005FB06F05030FFF722FB04000AD00D
:10595000002084F8460004F150023B4631462846B8
:105960000094FFF7C7F82046F8BD502080F3118857
:10597000BFF34F8FBFF36F8FFEE738B5049D18B1AB
:1059800053B1CAB181B120E0502080F31188BFF338
:105990004F8FBFF36F8FFEE7502080F31188BFF366
:1059A0004F8FBFF36F8FFEE7502080F31188BFF356
:1059B0004F8FBFF36F8FFEE739B1502080F311880E
:1059C000BFF34F8FBFF36F8FFEE750241C460123B8
:1059D00084F846302B460094FFF78CF8204638BDFB
:1059E00070B50D46040025D0FFF7E4FCD4E90F2084
:1059F000216802FB0011A1600021A16321686160A0
:105A00000A46D4E90F01401E00FB0121E160214656
:105A10004FF0FF3001F8440F487004F110008DB1D1
:105A2000FFF796FC04F12400FFF792FCFFF7E2FC7D
:105A3000012070BD502080F31188BFF34F8FBFF35A
:105A40006F8FFEE721690029F0D000F097FC002855
:105A5000ECD004494FF080500860BFF34F8FBFF384
:105A60006F8FE3E704ED00E02DE9FF4782B01D46AC
:105A70008A464FF00008040003D0BAF1000F08D0A6
:105A800011E0502080F31188BFF34F8FBFF36F8F69
:105A9000FEE7206C38B1502080F31188BFF34F8FA0
:105AA000BFF36F8FFEE7022D0AD1E06B012807D00C
:105AB000502080F31188BFF34F8FBFF36F8FFEE745
:105AC00000F068FB3F4F4FF000094FF0805648B997
:105AD000049838B1502080F31188BFF34F8FBFF383
