:020000040800F2
:10000000785B0020610200088D440008F130000890
:1000100041420008FD070008C15000080000000030
:10002000000000000000000000000000A101000826
:100030003909000800000000FD010008C54500085E
:100040007B0200087B0200087B0200087B0200089C
:100050007B0200087B0200087B0200087B0200088C
:100060007B0200087B0200087B0200081D080008D4
:10007000290800087B020008350800087B020008F8
:10008000410800084D0800087B0200087B020008B8
:100090007B0200087B0200087B0200087B0200084C
:1000A0007B020008A1460008854600087B02000884
:1000B0007B0200087B020008BD4600087B020008A6
:1000C0007B0200087B0200087B0200087B0200081C
:1000D0007B020008A54F0008B14F0008315000080E
:1000E0007B0200087B0200087B0200087B020008FC
:1000F0007B0200087B0200087B0200085908000808
:100100007B0200087B0200087B0200087B020008DB
:100110007B020008054A0008D14600087B0200085F
:100120007B02000865080008710800087B020008CF
:100130007B0200087B0200087B0200087B020008AB
:100140007B0200087B0200087B0200087B0200089B
:100150007B0200087D08000889080008B5500008E7
:100160007B0200087B0200087B0200087B0200087B
:100170007B0200087B0200087B02000800000000F0
:100180007B0200087B020008DFF810D000F086F93F
:100190000048004729530008AFF30080785B002037
:1001A0002C4B19680868B0E8F04F80F30988BFF35A
:1001B0006F8F4FF0000080F311887047000000003F
:1001C00008480068006880F308884FF0000080F35A
:1001D000148862B661B6BFF34F8FBFF36F8F00DF35
:1001E00000BF00BF08ED00E0DFF80C00016841F43B
:1001F00070010160704700BF88ED00E0EFF30980F7
:10020000BFF36F8F134B1A681EF0100F08BF20ED5D
:10021000108A20E9F04F106009B44FF0500080F3CD
:100220001188BFF34F8FBFF36F8F06F0D5F94FF0F2
:10023000000080F3118809BC19680868B0E8F04F25
:100240001EF0100F08BFB0EC108A80F30988BFF3CE
:100250006F8F70475C010020EFF30580704700004E
:100260000648804706480047FEE7FEE7FEE7FEE750
:10027000FEE7FEE7FEE7FEE7FEE7FEE7754600085D
:10028000890100082DE9F05F0546002092469B4653
:1002900088460646814640241BE02846414647469C
:1002A000224600F0B3F853465A46C01A914110D383
:1002B00011461846224600F09AF82D1A67EB0108FD
:1002C0004F4622460120002100F091F817EB00096B
:1002D0004E41201EA4F10104DFDC484631462A4687
:1002E0004346BDE8F09F2DE9F0410024061B25465A
:1002F00071F1000605DA01240027D0EB070067EB57
:100300000101161E73F1000605DA0027D2EB070281
:10031000012567EB0303FFF7B5FF86460E46174638
:100320009C46AC4204D00025D0EB050E65EB0106DF
:1003300024B10020D2EB000760EB030C704631467D
:100340003A466346BDE8F08140EA01039B0703D0CB
:1003500009E008C9121F08C0042AFAD203E011F804
:10036000013B00F8013B521EF9D27047D2B201E0C6
:1003700000F8012B491EFBD270470022F6E710B5AA
:1003800013460A4604461946FFF7F0FF204610BD03
:1003900000F0004230F000400AD0C10D01F560715C
:1003A000C0F3160042EA0151C208400711437047EA
:1003B00000200146704701F0004330B421F00041B5
:1003C00050EA010206D00A0DA2F56072C1F31301D2
:1003D000002A02DC30BC00207047440F44EAC1040C
:1003E000C100E01830BC00EBC25000F01FB8202A5A
:1003F00004DB203A00FA02F1002070479140C2F17C
:10040000200320FA03F3194390407047202A04DBAD
:10041000203A21FA02F00021704721FA02F3D0407D
:10042000C2F1200291400843194670470029A8BF35
:100430007047401C490008BF20F00100704710B40D
:10044000B0FA80FC00FA0CF050EA010404BF10BCC2
:10045000704749B1CCF1200421FA04F411FA0CF1EF
:1004600018BF012121430843A3EB0C01CB1D4FEA28
:1004700000614FEA102042BF002010BC704700EB23
:10048000C35010440029A4BF10BC7047401C490051
:1004900008BF20F0010010BC70470000064C074D5B
:1004A00006E0E06840F0010394E807009847103444
:1004B000AC42F6D3FFF76CFEE8750008087600083A
:1004C00070B58C1810F8015B15F0070301D110F816
:1004D000013B2A1106D110F8012B03E010F8016B43
:1004E00001F8016B5B1EF9D12B0705D40023521EC6
:1004F0000DD401F8013BFAE710F8013BCB1A921C2E
:1005000003E013F8015B01F8015B521EF9D5A1422B
:10051000D8D3002070BD00001CB56946F32000F060
:1005200037F8002829D101A9F52000F031F800287A
:1005300023D1BDF80000DFED121A00EE100A1248B8
:10054000F8EE400A9FED0D0A20EE801ADFED0D0A4D
:1005500041EE210A9FED0D1AC0ED030ABDF804100B
:1005600000EE901AF8EE600A60EE800AB9EE080A12
:1005700000EE810A80ED020A00201CBD00008037D9
:1005800052B82F4366663BC2F40000200000FA42D6
:1005900033B583B00D466424012303AA80210C489F
:1005A000009400F077FE002810D1552000F094FB55
:1005B000032301AA80210648009400F073FD00285F
:1005C00004D1BDF8040040BA2880002005B030BD39
:1005D000DC0100202DE9F0474E4C82464E49206C4C
:1005E000E56AC217411842F1FF30A1FB012300FB6D
:1005F000013301FB0038236BA2FB0397DE1708FBD6
:100600000373A1FB057C02FB0633EE1700FB05C557
:1006100001FB06556E0446EAD7367F0417EB09073F
:100620005E41A36ADD0017F10009636A7541A2FB10
:10063000037CDE1708FB03C302FB0632236A3E0A73
:10064000A1FB03C800FB0380DF1701FB07000103C8
:1006500046EA02664FEA0C3041EA1C51301841EB81
:100660002222031CE06942F50041A3FB0076C21779
:1006700001FB006003FB02004210C31752EA0300B3
:1006800045D0CAF58010C117C907C60741EA500115
:10069000B6EB090640F63547A6FB070C61EB0501F2
:1006A00001FB07C1002506FB0511FFF71CFEE56BEA
:1006B000420B42EAC142A2FB057C4B13EE1703FB3F
:1006C00005C502FB0655A7FB026C05FB02C207FB32
:1006D0000323720E42EAC3125D16A36BA3FB007CD8
:1006E000DE1706FB00C603FB0166FB0C801843EA1D
:1006F00046336941C01841EBE6414FEA102040EA19
:100700000160616B4FEA01114018BDE8F0870020DD
:10071000FBE70000F4000020000CFEFF30B587B0BE
:1007200027208DF81400012005A9CDE900106424CC
:100730000346F4220294EC212C4800F043FF0028E9
:1007400051D1082000F0C8FA082003A9CDE9001013
:100750000123F7220294EC21244800F031FE002806
:1007600041D19DF80C009DF80D10000340EA0110E6
:100770009DF80E109DF8102040EA11109DF80F1002
:100780001B4C090341EA02119DF81120236941EA3B
:100790001211CA10A2EB4302C3EB21116569494350
:1007A000A3696A430913D212594302EBA1312164B0
:1007B00001EB810180310D12FFF70CFF00EE105AA2
:1007C0009FED0C1A00EE900AB8EEC00A0020C0EEB1
:1007D000011AB8EEE00ADFED080A20EE200AC4EDA7
:1007E000001A84ED010A07B030BD0000DC010020D2
:1007F000F40000200000C8420000803BFEE700003B
:10080000054D4FF4FA74204604F0C6FE0421284634
:1008100000F071FBF7E7000000100240014800F013
:10082000E9B80000D8050020014800F0E3B8000056
:1008300018080020014800F0DDB80000780800200A
:10084000014800F0D7B8000058070020014800F028
:10085000D1B80000B8070020014800F0CBB8000074
:1008600038060020014800F0C5B80000D808002074
:10087000014800F0BFB8000098060020014800F0D1
:10088000B9B8000038090020014800F0B3B80000F2
:10089000F806002001681823CAB2103AB2FBF3F23E
:1008A000054B6FF30901032A9B5CC36500D9091D41
:1008B00081650846704700003875000810B501468C
:1008C00000208B698A6A4FF0C07453B1B3F5005FA2
:1008D00015D072B1012A0CD0022A0AD0032A09D1FC
:1008E00004E01AB1012A06D0022A03D1C96AC9015B
:1008F00000D5012010BDC96AA142FAD010BD002A5E
:10090000F7D0012AF2D0022AF3D0032AF3D010BD87
:1009100030B50468256825F4802525600468636087
:100920008368402B036803D099600068C26030BDC3
:100930009A600068C16030BD704772B6FEE72DE96D
:10094000F0410446876D00F0E3FA064694F835005E
:100950000025022806D08020606584F834500120EC
:10096000BDE8F0812068016821F01601016020686F
:10097000416921F080014161206C08B9A06C20B16F
:100980002068016821F0080101602068016821F0F9
:10099000010101600CE000F0BBFA801B052807D9BB
:1009A00020206065032084F8350084F83450D7E7B0
:1009B00020680068C007EED194F85C103F208840A2
:1009C000B860012084F8350084F834500020C7E76F
:1009D00090F83510022903D080214165012070472D
:1009E000052180F835100068016821F001010160DF
:1009F000002070472DE9F84304464FF00009CDF878
:100A0000009063484FF41651A56D0068B0FBF1F7F4
:100A10002E6894F85C10082000FA01F131420FD0E2
:100A200021680A6852070BD50A6822F004020A609E
:100A300094F85C108840A860606D40F0010060652B
:100A400094F85C104FF0010808FA01F0304208D029
:100A500021684969090604D5A860606D40F002006C
:100A6000606594F85C1004208840304208D021680A
:100A70000968890704D5A860606D40F004006065CE
:100A800094F85C1010208840304218D02168096822
:100A9000090714D5A86020680168490304D50068D7
:100AA000000308D5A16C07E00168C90503D40168FB
:100AB00021F008010160216C09B12046884794F8B3
:100AC0005C1020208840304231D021680968C90676
:100AD0002DD5A86094F8350005282068016806D057
:100AE000490347D5006800031DD4616C1CE021F068
:100AF000160101602068416921F080014161206C8C
:100B000008B9A06C20B12068016821F008010160DB
:100B100094F85C103F208840A86084F8358084F801
:100B20003490216D1FE0E16B09B120468847606D6C
:100B300000282BD0606DC00714D0052084F8350044
:100B40002068016821F0010101600098401C0090BC
:100B5000B84203D820680068C007F6D184F8358011
:100B600084F83490E16C002910D001B02046BDE833
:100B7000F04308470168C905D5D4016821F0100188
:100B8000016084F8358084F83490CCE7BDE8F883C0
:100B90002C0000202DE9F041044600F0B9F906468A
:100BA0005CB1022084F83500002584F834502068B8
:100BB000016821F0010101600DE00120BDE8F08134
:100BC00000F0A6F9801B052805D9202060650320C8
:100BD00084F83500F2E720680068C007F0D1226889
:100BE000116820480140D4E901031843D4E90336D1
:100BF0003343184363691843A3691843E3691843EF
:100C0000236A18430843616A042903D1D4E90B130A
:100C100019430843106020684069666A20F00701A4
:100C200030460E43012704280CD1A06A0643E06A2F
:100C300040B12046FFF742FE20B14020606584F8B5
:100C40003570BAE7206846612046FFF723FE94F826
:100C50005C203F2191408160656584F835700020FB
:100C6000ACE700003F8010F02DE9F0410446866DAE
:100C700090F83400002501280DD0012084F83400BC
:100C800094F835700020012F07D084F83400022535
:100C90002846BDE8F0810220FBE7022784F8357082
:100CA00060652046FFF734FE94F85C103F208840D2
:100CB000B0602068016841F016010160206C20B12D
:100CC0002068016841F0080101602068016841F076
:100CD00001010160DCE7000070B5044600F018F97E
:100CE0000546601C02D004480078044400F010F966
:100CF000401BA042FAD370BD200000202DE9F84F20
:100D0000DFF8BCA10022012503264FF00F090AF1EC
:100D1000040BAAF1040E00BF0B6805FA02F423408D
:100D2000A34270D10F7907F00307012F01D0022FE2
:100D300016D187684FEA420806FA08FC27EA0C0732
:100D4000D1F80CC00CFA08FC4CEA070CC0F808C03B
:100D50004768A7430C79C4F3001494403C434460B3
:100D60000C79E443A4070AD0C4684FEA420C06FA9F
:100D70000CF7BC438F6807FA0CF72743C7600C7960
:100D800004F00304022C12D1D40800EB840CDCF82C
:100D900020405707FF0E09FA07F824EA0804D1F8A3
:100DA000108008FA07F848EA0408CCF820800468A4
:100DB0004FEA420C06FA0CF7BC430F7907F0030721
:100DC00007FA0CF7274307604C6814F4403F70D0D3
:100DD0003C4C276847F480472760246822F00307CB
:100DE00004F480440094384C07EB040CDCF8084809
:100DF00097074FEA177809FA08F7BC43334FB84210
:100E000002D1002724E054E0314FB84201D101273C
:100E10001EE0304FB84201D1022719E02E4FB842F0
:100E200001D1032714E02D4FB84201D104270FE070
:100E30002B4FB84201D105270AE02A4FB84201D111
:100E4000062705E0284FB84201D1072700E0082710
:100E500007FA08F72743CCF80878DAF80040574635
:100E6000D1F804C09C435FEACC2C00D51C433C6005
:100E7000DBF800405F46D1F804C09C435FEA8C2C4D
:100E800000D51C433C60DEF800407746D1F804C032
:100E90009C435FEA8C3C00D51C433C60084F083FF4
:100EA0003C68D1F804C09C435FEACC3C00D51C43AD
:100EB0003C60521C102AFFF42FAFBDE8F88F0000F1
:100EC000083C01404438024000300140000002402C
:100ED0000004024000080240000C024000100240E2
:100EE0000014024000180240001C02400069084043
:100EF00000D001207047426921EA02030A4043EA18
:100F00000241816170470AB1816170470904FBE7C2
:100F100001488068704700002000002070B5040080
:100F200025D094F83D00002520B984F83C50204697
:100F300000F0E0FB242084F83D002068016821F0E7
:100F4000010101602068016841F4004101602068EE
:100F5000016821F40041016000F086FD4D4A61689E
:100F6000914201D84C4900E04C49884201D201200D
:100F700070BD4B492368B0FBF1F15E6826F03F0677
:100F80000E435E606368934206D94FF496735943EB
:100F90004FF47A73B1FBF3F12368491C1E6A26F003
:100FA0003F06314319626168914210D84900401EE2
:100FB000B0FBF1F2521CC2F30B02042A01D204204E
:100FC00022E0B0FBF1F0401CC0F30B001CE0A26873
:100FD000F2B301EBC10303EB0116431EB3FBF6F3BF
:100FE0005B1C43F480431B0549D092B301EBC10263
:100FF00002EB0111401EB0FBF1F0401CC0F30B00EE
:1010000040F4804040F400402168CA694CF6FF7308
:101010009A431043C861D4E907100143206802686D
:1010200022F0C00211430160D4E9030101432068AA
:10103000826848F2FF339A4311438160D4E9050185
:1010400008432168CA6822F0FF021043C86001E02B
:101050000EE016E02068016841F00101016025649E
:10106000202084F83D00256384F83E50002070BDA8
:1010700001EB4106431EB3FBF6F35B1CB3E7012013
:10108000C2E701EB4101401EB0FBF1F0401CC0F390
:101090000B00B7E7A086010080841E0000093D0018
:1010A00040420F002DE9F84F1F4690468A460446FD
:1010B000DDF82890FFF72CFF054694F83D00202826
:1010C00071D11923012270492046009502F0EAF9F6
:1010D0000028F5D194F83C00012864D0012084F860
:1010E0003C0020680168C90703D1016841F0010193
:1010F00001602068016821F400610160222084F809
:101100003D00102084F83E0000262664C4F82480A8
:101110006785608D20855D48E0622B464A465146D2
:10112000204601F0FDFF002876D1208D584F68B190
:10113000012814D002282068016816D041F480618B
:10114000016020684169806900908EE020684169F3
:1011500081690091016841F40071016085E02068B7
:10116000016821F480610160F0E721F48061016091
:101170002068016841F40061E2E7032846D80128AD
:101180000AD0022810D04B4600223946204600954E
:1011900002F088F9C8BB25E02A464946204602F0FD
:1011A00027FA90BB54E06CE04B46002239462046BB
:1011B000009502F077F940BB2068016841F40071A6
:1011C000016020680069616A0870606A401C6062A2
:1011D000218D491E2185618D491E6185216809691E
:1011E000017039E02068016821F4806101602068A5
:1011F0000069616A0870606A401C6062208D401E50
:101200002085608D401E6085CEE705E02A46494670
:10121000204602F0EDF910B10120BDE8F88F2068FA
:101220000069616A0870606A401C6062208D401E1F
:1012300081B22185608D401E608520684269D2435D
:10124000520712D4032903D1016821F4806101609F
:1012500020680069616A0870606A401C6062208DC5
:10126000401E2085608D401E6085208D002884D121
:10127000202084F83D0084F83E6084F83C60002023
:10128000CBE70220C9E70000020010000000FFFFCA
:10129000040001002DE9F84F1F4690468A46044697
:1012A000DDF82890FFF734FE054694F83D0020282D
:1012B0007FD11923012240492046009502F0F2F81F
:1012C000002876D194F83C00012872D0012084F8DF
:1012D0003C0020680168C90703D1016841F00101A1
:1012E00001602068016821F400610160212084F818
:1012F0003D00102084F83E0000262664C4F82480B7
:101300006785608D20852D48E0622B464A46514610
:10131000204601F07BFF90B9206841698069009008
:1013200036E02A464946204602F09AF950B1206C30
:10133000042804D12068016841F400710160012093
:10134000BDE8F88F606A216800780861606A401C17
:101350006062618D491E6185218D491E89B221859A
:1013600022685369DB435B070BD451B100781061ED
:10137000606A401C6062608D401E6085208D401E4A
:1013800020852A464946204602F060F80028CED142
:10139000208D0028C5D154F83D0B016841F400713F
:1013A0000160202004F81E09E67766770020C7E771
:1013B000FFE70220C4E70000020010000000FFFF6A
:1013C0002DE9FF4F83B09A46DDE911879346044625
:1013D000DDF84090FFF79CFD054694F83D0020287D
:1013E00070D11923012274492046009502F05AF861
:1013F0000028F5D194F83C00012863D0012084F83E
:101400003C0020680168C90703D1016841F001016F
:1014100001602068016821F400610160222084F8E5
:101420003D00402084F83E0000262664C4F8249045
:10143000A4F82A80608D20856048E062CDE90075BF
:1014400053465A462046049901F02EFF002879D1D0
:10145000208DD0B1012821D00228206824D04169F4
:1014600080690090208D032866D801282BD054492C
:1014700002283B464FF00002009557D08846204690
:1014800002F010F800285DD13AE0206841698169D6
:101490000091016841F4007101607DE020680168FD
:1014A00021F480610160F0E7016821F4806101604E
:1014B0002068016841F40061016020684169806929
:1014C000009069E075E02A463946204602F090F81F
:1014D00088BB54E02068016841F400710160206815
:1014E0000069616A0870606A401C6062218D491E53
:1014F0002185618D491E618521680969017042E07D
:101500002068016821F48061016020680069616AD7
:101510000870606A401C6062208D401E2085608DCE
:10152000401E60853B46002241460095204601F062
:10153000B9FF00B9CEE705E02A463946204602F059
:1015400057F818B1012007B0BDE8F08F2068006996
:10155000616A0870606A401C6062208D401E81B222
:101560002185608D401E608520684269D243520704
:1015700012D4032903D1016821F48061016020683D
:101580000069616A0870606A401C6062208D401EBC
:101590002085608D401E6085208D00287FF462AF1D
:1015A000202084F83D0084F83E6084F83C600020F0
:1015B000C9E70220C7E70000020010000000FFFF9B
:1015C000040001002DE9FF4F83B09A46DDE9119731
:1015D00093460446DDF84080FFF79AFC054694F8F0
:1015E0003D0020287FD11923012240492046009543
:1015F00001F058FF002876D194F83C00012872D001
:10160000012084F83C0020680168C90703D1016803
:1016100041F0010101602068016821F4006101606E
:10162000212084F83D00402084F83E0000262664F6
:10163000C4F82480A4F82A90608D20852C48E062AC
:10164000CDE9007553465A462046049901F0AAFE9A
:1016500070B930E02A463946204602F001F858B108
:10166000206C042804D12068016841F400710160F5
:10167000012007B0BDE8F08F606A2168007808613A
:10168000606A401C6062218D491E89B22185628D8D
:10169000521E628522685369DB435B070BD469B134
:1016A00000781061606A401C6062208D401E2085B9
:1016B000608D401E6085208D0028CBD12A4639469A
:1016C000204601F0C3FE0028CAD154F83D0B016842
:1016D00041F400710160202004F81E09E677667766
:1016E0000020C6E7FFE70220C3E700000200100069
:1016F0000000FFFF10B586B0044614216846FEF7CF
:101700003CFE14492068884221D113480021026818
:1017100042F002020260006800F0020005904FF4FF
:10172000406000901220CDE90101032003900420C5
:10173000049069460948FFF7E1FA0748103001684C
:1017400041F480010160006800F48000059006B05B
:1017500010BD000000580040303802400004024034
:10176000024881680278114481607047200000209F
:101770000B4810B5016841F400710160016841F443
:1017800080610160016841F480710160032000F014
:101790009FF80F2000F006F800F050F8002010BD70
:1017A000003C024030B505461F4887B00024016860
:1017B00041F010010160006806A900F010000090DF
:1017C00001A800F031F90498A8B100F04DF94000EB
:1017D0001649174AB0FBF1F11648491E026040F263
:1017E000E732C0E90324C0E90114846100F0B8FBCA
:1017F000040003D015E000F037F9E9E70D4800F0E8
:101800005FFC04000DD1362000F034F8102D07D213
:1018100000222946362000F03BF80748056000E02A
:10182000012407B0204630BD4038024040420F003E
:101830000010004098090020240000200C4882B0CD
:10184000016841F480410160006800F4804000902C
:101850000748001F016841F08051016000680022C4
:1018600000F0805000900F21901E02B000F010B8E0
:1018700044380240002809DB00F01F02012191409A
:101880004009800000F1E020C0F80011704700001E
:10189000F0B40E4B1B680C46C3F30223C3F10705DB
:1018A000042D00D90425191D072901D2002300E0C9
:1018B000DB1E012606FA05F1491E214099409E4093
:1018C000761E16403143F0BC03F0FBBB0CED00E08C
:1018D000064900F0070208684FF6FF03184040EA87
:1018E0000220034A10430860704700000CED00E03E
:1018F0000000FA052DE9F0470E46050065D0DFF837
:101900001481D8F80000F7B200F00700B04207D207
:1019100088F80070D8F8000000F00700B04254D1F9
:1019200028683D4C810712D5400703D5206840F454
:10193000E05020602878000703D5206840F460401C
:1019400020602068A96820F0F00008432060287813
:10195000C0072DD0304968680839012812D0022804
:1019600013D0032811D00968890700292DDA2168CE
:1019700021F0030101432160FFF7CAFA814641F2D9
:10198000883A0EE009688903EFE709688901ECE706
:10199000FFF7BEFAA0EB0901514502D90320BDE8CB
:1019A000F0872068696800F00C00B0EB810FEFD180
:1019B000D8F80010404601F00701B14207D907707E
:1019C000006800F00700B04201D00120E7E7287866
:1019D000400705D52068E96820F4E05008432060FE
:1019E0002878000706D52068296920F4604040EA7D
:1019F000C100206000F058F82168084AC1F30311C3
:101A0000515CC8400649086006480068FFF7CAFEF6
:101A10000020C4E7003C024008380240407500083E
:101A20002C000020240000200F2202600C4A1368C2
:101A300003F003034360136803F0F003836013684B
:101A400003F4E053C36012684FF4E05303EAD20298
:101A500002610448006800F0070008607047000059
:101A600008380240003C0240044805490068096803
:101A7000044AC1F38221515CC84070472C00002009
:101A80000838024050750008044805490068096894
:101A9000044AC1F34231515CC84070472C00002019
:101AA0000838024050750008154810B5006810F05D
:101AB0000C02144813D01449042A0FD0082A0ED15E
:101AC0000F4C241F2268236802F03F025B0207D5F7
:101AD0002068C0F38810A0FB010106E0084610BD95
:101AE0002168C1F38811A1FB00010023FEF7CAFBA6
:101AF0002168C1F30141491C4900B0FBF1F010BD60
:101B0000083802400024F40000366E012DE9F84F39
:101B100004006ED02078DFF84C93C007A9F10405CB
:101B20004AD009F104000168C1F38101012908D0FC
:101B30000068C0F3810002280AD1D9F800004002F1
:101B400006D52868800337D560680028E1D033E0E7
:101B50006068B0F5803F10D0B0F5A02F286810D095
:101B600020F480302860286820F480202860606895
:101B7000A8B1FFF7CDF906460DE0286840F48030A3
:101B8000F4E740F480202860F7E700BFFFF7C0F9D2
:101B9000801B642873D828688003F7D50CE0FFF712
:101BA000B7F9064605E000BFFFF7B2F9801B6428CD
:101BB000F0D828688003F7D42078DFF8AC8280075B
:101BC0004FF0000A3ED5A748001D016811F00C0F28
:101BD00008D00068C0F3810002280BD1D9F80000BA
:101BE000400207D42868800716D5E068012800D194
:101BF00012E033E1E068B8B10120C8F80000FFF757
:101C000087F9064605E000BFFFF782F9801B02282E
:101C1000C0D828688007F7D52868216920F0F80027
:101C200040EAC10028600DE0C8F800A0FFF770F995
:101C3000064604E0FFF76CF9801B02281FD82868CD
:101C40008007F7D42078000722D5864F874861693E
:101C5000703771B101210160FFF75AF9064604E0BF
:101C6000FFF756F9801B022809D838688007F7D596
:101C70000EE0C0F800A0FFF74BF9064605E082E051
:101C8000FFF746F9801B02287DD838688007F7D413
:101C90002078400768D5DFF8CCB100270BF13C0B6A
:101CA000DBF80000C0000BD4DBF8001041F08051DD
:101CB000CBF80010DBF80000012700F08050009006
:101CC0006B4E3068C00510D4306840F480703060CE
:101CD000FFF71EF9009005E0FFF71AF90099401A86
:101CE000022850D83068C005F6D55E4EA0686C3624
:101CF00001280FD00528306810D020F00100306096
:101D0000306820F004003060A068B8B1FFF700F937
:101D100000900FE0306840F00100F4E740F004006C
:101D20003060F7E7FFF7F4F80099411A41F2883084
:101D3000814266D830688007F4D50EE0FFF7E8F8F6
:101D4000009007E0FFF7E4F80099411A41F288306B
:101D5000814256D830688007F4D42FB1DBF80010E8
:101D600021F08051CBF80010A069C8B33D49091D8E
:101D70000968C1F3810102294AD00228504607D0E0
:101D8000C8F8600000E03CE0FFF7C2F804463BE022
:101D90004746C8F86000FFF7BBF8064605E000BFFD
:101DA000FFF7B6F8801B02282BD828688001F7D4EB
:101DB000D4E907010843A16A2E4A490802EB014110
:101DC000626A41EA8211084394F82C1040EA0161EA
:101DD000C9F8001001203866FFF79AF8044606E0BB
:101DE0003EE000BFFFF794F8001B022809D82868DE
:101DF0008001F7D534E000BFFFF78AF8001B022806
:101E000002D90320BDE8F88F28688001F4D427E0C8
:101E10000128F7D0D9F80000E26900F4800191426E
:101E20001CD1226A00F03F01914217D147F6C071E0
:101E3000626A0140B1EB821F10D1A26A4FF0FF33FA
:101E400000F4403103EB5202B1EB024F06D194F89B
:101E50002C1000F07060B0EB016F01D00120D1E7D1
:101E60000020CFE70438024000004742800E47427E
:101E7000007000400000FFFF7047704710B590F8F9
:101E80003C20012A22D0012280F83C20CA688C68BC
:101E900022F4407222434C6822F4806222430C6890
:101EA00022F4006222430C6922F4805222434C69DE
:101EB00022F400522243C969002322F480420A43DB
:101EC00001684A6480F83C30002010BD022010BD3B
:101ED00070B590F83C20012A32D0012480F83C40B3
:101EE000022280F83D2003685A689D6822F070063F
:101EF0000A6832435A60134B02689A4214D0B2F116
:101F0000804F11D0104B9A420ED0104B9A420BD0FA
:101F10000F4B9A4208D00F4B9A4205D00E4B9A4273
:101F200002D00E4B9A4204D1496825F08003194330
:101F3000916080F83D40002180F83C10084670BD5B
:101F4000022070BD00000140000400400008004075
:101F5000000C004000040140004001400018004017
:101F600010B5040003D094F83D0010B107E0012043
:101F700010BD002084F83C00204600F01FF802202D
:101F800084F83D00211D206802F0A8FB012084F8A0
:101F9000460084F83E0084F83F0084F8400084F84E
:101FA000410084F8420084F8430084F8440084F837
:101FB000450084F83D00002010BD000008B502680F
:101FC00038483949824210D1086840F00100086061
:101FD0000868002200F00100009005211920FFF799
:101FE00057FC1920FFF746FC47E02F48001FB2F1CD
:101FF000804F0BD02D4B9A4210D1016841F0020165
:102000000160006800F00200009008BD016841F026
:1020100001010160006800F00100F5E7244B9A42DD
:102020000ED1016841F0040101600068002200F057
:102030000400009005211E20FFF72AFC1E2022E04C
:102040001C4B9A420ED1086840F4003008600868C2
:10205000002200F40030009005211920FFF718FC41
:10206000192010E0144B9A4211D1086840F48020E6
:102070000860086800F480200090002205211A20E2
:10208000FFF706FC1A20BDE80840FFF7F3BB0B4939
:102090008A42BAD1016841F480710160006800F49D
:1020A0008070B1E700000140443802400004004065
:1020B000000800400044014000480140002000406A
:1020C00090F83D10012901D001207047022180F8CD
:1020D0003D100168CA6842F00102CA6000681149F7
:1020E000884214D0B0F1804F11D00F4988420ED0F1
:1020F0000E4988420BD00E49884208D00D498842CB
:1021000005D00D49884202D00C49884204D181682B
:1021100001F00701062903D0016841F001010160C7
:10212000002070470000014000040040000800400B
:10213000000C004000040140004001400018004035
:1021400070B5044690F83C000025012817D0012600
:1021500084F83C60022084F83D002068826822F008
:10216000770222F47F4282600868502838D00DDC64
:1021700020284FD005DC90B3102811D14AE002206E
:1021800070BD302846D040280AD13BE060282FD0CF
:1021900070280DD0B0F5805F03D0B0F5005F12D08D
:1021A000012584F83D60002084F83C00284670BD7D
:1021B000CB68D1E90121206802F005FB2068816825
:1021C00041F0770109E0CB68D1E90121206802F0F4
:1021D000FAFA2068816841F480418160E1E719E002
:1021E000CA684968206802F0C3FB5021206806E0F5
:1021F000CA684968206802F0CCFB6021206802F0C0
:10220000ECFACEE7CA684968206802F0B1FB4021C9
:102210002068F4E7226801461046F0E770472DE990
:10222000F04104460068C66805694FF00007A90739
:1022300013D5B10711D5F91E01610120207720685F
:1022400080698007204602D0FFF7E8FF04E000F035
:1022500020F9204600F0E0F92777680716D57007C7
:1022600014D521686FF004000861022020772068EF
:10227000806910F4407F204602D0FFF7CFFF04E0D2
:1022800000F007F9204600F0C7F92777280715D591
:10229000300713D521686FF008000861042020770B
:1022A0002068C0698007204602D0FFF7B7FF04E02E
:1022B00000F0EFF8204600F0AFF92777E80616D5D2
:1022C000F00614D521686FF010000861082020770F
:1022D0002068C06910F4407F204602D0FFF79EFFBF
:1022E00004E000F0D6F8204600F096F92777E807DA
:1022F00008D0F00706D021686FF001000861204681
:1023000000F0F0F9280608D5300606D521686FF0F0
:10231000800008612046FFF7AFFD680608D570060B
:1023200006D521686FF040000861204600F014FADD
:10233000A8060AD5B00608D521686FF0200008610C
:102340002046BDE8F041FFF798BDBDE8F0810000F0
:10235000F0B587B0044614216846FEF70EF8324AFD
:102360002168002531480224012791420ED10168DD
:1023700041F0100101600068694600F0100005900E
:102380004FF4D4408DE83100294847E0294A2A4ECD
:10239000B1F1804F23D0294B994243D1016841F0DC
:1023A00001010160016801F001010591016841F03E
:1023B000020101600068694600F002000590C0203B
:1023C0008DE83100CDE903541046FEF797FC032059
:1023D0008DE83100CDE903546946304620E00168BC
:1023E00041F001010160016801F0010105910168FE
:1023F00041F0020101600068694600F002000590AA
:1024000048F20C008DE83100CDE903571046FEF785
:1024100075FC08208DE8310069463046CDE9035748
:10242000FEF76CFC07B0F0BD000001403038024000
:10243000001002400000024000040240000400407E
:1024400070B5044690F83C00002501280FD001200B
:1024500084F83C006AB1042A0FD0082A11D00C2A53
:1024600013D00125002084F83C00284670BD0220CE
:1024700070BD206802F0BAF9F4E7206802F0E6F9CE
:10248000F0E7206802F018FAECE7206802F048FA5A
:10249000E8E7704710B5040003D094F83D0010B190
:1024A00007E0012010BD002084F83C00204600F029
:1024B0001EF8022084F83D00211D206802F00EF96C
:1024C000012084F8460084F83E0084F83F0084F838
:1024D000400084F8410084F8420084F8430084F806
:1024E000440084F8450084F83D00002010BD70478A
:1024F00070B5044690F83C0000260D4601280FD028
:10250000012084F83C006AB1042A1DD0082A2FD08B
:102510000C2A3FD00126002084F83C00304670BDD4
:10252000022070BD206802F061F92068816941F0E5
:10253000080181612068816921F0040181612068BE
:1025400081692A69114311E0206802F07FF920684F
:10255000816941F4006181612068816921F48061B1
:102560008161206881692A6941EA02218161D2E79B
:10257000206802F0A1F92068C16941F00801C16139
:102580002068C16921F00401C1612068C1692A691C
:10259000114311E0206802F0C3F92068C16941F4D9
:1025A0000061C1612068C16921F48061C161206856
:1025B000C1692A6941EA0221C161ACE710B5040092
:1025C00003D094F83D0010B107E0012010BD0020B9
:1025D00084F83C00204600F01EF8022084F83D00FC
:1025E000211D206802F07AF8012084F8460084F862
:1025F0003E0084F83F0084F8400084F8410084F8ED
:10260000420084F8430084F8440084F8450084F8CC
:102610003D00002010BD70477047000010B5044613
:10262000022249B104290ED0082913D094F84100A0
:10263000012816D0012010BD94F83E000128F9D1E0
:1026400084F83E200FE094F83F000128F2D184F88E
:102650003F2008E094F840000128EBD184F84020A6
:1026600001E084F841200122206802F09FF8164919
:102670002068164A884201D0904203D1436C43F44B
:10268000004343642068884213D0B0F1804F10D0DB
:102690000F4988420DD00F4988420AD00E4988421E
:1026A00007D0904205D00D49884202D00C4988429B
:1026B00004D1816801F00701062903D0016841F0C7
:1026C00001010160002010BD000001400004014034
:1026D0000004004000080040000C004000400140A1
:1026E0000018004038B504460020009012492068C8
:1026F000884202D1694611480AE01149884202D154
:102700006946104804E0104988420ED10F486946D6
:10271000006804F0F6F9009838B10D494FF0805088
:102720000860BFF34F8FBFF36F8F0A49206888425C
:1027300001D1FFF715F838BD0048014058000020CE
:10274000002000405C000020004401403C010020CB
:1027500004ED00E0001000407047704710B50446DB
:102760000068406994F84110C0F3C010212911D1CC
:1027700080B12068143050E8001F21F0800140E84B
:102780000012002AF5D1A06B08B1FEF7D8F8204658
:1027900002F045FA2068406994F84210C0F38010B6
:1027A000222911D180B12068143050E8001F21F097
:1027B000400140E80012002AF5D1E06B08B1FEF7B5
:1027C000BEF8204602F004FA002010BD7047000059
:1027D000F8B5016804460868CA684B6910F00F0F25
:1027E0004FF0000559D003F0010602F4907737430B
:1027F00065D0C10705D0D10503D5616C41F0010159
:102800006164410705D5D90703D0616C41F002012D
:102810006164810705D5D90703D0616C41F00401DB
:102820006164010707D502F02001314303D0616CD8
:1028300041F008016164616C00293AD0800604D53A
:10284000900602D5204602F0F8F920684069616CD4
:10285000C0F38010090700D460B3204602F0B8F935
:1028600020684069400621D52068143050E8001FD8
:1028700021F0400140E80012002AF5D1E06BA8B138
:1028800072490165E06BFEF7A3F8002811D0E06BF8
:10289000016D01B0BDE8F040084783060FD59306EF
:1028A0000DD52046BDE8F84002F0C7B92046FFF735
:1028B0008DFFF8BD2046FFF789FF6564F8BD266BE4
:1028C0002023012E7ED1C6067CD5D6067AD508688F
:1028D0004868009048694FF0020640064DD5E26B0B
:1028E000106840684FF480770004000C3AD0A18D46
:1028F000814237D9E085D069B8422DD020680C30AC
:1029000050E8001F21F4807140E80012002AF5D140
:102910002068143050E8001F21F0010140E8001247
:10292000002AF5D12068143050E8001F21F0400142
:1029300040E80012002AF5D184F84230256320686F
:102940000C3050E8001F21F0100140E80012002A6E
:10295000F5D1E06BFDF7F3FF6663A08DE18D401AC2
:1029600081B206E0A18D8142A8D1D069B842A5D13B
:1029700066632046FFF7F1FEF8BDA08DE18D401A99
:1029800081B2E08D0028F7D00029F5D020680C3006
:1029900050E8002F22F4907240E80027002FF5D174
:1029A0002068143050E8002F22F0010240E8002790
:1029B000002FF5D184F84230256320680C3050E8B0
:1029C000002F00E006E022F0100240E80023002B78
:1029D000F3D1CDE705062BD5150629D594F841008E
:1029E0002128C9D1A068B0F5805F01D12069B0B1BC
:1029F000206A411C2162216800784860E08C401EFA
:102A00000004000CE084B7D12068C16821F0800187
:102A1000C1602068C16841F04001C160F8BD206A12
:102A20000088C0F308004860206A801C2062E5E747
:102A30004006F3D55006F1D5CA68204622F0400280
:102A4000CA6084F8413000F0EFFAF8BD894A000806
:102A500070B5040004D094F84100002510B106E0E0
:102A6000012070BD84F84050204600F023F8242057
:102A700084F841002068C16821F40051C1602046FB
:102A800002F080F92068016921F490410161206819
:102A9000416921F02A0141612068C16841F4005177
:102AA000C1606564202084F8410084F842006563B9
:102AB000002070BD2DE9F04F87B004461421684610
:102AC000FDF75BFCF848F74ED4F800C0F64A103822
:102AD0000327022108230025B4451BD1146844F4C0
:102AE00000241460126802F400220592026842F089
:102AF000010202600068CDE9007100F00100CDE93B
:102B00000430CDE902576946E848FEF7F7F807B008
:102B1000BDE8F08FDFF898834FF040094FF0006A6E
:102B20004FF48066C44563D1D2F800C04CF4801CD9
:102B3000C2F800C0126802F480120592026842F0E6
:102B400004020260026802F004020592026842F088
:102B5000080202600068884600F008000590B00096
:102B6000CDE900080DF1080C9B468CE8A0086946E9
:102B7000D048FEF7C3F80420CDE900080DF108089D
:102B8000694688E8A008CC48FEF7B8F8CC4FCB4897
:102B90003860C7E901A5C7E903567D61BD61FD61E4
:102BA0003D6238467D62FDF7F5FF08B1FDF7C5FED1
:102BB000E763BC63C24FC1486037A830C7F80890CC
:102BC000C7E903567D61BD61FD613D627D62C7E974
:102BD000000A3846FDF7DEFF08B1FDF7AEFEA76339
:102BE000002205213520BC63FEF752FE352066E049
:102BF000DFF8D082DFF8B0E24FF0070B0EF1040EE1
:102C0000C4455FD1DEF8003043F01003CEF8003049
:102C1000DEF8002002F010020592026842F0010284
:102C20000260006800F0010005904FF4C0608DE87C
:102C3000A30869469D48FEF761F8DFF88482A2493F
:102C400008F1C0084046C8F80010C0E901A5C0E975
:102C50000356C8F81450C8F81850C8F81C50C8F8E3
:102C600020505746C8F82450FDF794FF08B1FDF7EF
:102C700064FEC4F83C80C8F83840DFF850829249BE
:102C800040467831C0E90356C8F81450C8F81850C7
:102C9000C8F81C50C8F8205088E88202C8F82450B0
:102CA000FDF778FF08B1FDF748FEC4F83880002230
:102CB00005212520C8F83840FEF7EAFD2520FEF75B
:102CC000D9FD24E7DFF80882C4454AD1136843F4EC
:102CD00000331360126802F400320592026842F079
:102CE00008020260006800F00800059060208DE88E
:102CF000A30869467048FEF701F8744F6F486037C3
:102D000078303860C7E901A5C7E903567D61BD6128
:102D1000FD613D6238467D62FDF73CFF08B1FDF77D
:102D20000CFEE763BC63694F6448C0379030C7F856
:102D30000890C7E903567D61BD61FD613D627D621A
:102D4000C7E9000A3846FDF725FF08B1FDF7F5FD94
:102D5000A763002205212620BC63FEF799FD2620EB
:102D6000ADE7DFF87081C4454AD1136843F480238E
:102D70001360126802F480220592026842F0080291
:102D80000260006800F0080005904FF440708DE884
:102D9000A30869464848FDF7B1FF48484E4F183030
:102DA0003860C7E901A5C7E903567D61BD61FD61D2
:102DB0003D6238467D62FDF7EDFE08B1FDF7BDFDD1
:102DC000E763BC63444F3D4860374830C7F808901C
:102DD000C7E903567D61BD61FD613D627D62C7E962
:102DE000000A3846FDF7D6FE08B1FDF7A6FDA76339
:102DF000002205212720BC63FEF74AFD27205EE75D
:102E0000364A94457FF45DAFDEF800C04CF0200CEC
:102E1000CEF800C0DEF8002002F020020592026821
:102E200042F0040202600068049300F00400059080
:102E3000C0208DE8A30069461E48FDF75FFF264FBE
:102E40002148C037183838604FF02068C7E901853D
:102E5000C7E903567D61BD61FD613D6238467D6213
:102E6000FDF798FE08B1FDF768FDE763BC631C4FF2
:102E70001548C7E903567D61BD61FD613D62603063
:102E80007D6287E801033846FDF784FE08B1FDF74F
:102E900054FDA763002205214720BC63FEF7F8FC20
:102EA00047200CE7004C0040403802400000024040
:102EB0000050004000080240000C02401060024038
:102EC000D80500200010014040640240F8060020B0
:102ED0000044004000480040180800200014014051
:102EE0003809002090F84230202B01D00220704792
:102EF00021B11AB10023036301F0CABF012070475A
:102F0000704770472DE9F843044690F84100984611
:102F100016460D46202802D00220BDE8F88385B170
:102F20007EB100206064212084F84100FDF7F0FFAD
:102F3000A6848146E684A0682027B0F5805F02D091
:102F400003E00120E9E7206910B12E4600250EE0DC
:102F500000260CE08021204601F0EAFFA8B9C6B1A6
:102F600016F8010B21684860E08C401EE084E08C7C
:102F70004B464FF00002CDF800800028EAD14FF018
:102F80004001204601F0D4FF40B184F84170032095
:102F9000C3E735F8020BC0F30800E3E784F841709B
:102FA0000020BAE770B5044690F84100202801D00F
:102FB000022070BD01B3FAB12162A284E284002034
:102FC0006064212384F84130A56B144BEB63A56B3F
:102FD000134B2B64A56B134BEB64A36B1865206834
:102FE0001346A56B021D2846FDF73EFE30B11020AA
:102FF0006064202084F84100012070BD21686FF0DA
:10300000400008602068143050E8001F41F0800143
:1030100040E80012002AF5D1002070BD854B000861
:10302000C74B0008974A000800680349884202D14C
:103030000249002008707047001401403801002048
:1030400070470000294C0026651D04F1100704F1AB
:103050000A0864222549E07801F094FAE8B1217861
:10306000FF2901D06670F4E760782954401CC0B293
:1030700060700428EDD3287869780844A97808445A
:10308000E978C0B2814208D1B5F8010040BA00EE3B
:10309000100AB8EE400A87ED010A6422134920792C
:1030A00001F070FA0028D4D02278FF2A01D0A6704F
:1030B000CFE7A178404608F80120491CC9B2A170A9
:1030C0000429C6D30178427883781144194498F8CA
:1030D0000300C9B28842BCD1A87840EA022000EEC1
:1030E000100AB8EE400A87ED010AB2E7340000206A
:1030F000FEE701684A69D24352050FD46FF480623B
:103100004A61002140F8301F202242738173026916
:1031100042F00402026101730120704700207047F1
:103120002DE9F84F0446C06A1E4693460D462168B5
:103130000A6842F480620A60082807D0012805D096
:1031400010F5803F02D0206B112804D1206801685F
:1031500041F4807101604FF001195B46002249463D
:103160002046009600F09EF94FF4007840B12068A8
:103170000068C00501D5C4F840800320BDE8F88F81
:103180002069DFF884A0B0F5804F0FD006202168B9
:1031900000EAD51747F0F000086133465A460AF1B5
:1031A0000601204600F0C6F958BB03E0E8B240F043
:1031B00001001CE02168E8B2086133465A465146D6
:1031C000204600F0B7F9E0B92068416981690091B3
:1031D000016841F4807101605B4600224946204647
:1031E000009600F05FF90028C1D147F0F100216896
:1031F000086133465A465146204600F09BF90028A4
:10320000BCD00120BAE7000002000100F8B5044676
:10321000C06A1E460D461746082807D0012805D06B
:1032200010F5803F02D0206B122804D1206801687D
:1032300041F480710160134600224FF001112046D5
:10324000009600F02FF940B120680068C00502D553
:103250004FF4007020640320F8BD2069B0F5804F62
:103260000ED00620216800EAD51040F0F000086179
:1032700033463A460B49204600F05CF978B902E043
:1032800005F0FE0000E0E8B2216808610549334618
:103290003A46891F204600F04DF90028DCD0012075
:1032A000F8BD0000080001002DE9F84F0446006851
:1032B00089460B9D01689846174641F4806101607C
:1032C0002068016841F48071016000954FF0011B96
:1032D0000022594620460A9B00F0E4F84FF4007A99
:1032E00040B120680068C00501D5C4F840A00320A3
:1032F000BDE8F88F216809F0FE0008612B462849D7
:1033000020460A9A00F016F9F0BB206841698069EE
:1033100000902A4620460A9900F0A2F940B1206C9C
:1033200004283AD12068016841F40071016034E05A
:10333000FEB2B8F1010F09D02168380A08612A46A7
:1033400020460A9900F08CF90028E8D1206806612F
:103350002A4620460A9900F083F90028DFD1206828
:10336000016841F4807101600095002259462046B1
:103370000A9B00F097F80028B3D1216809F0FF00FC
:1033800040F00100086100E007E02B4604492046B8
:103390000A9A00F0CFF80028AAD00120A8E7000080
:1033A000020001002DE9F843044600680D46DDE9FE
:1033B000089701689846164641F4807101604B46B3
:1033C00000224FF001112046009700F06BF848B141
:1033D00020680068C00502D54FF400702064032007
:1033E000BDE8F883216805F0FE0008613B464A46C7
:1033F0001549204600F09EF888B920684169806927
:1034000000903A464946204600F02AF948B1206C1F
:10341000042804D12068016841F400710160012092
:10342000DEE7F5B2B8F1010F09D02168300A086172
:103430003A464946204600F013F90028E7D12068B3
:1034400005610020CCE700000200010070B51646BF
:103450000D4604461EE02046FFF74BFE08B1012052
:1034600070BD681C16D0FDF753FD801BA84200D824
:1034700085B920684069C04340070BD5002044F857
:10348000300F20216173A073216941F02001216177
:103490002073E4E720684069C0434007DBD4002084
:1034A00070BD00002DE9F047984617460D460446CA
:1034B000C1F30746DDF820902AE000BFB8F1FF3FD6
:1034C00026D0FDF725FDA0EB0901414502D8B8F152
:1034D000000F1DD12068012E16D0806925EA00005A
:1034E0000004000C12D00020B84211D1002044F892
:1034F000300F20216173A073216941F02001216107
:1035000020730120BDE8F0874069E7E70120EBE781
:103510002068012E0AD0806925EA00000004000C12
:1035200006D00020B842C9D00020EBE74069F3E79D
:103530000120F7E72DE9F047984616460D46044668
:103540004FF000094FF0200AC1F3074723E020683D
:103550004069C043400515D42068016841F40071FA
:10356000016021686FF480604861C4F8309084F88D
:103570003DA084F83E90216C41F00401216484F860
:103580003C9021E0701C06D0FDF7C2FCA0EB0800C7
:10359000B04203D816B1012F1FD021E02068012FBF
:1035A00015D0806925EA00000004000C18D000BF87
:1035B00044F8309F84F80DA084F80E90216941F002
:1035C0002001216184F80C900120BDE8F08740695A
:1035D00025EA00000004000CEAD12068406901E0FF
:1035E0002068806925EA00000004000CAFD1ECE7F8
:1035F0002DE9F041002590460E460446202728E09C
:103600004069C043C0060CD454F8301B6FF0100062
:10361000486144F810596777A577206A20622577BA
:1036200014E0FDF775FCA0EB0800B04200D886B9A5
:1036300020684069C04340060BD544F8305F67738B
:10364000A573206940F02000206125730120BDE8AA
:10365000F08120684169C9434906D1D40020F6E7CA
:1036600070B516460D4604461EE02046FFF741FDA4
:1036700008B1012070BD681C16D0FDF749FC801B05
:10368000A84200D885B920684069C04300060BD520
:10369000002044F8300F20216173A073216941F0AC
:1036A000200121612073E4E720684069C0430006DF
:1036B000DBD4002070BD00002DE9F04FB04B00229C
:1036C0005E781F789FEDAF0AAF4DDFF8C092DFED57
:1036D000B00A4AE1845C552C7ED100EB020A9AF8CC
:1036E00001B0ABF15104032C76D84FF0000C6446C6
:1036F00002EB0408641C10F80880E4B2C4440CF027
:10370000FF0C0A2CF4D39AF80A4064457ED1544643
:10371000DC46BBF1510F09D0BCF1520F35D0BCF1E2
:10372000530F5AD0BBF1540F55D1ECE0B4F902C09D
:1037300001EE10CAB8EEC11A61EE001AB3EE001A1B
:1037400021EE812ADFED931A22EE212A83ED012A50
:10375000B4F904C002EE10CAB8EEC22A22EE002A62
:1037600022EE012A22EE212A83ED022AB4F906C0B4
:1037700002EE10CAB8EEC22A22EE002A22EE011A88
:1037800021EE211A83ED031AD5E0B4F902C001EE4F
:1037900010CAB8EEC11A61EE001A9FED7F1A61EEF1
:1037A000811AC3ED041AB4F904C001EE90CAF8EE10
:1037B000E11A61EE801A61EE811AC3ED051ABAF9B9
:1037C000064001EE904AF8EEE11A61EE801A21EE11
:1037D000811A83ED061AB8E0D0E0B4F902C001EE18
:1037E00010CAB8EEC11A21EE001A9FED6C2A21EE24
:1037F000021A83ED0A1AB4F904C001EE90CAF8EE79
:10380000E11A61EE801A61EE821A00E0ABE0C3EDCE
:103810000B1AB4F906C002EE90CAF8EEE22A62EE84
:10382000802A22EE822A83ED0C2A94F809C09AF8A5
:103830000840B1EE422A44EA0C245C8083ED0C2A55
:10384000D3ED0E2A71EE622A12EE904AAC4202DDEE
:103850005C6E641C05E012EE904A4C455C6E01D92A
:10386000641E5C664FF4B47C04FB0CF402EE904AD8
:10387000F8EEE22A72EE812AC3ED112AD3ED0F2A67
:1038800071EEE22A12EE904AAC4202DD1C6E641C1C
:1038900005E012EE904A4C451C6E01D9641E1C6670
:1038A0004FF4B47C04FB0CF402EE904AF8EEE22AEA
:1038B00072EEA12AC3ED122AD3ED102A72EE622A0B
:1038C00012EE904AAC4202DD9C6E641E05E012EEE0
:1038D000904A4C459C6E01D9641C9C664FF4B47CA4
:1038E00004FB0CF402EE904A03F13804F8EEE22AED
:1038F00072EE822AC3ED132A84EC031A2FBB012730
:10390000C3ED142A21E0B4F902C001EE10CAB8EEEA
:10391000C11A83ED071AB4F904C001EE10CAB8EE5B
:10392000C11A83ED081AB4F906C001EE10CAB8EE48
:10393000C11A83ED091ABAF9084001EE104AB8EE2F
:10394000C11AC1EE201AC3ED0D1A66B993ED0A1A19
:10395000012683ED151A93ED0B1A83ED161A93EDDC
:103960000C1A83ED171A0B3292B202F10A048C4240
:10397000FFF4B0AE5E701F70BDE8F08F521CF3E72D
:10398000840000200000003800008743000087C347
:103990000000C842CDCC1C410000FA440000344372
:1039A000084D92B04FF0FF3422466946E86E03F0AE
:1039B000F7F80128F8D1BDF840106846FFF77CFE03
:1039C000F2E700008400002010B50022422105200B
:1039D00002F0F0FE0849C86608B9FCF7AEFF4022C5
:1039E00006490748FFF77EFA05480068C16841F0BC
:1039F0001001C16010BD000084000020270C0020D1
:103A000000050020314808B5016841F480010160DB
:103A1000016801F480010091016841F40011016026
:103A20000068002200F40010009005210B20FDF733
:103A30002FFF0B20FDF71EFF002205210C20FDF7B4
:103A400027FF0C20FDF716FF002205210E20FDF7B1
:103A50001FFF0E20FDF70EFF002205211020FDF7AD
:103A600017FF1020FDF706FF002205211120FDF7AA
:103A70000FFF1120FDF7FEFE002205212F20FDF78C
:103A800007FF2F20FDF7F6FE002205213920FDF764
:103A9000FFFE3920FDF7EEFE002205213A20FDF75A
:103AA000F7FE3A20FDF7E6FE002205214520FDF74E
:103AB000EFFE4520FDF7DEFE002205214620FDF742
:103AC000E7FEBDE808404620FDF7D4BE303802408E
:103AD00010B500F0FFFCFFF777FF00F0E9FC00F005
:103AE000B1FB204A0021204801F092FD1F4C1D4AE5
:103AF0000021A06124321E4801F08AFD194AE061CC
:103B0000903A00211B4801F083FD164AE060B43A68
:103B10000021194801F07CFD124AA060D83A00212A
:103B2000164801F075FD0F4A6060FC3A0021144808
:103B300001F06EFD0B4A20606C3A0021114801F043
:103B400067FD084A2061483A00210F4801F060FDF6
:103B5000044A6061243A00210C4801F059FD60617B
:103B600010BD0000F0740008BD45000800000020F2
:103B7000010800080D600008A1390008114500087F
:103B80003D66000849450008B9490008453000086D
:103B90002DE9F04786B014216846FCF7EEFB494852
:103BA0000025016841F010010160016801F0100179
:103BB0000591016841F004010160016801F0040110
:103BC0000591016841F080010160016801F0800108
:103BD0000591016841F001010160016801F00101F6
:103BE0000591016841F002010160016801F00201E4
:103BF0000591016841F0080101600068324E00F053
:103C000008000590002204213046FDF77CF92F4F73
:103C100001220A213846FDF776F9DFF8B480012247
:103C200020214046FDF76FF9DFF8A890002202211D
:103C30004846FDF768F9DFF8A0A00022C0215046F1
:103C4000FDF761F9042001248DE831006946304612
:103C50000395FDF753F805203601CDE900066946C6
:103C600002943846FDF74AF80A20CDE90004694677
:103C70003846CDE90245FDF741F81020CDE90006B0
:103C8000694602944046FDF739F82020CDE900044A
:103C900069464046CDE90245FDF730F802208DE83F
:103CA0003100694648460395FDF728F8C0208DE8A5
:103CB0003100694650460395FDF720F806B0BDE88F
:103CC000F087000030380240001002400008024037
:103CD00000000240000C0240000402400D4810B5F4
:103CE0000B4901600C49416000214FF48042816022
:103CF000C0E9031241618161C1610162FDF70EF902
:103D0000002803D0BDE81040FCF717BE10BD00002E
:103D100000580040DC010020A08601000C4810B5CE
:103D20000A49016040F23F614160002140F2E73200
:103D3000C0E9021201618161FEF712F9002803D087
:103D4000BDE81040FCF7F9BD10BD00000044014083
:103D5000500300200C4810B50A49016040F21F31A1
:103D60004160002140F2E732C0E902120161816145
:103D7000FEF7F6F8002803D0BDE81040FCF7DDBDE3
:103D800010BD000000480140980300200C4810B509
:103D90000A49016040F21F314160002140F2E732E0
:103DA000C0E9021201618161FEF7DAF8002803D050
:103DB000BDE81040FCF7C1BD10BD00000020004070
:103DC000E003002010B596B000240F9410941194D5
:103DD000129413941C2168461494FCF7CEFA202107
:103DE00007A8FCF7CAFA35483349016040F23F6141
:103DF000C0E9011440F2CF71C0E903144461846149
:103E0000FEF7AEF808B1FCF798FD4FF480500F9024
:103E10000FA92A48FEF794F908B1FCF78EFD274850
:103E2000FEF7CCFB08B1FCF788FD139413A92348D7
:103E30001494FEF74DF808B1FCF77FFD6020009068
:103E40009620CDE901040394049405940022694668
:103E50001A480694FEF74CFB08B1FCF76EFD0422ED
:103E600069461648FEF744FB08B1FCF766FD0822D8
:103E700069461248FEF73CFB08B1FCF75EFD0C22D8
:103E800069460E48FEF734FB08B1FCF756FD07946F
:103E9000089409944FF400500A94CDE90B4007A907
:103EA00006480E94FDF7EAFF08B1FCF746FD03480B
:103EB000FEF74EFA16B010BD00000140300200209F
:103EC00010B58EB000240794089409940A940B94BA
:103ED0001C2168460C94FCF750FA2B484FF08041A7
:103EE000016040F21F31C0E9011440F2CF71C0E916
:103EF00003148461FEF734F808B1FCF71EFD4FF49B
:103F00008050079007A92048FEF71AF908B1FCF77E
:103F100014FD1D48FEF752FB08B1FCF70EFD0B9493
:103F20000BA919480C94FDF7D3FF08B1FCF705FD68
:103F3000602000909620CDE90104002269461248D5
:103F40000494FEF7D5FA08B1FCF7F7FC04226946A1
:103F50000D48FEF7CDFA08B1FCF7EFFC08226946E0
:103F60000948FEF7C5FA08B1FCF7E7FC0C226946E0
:103F70000548FEF7BDFA08B1FCF7DFFC0248FEF782
:103F8000E7F90EB010BD00007802002010B58EB029
:103F900000240794089409940A940B941C21684601
:103FA0000C94FCF7EAF92C482A49016040F21F31D1
:103FB000C0E9011440F2CF71C0E903148461FDF738
:103FC000CFFF08B1FCF7B9FC4FF48050079007A968
:103FD0002148FEF7B5F808B1FCF7AFFC1E48FEF724
:103FE000EDFA08B1FCF7A9FC0B940BA91A480C9444
:103FF000FDF76EFF08B1FCF7A0FC60200090962052
:10400000CDE901040022694613480494FEF770FAD2
:1040100008B1FCF792FC042269460F48FEF768FAE3
:1040200008B1FCF78AFC082269460B48FEF760FAE3
:1040300008B1FCF782FC0C22694607480194FEF7A0
:1040400057FA08B1FCF779FC0348FEF781F90EB086
:1040500010BD000000040040C002002010B58EB06A
:1040600000240794089409940A940B941C21684630
:104070000C94FCF782F91D481B4901604F21C0E9EF
:1040800001144FF6FF71C0E903148461FDF768FF66
:1040900008B1FCF752FC4FF48050079007A9134871
:1040A000FEF74EF808B1FCF748FC1048FEF7F2F9AD
:1040B00008B1FCF742FC0B940BA90C480C94FDF7DB
:1040C00007FF08B1FCF739FC009401940294002228
:1040D000694606480494FEF7B3F9002801D0FCF7BE
:1040E0002CFC0EB010BD00000008004008030020AA
:1040F0000C4810B50A4901604FF4E13141600021DC
:1041000081600C22C160C0E904128161C161FEF7C7
:104110009FFC002803D0BDE81040FCF70EBC10BD8A
:10412000004C0040280400200C4810B50A490160EA
:104130004FF4E1314160002181600C22C160C0E98F
:1041400004128161C161FEF783FC002803D0BDE841
:104150001040FCF7F2BB10BD00500040700400207E
:104160000C4810B50A4901604FF4E131416000216B
:1041700081600C22C160C0E904128161C161FEF757
:1041800067FC002803D0BDE81040FCF7D6BB10BD8B
:1041900000100140B80400200C4810B50A49016025
:1041A0004FF416514160002181600C22C160C0E9CA
:1041B00004128161C161FEF74BFC002803D0BDE809
:1041C0001040FCF7BABB10BD0044004000050020C1
:1041D0000C4810B50A4901604FF4E13141600021FB
:1041E00081600C22C160C0E904128161C161FEF7E7
:1041F0002FFC002803D0BDE81040FCF79EBB10BD8B
:1042000000480040480500200C4810B50A490160EC
:104210004FF4E1314160002181600C22C160C0E9AE
:1042200004128161C161FEF713FC002803D0BDE8D0
:104230001040FCF782BB10BD001401409005002027
:10424000FEE7000010B503222DED048B00210120B4
:1042500002F0B0FA28490860F0B39FED288ADFED3C
:10426000288A9FED289AB0EE482AF0EE681AB0EE40
:10427000491AF6EE000AB0EE000A234800F008F9E9
:104280002148B0EE482AF0EE681AB0EE491AF6EE70
:10429000000AB0EE000A1C3000F0FAF81A48B0EE3E
:1042A000482AF0EE681AB0EE491AF6EE000AB0EEAF
:1042B000000A543000F0ECF81348B0EE482AF0EE53
:1042C000681AB0EE491AF6EE000AB0EE000A38306D
:1042D00000F0DEF80D4800E005E0BDEC048BBDE821
:1042E0001040FDF7EDBE502080F31188BFF34F8FD3
:1042F000BFF36F8FFEE700003C0100200000C842C2
:104300000000C8C2CDCCCC3DD40C0020500300200E
:104310002DE9F84F594908680269920775D56FF081
:104320000202884602610868D0F824900024544FA5
:10433000A246544E37E000BF04EB840000EBC400FB
:1043400007EB8005287F01282CD1A9882868FCF775
:10435000CDFD012800D00020A97F8840697F084357
:104360006877A87F401CC0B2A877082815D385F8C5
:104370001CA0CDF800A000236A4605F11D01686964
:1043800002F060FB009868B13F494FF08050086030
:10439000BFF34F8FBFF36F8F04E02969D8F8000097
:1043A00049444163641C30788442C5DB00255FE0EA
:1043B00005EB850000EBC50007EB8004207F022899
:1043C00055D194F83200401CC0B284F8320008285D
:1043D0000ED294F8311021FA00F111F0010F02D041
:1043E0004FF0010201E04FF00002A189A06804E053
:1043F0000CD1A1894FF00102A068FCF784FD21696E
:10440000D8F800004944416331E034E0002211460D
:10441000A06902F061FC94F82F1094F830008142FA
:1044200019D004F11F02411C84F83010805C84F81C
:104430003100C8B2102801D384F830A084F832A02B
:10444000A1890022A068FCF75EFD2169D8F8000070
:104450004944416307E084F81CA0D8F80000C16813
:1044600021F00201C1600021A06902F04AFB6D1C2D
:10447000307885429CDBBDE8F88F000008030020FF
:10448000D40D00205801002004ED00E0FEE70000FC
:1044900080EC030A9FED050A80ED030A80ED040A13
:1044A000C0ED051A80ED062A7047000000000000EC
:1044B00010B5802205490648FEF714FD044800683F
:1044C000C16841F01001C16010BD0000540D002012
:1044D0002804002010B501210C020022204602F021
:1044E00069F90849086008B9FCF727FA2246064925
:1044F0000648FEF7F7FC05480068C16841F0100166
:10450000C16010BD30000020E009002048050020F7
:10451000A12000F0F5FD322001F062FFA22000F0A2
:10452000EFFD322001F05CFFA32000F0E9FD322016
:1045300001F056FFA42000F0E3FD322001F050FF0F
:10454000642001F04DFFE3E72DED028B4FF47A7507
:104550009FED0A8A0A4C00BFFCF7E0F818B184ED21
:10456000008A84ED018AFBF7D7FF18B184ED038A36
:1045700084ED028A284601F033FFEDE700000000D9
:10458000F40000200B4B10B51B78984210D24FF46A
:104590007A735A43B2FBF3F200EB800303EBC000E3
:1045A000054B03EB8000406902F0FAFA012800D0C5
:1045B000002010BD58010020D40D0020012000F083
:1045C000EBFFFBE710B54FF0E020006902F020FDA3
:1045D000012803D0BDE8104002F0D6B810BD00009D
:1045E00030B593B030216846FBF7C7FE14210CA804
:1045F000FBF7C3FE1D480025016841F080510160B2
:10460000006800F0805011901948016841F4804121
:1046100001600068022400F48040119001200090A5
:10462000000401908001CDE906400C200890A020F4
:10463000CDE9090404200B906846FDF767FA08B13C
:1046400072B6FEE70CA90F2081E831004FF4A050AC
:104650000F904FF48050109005210CA8FDF74AF9F7
:10466000002801D072B6FEE713B030BD40380240DA
:10467000007000400248016841F470010160704719
:1046800088ED00E010B50448FDF7C9FDBDE8104015
:104690000248FDF7C4BD000030020020980300204E
:1046A00010B50448FDF7BBFDBDE810400248FDF71A
:1046B000B6BD0000300200205003002010B5FFF707
:1046C00027FEBDE810400148FDF7A9BD0803002002
:1046D0000148FDF7A4BD000098090020F0B502686C
:1046E000274B284D284E294F294C4FF0804C98429B
:1046F00009D0604507D0A84205D0B04203D0B842E7
:1047000001D0A04204D122F0700E4A6842EA0E02A3
:1047100098421BD0604519D0A84217D0B04215D09E
:10472000B84213D0A04211D01A4DA8420ED01A4D53
:10473000A8420BD0194DA84208D0194DA84205D067
:10474000184DA84202D0184DA84203D122F440755A
:10475000CA682A434D6922F080022A438D68C562E7
:104760000D688562984201D0A04201D109690163B8
:10477000016841F004010160012141610260F0BD66
:10478000000001400004004000080040000C004010
:104790000004014000400140004401400048014045
:1047A00000180040001C00400020004010B501F03F
:1047B0001F030121046A99408C430462016A9A40F4
:1047C0001143016210BD10B5846842EA032224F44B
:1047D0007F440A432243826010BD826822F0700247
:1047E0000A4342F00701816070470000F0B5036A98
:1047F000026A22F00102026242688469124E24F0C9
:1048000073050C682C4323F002058B682B430D4D78
:10481000A84201D0B04205D123F00807CB683B4342
:1048200023F00403A84201D0B04205D14D6922F41F
:10483000407215438A692A43426084614968416332
:104840000362F0BD0000014000040140F0B5026ABF
:10485000036A23F010030362436884690D6824F43B
:10486000E64444EA05248D6822F0200242EA05125B
:104870000F4D104EA84201D0B04206D1CF6822F0B1
:10488000800242EA071222F04002A84201D0B04260
:1048900007D14D6923F4406343EA85038D6943EAF8
:1048A000850343608461496881630262F0BD000052
:1048B0000000014000040140F0B5026A036A23F4DD
:1048C000807303624368C46922F4007224F07305A4
:1048D0000C68124E2C438D6842EA05220E4DA84208
:1048E00001D0B04206D1CF6822F4006242EA07222A
:1048F00022F48062A84201D0B04207D14D6923F46E
:10490000405343EA05138D6943EA05134360C461CC
:104910004968C1630262F0BD00000140000401402B
:1049200030B5046A026A22F4805202624268C369A6
:104930000D6823F4E64343EA05238D6824F400540C
:1049400044EA0534084DA84202D0084DA84204D1DB
:104950004D6922F4804242EA85124260C36149688F
:104960000164046230BD0000000001400004014009
:1049700010B5036A046A24F001040462846924F017
:10498000F00444EA021423F00A020A43846102623A
:1049900010BD10B5036A046A24F01004046284692F
:1049A00023F0A00324F4704444EA023243EA0111E4
:1049B0008261016210BD0000114D4FF4FA740022B3
:1049C00002212846FCF79FFA0A2001F009FD012286
:1049D00002212846FCF797FA204601F001FD00224B
:1049E00008212846FCF78FFA0A2001F0F9FC012281
:1049F00008212846FCF787FA204601F0F1FCDEE7A3
:104A00000008024030B51C4CC3B020680068C006E6
:104A10002BD5206800250168406842902046FDF7AC
:104A20009DFEE06B006840681449C0F5807082B25A
:104A3000ADF800216846FBF787FC1148419500233B
:104A400041AA6946006801F0FDFF419838B10D495F
:104A50004FF080500860BFF34F8FBFF36F8F4FF45C
:104A6000807206490448FEF73DFA43B00248BDE8AB
:104A70003040FDF7ADBE000070040020270B002081
:104A80007800002004ED00E010B5806B0021C185A6
:104A9000FDF79CFE10BD70B5846B2068406994F8EA
:104AA0004110C0F3C0100025212904D118B1E584BC
:104AB000204600F0B4F82068406994F84210C0F332
:104AC0008010222904D118B1E585204600F080F835
:104AD000606C40F0100060642046FDF777FE70BD0A
:104AE00010B50146806B096809684FF00002C905DE
:104AF0002ED4C28501680C3151E8003F23F4807345
:104B000041E80034002CF5D10168143151E8003F30
:104B100023F0010341E80034002CF5D10168143181
:104B200051E8003F23F0400341E80034002CF5D168
:104B3000202180F84210016B012909D101680C3154
:104B400051E8003F23F0100341E80034002CF5D178
:104B50004263016B012902D0FEF7D2F910BD818DAD
:104B6000FDF7FBFD10BD10B5806B01214163016BAA
:104B7000012902D0FEF7C5F910BD818D4908FDF766
:104B8000ECFD10BD10B50146806B09680968C905C8
:104B900016D40021C1840168143151E8002F22F09D
:104BA000800241E80023002BF5D101680C3151E867
:104BB000002F42F0400241E80023002BF5D110BD48
:104BC000FEF732FA10BD10B5806BFEF739FA10BD52
:104BD00001680C3151E8002F22F4907241E8002363
:104BE000002BF5D10168143151E8002F22F00102A9
:104BF00041E80023002BF5D1016B012909D101689F
:104C00000C3151E8002F22F0100241E80023002B64
:104C1000F5D1202180F8421000210163704701681E
:104C20000C3151E8002F22F0C00241E80023002B94
:104C3000F5D1202180F84110704708B590F8421056
:104C4000222901D0022008BD82684FF480539A4285
:104C500001D1016921B1816A9A421BD04AB10AE0AF
:104C60000268816A5268C2F308020A80816A891C5C
:104C700008E0026972B10268526802F07F020A70AD
:104C8000816A491C8162C18D491E0904090CC185D4
:104C900003D01BE002685268F1E70168CA6822F09D
:104CA0002002CA600168CA6822F48072CA60016882
:104CB0004A6922F001024A61202180F84210002155
:104CC0004163026B012A03D0FEF71AF9002008BDE8
:104CD000016301680C3151E8002F22F0100241E815
:104CE0000023002BF5D101680A68D20602D50A68B4
:104CF00049680091818DFDF730FDE7E70FB42DE99C
:104D0000F041DFF8748098F800009DF81870401E9C
:104D1000384227D0142F25D807AD184C00260CE0B8
:104D2000ED1D25F00705B5EC020B51EC100BFBF760
:104D300042FB761C44F8040BF6B2BE42F0D30020CE
:104D400004F8010B0D4904F8010B802004F8020B54
:104D50007F2004F8010C0948201A82B20848FEF7A7
:104D600021F920B10020BDE8F0015DF814FB01211C
:104D700088F800100846F6E738010020670C00208C
:104D80009005002070B5044600680169E26821F4CE
:104D90004051114301612169A068E26908436169DA
:104DA000114308432168CA6849F20C639A430243DD
:104DB000CA6020684169A26921F4407111434161D0
:104DC00031492068884202D03049884202D1FCF73C
:104DD0005BFE01E0FCF748FEE2690023192164252F
:104DE0003226B2F5004F626828D0A0FB0101930F74
:104DF0009200FBF747FA0146B0FBF5F06FF018029E
:104E0000504301EB800006EB0010B0FBF5F000F022
:104E1000F002B1FBF5F002EB0012B1FBF5F06FF020
:104E20001803584301EB800006EB0010B0FBF5F0CF
:104E300000F00F0021681044886070BDA0FB0101E4
:104E400092185B41FBF71EFA0146B0FBF5F0020138
:104E5000B1FBF5F06FF01803584301EB800006EB4F
:104E6000C000B0FBF5F000F0F80002EB4002B1FB2F
:104E7000F5F0584301EB800006EBC000B0FBF5F005
:104E800000F00700D6E700000010014000140140C8
:104E900038B5816204468285002013466064222270
:104EA00084F84220E56B1F4AEA63E56B1E4A2A64D8
:104EB000E56B1E4AEA64E26B10650A462168E06B06
:104EC000091DFBF7D1FE30B110206064202084F86A
:104ED0004200012038BD20680168406800902069C8
:104EE00048B120680C3050E8001F41F4807140E860
:104EF0000012002AF5D12068143050E8001F41F05C
:104F0000010140E80012002AF5D12068143050E871
:104F1000001F41F0400140E80012002AF5D10020B6
:104F200038BD0000E14A0008674B0008974A0008B6
:104F30002DE9F843984617460D460446089E24E09E
:104F4000701C22D0FBF7E4FFA0EB0800B0421AD897
:104F5000CEB12068C168490717D5802D15D0402DE6
:104F600013D00168C94309070FD4016800254068C0
:104F700000902046FFF72CFE0820606484F8405023
:104F80000120BDE8F8830320FBE72068006835EACC
:104F9000000004D00020B842D2D00020F1E7012068
:104FA000F9E700000148FDF713BC0000B804002039
:104FB00030B51B4C93B020680068C0062AD5206825
:104FC00000250168406812902046FDF7C7FBE06BA2
:104FD000006840681349C0F1400082B2ADF840203B
:104FE0006846FBF7B1F910481195002311AA6946EC
:104FF000006801F027FD119838B10C494FF080503E
:105000000860BFF34F8FBFF36F8F402205490448FC
:10501000FDF768FF13B00248BDE83040FDF7D8BB8C
:1050200000050020270C0020F000002004ED00E027
:1050300030B51C4CC3B020680068C0062BD5206872
:1050400000250168406842902046FDF787FBE06B31
:10505000006840681449C0F5807082B2ADF8002144
:105060006846FBF771F911484195002341AA69464A
:10507000006801F0E7FC419838B10D494FF08050CD
:105080000860BFF34F8FBFF36F8F4FF480720649F4
:105090000448FDF727FF43B00248BDE83040FDF764
:1050A00097BB000048050020E009002030000020E8
:1050B00004ED00E00148FDF78BBB000090050020E7
:1050C000FEE70907090E002804DB00F1E02080F864
:1050D0000014704700F00F0000F1E02080F8141D6C
:1050E000704702E008C8121F08C1002AFAD17047B1
:1050F0007047002001E001C1121F002AFBD1704758
:1051000010B598B00446342101A8FBF736F9FF200A
:105110008DF804000EA9A12C54D0A22C7ED0A32C73
:105120007DD0A42C4CD15C4801AB028800EE102A43
:10513000B8EE400A8DED0E0A428800EE102AB8EE55
:10514000400A8DED0F0A828800EE102AB8EE400A60
:105150008DED100AC28800EE102AB8EE400A8DEDDF
:10516000110A028900EE102AB8EE400A8DED120AEB
:10517000428900EE102AB8EE400A8DED130A8289AA
:1051800000EE102AB8EE400A8DED140AC28900EE36
:10519000102AA422B8EE400A8DED150A008A00EE0E
:1051A000100AB8EE400A8DED160A0091242109205C
:1051B00000F096F86423282201A93848FDF7A2FEE2
:1051C00018B010BD364890ED000A36488DED0E0A35
:1051D00090ED000A34488DED0F0A90ED000A334837
:1051E0008DED100A90ED000A31488DED110A90ED19
:1051F000000A30488DED120A90ED000A2E488DED20
:10520000130A90ED000A2D488DED140A90ED000A66
:105210002B488DED150A90ED000A01E006E01CE038
:105220008DED160A01ABA1220091BFE7254801AB25
:10523000A22290ED000A24488DED0E0A90ED000A9E
:1052400022488DED0F0A90ED000A8DED100A90EDC9
:10525000010A8DED110A009116E01D4801ABA32251
:1052600090ED000A1B488DED0E0A90ED000A1A48D9
:105270008DED0F0A90ED000A18488DED100A90EDA3
:10528000000A8DED110A00911021042000F028F889
:105290006423142290E70000E00A00204805002063
:1052A000880000208C000020900000209400002046
:1052B000980000209C000020AC000020B0000020DE
:1052C000B4000020500100205401002044000020C0
:1052D000F8000020F4000020FC0000200001002065
:1052E000F0B50025059F5A7099702C460EE00322F8
:1052F00007EB840606EB020C02EB840E1CF803CCD1
:10530000521C03F80EC0072AF4DB641C8442EEDB57
:105310000120CA1C03E01C5C401C2C44E5B29042F6
:10532000F9DB5818C570F0BDFCF722FAFFF758F901
:10533000FEF72EFCFEF766FBFEF712FFFEF7D8FE27
:10534000FEF7F2FEFEF728FFFEF742FFFEF75CFFD6
:10535000FEF7C4FCFEF736FDFEF7B2FDFEF716FEC3
:10536000FEF7F8FCFEF712FDFEF7D8FCFEF776FE1E
:1053700000F068F840F2DC520121032000F00CFE3E
:105380004FF47A720221032000F006FE012202216E
:105390000448FBF7B8FD00F00DF9FEF799FB00F0AB
:1053A0001BF9FEE7000C0240254B00B5B3F90000E5
:1053B00000EE100A0320B8EEC00A00F0A5F8B3F919
:1053C000020000EE100A0520B8EEC00A00F09CF8BA
:1053D000B3F9040000EE100A0420B8EEC00A00F091
:1053E00093F8B3F9060000EE100A0120B8EEC00AE7
:1053F00000F08AF8B3F9080000EE100A0720B8EEB2
:10540000C00A00F081F8B3F90A0000EE100A062085
:10541000B8EEC00A00F078F8B3F90C0000EE100AFC
:105420000820B8EEC00A00F06FF8B3F90E005DF87E
:1054300004EB00EE100A0220B8EEC00A00F064B8D7
:10544000440D002010B52DED028B00F06BFD9FED9B
:105450002C8A0024641CE0B2B0EE480A00F054F834
:10546000E4B2082CF6D342F21070FBF735FCDFED06
:10547000258A0120B0EE680A00F046F841F288342F
:105480002046FBF729FCB0EE480A012000F03CF86A
:10549000B0EE680A022000F037F82046FBF71CFC4B
:1054A000B0EE480A022000F02FF8B0EE680A0320A0
:1054B00000F02AF82046FBF70FFCB0EE480A032064
:1054C00000F022F8B0EE680A042000F01DF8204633
:1054D000FBF702FCB0EE480A042000F015F84FF488
:1054E000FA60FBF7F9FB0024641CE0B2B0EE480A56
:1054F00000F00AF8E4B2082CF6D3BDEC028B10BD24
:105500000000000000003443DFED1F0AB4EEE00AA3
:10551000F1EE10FA01DDB0EE600ADFED1C0AB4EE28
:10552000E00AF1EE10FA01D2B0EE600ADFED180ADF
:10553000092830EE201AB3EE040AC1EE000A9FEDEE
:10554000150A30EE800ABCEEC00A10EE101A8AB2BC
:1055500019D2DFE800F01805070A0C101214160023
:10556000042100E00321012003E0042100E00321E5
:10557000022000F011BD0221F5E70121F3E702212D
:10558000F6E70121F4E7704700001644000016C456
:1055900000007A440000C84210B5EFF3058111B154
:1055A0006FF0050403E0002408B100F019FF204665
:1055B00010BD0000EFF3058010B16FF005007047DB
:1055C0000448016811B14FF0FF30704701210160BC
:1055D00000207047AC01002010B5EFF3058010B13A
:1055E0006FF0050010BD08480168012902D04FF096
:1055F000FF3010BD054A002182F8141D0221016010
:1056000000F09EFF002010BDAC0100200BE000E088
:105610002DE9FF414FEA01034FF00005EFF305814B
:10562000039549BB40B38027182100244AB316686C
:1056300006B1344696691EB13146761E382E02D226
:105640001679F60703D0002004B0BDE8F081566952
:1056500006B1B708D2F808C0BCF1000F0DD0D5686C
:105660005C2D18D312693AB136B18DE806103A466E
:10567000214601F0A2FC03900DE0D6685EB91269E4
:105680004AB903AACDE90012BAB2214601F068FC7A
:10569000012800D003950398D6E700002DE9F041DA
:1056A000134C0F460546E6682068001D00F064FDB7
:1056B000681C07D137B12168BDE8F0410D48091DCC
:1056C00000F0AABD20683544B5424560216805D286
:1056D000A06BBDE8F041091D00F086BD606B091D9F
:1056E00000F082FDA06A854200D2A562BDE8F0818B
:1056F0005C010020941300202DE9F041054600F0E4
:1057000097FD2D4CA068401CA06020682B4F10B165
:10571000606930B32BE02560A068012827D10026FE
:1057200006EB860007EB800000F050FD761C382E5B
:10573000F6D3234800F04AFD2148143000F046FD1E
:105740001F48283000F042FD1D483C3000F03EFD6F
:105750001B48503000F03AFD194860631430A063D4
:1057600005E02068E96AC06A884200D82560606A5E
:10577000401C60626864E86A2169884200D920613F
:1057800000EB800007EB8000291D00F045FD00F0D4
:105790006FFD606900280CD02068E96AC06A884201
:1057A00007D208494FF080500860BFF34F8FBFF316
:1057B0006F8FBDE8F08100005C010020E40E002046
:1057C0004413002004ED00E038B500F031FD104C2A
:1057D0002068C8B90F4800F0F9FC0E48143000F0FA
:1057E000F5FC0C48E060143020610A4B0020F03BCF
:1057F000009003F1500210210A2000F0FCFF20600D
:1058000010B105A100F0B6FDBDE8384000F030BD94
:105810009801002098140020546D7251000000007F
:1058200030B4026C0B46002A0BD0C1681144C16031
:105830008468A14201D30168C16030BC1846FAF700
:1058400083BD30BC70472DE9F041856B1746044697
:105850000026026C82B1C7B1E068FAF775FDE16815
:10586000206C091AE1602268914202D2A168081AEC
:10587000E060022F16D017E02068A8B9A06801F0F8
:105880003FFC06460020A0600EE06068FAF75CFD71
:10589000216C606808446060A168884204D3206875
:1058A000606001E005B16D1E6D1CA5633046BDE86A
:1058B000F08110B5044690F8590058B101280CD079
:1058C00002280FD0502080F31188BFF34F8FBFF311
:1058D0006F8FFEE7206B00F0DFFC2046BDE8104034
:1058E00000F0DABC10BD000010484FF470514207C0
:1058F00006D0C01D0D4920F00700411AC1F57051B6
:105900000B4A00230144C2E900030839183A21F088
:10591000070111604B600B600B1AC0E90013936024
:105920004FF000405360506170470000781B00202A
:10593000C8010020144E154CA6F29C474FF0805829
:10594000DFF84C9012E000BF00F072FCF068C56810
:10595000281D00F011FCA068401EA0606068401E79
:10596000606000F085FC2846FFF7A3FF6068002810
:10597000EAD138680128F9D9C9F80080BFF34F8F00
:10598000BFF36F8FF2E70000801300205C0100205E
:1059900004ED00E070B51D46049C51B1C4F8002030
:1059A000C4E90F010121204600F058FF84F84C5053
:1059B00070BD2460F4E700002DE9F05F8846DDE962
:1059C0000B941546834691009A460A9EA522206BA9
:1059D000FAF7CCFC6FF00301206B01EB8501084462
:1059E00020F00707780707D0502080F31188BFF315
:1059F0004F8FBFF36F8FFEE70025B8F1000F0FD078
:105A00005FF00000221818F8001082F8341018F81F
:105A1000001011B1401C1028F4D384F8435001E069
:105A200084F83450382E00D33726E662C4E9136573
:105A3000201D00F0D6FB04F1180000F0D2FB246119
:105A4000C6F138006462A061656584F8585052461A
:105A50005946384600F0C4FA2060B9F1000F01D071
:105A6000C9F80040BDE8F09F30B5114900E011468B
:105A70000A688242FBD34B685C18844203D14068B9
:105A800018444860084643681C18944209D1084CE1
:105A9000183C2468A24209D052681A4442600A683D
:105AA00012680260814200D0086030BD0460F9E7EE
:105AB000C801002070B5002441600B4D0061914287
:105AC00006D8D11A8269914206D2011D286907E0E1
:105AD0009A4203D2994201D3012403E0011DE868F0
